{
  "contractName": "BlockRewardAuRaCoins",
  "abi": [
    {
      "constant": true,
      "inputs": [
        {
          "name": "",
          "type": "uint256"
        },
        {
          "name": "",
          "type": "uint256"
        }
      ],
      "name": "snapshotPoolTotalStakeAmount",
      "outputs": [
        {
          "name": "",
          "type": "uint256"
        }
      ],
      "payable": false,
      "stateMutability": "view",
      "type": "function"
    },
    {
      "constant": false,
      "inputs": [
        {
          "name": "_bridgesAllowed",
          "type": "address[]"
        }
      ],
      "name": "setErcToNativeBridgesAllowed",
      "outputs": [],
      "payable": false,
      "stateMutability": "nonpayable",
      "type": "function"
    },
    {
      "constant": true,
      "inputs": [
        {
          "name": "",
          "type": "uint256"
        },
        {
          "name": "",
          "type": "uint256"
        }
      ],
      "name": "epochPoolNativeReward",
      "outputs": [
        {
          "name": "",
          "type": "uint256"
        }
      ],
      "payable": false,
      "stateMutability": "view",
      "type": "function"
    },
    {
      "constant": true,
      "inputs": [
        {
          "name": "_rewardToDistribute",
          "type": "uint256"
        },
        {
          "name": "_blocksCreatedShareNum",
          "type": "uint256[]"
        },
        {
          "name": "_blocksCreatedShareDenom",
          "type": "uint256"
        },
        {
          "name": "_stakingEpoch",
          "type": "uint256"
        }
      ],
      "name": "currentPoolRewards",
      "outputs": [
        {
          "name": "",
          "type": "uint256[]"
        }
      ],
      "payable": false,
      "stateMutability": "view",
      "type": "function"
    },
    {
      "constant": false,
      "inputs": [
        {
          "name": "_amount",
          "type": "uint256"
        }
      ],
      "name": "addBridgeNativeRewardReceivers",
      "outputs": [],
      "payable": false,
      "stateMutability": "nonpayable",
      "type": "function"
    },
    {
      "constant": true,
      "inputs": [],
      "name": "blockRewardContractId",
      "outputs": [
        {
          "name": "",
          "type": "bytes4"
        }
      ],
      "payable": false,
      "stateMutability": "pure",
      "type": "function"
    },
    {
      "constant": true,
      "inputs": [
        {
          "name": "_stakingContract",
          "type": "address"
        },
        {
          "name": "_stakingEpoch",
          "type": "uint256"
        },
        {
          "name": "_totalRewardShareNum",
          "type": "uint256"
        },
        {
          "name": "_totalRewardShareDenom",
          "type": "uint256"
        },
        {
          "name": "_validators",
          "type": "uint256[]"
        }
      ],
      "name": "currentNativeRewardToDistribute",
      "outputs": [
        {
          "name": "",
          "type": "uint256"
        },
        {
          "name": "",
          "type": "uint256"
        }
      ],
      "payable": false,
      "stateMutability": "view",
      "type": "function"
    },
    {
      "constant": true,
      "inputs": [
        {
          "name": "",
          "type": "address"
        },
        {
          "name": "",
          "type": "uint256"
        }
      ],
      "name": "mintedForAccountInBlock",
      "outputs": [
        {
          "name": "",
          "type": "uint256"
        }
      ],
      "payable": false,
      "stateMutability": "view",
      "type": "function"
    },
    {
      "constant": true,
      "inputs": [],
      "name": "isInitialized",
      "outputs": [
        {
          "name": "",
          "type": "bool"
        }
      ],
      "payable": false,
      "stateMutability": "view",
      "type": "function"
    },
    {
      "constant": true,
      "inputs": [],
      "name": "NATIVE_COIN_INFLATION_RATE",
      "outputs": [
        {
          "name": "",
          "type": "uint256"
        }
      ],
      "payable": false,
      "stateMutability": "view",
      "type": "function"
    },
    {
      "constant": true,
      "inputs": [
        {
          "name": "_poolId",
          "type": "uint256"
        }
      ],
      "name": "validatorRewardPercent",
      "outputs": [
        {
          "name": "",
          "type": "uint256"
        }
      ],
      "payable": false,
      "stateMutability": "view",
      "type": "function"
    },
    {
      "constant": true,
      "inputs": [
        {
          "name": "",
          "type": "address"
        }
      ],
      "name": "mintedForAccount",
      "outputs": [
        {
          "name": "",
          "type": "uint256"
        }
      ],
      "payable": false,
      "stateMutability": "view",
      "type": "function"
    },
    {
      "constant": true,
      "inputs": [],
      "name": "ercToNativeBridgesAllowed",
      "outputs": [
        {
          "name": "",
          "type": "address[]"
        }
      ],
      "payable": false,
      "stateMutability": "view",
      "type": "function"
    },
    {
      "constant": true,
      "inputs": [
        {
          "name": "",
          "type": "uint256"
        }
      ],
      "name": "mintedInBlock",
      "outputs": [
        {
          "name": "",
          "type": "uint256"
        }
      ],
      "payable": false,
      "stateMutability": "view",
      "type": "function"
    },
    {
      "constant": false,
      "inputs": [
        {
          "name": "_validatorSet",
          "type": "address"
        },
        {
          "name": "_prevBlockReward",
          "type": "address"
        }
      ],
      "name": "initialize",
      "outputs": [],
      "payable": false,
      "stateMutability": "nonpayable",
      "type": "function"
    },
    {
      "constant": true,
      "inputs": [
        {
          "name": "_poolStakingAddress",
          "type": "address"
        },
        {
          "name": "_staker",
          "type": "address"
        }
      ],
      "name": "epochsToClaimRewardFrom",
      "outputs": [
        {
          "name": "epochsToClaimFrom",
          "type": "uint256[]"
        }
      ],
      "payable": false,
      "stateMutability": "view",
      "type": "function"
    },
    {
      "constant": false,
      "inputs": [
        {
          "name": "_amount",
          "type": "uint256"
        }
      ],
      "name": "addBridgeNativeFeeReceivers",
      "outputs": [],
      "payable": false,
      "stateMutability": "nonpayable",
      "type": "function"
    },
    {
      "constant": true,
      "inputs": [],
      "name": "mintedTotally",
      "outputs": [
        {
          "name": "",
          "type": "uint256"
        }
      ],
      "payable": false,
      "stateMutability": "view",
      "type": "function"
    },
    {
      "constant": true,
      "inputs": [
        {
          "name": "_stakingEpoch",
          "type": "uint256"
        },
        {
          "name": "_delegatorStaked",
          "type": "uint256"
        },
        {
          "name": "_validatorStaked",
          "type": "uint256"
        },
        {
          "name": "_totalStaked",
          "type": "uint256"
        },
        {
          "name": "_poolReward",
          "type": "uint256"
        }
      ],
      "name": "delegatorShare",
      "outputs": [
        {
          "name": "",
          "type": "uint256"
        }
      ],
      "payable": false,
      "stateMutability": "view",
      "type": "function"
    },
    {
      "constant": true,
      "inputs": [
        {
          "name": "",
          "type": "uint256"
        },
        {
          "name": "",
          "type": "uint256"
        }
      ],
      "name": "snapshotPoolValidatorStakeAmount",
      "outputs": [
        {
          "name": "",
          "type": "uint256"
        }
      ],
      "payable": false,
      "stateMutability": "view",
      "type": "function"
    },
    {
      "constant": true,
      "inputs": [
        {
          "name": "_stakingEpoch",
          "type": "uint256"
        },
        {
          "name": "_validatorStaked",
          "type": "uint256"
        },
        {
          "name": "_totalStaked",
          "type": "uint256"
        },
        {
          "name": "_poolReward",
          "type": "uint256"
        }
      ],
      "name": "validatorShare",
      "outputs": [
        {
          "name": "",
          "type": "uint256"
        }
      ],
      "payable": false,
      "stateMutability": "view",
      "type": "function"
    },
    {
      "constant": true,
      "inputs": [
        {
          "name": "",
          "type": "address"
        },
        {
          "name": "",
          "type": "uint256"
        },
        {
          "name": "",
          "type": "bytes"
        }
      ],
      "name": "onTokenTransfer",
      "outputs": [
        {
          "name": "",
          "type": "bool"
        }
      ],
      "payable": false,
      "stateMutability": "pure",
      "type": "function"
    },
    {
      "constant": true,
      "inputs": [],
      "name": "extraReceiversQueueSize",
      "outputs": [
        {
          "name": "",
          "type": "uint256"
        }
      ],
      "payable": false,
      "stateMutability": "view",
      "type": "function"
    },
    {
      "constant": false,
      "inputs": [
        {
          "name": "_amount",
          "type": "uint256"
        },
        {
          "name": "_receiver",
          "type": "address"
        }
      ],
      "name": "addExtraReceiver",
      "outputs": [],
      "payable": false,
      "stateMutability": "nonpayable",
      "type": "function"
    },
    {
      "constant": true,
      "inputs": [],
      "name": "bridgeNativeReward",
      "outputs": [
        {
          "name": "",
          "type": "uint256"
        }
      ],
      "payable": false,
      "stateMutability": "view",
      "type": "function"
    },
    {
      "constant": true,
      "inputs": [],
      "name": "nativeRewardUndistributed",
      "outputs": [
        {
          "name": "",
          "type": "uint256"
        }
      ],
      "payable": false,
      "stateMutability": "view",
      "type": "function"
    },
    {
      "constant": true,
      "inputs": [
        {
          "name": "",
          "type": "address"
        }
      ],
      "name": "mintedTotallyByBridge",
      "outputs": [
        {
          "name": "",
          "type": "uint256"
        }
      ],
      "payable": false,
      "stateMutability": "view",
      "type": "function"
    },
    {
      "constant": false,
      "inputs": [],
      "name": "clearBlocksCreated",
      "outputs": [],
      "payable": false,
      "stateMutability": "nonpayable",
      "type": "function"
    },
    {
      "constant": true,
      "inputs": [
        {
          "name": "",
          "type": "uint256"
        }
      ],
      "name": "validatorMinRewardPercent",
      "outputs": [
        {
          "name": "",
          "type": "uint256"
        }
      ],
      "payable": false,
      "stateMutability": "view",
      "type": "function"
    },
    {
      "constant": true,
      "inputs": [],
      "name": "validatorSetContract",
      "outputs": [
        {
          "name": "",
          "type": "address"
        }
      ],
      "payable": false,
      "stateMutability": "view",
      "type": "function"
    },
    {
      "constant": true,
      "inputs": [
        {
          "name": "_poolId",
          "type": "uint256"
        }
      ],
      "name": "epochsPoolGotRewardFor",
      "outputs": [
        {
          "name": "",
          "type": "uint256[]"
        }
      ],
      "payable": false,
      "stateMutability": "view",
      "type": "function"
    },
    {
      "constant": true,
      "inputs": [
        {
          "name": "",
          "type": "uint256"
        },
        {
          "name": "",
          "type": "uint256"
        }
      ],
      "name": "blocksCreated",
      "outputs": [
        {
          "name": "",
          "type": "uint256"
        }
      ],
      "payable": false,
      "stateMutability": "view",
      "type": "function"
    },
    {
      "constant": false,
      "inputs": [
        {
          "name": "benefactors",
          "type": "address[]"
        },
        {
          "name": "kind",
          "type": "uint16[]"
        }
      ],
      "name": "reward",
      "outputs": [
        {
          "name": "receiversNative",
          "type": "address[]"
        },
        {
          "name": "rewardsNative",
          "type": "uint256[]"
        }
      ],
      "payable": false,
      "stateMutability": "nonpayable",
      "type": "function"
    },
    {
      "payable": true,
      "stateMutability": "payable",
      "type": "fallback"
    },
    {
      "anonymous": false,
      "inputs": [
        {
          "indexed": false,
          "name": "amount",
          "type": "uint256"
        },
        {
          "indexed": true,
          "name": "receiver",
          "type": "address"
        },
        {
          "indexed": true,
          "name": "bridge",
          "type": "address"
        }
      ],
      "name": "AddedReceiver",
      "type": "event"
    },
    {
      "anonymous": false,
      "inputs": [
        {
          "indexed": false,
          "name": "amount",
          "type": "uint256"
        },
        {
          "indexed": false,
          "name": "cumulativeAmount",
          "type": "uint256"
        },
        {
          "indexed": true,
          "name": "bridge",
          "type": "address"
        }
      ],
      "name": "BridgeNativeRewardAdded",
      "type": "event"
    },
    {
      "anonymous": false,
      "inputs": [
        {
          "indexed": false,
          "name": "receivers",
          "type": "address[]"
        },
        {
          "indexed": false,
          "name": "rewards",
          "type": "uint256[]"
        }
      ],
      "name": "MintedNative",
      "type": "event"
    },
    {
      "constant": false,
      "inputs": [
        {
          "name": "_nativeCoins",
          "type": "uint256"
        },
        {
          "name": "_to",
          "type": "address"
        }
      ],
      "name": "transferReward",
      "outputs": [],
      "payable": false,
      "stateMutability": "nonpayable",
      "type": "function"
    },
    {
      "constant": true,
      "inputs": [
        {
          "name": "_delegatorStake",
          "type": "uint256"
        },
        {
          "name": "_stakingEpoch",
          "type": "uint256"
        },
        {
          "name": "_poolId",
          "type": "uint256"
        }
      ],
      "name": "getDelegatorReward",
      "outputs": [
        {
          "name": "nativeReward",
          "type": "uint256"
        }
      ],
      "payable": false,
      "stateMutability": "view",
      "type": "function"
    },
    {
      "constant": true,
      "inputs": [
        {
          "name": "_stakingEpoch",
          "type": "uint256"
        },
        {
          "name": "_poolId",
          "type": "uint256"
        }
      ],
      "name": "getValidatorReward",
      "outputs": [
        {
          "name": "nativeReward",
          "type": "uint256"
        }
      ],
      "payable": false,
      "stateMutability": "view",
      "type": "function"
    }
  ],
  "bytecode": "0x608060405234801561001057600080fd5b506153b3806100206000396000f3fe60806040526004361061020f5760003560e01c80635325138911610118578063ac8a0942116100a0578063cdf7a0901161006f578063cdf7a09014610ed1578063dfc8bf4e14610f20578063e7f6cfe214610f77578063f8fdc6b914611007578063f91c2898146110605761020f565b8063ac8a094214610dff578063adc481a714610e2a578063b4a523e814610e55578063c5dd762814610eba5761020f565b80638737929a116100e75780638737929a14610b9f578063877ffdea14610c0c578063a4c0ed3614610c6f578063a9add57d14610d79578063aa9fa27414610da45761020f565b80635325138914610a69578063553a5c8514610aa45780635fba554e14610acf578063727b071d14610b465761020f565b8063392e53cd1161019b578063419ce2641161016a578063419ce2641461081c5780634476d66a14610888578063469507c6146108d7578063485cc955146109325780634de6c036146109a35761020f565b8063392e53cd1461070e57806339f537091461073d5780633bf47e96146107685780633d84b8c1146107b75761020f565b8063212329f3116101e2578063212329f3146103a5578063222fafb2146104dd5780632ee57f8d14610518578063307bff261461058157806330f6eb161461069f5761020f565b80630ac2daa0146102145780631289b1791461026d578063171d54dd146102c65780631f1a01b71461034c575b600080fd5b34801561022057600080fd5b506102576004803603604081101561023757600080fd5b8101908080359060200190929190803590602001909291905050506111d8565b6040518082815260200191505060405180910390f35b34801561027957600080fd5b506102b06004803603604081101561029057600080fd5b8101908080359060200190929190803590602001909291905050506111fd565b6040518082815260200191505060405180910390f35b3480156102d257600080fd5b5061034a600480360360208110156102e957600080fd5b810190808035906020019064010000000081111561030657600080fd5b82018360208201111561031857600080fd5b8035906020019184602083028401116401000000008311171561033a57600080fd5b909192939192939050505061128a565b005b34801561035857600080fd5b5061038f6004803603604081101561036f57600080fd5b81019080803590602001909291908035906020019092919050505061143c565b6040518082815260200191505060405180910390f35b3480156103b157600080fd5b50610486600480360360808110156103c857600080fd5b8101908080359060200190929190803590602001906401000000008111156103ef57600080fd5b82018360208201111561040157600080fd5b8035906020019184602083028401116401000000008311171561042357600080fd5b919080806020026020016040519081016040528093929190818152602001838360200280828437600081840152601f19601f8201169050808301925050505050505091929192908035906020019092919080359060200190929190505050611461565b6040518080602001828103825283818151815260200191508051906020019060200280838360005b838110156104c95780820151818401526020810190506104ae565b505050509050019250505060405180910390f35b3480156104e957600080fd5b506105166004803603602081101561050057600080fd5b8101908080359060200190929190505050611590565b005b34801561052457600080fd5b5061052d61166a565b60405180827bffffffffffffffffffffffffffffffffffffffffffffffffffffffff19167bffffffffffffffffffffffffffffffffffffffffffffffffffffffff1916815260200191505060405180910390f35b34801561058d57600080fd5b50610682600480360360a08110156105a457600080fd5b81019080803573ffffffffffffffffffffffffffffffffffffffff169060200190929190803590602001909291908035906020019092919080359060200190929190803590602001906401000000008111156105ff57600080fd5b82018360208201111561061157600080fd5b8035906020019184602083028401116401000000008311171561063357600080fd5b919080806020026020016040519081016040528093929190818152602001838360200280828437600081840152601f19601f820116905080830192505050505050509192919290505050611679565b604051808381526020018281526020019250505060405180910390f35b3480156106ab57600080fd5b506106f8600480360360408110156106c257600080fd5b81019080803573ffffffffffffffffffffffffffffffffffffffff1690602001909291908035906020019092919050505061169f565b6040518082815260200191505060405180910390f35b34801561071a57600080fd5b506107236116c4565b604051808215151515815260200191505060405180910390f35b34801561074957600080fd5b5061075261171d565b6040518082815260200191505060405180910390f35b34801561077457600080fd5b506107a16004803603602081101561078b57600080fd5b8101908080359060200190929190505050611728565b6040518082815260200191505060405180910390f35b3480156107c357600080fd5b50610806600480360360208110156107da57600080fd5b81019080803573ffffffffffffffffffffffffffffffffffffffff169060200190929190505050611eb8565b6040518082815260200191505060405180910390f35b34801561082857600080fd5b50610831611ed0565b6040518080602001828103825283818151815260200191508051906020019060200280838360005b83811015610874578082015181840152602081019050610859565b505050509050019250505060405180910390f35b34801561089457600080fd5b506108c1600480360360208110156108ab57600080fd5b8101908080359060200190929190505050611f5e565b6040518082815260200191505060405180910390f35b3480156108e357600080fd5b50610930600480360360408110156108fa57600080fd5b8101908080359060200190929190803573ffffffffffffffffffffffffffffffffffffffff169060200190929190505050611f76565b005b34801561093e57600080fd5b506109a16004803603604081101561095557600080fd5b81019080803573ffffffffffffffffffffffffffffffffffffffff169060200190929190803573ffffffffffffffffffffffffffffffffffffffff16906020019092919050505061205e565b005b3480156109af57600080fd5b50610a12600480360360408110156109c657600080fd5b81019080803573ffffffffffffffffffffffffffffffffffffffff169060200190929190803573ffffffffffffffffffffffffffffffffffffffff16906020019092919050505061219a565b6040518080602001828103825283818151815260200191508051906020019060200280838360005b83811015610a55578082015181840152602081019050610a3a565b505050509050019250505060405180910390f35b348015610a7557600080fd5b50610aa260048036036020811015610a8c57600080fd5b810190808035906020019092919050505061284a565b005b348015610ab057600080fd5b50610ab9612856565b6040518082815260200191505060405180910390f35b348015610adb57600080fd5b50610b30600480360360a0811015610af257600080fd5b81019080803590602001909291908035906020019092919080359060200190929190803590602001909291908035906020019092919050505061285c565b6040518082815260200191505060405180910390f35b348015610b5257600080fd5b50610b8960048036036040811015610b6957600080fd5b810190808035906020019092919080359060200190929190505050612902565b6040518082815260200191505060405180910390f35b348015610bab57600080fd5b50610bf660048036036080811015610bc257600080fd5b8101908080359060200190929190803590602001909291908035906020019092919080359060200190929190505050612927565b6040518082815260200191505060405180910390f35b348015610c1857600080fd5b50610c5960048036036060811015610c2f57600080fd5b810190808035906020019092919080359060200190929190803590602001909291905050506129ba565b6040518082815260200191505060405180910390f35b348015610c7b57600080fd5b50610d5f60048036036060811015610c9257600080fd5b81019080803573ffffffffffffffffffffffffffffffffffffffff1690602001909291908035906020019092919080359060200190640100000000811115610cd957600080fd5b820183602082011115610ceb57600080fd5b80359060200191846001830284011164010000000083111715610d0d57600080fd5b91908080601f016020809104026020016040519081016040528093929190818152602001838380828437600081840152601f19601f820116905080830192505050505050509192919290505050612a49565b604051808215151515815260200191505060405180910390f35b348015610d8557600080fd5b50610d8e612a50565b6040518082815260200191505060405180910390f35b348015610db057600080fd5b50610dfd60048036036040811015610dc757600080fd5b8101908080359060200190929190803573ffffffffffffffffffffffffffffffffffffffff169060200190929190505050612a61565b005b348015610e0b57600080fd5b50610e14612b52565b6040518082815260200191505060405180910390f35b348015610e3657600080fd5b50610e3f612b58565b6040518082815260200191505060405180910390f35b348015610e6157600080fd5b50610ea460048036036020811015610e7857600080fd5b81019080803573ffffffffffffffffffffffffffffffffffffffff169060200190929190505050612b5e565b6040518082815260200191505060405180910390f35b348015610ec657600080fd5b50610ecf612b76565b005b348015610edd57600080fd5b50610f0a60048036036020811015610ef457600080fd5b8101908080359060200190929190505050612e58565b6040518082815260200191505060405180910390f35b348015610f2c57600080fd5b50610f35612e70565b604051808273ffffffffffffffffffffffffffffffffffffffff1673ffffffffffffffffffffffffffffffffffffffff16815260200191505060405180910390f35b348015610f8357600080fd5b50610fb060048036036020811015610f9a57600080fd5b8101908080359060200190929190505050612e96565b6040518080602001828103825283818151815260200191508051906020019060200280838360005b83811015610ff3578082015181840152602081019050610fd8565b505050509050019250505060405180910390f35b34801561101357600080fd5b5061104a6004803603604081101561102a57600080fd5b810190808035906020019092919080359060200190929190505050612f00565b6040518082815260200191505060405180910390f35b34801561106c57600080fd5b506111396004803603604081101561108357600080fd5b81019080803590602001906401000000008111156110a057600080fd5b8201836020820111156110b257600080fd5b803590602001918460208302840111640100000000831117156110d457600080fd5b9091929391929390803590602001906401000000008111156110f557600080fd5b82018360208201111561110757600080fd5b8035906020019184602083028401116401000000008311171561112957600080fd5b9091929391929390505050612f24565b604051808060200180602001838103835285818151815260200191508051906020019060200280838360005b83811015611180578082015181840152602081019050611165565b50505050905001838103825284818151815260200191508051906020019060200280838360005b838110156111c25780820151818401526020810190506111a7565b5050505090500194505050505060405180910390f35b6029602052816000526040600020602052806000526040600020600091509150505481565b600080602a600085815260200190815260200160002060008481526020019081526020016000205490506000602960008681526020019081526020016000206000858152602001908152602001600020549050611280858383602260008a8152602001908152602001600020600089815260200190815260200160002054612927565b9250505092915050565b611292613c8c565b73ffffffffffffffffffffffffffffffffffffffff163373ffffffffffffffffffffffffffffffffffffffff16146112c957600080fd5b6112d16116c4565b6112da57600080fd5b60008090505b600280549050811015611389576000600160006002848154811061130057fe5b9060005260206000200160009054906101000a900473ffffffffffffffffffffffffffffffffffffffff1673ffffffffffffffffffffffffffffffffffffffff1673ffffffffffffffffffffffffffffffffffffffff16815260200190815260200160002060006101000a81548160ff02191690831515021790555080806001019150506112e0565b82826002919061139a929190615241565b50600090505b828290508110156114375760018060008585858181106113bc57fe5b9050602002013573ffffffffffffffffffffffffffffffffffffffff1673ffffffffffffffffffffffffffffffffffffffff1673ffffffffffffffffffffffffffffffffffffffff16815260200190815260200160002060006101000a81548160ff02191690831515021790555080806001019150506113a0565b505050565b6022602052816000526040600020602052806000526040600020600091509150505481565b60608060008414156114b0576114a78360006040519080825280602002602001820160405280156114a15781602001602082028038833980820191505090505b50613cbd565b80955081965050505b60008614806114bf5750600084145b156114fc5760006040519080825280602002602001820160405280156114f45781602001602082028038833980820191505090505b509050611584565b845160405190808252806020026020018201604052801561152c5781602001602082028038833980820191505090505b50905060008090505b8551811015611582578486828151811061154b57fe5b602002602001015188028161155c57fe5b0482828151811061156957fe5b6020026020010181815250508080600101915050611535565b505b80915050949350505050565b600160003373ffffffffffffffffffffffffffffffffffffffff1673ffffffffffffffffffffffffffffffffffffffff16815260200190815260200160002060009054906101000a900460ff166115e657600080fd5b60008114156115f457600080fd5b61160981602154613f9f90919063ffffffff16565b6021819055503373ffffffffffffffffffffffffffffffffffffffff167f619cc90cbd264bea3dfc113e68fd307789a937a8c10ef4b0110607ac7490367382602154604051808381526020018281526020019250505060405180910390a250565b6000630d35a7ca60e01b905090565b6000806116916116898785613fbe565b888787613fda565b915091509550959350505050565b6024602052816000526040600020602052806000526040600020600091509150505481565b60008073ffffffffffffffffffffffffffffffffffffffff16602c60009054906101000a900473ffffffffffffffffffffffffffffffffffffffff1673ffffffffffffffffffffffffffffffffffffffff161415905090565b660d529ae9e8600081565b600080602c60009054906101000a900473ffffffffffffffffffffffffffffffffffffffff1673ffffffffffffffffffffffffffffffffffffffff1663ee99205c6040518163ffffffff1660e01b815260040160206040518083038186803b15801561179357600080fd5b505afa1580156117a7573d6000803e3d6000fd5b505050506040513d60208110156117bd57600080fd5b8101908080519060200190929190505050905060008173ffffffffffffffffffffffffffffffffffffffff1663794c0c686040518163ffffffff1660e01b815260040160206040518083038186803b15801561181857600080fd5b505afa15801561182c573d6000803e3d6000fd5b505050506040513d602081101561184257600080fd5b81019080805190602001909291905050509050600081141561186957600092505050611eb3565b602c60009054906101000a900473ffffffffffffffffffffffffffffffffffffffff1673ffffffffffffffffffffffffffffffffffffffff16639b4a14bf856040518263ffffffff1660e01b81526004018082815260200191505060206040518083038186803b1580156118dc57600080fd5b505afa1580156118f0573d6000803e3d6000fd5b505050506040513d602081101561190657600080fd5b81019080805190602001909291905050501561197c5761197381602a600084815260200190815260200160002060008781526020019081526020016000205460296000858152602001908152602001600020600088815260200190815260200160002054620f4240612927565b92505050611eb3565b6000602c60009054906101000a900473ffffffffffffffffffffffffffffffffffffffff1673ffffffffffffffffffffffffffffffffffffffff1663b927ef436040518163ffffffff1660e01b815260040160206040518083038186803b1580156119e657600080fd5b505afa1580156119fa573d6000803e3d6000fd5b505050506040513d6020811015611a1057600080fd5b81019080805190602001909291905050501415611d545760606000602c60009054906101000a900473ffffffffffffffffffffffffffffffffffffffff1673ffffffffffffffffffffffffffffffffffffffff16636729c2dc6040518163ffffffff1660e01b815260040160006040518083038186803b158015611a9357600080fd5b505afa158015611aa7573d6000803e3d6000fd5b505050506040513d6000823e3d601f19601f820116820180604052506020811015611ad157600080fd5b810190808051640100000000811115611ae957600080fd5b82810190506020810184811115611aff57600080fd5b8151856020820283011164010000000082111715611b1c57600080fd5b50509291905050509150600090505b8151811015611bbe57818181518110611b4057fe5b6020026020010151861415611bb157611ba683602a60008681526020019081526020016000206000898152602001908152602001600020546029600087815260200190815260200160002060008a815260200190815260200160002054620f4240612927565b945050505050611eb3565b8080600101915050611b2b565b602c60009054906101000a900473ffffffffffffffffffffffffffffffffffffffff1673ffffffffffffffffffffffffffffffffffffffff16630bf480c06040518163ffffffff1660e01b815260040160006040518083038186803b158015611c2657600080fd5b505afa158015611c3a573d6000803e3d6000fd5b505050506040513d6000823e3d601f19601f820116820180604052506020811015611c6457600080fd5b810190808051640100000000811115611c7c57600080fd5b82810190506020810184811115611c9257600080fd5b8151856020820283011164010000000082111715611caf57600080fd5b50509291905050509150600090505b8151811015611d5157818181518110611cd357fe5b6020026020010151861415611d4457611d3983602a60008681526020019081526020016000206000898152602001908152602001600020546029600087815260200190815260200160002060008a815260200190815260200160002054620f4240612927565b945050505050611eb3565b8080600101915050611cbe565b50505b611eae818373ffffffffffffffffffffffffffffffffffffffff16633fb1a1e48760006040518363ffffffff1660e01b8152600401808381526020018273ffffffffffffffffffffffffffffffffffffffff1673ffffffffffffffffffffffffffffffffffffffff1681526020019250505060206040518083038186803b158015611dde57600080fd5b505afa158015611df2573d6000803e3d6000fd5b505050506040513d6020811015611e0857600080fd5b81019080805190602001909291905050508473ffffffffffffffffffffffffffffffffffffffff16632a8f6ecd886040518263ffffffff1660e01b81526004018082815260200191505060206040518083038186803b158015611e6a57600080fd5b505afa158015611e7e573d6000803e3d6000fd5b505050506040513d6020811015611e9457600080fd5b8101908080519060200190929190505050620f4240612927565b925050505b919050565b60236020528060005260406000206000915090505481565b60606002805480602002602001604051908101604052809291908181526020018280548015611f5457602002820191906000526020600020905b8160009054906101000a900473ffffffffffffffffffffffffffffffffffffffff1673ffffffffffffffffffffffffffffffffffffffff1681526020019060010190808311611f0a575b5050505050905090565b60256020528060005260406000206000915090505481565b602c60009054906101000a900473ffffffffffffffffffffffffffffffffffffffff1673ffffffffffffffffffffffffffffffffffffffff1663ee99205c6040518163ffffffff1660e01b815260040160206040518083038186803b158015611fde57600080fd5b505afa158015611ff2573d6000803e3d6000fd5b505050506040513d602081101561200857600080fd5b810190808051906020019092919050505073ffffffffffffffffffffffffffffffffffffffff163373ffffffffffffffffffffffffffffffffffffffff161461205057600080fd5b61205a82826140a9565b5050565b6000612068614159565b14806120a65750612077613c8c565b73ffffffffffffffffffffffffffffffffffffffff163373ffffffffffffffffffffffffffffffffffffffff16145b6120af57600080fd5b6120b76116c4565b156120c157600080fd5b600073ffffffffffffffffffffffffffffffffffffffff168273ffffffffffffffffffffffffffffffffffffffff1614156120fb57600080fd5b81602c60006101000a81548173ffffffffffffffffffffffffffffffffffffffff021916908373ffffffffffffffffffffffffffffffffffffffff160217905550601e602b60008081526020019081526020016000208190555080600360006101000a81548173ffffffffffffffffffffffffffffffffffffffff021916908373ffffffffffffffffffffffffffffffffffffffff1602179055505050565b60606000602c60009054906101000a900473ffffffffffffffffffffffffffffffffffffffff1673ffffffffffffffffffffffffffffffffffffffff1663a26301f9856040518263ffffffff1660e01b8152600401808273ffffffffffffffffffffffffffffffffffffffff1673ffffffffffffffffffffffffffffffffffffffff16815260200191505060206040518083038186803b15801561223d57600080fd5b505afa158015612251573d6000803e3d6000fd5b505050506040513d602081101561226757600080fd5b81019080805190602001909291905050509050600073ffffffffffffffffffffffffffffffffffffffff168473ffffffffffffffffffffffffffffffffffffffff1614156122b457600080fd5b600073ffffffffffffffffffffffffffffffffffffffff168373ffffffffffffffffffffffffffffffffffffffff1614156122ee57600080fd5b60008114156122fc57600080fd5b6000602c60009054906101000a900473ffffffffffffffffffffffffffffffffffffffff1673ffffffffffffffffffffffffffffffffffffffff1663ee99205c6040518163ffffffff1660e01b815260040160206040518083038186803b15801561236657600080fd5b505afa15801561237a573d6000803e3d6000fd5b505050506040513d602081101561239057600080fd5b8101908080519060200190929190505050905060008573ffffffffffffffffffffffffffffffffffffffff168573ffffffffffffffffffffffffffffffffffffffff1614156123e05760006123e2565b845b9050600080600073ffffffffffffffffffffffffffffffffffffffff168373ffffffffffffffffffffffffffffffffffffffff16146125e6578373ffffffffffffffffffffffffffffffffffffffff166327d89b3a86856040518363ffffffff1660e01b8152600401808381526020018273ffffffffffffffffffffffffffffffffffffffff1673ffffffffffffffffffffffffffffffffffffffff1681526020019250505060206040518083038186803b1580156124a057600080fd5b505afa1580156124b4573d6000803e3d6000fd5b505050506040513d60208110156124ca57600080fd5b8101908080519060200190929190505050915060008214156125235760006040519080825280602002602001820160405280156125165781602001602082028038833980820191505090505b5095505050505050612844565b8373ffffffffffffffffffffffffffffffffffffffff1663381883b086856040518363ffffffff1660e01b8152600401808381526020018273ffffffffffffffffffffffffffffffffffffffff1673ffffffffffffffffffffffffffffffffffffffff1681526020019250505060206040518083038186803b1580156125a857600080fd5b505afa1580156125bc573d6000803e3d6000fd5b505050506040513d60208110156125d257600080fd5b810190808051906020019092919050505090505b600080600087815260200190815260200160002090506000818054905090506060816040519080825280602002602001820160405280156126365781602001602082028038833980820191505090505b509050600080905060008090505b838110156127c157600085828154811061265a57fe5b90600052602060002001549050600073ffffffffffffffffffffffffffffffffffffffff168973ffffffffffffffffffffffffffffffffffffffff16146126c657878110156126a957506127b4565b8087111580156126ba575060008714155b156126c557506127c1565b5b8973ffffffffffffffffffffffffffffffffffffffff1663186dc46f8c8b846040518463ffffffff1660e01b8152600401808481526020018373ffffffffffffffffffffffffffffffffffffffff1673ffffffffffffffffffffffffffffffffffffffff168152602001828152602001935050505060206040518083038186803b15801561275357600080fd5b505afa158015612767573d6000803e3d6000fd5b505050506040513d602081101561277d57600080fd5b81019080805190602001909291905050506127b257808484806001019550815181106127a557fe5b6020026020010181815250505b505b8080600101915050612644565b816040519080825280602002602001820160405280156127f05781602001602082028038833980820191505090505b509a50600090505b818110156128395782818151811061280c57fe5b60200260200101518b828151811061282057fe5b60200260200101818152505080806001019150506127f8565b505050505050505050505b92915050565b61285381611590565b50565b60265481565b60008085148061286c5750600084145b806128775750600083145b1561288557600090506128f9565b600080905060008585101561289b57600061289f565b8585035b90506000602b60008a815260200190815260200160002054905080820281606403880211156128db5785888602816128d357fe5b0492506128f2565b606482028160640389870202816128ee57fe5b0492505b8293505050505b95945050505050565b602a602052816000526040600020602052806000526040600020600091509150505481565b6000808414806129375750600083145b1561294557600090506129b2565b600080905060008585101561295b57600061295f565b8585035b90506000602b6000898152602001908152602001600020549050808202816064038802111561299b57858786028161299357fe5b0492506129ab565b6064818602816129a757fe5b0492505b8293505050505b949350505050565b600080602a600085815260200190815260200160002060008481526020019081526020016000205490506000602960008681526020019081526020016000206000858152602001908152602001600020549050612a3e85878484602260008b815260200190815260200160002060008a81526020019081526020016000205461285c565b925050509392505050565b6000806000fd5b600060045460016005540103905090565b600160003373ffffffffffffffffffffffffffffffffffffffff1673ffffffffffffffffffffffffffffffffffffffff16815260200190815260200160002060009054906101000a900460ff16612ab757600080fd5b6000821415612ac557600080fd5b600360149054906101000a900460ff16612ade57600080fd5b612ae9828233614161565b3373ffffffffffffffffffffffffffffffffffffffff168173ffffffffffffffffffffffffffffffffffffffff167f3c798bbcf33115b42c728b8504cff11dd58736e9fa789f1cda2738db7d696b2a846040518082815260200191505060405180910390a35050565b60215481565b60285481565b60276020528060005260406000206000915090505481565b602c60009054906101000a900473ffffffffffffffffffffffffffffffffffffffff1673ffffffffffffffffffffffffffffffffffffffff163373ffffffffffffffffffffffffffffffffffffffff1614612bd057600080fd5b6000602c60009054906101000a900473ffffffffffffffffffffffffffffffffffffffff1673ffffffffffffffffffffffffffffffffffffffff1663ee99205c6040518163ffffffff1660e01b815260040160206040518083038186803b158015612c3a57600080fd5b505afa158015612c4e573d6000803e3d6000fd5b505050506040513d6020811015612c6457600080fd5b8101908080519060200190929190505050905060008173ffffffffffffffffffffffffffffffffffffffff1663794c0c686040518163ffffffff1660e01b815260040160206040518083038186803b158015612cbf57600080fd5b505afa158015612cd3573d6000803e3d6000fd5b505050506040513d6020811015612ce957600080fd5b810190808051906020019092919050505090506060602c60009054906101000a900473ffffffffffffffffffffffffffffffffffffffff1673ffffffffffffffffffffffffffffffffffffffff1663fe54477e6040518163ffffffff1660e01b815260040160006040518083038186803b158015612d6657600080fd5b505afa158015612d7a573d6000803e3d6000fd5b505050506040513d6000823e3d601f19601f820116820180604052506020811015612da457600080fd5b810190808051640100000000811115612dbc57600080fd5b82810190506020810184811115612dd257600080fd5b8151856020820283011164010000000082111715612def57600080fd5b5050929190505050905060008090505b8151811015612e52576000602060008581526020019081526020016000206000848481518110612e2b57fe5b60200260200101518152602001908152602001600020819055508080600101915050612dff565b50505050565b602b6020528060005260406000206000915090505481565b602c60009054906101000a900473ffffffffffffffffffffffffffffffffffffffff1681565b6060600080838152602001908152602001600020805480602002602001604051908101604052809291908181526020018280548015612ef457602002820191906000526020600020905b815481526020019060010190808311612ee0575b50505050509050919050565b60208052816000526040600020602052806000526040600020600091509150505481565b60608073fffffffffffffffffffffffffffffffffffffffe73ffffffffffffffffffffffffffffffffffffffff163373ffffffffffffffffffffffffffffffffffffffff1614612f7357600080fd5b8383905086869050141580612f8c575060018686905014155b80612fb35750600084846000818110612fa157fe5b9050602002013561ffff1661ffff1614155b15613029576000604051908082528060200260200182016040528015612fe85781602001602082028038833980820191505090505b5060006040519080825280602002602001820160405280156130195781602001602082028038833980820191505090505b5081915080905091509150613c83565b600073ffffffffffffffffffffffffffffffffffffffff16602c60009054906101000a900473ffffffffffffffffffffffffffffffffffffffff1673ffffffffffffffffffffffffffffffffffffffff1614806131865750602c60009054906101000a900473ffffffffffffffffffffffffffffffffffffffff1673ffffffffffffffffffffffffffffffffffffffff1663facd743b878760008181106130cc57fe5b9050602002013573ffffffffffffffffffffffffffffffffffffffff166040518263ffffffff1660e01b8152600401808273ffffffffffffffffffffffffffffffffffffffff1673ffffffffffffffffffffffffffffffffffffffff16815260200191505060206040518083038186803b15801561314957600080fd5b505afa15801561315d573d6000803e3d6000fd5b505050506040513d602081101561317357600080fd5b8101908080519060200190929190505050155b156131fc5760006040519080825280602002602001820160405280156131bb5781602001602082028038833980820191505090505b5060006040519080825280602002602001820160405280156131ec5781602001602082028038833980820191505090505b5081915080905091509150613c83565b602c60009054906101000a900473ffffffffffffffffffffffffffffffffffffffff1673ffffffffffffffffffffffffffffffffffffffff1663ccf69e9b6040518163ffffffff1660e01b815260040160206040518083038186803b15801561326457600080fd5b505afa158015613278573d6000803e3d6000fd5b505050506040513d602081101561328e57600080fd5b810190808051906020019092919050505073ffffffffffffffffffffffffffffffffffffffff1663109c11076040518163ffffffff1660e01b8152600401600060405180830381600087803b1580156132e657600080fd5b505af11580156132fa573d6000803e3d6000fd5b50505050600360149054906101000a900460ff1661334657600160048190555060006005819055506001600360146101000a81548160ff02191690831515021790555061334561426d565b5b6000606490506000602c60009054906101000a900473ffffffffffffffffffffffffffffffffffffffff1673ffffffffffffffffffffffffffffffffffffffff1663ee99205c6040518163ffffffff1660e01b815260040160206040518083038186803b1580156133b657600080fd5b505afa1580156133ca573d6000803e3d6000fd5b505050506040513d60208110156133e057600080fd5b8101908080519060200190929190505050905060008173ffffffffffffffffffffffffffffffffffffffff1663794c0c686040518163ffffffff1660e01b815260040160206040518083038186803b15801561343b57600080fd5b505afa15801561344f573d6000803e3d6000fd5b505050506040513d602081101561346557600080fd5b8101908080519060200190929190505050905060008273ffffffffffffffffffffffffffffffffffffffff16638c2243ae6040518163ffffffff1660e01b815260040160206040518083038186803b1580156134c057600080fd5b505afa1580156134d4573d6000803e3d6000fd5b505050506040513d60208110156134ea57600080fd5b8101908080519060200190929190505050905060008090506000602c60009054906101000a900473ffffffffffffffffffffffffffffffffffffffff1673ffffffffffffffffffffffffffffffffffffffff1663b927ef436040518163ffffffff1660e01b815260040160206040518083038186803b15801561356c57600080fd5b505afa158015613580573d6000803e3d6000fd5b505050506040513d602081101561359657600080fd5b81019080805190602001909291905050501461380057600083141580156136bd5750602c60009054906101000a900473ffffffffffffffffffffffffffffffffffffffff1673ffffffffffffffffffffffffffffffffffffffff1663a92252ae8c8c600081811061360357fe5b9050602002013573ffffffffffffffffffffffffffffffffffffffff166040518263ffffffff1660e01b8152600401808273ffffffffffffffffffffffffffffffffffffffff1673ffffffffffffffffffffffffffffffffffffffff16815260200191505060206040518083038186803b15801561368057600080fd5b505afa158015613694573d6000803e3d6000fd5b505050506040513d60208110156136aa57600080fd5b8101908080519060200190929190505050155b156137ff576000602c60009054906101000a900473ffffffffffffffffffffffffffffffffffffffff1673ffffffffffffffffffffffffffffffffffffffff16632bbb7b728d8d600081811061370f57fe5b9050602002013573ffffffffffffffffffffffffffffffffffffffff166040518263ffffffff1660e01b8152600401808273ffffffffffffffffffffffffffffffffffffffff1673ffffffffffffffffffffffffffffffffffffffff16815260200191505060206040518083038186803b15801561378c57600080fd5b505afa1580156137a0573d6000803e3d6000fd5b505050506040513d60208110156137b657600080fd5b8101908080519060200190929190505050905060206000858152602001908152602001600020600082815260200190815260200160002060008154809291906001019190505550505b5b81613809614159565b1415613c6f5760008314613825576138228484846144fe565b90505b602c60009054906101000a900473ffffffffffffffffffffffffffffffffffffffff1673ffffffffffffffffffffffffffffffffffffffff16635ccee1de6040518163ffffffff1660e01b8152600401600060405180830381600087803b15801561388f57600080fd5b505af11580156138a3573d6000803e3d6000fd5b505050506000806001850190506060602c60009054906101000a900473ffffffffffffffffffffffffffffffffffffffff1673ffffffffffffffffffffffffffffffffffffffff16636729c2dc6040518163ffffffff1660e01b815260040160006040518083038186803b15801561391a57600080fd5b505afa15801561392e573d6000803e3d6000fd5b505050506040513d6000823e3d601f19601f82011682018060405250602081101561395857600080fd5b81019080805164010000000081111561397057600080fd5b8281019050602081018481111561398657600080fd5b81518560208202830111640100000000821117156139a357600080fd5b50509291905050509050600092505b80518310156139e6576139d987838386815181106139cc57fe5b602002602001015161464c565b82806001019350506139b2565b602c60009054906101000a900473ffffffffffffffffffffffffffffffffffffffff1673ffffffffffffffffffffffffffffffffffffffff1663fe54477e6040518163ffffffff1660e01b815260040160006040518083038186803b158015613a4e57600080fd5b505afa158015613a62573d6000803e3d6000fd5b505050506040513d6000823e3d601f19601f820116820180604052506020811015613a8c57600080fd5b810190808051640100000000811115613aa457600080fd5b82810190506020810184811115613aba57600080fd5b8151856020820283011164010000000082111715613ad757600080fd5b50509291905050509050600092505b8051831015613b1a57613b0d8783838681518110613b0057fe5b602002602001015161464c565b8280600101935050613ae6565b602c60009054906101000a900473ffffffffffffffffffffffffffffffffffffffff1673ffffffffffffffffffffffffffffffffffffffff16630bf480c06040518163ffffffff1660e01b815260040160006040518083038186803b158015613b8257600080fd5b505afa158015613b96573d6000803e3d6000fd5b505050506040513d6000823e3d601f19601f820116820180604052506020811015613bc057600080fd5b810190808051640100000000811115613bd857600080fd5b82810190506020810184811115613bee57600080fd5b8151856020820283011164010000000082111715613c0b57600080fd5b50509291905050509050600092505b8051831015613c4e57613c418783838681518110613c3457fe5b602002602001015161464c565b8280600101935050613c1a565b601e602b600084815260200190815260200160002081905550600097505050505b613c798186614835565b9650965050505050505b94509492505050565b6000807fb53127684a568b3173ae13b9f8a6016e243e63b6e8ee1178d6a717850b5d610360001b9050805491505090565b606060008083511415613dc657602c60009054906101000a900473ffffffffffffffffffffffffffffffffffffffff1673ffffffffffffffffffffffffffffffffffffffff1663fe54477e6040518163ffffffff1660e01b815260040160006040518083038186803b158015613d3257600080fd5b505afa158015613d46573d6000803e3d6000fd5b505050506040513d6000823e3d601f19601f820116820180604052506020811015613d7057600080fd5b810190808051640100000000811115613d8857600080fd5b82810190506020810184811115613d9e57600080fd5b8151856020820283011164010000000082111715613dbb57600080fd5b505092919050505092505b60608351604051908082528060200260200182016040528015613df85781602001602082028038833980820191505090505b509050600080905060008090505b8551811015613f8f576000868281518110613e1d57fe5b602002602001015190506000602a60008a815260200190815260200160002060008381526020019081526020016000205414158015613f075750602c60009054906101000a900473ffffffffffffffffffffffffffffffffffffffff1673ffffffffffffffffffffffffffffffffffffffff16634d04481e826040518263ffffffff1660e01b81526004018082815260200191505060206040518083038186803b158015613eca57600080fd5b505afa158015613ede573d6000803e3d6000fd5b505050506040513d6020811015613ef457600080fd5b8101908080519060200190929190505050155b15613f4e5760206000898152602001908152602001600020600082815260200190815260200160002054848381518110613f3d57fe5b602002602001018181525050613f69565b6000848381518110613f5c57fe5b6020026020010181815250505b838281518110613f7557fe5b602002602001015183019250508080600101915050613e06565b5081819350935050509250929050565b600080828401905083811015613fb457600080fd5b8091505092915050565b6000613fca8383614aa4565b6028546021540101905092915050565b600080600083141561407957614070858673ffffffffffffffffffffffffffffffffffffffff16638c2243ae6040518163ffffffff1660e01b815260040160206040518083038186803b15801561403057600080fd5b505afa158015614044573d6000803e3d6000fd5b505050506040513d602081101561405a57600080fd5b8101908080519060200190929190505050614ac0565b80945081955050505b60008084141561408a576000614097565b838588028161409557fe5b045b90508087925092505094509492505050565b600082141580156140ec57508073ffffffffffffffffffffffffffffffffffffffff166108fc839081150290604051600060405180830381858888f19350505050155b156141555781816040516140ff906152e1565b808273ffffffffffffffffffffffffffffffffffffffff1673ffffffffffffffffffffffffffffffffffffffff1681526020019150506040518091039082f080158015614150573d6000803e3d6000fd5b509050505b5050565b600043905090565b6000600160055401905060405180606001604052808581526020018373ffffffffffffffffffffffffffffffffffffffff1681526020018473ffffffffffffffffffffffffffffffffffffffff16815250600660008381526020019081526020016000206000820151816000015560208201518160010160006101000a81548173ffffffffffffffffffffffffffffffffffffffff021916908373ffffffffffffffffffffffffffffffffffffffff16021790555060408201518160020160006101000a81548173ffffffffffffffffffffffffffffffffffffffff021916908373ffffffffffffffffffffffffffffffffffffffff1602179055509050508060058190555050505050565b600073ffffffffffffffffffffffffffffffffffffffff16600360009054906101000a900473ffffffffffffffffffffffffffffffffffffffff1673ffffffffffffffffffffffffffffffffffffffff1614156142c9576144fc565b60008090505b600280549050811015614443576000600282815481106142eb57fe5b9060005260206000200160009054906101000a900473ffffffffffffffffffffffffffffffffffffffff169050600360009054906101000a900473ffffffffffffffffffffffffffffffffffffffff1673ffffffffffffffffffffffffffffffffffffffff1663b4a523e8826040518263ffffffff1660e01b8152600401808273ffffffffffffffffffffffffffffffffffffffff1673ffffffffffffffffffffffffffffffffffffffff16815260200191505060206040518083038186803b1580156143b757600080fd5b505afa1580156143cb573d6000803e3d6000fd5b505050506040513d60208110156143e157600080fd5b8101908080519060200190929190505050602760008373ffffffffffffffffffffffffffffffffffffffff1673ffffffffffffffffffffffffffffffffffffffff168152602001908152602001600020819055505080806001019150506142cf565b506000600280549050146144fb57600360009054906101000a900473ffffffffffffffffffffffffffffffffffffffff1673ffffffffffffffffffffffffffffffffffffffff1663553a5c856040518163ffffffff1660e01b815260040160206040518083038186803b1580156144b957600080fd5b505afa1580156144cd573d6000803e3d6000fd5b505050506040513d60208110156144e357600080fd5b81019080805190602001909291905050506026819055505b5b565b60006060602c60009054906101000a900473ffffffffffffffffffffffffffffffffffffffff1673ffffffffffffffffffffffffffffffffffffffff1663fe54477e6040518163ffffffff1660e01b815260040160006040518083038186803b15801561456a57600080fd5b505afa15801561457e573d6000803e3d6000fd5b505050506040513d6000823e3d601f19601f8201168201806040525060208110156145a857600080fd5b8101908080516401000000008111156145c057600080fd5b828101905060208101848111156145d657600080fd5b81518560208202830111640100000000821117156145f357600080fd5b5050929190505050905060008061460a8786614ac0565b915091506060600061461c8886613cbd565b9150915061462f89898686898787614ce4565b955061464089898686898787614e34565b50505050509392505050565b6000602960008481526020019081526020016000206000838152602001908152602001600020541461467d57614830565b60008373ffffffffffffffffffffffffffffffffffffffff16632a8f6ecd836040518263ffffffff1660e01b81526004018082815260200191505060206040518083038186803b1580156146d057600080fd5b505afa1580156146e4573d6000803e3d6000fd5b505050506040513d60208110156146fa57600080fd5b81019080805190602001909291905050509050600081141561471c5750614830565b80602960008581526020019081526020016000206000848152602001908152602001600020819055508373ffffffffffffffffffffffffffffffffffffffff16633fb1a1e48360006040518363ffffffff1660e01b8152600401808381526020018273ffffffffffffffffffffffffffffffffffffffff1673ffffffffffffffffffffffffffffffffffffffff1681526020019250505060206040518083038186803b1580156147cb57600080fd5b505afa1580156147df573d6000803e3d6000fd5b505050506040513d60208110156147f557600080fd5b8101908080519060200190929190505050602a6000858152602001908152602001600020600084815260200190815260200160002081905550505b505050565b6060806000614842612a50565b905083811115614850578390505b600080861415905080614864576000614867565b60015b60ff16820160405190808252806020026020018201604052801561489a5781602001602082028038833980820191505090505b50935083516040519080825280602002602001820160405280156148cd5781602001602082028038833980820191505090505b50925060008090505b8281101561496c5760008060006148eb614e3d565b925092509250818885815181106148fe57fe5b602002602001019073ffffffffffffffffffffffffffffffffffffffff16908173ffffffffffffffffffffffffffffffffffffffff16815250508287858151811061494557fe5b60200260200101818152505061495c838383614f79565b50505080806001019150506148d6565b5080156149d4573084838151811061498057fe5b602002602001019073ffffffffffffffffffffffffffffffffffffffff16908173ffffffffffffffffffffffffffffffffffffffff1681525050858383815181106149c757fe5b6020026020010181815250505b7f2834f3daea15e82b5f27095c4b6d08cd437f303149009a0a3304be801d2dd7ce8484604051808060200180602001838103835285818151815260200191508051906020019060200280838360005b83811015614a3e578082015181840152602081019050614a23565b50505050905001838103825284818151815260200191508051906020019060200280838360005b83811015614a80578082015181840152602081019050614a65565b5050505090500194505050505060405180910390a183839350935050509250929050565b6000614ab88383660d529ae9e860006150ab565b905092915050565b60008060008090506000600190506000602c60009054906101000a900473ffffffffffffffffffffffffffffffffffffffff1673ffffffffffffffffffffffffffffffffffffffff1663b927ef436040518163ffffffff1660e01b815260040160206040518083038186803b158015614b3857600080fd5b505afa158015614b4c573d6000803e3d6000fd5b505050506040513d6020811015614b6257600080fd5b8101908080519060200190929190505050905060008114614cd4576000600160036002602c60009054906101000a900473ffffffffffffffffffffffffffffffffffffffff1673ffffffffffffffffffffffffffffffffffffffff1663714897df6040518163ffffffff1660e01b815260040160206040518083038186803b158015614bed57600080fd5b505afa158015614c01573d6000803e3d6000fd5b505050506040513d6020811015614c1757600080fd5b81019080805190602001909291905050500281614c3057fe5b048973ffffffffffffffffffffffffffffffffffffffff16637069e7466040518163ffffffff1660e01b815260040160206040518083038186803b158015614c7757600080fd5b505afa158015614c8b573d6000803e3d6000fd5b505050506040513d6020811015614ca157600080fd5b81019080805190602001909291905050500101905080821015614cc2578091505b60018288030193506001818803019250505b8282945094505050509250929050565b6000806000614cf68a8a8a8a8a611679565b915091506000811415614d0e57600092505050614e29565b600060218190555060008090506060614d298488888e611461565b9050875181511415614e185760008090505b8851811015614e16576000898281518110614d5257fe5b60200260200101519050828281518110614d6857fe5b6020026020010151602260008f8152602001908152602001600020600083815260200190815260200160002081905550828281518110614da457fe5b6020026020010151840193506000838381518110614dbe57fe5b602002602001015114614e08576000808281526020019081526020016000208d90806001815401808255809150509060018203906000526020600020016000909192909190915055505b508080600101915050614d3b565b505b818303602881905550819450505050505b979650505050505050565b50505050505050565b60008060008060045490506000600554905081811015614e6857600094506000935060009250614f72565b600660008381526020019081526020016000206000015494506006600083815260200190815260200160002060020160009054906101000a900473ffffffffffffffffffffffffffffffffffffffff1693506006600083815260200190815260200160002060010160009054906101000a900473ffffffffffffffffffffffffffffffffffffffff169250600660008381526020019081526020016000206000808201600090556001820160006101000a81549073ffffffffffffffffffffffffffffffffffffffff02191690556002820160006101000a81549073ffffffffffffffffffffffffffffffffffffffff021916905550506004600081548092919060010191905055505b5050909192565b6000614f83614159565b905083602460008573ffffffffffffffffffffffffffffffffffffffff1673ffffffffffffffffffffffffffffffffffffffff16815260200190815260200160002060008381526020019081526020016000208190555083602360008573ffffffffffffffffffffffffffffffffffffffff1673ffffffffffffffffffffffffffffffffffffffff1681526020019081526020016000206000828254019250508190555083602560008381526020019081526020016000206000828254019250508190555083602760008473ffffffffffffffffffffffffffffffffffffffff1673ffffffffffffffffffffffffffffffffffffffff168152602001908152602001600020600082825401925050819055508360266000828254019250508190555050505050565b6000808214156150be576000905061523a565b6000835114156151c457602c60009054906101000a900473ffffffffffffffffffffffffffffffffffffffff1673ffffffffffffffffffffffffffffffffffffffff1663fe54477e6040518163ffffffff1660e01b815260040160006040518083038186803b15801561513057600080fd5b505afa158015615144573d6000803e3d6000fd5b505050506040513d6000823e3d601f19601f82011682018060405250602081101561516e57600080fd5b81019080805164010000000081111561518657600080fd5b8281019050602081018481111561519c57600080fd5b81518560208202830111640100000000821117156151b957600080fd5b505092919050505092505b600080905060008090505b8451811015615221576029600087815260200190815260200160002060008683815181106151f957fe5b60200260200101518152602001908152602001600020548201915080806001019150506151cf565b50670de0b6b3a76400008382028161523557fe5b049150505b9392505050565b8280548282559060005260206000209081019282156152d0579160200282015b828111156152cf57823573ffffffffffffffffffffffffffffffffffffffff168260006101000a81548173ffffffffffffffffffffffffffffffffffffffff021916908373ffffffffffffffffffffffffffffffffffffffff16021790555091602001919060010190615261565b5b5090506152dd91906152ed565b5090565b604e8061533183390190565b61532d91905b8082111561532957600081816101000a81549073ffffffffffffffffffffffffffffffffffffffff0219169055506001016152f3565b5090565b9056fe6080604052604051604e380380604e83398181016040526020811015602357600080fd5b81019080805190602001909291905050508073ffffffffffffffffffffffffffffffffffffffff16fffea265627a7a72305820a0f243b8ed274c98b355f6b770ed8002b9711101f4170fa3df2723decdab061964736f6c634300050a0032",
  "source": "pragma solidity 0.5.10;\n\nimport \"./BlockRewardAuRaBase.sol\";\nimport \"../interfaces/IBlockRewardAuRaCoins.sol\";\n\n\ncontract BlockRewardAuRaCoins is BlockRewardAuRaBase, IBlockRewardAuRaCoins {\n\n    // ============================================== Constants =======================================================\n\n    /// @dev Inflation rate per staking epoch. Calculated as follows:\n    /// 18% annual rate * 48 staking weeks per staking year / 100 * 10**18\n    /// This assumes that 1 staking epoch = 1 week\n    /// i.e. Inflation Rate = 18/48/100 * 1 ether\n    /// Recalculate it for different annual rate and/or different staking epoch duration.\n    uint256 public constant NATIVE_COIN_INFLATION_RATE = 3750000000000000;\n\n    // =============================================== Setters ========================================================\n\n    /// @dev Called by the `StakingAuRa.claimReward` function to transfer native coins\n    /// from the balance of the `BlockRewardAuRa` contract to the specified address as a reward.\n    /// @param _nativeCoins The amount of native coins to transfer as a reward.\n    /// @param _to The target address to transfer the amounts to.\n    function transferReward(uint256 _nativeCoins, address payable _to) external onlyStakingContract {\n        _transferNativeReward(_nativeCoins, _to);\n    }\n\n    // =============================================== Getters ========================================================\n\n    /// @dev Returns the reward amount in native coins for\n    /// some delegator with the specified stake amount placed into the specified\n    /// pool before the specified staking epoch. Used by the `StakingAuRa.claimReward` function.\n    /// @param _delegatorStake The stake amount placed by some delegator into the `_poolId` pool.\n    /// @param _stakingEpoch The serial number of staking epoch.\n    /// @param _poolId The pool id.\n    /// @return `uint256 nativeReward` - the reward amount in native coins.\n    function getDelegatorReward(\n        uint256 _delegatorStake,\n        uint256 _stakingEpoch,\n        uint256 _poolId\n    ) external view returns(uint256 nativeReward) {\n        uint256 validatorStake = snapshotPoolValidatorStakeAmount[_stakingEpoch][_poolId];\n        uint256 totalStake = snapshotPoolTotalStakeAmount[_stakingEpoch][_poolId];\n\n        nativeReward = delegatorShare(\n            _stakingEpoch,\n            _delegatorStake,\n            validatorStake,\n            totalStake,\n            epochPoolNativeReward[_stakingEpoch][_poolId]\n        );\n    }\n\n    /// @dev Returns the reward amount in native coins for\n    /// the specified validator and for the specified staking epoch.\n    /// Used by the `StakingAuRa.claimReward` function.\n    /// @param _stakingEpoch The serial number of staking epoch.\n    /// @param _poolId The pool id.\n    /// @return `uint256 nativeReward` - the reward amount in native coins.\n    function getValidatorReward(\n        uint256 _stakingEpoch,\n        uint256 _poolId\n    ) external view returns(uint256 nativeReward) {\n        uint256 validatorStake = snapshotPoolValidatorStakeAmount[_stakingEpoch][_poolId];\n        uint256 totalStake = snapshotPoolTotalStakeAmount[_stakingEpoch][_poolId];\n\n        nativeReward = validatorShare(\n            _stakingEpoch,\n            validatorStake,\n            totalStake,\n            epochPoolNativeReward[_stakingEpoch][_poolId]\n        );\n    }\n\n    // ============================================== Internal ========================================================\n\n    /// @dev Calculates and returns inflation amount based on the specified\n    /// staking epoch and validator set. Uses NATIVE_COIN_INFLATION_RATE constant.\n    /// Used by `_distributeNativeRewards` internal function.\n    /// @param _stakingEpoch The number of the current staking epoch.\n    /// @param _validators The array of the current validators (their pool ids).\n    function _coinInflationAmount(\n        uint256 _stakingEpoch,\n        uint256[] memory _validators\n    ) internal view returns(uint256) {\n        return _inflationAmount(_stakingEpoch, _validators, NATIVE_COIN_INFLATION_RATE);\n    }\n\n    function _distributeTokenRewards(\n        address, uint256, uint256, uint256, uint256[] memory, uint256[] memory, uint256\n    ) internal {\n    }\n\n}\n",
  "sourcePath": "/Users/akshaypatil/Documents/etherlite/pos-contracts/posdao-etherlite/contracts/base/BlockRewardAuRaCoins.sol",
  "compiler": {
    "name": "solc",
    "version": "0.5.10+commit.5a6ea5b1.Emscripten.clang"
  },
  "schemaVersion": "3.3.1",
  "updatedAt": "2021-04-11T17:55:35.995Z",
  "devdoc": {
    "methods": {
      "addBridgeNativeFeeReceivers(uint256)": {
        "details": "An alias for `addBridgeNativeRewardReceivers` (for backward compatibility with the previous bridge contract)."
      },
      "addBridgeNativeRewardReceivers(uint256)": {
        "details": "Called by the `erc-to-native` bridge contract when a portion of the bridge fee/reward should be minted and distributed to participants (validators and their delegators) in native coins. The specified amount is used by the `_distributeRewards` function.",
        "params": {
          "_amount": "The fee/reward amount distributed to participants."
        }
      },
      "addExtraReceiver(uint256,address)": {
        "details": "Called by the `erc-to-native` bridge contract when the bridge needs to mint a specified amount of native coins for a specified address using the `reward` function.",
        "params": {
          "_amount": "The amount of native coins which must be minted for the `_receiver` address.",
          "_receiver": "The address for which the `_amount` of native coins must be minted."
        }
      },
      "blockRewardContractId()": {
        "details": "Returns an identifier for the bridge contract so that the latter could ensure it works with the BlockReward contract."
      },
      "clearBlocksCreated()": {
        "details": "Called by the `ValidatorSetAuRa.finalizeChange` to clear the values in the `blocksCreated` mapping for the current staking epoch and a new validator set."
      },
      "currentNativeRewardToDistribute(address,uint256,uint256,uint256,uint256[])": {
        "details": "Calculates the current total reward in native coins which is going to be distributed among validator pools once the current staking epoch finishes. Its value can differ from block to block since the reward can increase in time due to bridge's fees. Used by the `_distributeNativeRewards` internal function but can also be used by any external user.",
        "params": {
          "_stakingContract": "The address of StakingAuRa contract.",
          "_stakingEpoch": "The number of the current staking epoch.",
          "_totalRewardShareDenom": "The value returned by the `_rewardShareNumDenom` internal function. Set it to zero to calculate `_totalRewardShareNum` and `_totalRewardShareDenom` automatically.",
          "_totalRewardShareNum": "The value returned by the `_rewardShareNumDenom` internal function. Ignored if the `_totalRewardShareDenom` param is zero.",
          "_validators": "The array of the current validators. Leave it empty to get the array automatically."
        },
        "return": "`uint256 rewardToDistribute` - The current total reward in native coins to distribute. `uint256 totalReward` - The current total reward in native coins. Can be greater or equal to `rewardToDistribute` depending on chain's health (how soon validator set change was finalized after beginning of staking epoch). Usually equals to `rewardToDistribute`. Used internally by the `_distributeNativeRewards` function."
      },
      "currentPoolRewards(uint256,uint256[],uint256,uint256)": {
        "details": "Calculates and returns an array of validator pool rewards. Each returned item represents a pool reward for each corresponding item returned by `ValidatorSetAuRa.getValidators` getter. Used by the `_distributeNativeRewards` and `_distributeTokenRewards` internal functions but can also be used by any external user.",
        "params": {
          "_blocksCreatedShareDenom": "The value returned by the `_blocksShareNumDenom` internal function. Set it to zero to calculate `_blocksCreatedShareNum` and `_blocksCreatedShareDenom` automatically.",
          "_blocksCreatedShareNum": "The array returned by the `_blocksShareNumDenom` internal function. Ignored if `_blocksCreatedShareDenom` is zero.",
          "_rewardToDistribute": "The amount to distribute calculated by the `currentNativeRewardToDistribute` or `currentTokenRewardToDistribute` functions.",
          "_stakingEpoch": "The number of the current staking epoch."
        }
      },
      "delegatorShare(uint256,uint256,uint256,uint256,uint256)": {
        "details": "Calculates delegator's share for the given pool reward amount and the specified staking epoch. Used by the `StakingAuRa.claimReward` function.",
        "params": {
          "_delegatorStaked": "The amount staked by a delegator.",
          "_poolReward": "The value of pool reward.",
          "_stakingEpoch": "The number of staking epoch.",
          "_totalStaked": "The total amount staked by a validator and their delegators.",
          "_validatorStaked": "The amount staked by a validator."
        }
      },
      "epochsPoolGotRewardFor(uint256)": {
        "details": "Returns an array of epoch numbers for which the specified pool got a non-zero reward."
      },
      "epochsToClaimRewardFrom(address,address)": {
        "details": "Returns an array of epoch numbers for which the specified staker can claim a reward from the specified pool by the `StakingAuRa.claimReward` function.",
        "params": {
          "_poolStakingAddress": "The pool staking address.",
          "_staker": "The staker's address (delegator or candidate/validator)."
        }
      },
      "ercToNativeBridgesAllowed()": {
        "details": "Returns the array of `erc-to-native` bridge addresses set by the `setErcToNativeBridgesAllowed` setter."
      },
      "extraReceiversQueueSize()": {
        "details": "Returns the current size of the address queue created by the `addExtraReceiver` function."
      },
      "getDelegatorReward(uint256,uint256,uint256)": {
        "details": "Returns the reward amount in native coins for some delegator with the specified stake amount placed into the specified pool before the specified staking epoch. Used by the `StakingAuRa.claimReward` function.",
        "params": {
          "_delegatorStake": "The stake amount placed by some delegator into the `_poolId` pool.",
          "_poolId": "The pool id.",
          "_stakingEpoch": "The serial number of staking epoch."
        },
        "return": "`uint256 nativeReward` - the reward amount in native coins."
      },
      "getValidatorReward(uint256,uint256)": {
        "details": "Returns the reward amount in native coins for the specified validator and for the specified staking epoch. Used by the `StakingAuRa.claimReward` function.",
        "params": {
          "_poolId": "The pool id.",
          "_stakingEpoch": "The serial number of staking epoch."
        },
        "return": "`uint256 nativeReward` - the reward amount in native coins."
      },
      "initialize(address,address)": {
        "details": "Initializes the contract at network startup. Can only be called by the constructor of the `InitializerAuRa` contract or owner.",
        "params": {
          "_prevBlockReward": "The address of the previous BlockReward contract (for statistics migration purposes).",
          "_validatorSet": "The address of the `ValidatorSetAuRa` contract."
        }
      },
      "isInitialized()": {
        "details": "Returns a boolean flag indicating if the `initialize` function has been called."
      },
      "onTokenTransfer(address,uint256,bytes)": {
        "details": "Prevents sending tokens directly to the `BlockRewardAuRa` contract address by the `ERC677BridgeTokenRewardable.transferAndCall` function."
      },
      "reward(address[],uint16[])": {
        "details": "Called by the validator's node when producing and closing a block, see https://openethereum.github.io/Block-Reward-Contract.html. This function performs all of the automatic operations needed for controlling numbers revealing by validators, accumulating block producing statistics, starting a new staking epoch, snapshotting staking amounts for the upcoming staking epoch, rewards distributing at the end of a staking epoch, and minting native coins needed for the `erc-to-native` bridge. The function has unlimited gas (according to OpenEthereum and/or Nethermind client code)."
      },
      "setErcToNativeBridgesAllowed(address[])": {
        "details": "Sets the array of `erc-to-native` bridge addresses which are allowed to call some of the functions with the `onlyErcToNativeBridge` modifier. This setter can only be called by the `owner`.",
        "params": {
          "_bridgesAllowed": "The array of bridge addresses."
        }
      },
      "transferReward(uint256,address)": {
        "details": "Called by the `StakingAuRa.claimReward` function to transfer native coins from the balance of the `BlockRewardAuRa` contract to the specified address as a reward.",
        "params": {
          "_nativeCoins": "The amount of native coins to transfer as a reward.",
          "_to": "The target address to transfer the amounts to."
        }
      },
      "validatorRewardPercent(uint256)": {
        "details": "Returns the reward coefficient for the specified validator. The given value should be divided by 10000 to get the value of the reward percent (since EVM doesn't support float values). If the specified pool id is an id of a candidate that is not about to be a validator on the current staking epoch, the potentially possible reward coefficient is returned.",
        "params": {
          "_poolId": "The id of the validator/candidate pool for which the getter must return the coefficient."
        }
      },
      "validatorShare(uint256,uint256,uint256,uint256)": {
        "details": "Calculates validator's share for the given pool reward amount and the specified staking epoch. Used by the `validatorRewardPercent` and `StakingAuRa.claimReward` functions.",
        "params": {
          "_poolReward": "The value of pool reward.",
          "_stakingEpoch": "The number of staking epoch.",
          "_totalStaked": "The total amount staked by a validator and their delegators.",
          "_validatorStaked": "The amount staked by a validator."
        }
      }
    }
  },
  "userdoc": {
    "methods": {}
  }
}