{
  "contractName": "Certifier",
  "abi": [
    {
      "constant": true,
      "inputs": [],
      "name": "validatorSetContract",
      "outputs": [
        {
          "name": "",
          "type": "address"
        }
      ],
      "payable": false,
      "stateMutability": "view",
      "type": "function"
    },
    {
      "anonymous": false,
      "inputs": [
        {
          "indexed": true,
          "name": "who",
          "type": "address"
        }
      ],
      "name": "Confirmed",
      "type": "event"
    },
    {
      "anonymous": false,
      "inputs": [
        {
          "indexed": true,
          "name": "who",
          "type": "address"
        }
      ],
      "name": "Revoked",
      "type": "event"
    },
    {
      "constant": false,
      "inputs": [
        {
          "name": "_certifiedAddresses",
          "type": "address[]"
        },
        {
          "name": "_validatorSet",
          "type": "address"
        }
      ],
      "name": "initialize",
      "outputs": [],
      "payable": false,
      "stateMutability": "nonpayable",
      "type": "function"
    },
    {
      "constant": false,
      "inputs": [
        {
          "name": "_who",
          "type": "address[]"
        }
      ],
      "name": "certify",
      "outputs": [],
      "payable": false,
      "stateMutability": "nonpayable",
      "type": "function"
    },
    {
      "constant": false,
      "inputs": [
        {
          "name": "_who",
          "type": "address[]"
        }
      ],
      "name": "revoke",
      "outputs": [],
      "payable": false,
      "stateMutability": "nonpayable",
      "type": "function"
    },
    {
      "constant": true,
      "inputs": [
        {
          "name": "_who",
          "type": "address"
        }
      ],
      "name": "certified",
      "outputs": [
        {
          "name": "",
          "type": "bool"
        }
      ],
      "payable": false,
      "stateMutability": "view",
      "type": "function"
    },
    {
      "constant": true,
      "inputs": [
        {
          "name": "_who",
          "type": "address"
        }
      ],
      "name": "certifiedExplicitly",
      "outputs": [
        {
          "name": "",
          "type": "bool"
        }
      ],
      "payable": false,
      "stateMutability": "view",
      "type": "function"
    },
    {
      "constant": true,
      "inputs": [],
      "name": "isInitialized",
      "outputs": [
        {
          "name": "",
          "type": "bool"
        }
      ],
      "payable": false,
      "stateMutability": "view",
      "type": "function"
    }
  ],
  "bytecode": "0x608060405234801561001057600080fd5b506109ed806100206000396000f3fe608060405234801561001057600080fd5b506004361061007d5760003560e01c80635d6067d01161005b5780635d6067d0146101b6578063cc1d4c021461022f578063dfc8bf4e1461028b578063e8e23ac0146102d55761007d565b806305f203d914610082578063392e53cd146100fb578063462d0b2e1461011d575b600080fd5b6100f96004803603602081101561009857600080fd5b81019080803590602001906401000000008111156100b557600080fd5b8201836020820111156100c757600080fd5b803590602001918460208302840111640100000000831117156100e957600080fd5b9091929391929390505050610331565b005b6101036104c1565b604051808215151515815260200191505060405180910390f35b6101b46004803603604081101561013357600080fd5b810190808035906020019064010000000081111561015057600080fd5b82018360208201111561016257600080fd5b8035906020019184602083028401116401000000008311171561018457600080fd5b9091929391929390803573ffffffffffffffffffffffffffffffffffffffff16906020019092919050505061051a565b005b61022d600480360360208110156101cc57600080fd5b81019080803590602001906401000000008111156101e957600080fd5b8201836020820111156101fb57600080fd5b8035906020019184602083028401116401000000008311171561021d57600080fd5b9091929391929390505050610646565b005b6102716004803603602081101561024557600080fd5b81019080803573ffffffffffffffffffffffffffffffffffffffff1690602001909291905050506106ea565b604051808215151515815260200191505060405180910390f35b610293610835565b604051808273ffffffffffffffffffffffffffffffffffffffff1673ffffffffffffffffffffffffffffffffffffffff16815260200191505060405180910390f35b610317600480360360208110156102eb57600080fd5b81019080803573ffffffffffffffffffffffffffffffffffffffff16906020019092919050505061085b565b604051808215151515815260200191505060405180910390f35b6103396108b0565b73ffffffffffffffffffffffffffffffffffffffff163373ffffffffffffffffffffffffffffffffffffffff161461037057600080fd5b6103786104c1565b61038157600080fd5b60008090505b828290508110156104bc5760008383838181106103a057fe5b9050602002013573ffffffffffffffffffffffffffffffffffffffff1690506000808273ffffffffffffffffffffffffffffffffffffffff1673ffffffffffffffffffffffffffffffffffffffff16815260200190815260200160002060009054906101000a900460ff1661041457600080fd5b60008060008373ffffffffffffffffffffffffffffffffffffffff1673ffffffffffffffffffffffffffffffffffffffff16815260200190815260200160002060006101000a81548160ff0219169083151502179055508073ffffffffffffffffffffffffffffffffffffffff167fb6fa8b8bd5eab60f292eca876e3ef90722275b785309d84b1de113ce0b8c4e7460405160405180910390a2508080600101915050610387565b505050565b60008073ffffffffffffffffffffffffffffffffffffffff16600160009054906101000a900473ffffffffffffffffffffffffffffffffffffffff1673ffffffffffffffffffffffffffffffffffffffff161415905090565b600043148061055b575061052c6108b0565b73ffffffffffffffffffffffffffffffffffffffff163373ffffffffffffffffffffffffffffffffffffffff16145b61056457600080fd5b61056c6104c1565b1561057657600080fd5b600073ffffffffffffffffffffffffffffffffffffffff168173ffffffffffffffffffffffffffffffffffffffff1614156105b057600080fd5b60008090505b838390508110156105ff576105f28484838181106105d057fe5b9050602002013573ffffffffffffffffffffffffffffffffffffffff166108e1565b80806001019150506105b6565b5080600160006101000a81548173ffffffffffffffffffffffffffffffffffffffff021916908373ffffffffffffffffffffffffffffffffffffffff160217905550505050565b61064e6108b0565b73ffffffffffffffffffffffffffffffffffffffff163373ffffffffffffffffffffffffffffffffffffffff161461068557600080fd5b61068d6104c1565b61069657600080fd5b60008090505b828290508110156106e5576106d88383838181106106b657fe5b9050602002013573ffffffffffffffffffffffffffffffffffffffff166108e1565b808060010191505061069c565b505050565b60008060008373ffffffffffffffffffffffffffffffffffffffff1673ffffffffffffffffffffffffffffffffffffffff16815260200190815260200160002060009054906101000a900460ff16156107465760019050610830565b600160009054906101000a900473ffffffffffffffffffffffffffffffffffffffff1673ffffffffffffffffffffffffffffffffffffffff16639184d0ad8360016040518363ffffffff1660e01b8152600401808373ffffffffffffffffffffffffffffffffffffffff1673ffffffffffffffffffffffffffffffffffffffff168152602001821515151581526020019250505060206040518083038186803b1580156107f257600080fd5b505afa158015610806573d6000803e3d6000fd5b505050506040513d602081101561081c57600080fd5b810190808051906020019092919050505090505b919050565b600160009054906101000a900473ffffffffffffffffffffffffffffffffffffffff1681565b60008060008373ffffffffffffffffffffffffffffffffffffffff1673ffffffffffffffffffffffffffffffffffffffff16815260200190815260200160002060009054906101000a900460ff169050919050565b6000807fb53127684a568b3173ae13b9f8a6016e243e63b6e8ee1178d6a717850b5d610360001b9050805491505090565b600073ffffffffffffffffffffffffffffffffffffffff168173ffffffffffffffffffffffffffffffffffffffff16141561091b57600080fd5b60016000808373ffffffffffffffffffffffffffffffffffffffff1673ffffffffffffffffffffffffffffffffffffffff16815260200190815260200160002060006101000a81548160ff0219169083151502179055508073ffffffffffffffffffffffffffffffffffffffff167fd415b905d4dd806bfba99a7a0e6351bd0c9db3a9912add21c0e6bef4479f673f60405160405180910390a25056fea265627a7a723058207582006a7c02d877278e2448c11e47c6bedad19d4eab23164c2336c2806e0c6364736f6c634300050a0032",
  "source": "pragma solidity 0.5.10;\n\nimport \"./interfaces/ICertifier.sol\";\nimport \"./interfaces/IValidatorSetAuRa.sol\";\nimport \"./upgradeability/UpgradeableOwned.sol\";\n\n\n/// @dev Allows validators to use a zero gas price for their service transactions\n/// (see https://openethereum.github.io/Permissioning.html#gas-price for more info).\ncontract Certifier is UpgradeableOwned, ICertifier {\n\n    // =============================================== Storage ========================================================\n\n    // WARNING: since this contract is upgradeable, do not remove\n    // existing storage variables, do not change their order,\n    // and do not change their types!\n\n    mapping(address => bool) internal _certified;\n\n    /// @dev The address of the `ValidatorSetAuRa` contract.\n    IValidatorSetAuRa public validatorSetContract;\n\n    // ================================================ Events ========================================================\n\n    /// @dev Emitted by the `certify` function when the specified address is allowed to use a zero gas price\n    /// for its transactions.\n    /// @param who Specified address allowed to make zero gas price transactions.\n    event Confirmed(address indexed who);\n\n    /// @dev Emitted by the `revoke` function when the specified address is denied using a zero gas price\n    /// for its transactions.\n    /// @param who Specified address for which zero gas price transactions are denied.\n    event Revoked(address indexed who);\n\n    // ============================================== Modifiers =======================================================\n\n    /// @dev Ensures the `initialize` function was called before.\n    modifier onlyInitialized {\n        require(isInitialized());\n        _;\n    }\n\n    // =============================================== Setters ========================================================\n\n    /// @dev Initializes the contract at network startup.\n    /// Can only be called by the constructor of the `InitializerAuRa` contract or owner.\n    /// @param _certifiedAddresses The addresses for which a zero gas price must be allowed.\n    /// @param _validatorSet The address of the `ValidatorSetAuRa` contract.\n    function initialize(\n        address[] calldata _certifiedAddresses,\n        address _validatorSet\n    ) external {\n        require(block.number == 0 || msg.sender == _admin());\n        require(!isInitialized());\n        require(_validatorSet != address(0));\n        for (uint256 i = 0; i < _certifiedAddresses.length; i++) {\n            _certify(_certifiedAddresses[i]);\n        }\n        validatorSetContract = IValidatorSetAuRa(_validatorSet);\n    }\n\n    /// @dev Allows the specified addresses to use a zero gas price for their transactions.\n    /// Can only be called by the `owner`.\n    /// @param _who The address array for which zero gas price transactions must be allowed.\n    function certify(address[] calldata _who) external onlyOwner onlyInitialized {\n        for (uint256 i = 0; i < _who.length; i++) {\n            _certify(_who[i]);\n        }\n    }\n\n    /// @dev Denies the specified addresses using a zero gas price for their transactions.\n    /// Can only be called by the `owner`.\n    /// @param _who The address array for which transactions with a zero gas price must be denied.\n    function revoke(address[] calldata _who) external onlyOwner onlyInitialized {\n        for (uint256 i = 0; i < _who.length; i++) {\n            address revokeAddress = _who[i];\n            require(_certified[revokeAddress]);\n            _certified[revokeAddress] = false;\n            emit Revoked(revokeAddress);\n        }\n    }\n\n    // =============================================== Getters ========================================================\n\n    /// @dev Returns a boolean flag indicating whether the specified address is allowed to use zero gas price\n    /// transactions. Returns `true` if either the address is certified using the `_certify` function or if \n    /// `ValidatorSetAuRa.isReportValidatorValid` returns `true` for the specified address.\n    /// @param _who The address for which the boolean flag must be determined.\n    function certified(address _who) external view returns(bool) {\n        if (_certified[_who]) {\n            return true;\n        }\n        return validatorSetContract.isReportValidatorValid(_who, true);\n    }\n\n    /// @dev Returns a boolean flag indicating whether the specified address is allowed to use zero gas price\n    /// transactions. Returns `true` if the address is certified using the `_certify` function.\n    /// This function differs from the `certified`: it doesn't take into account the returned value of\n    /// `ValidatorSetAuRa.isReportValidatorValid` function.\n    /// @param _who The address for which the boolean flag must be determined.\n    function certifiedExplicitly(address _who) external view returns(bool) {\n        return _certified[_who];\n    }\n\n    /// @dev Returns a boolean flag indicating if the `initialize` function has been called.\n    function isInitialized() public view returns(bool) {\n        return validatorSetContract != IValidatorSetAuRa(0);\n    }\n\n    // ============================================== Internal ========================================================\n\n    /// @dev An internal function for the `certify` and `initialize` functions.\n    /// @param _who The address for which transactions with a zero gas price must be allowed.\n    function _certify(address _who) internal {\n        require(_who != address(0));\n        _certified[_who] = true;\n        emit Confirmed(_who);\n    }\n}\n",
  "sourcePath": "/Users/akshaypatil/Documents/etherlite/pos-contracts/posdao-etherlite/contracts/Certifier.sol",
  "compiler": {
    "name": "solc",
    "version": "0.5.10+commit.5a6ea5b1.Emscripten.clang"
  },
  "schemaVersion": "3.3.1",
  "updatedAt": "2021-04-11T17:55:35.624Z",
  "devdoc": {
    "details": "Allows validators to use a zero gas price for their service transactions (see https://openethereum.github.io/Permissioning.html#gas-price for more info).",
    "methods": {
      "certified(address)": {
        "details": "Returns a boolean flag indicating whether the specified address is allowed to use zero gas price transactions. Returns `true` if either the address is certified using the `_certify` function or if  `ValidatorSetAuRa.isReportValidatorValid` returns `true` for the specified address.",
        "params": {
          "_who": "The address for which the boolean flag must be determined."
        }
      },
      "certifiedExplicitly(address)": {
        "details": "Returns a boolean flag indicating whether the specified address is allowed to use zero gas price transactions. Returns `true` if the address is certified using the `_certify` function. This function differs from the `certified`: it doesn't take into account the returned value of `ValidatorSetAuRa.isReportValidatorValid` function.",
        "params": {
          "_who": "The address for which the boolean flag must be determined."
        }
      },
      "certify(address[])": {
        "details": "Allows the specified addresses to use a zero gas price for their transactions. Can only be called by the `owner`.",
        "params": {
          "_who": "The address array for which zero gas price transactions must be allowed."
        }
      },
      "initialize(address[],address)": {
        "details": "Initializes the contract at network startup. Can only be called by the constructor of the `InitializerAuRa` contract or owner.",
        "params": {
          "_certifiedAddresses": "The addresses for which a zero gas price must be allowed.",
          "_validatorSet": "The address of the `ValidatorSetAuRa` contract."
        }
      },
      "isInitialized()": {
        "details": "Returns a boolean flag indicating if the `initialize` function has been called."
      },
      "revoke(address[])": {
        "details": "Denies the specified addresses using a zero gas price for their transactions. Can only be called by the `owner`.",
        "params": {
          "_who": "The address array for which transactions with a zero gas price must be denied."
        }
      }
    }
  },
  "userdoc": {
    "methods": {}
  }
}