{
  "contractName": "ERC677MultiBridgeToken",
  "abi": [
    {
      "constant": true,
      "inputs": [],
      "name": "name",
      "outputs": [
        {
          "name": "",
          "type": "string"
        }
      ],
      "payable": false,
      "stateMutability": "view",
      "type": "function"
    },
    {
      "constant": false,
      "inputs": [
        {
          "name": "_spender",
          "type": "address"
        },
        {
          "name": "_value",
          "type": "uint256"
        }
      ],
      "name": "approve",
      "outputs": [
        {
          "name": "",
          "type": "bool"
        }
      ],
      "payable": false,
      "stateMutability": "nonpayable",
      "type": "function"
    },
    {
      "constant": true,
      "inputs": [],
      "name": "totalSupply",
      "outputs": [
        {
          "name": "",
          "type": "uint256"
        }
      ],
      "payable": false,
      "stateMutability": "view",
      "type": "function"
    },
    {
      "constant": false,
      "inputs": [
        {
          "name": "_sender",
          "type": "address"
        },
        {
          "name": "_recipient",
          "type": "address"
        },
        {
          "name": "_amount",
          "type": "uint256"
        }
      ],
      "name": "transferFrom",
      "outputs": [
        {
          "name": "",
          "type": "bool"
        }
      ],
      "payable": false,
      "stateMutability": "nonpayable",
      "type": "function"
    },
    {
      "constant": true,
      "inputs": [],
      "name": "PERMIT_TYPEHASH",
      "outputs": [
        {
          "name": "",
          "type": "bytes32"
        }
      ],
      "payable": false,
      "stateMutability": "view",
      "type": "function"
    },
    {
      "constant": true,
      "inputs": [],
      "name": "decimals",
      "outputs": [
        {
          "name": "",
          "type": "uint8"
        }
      ],
      "payable": false,
      "stateMutability": "view",
      "type": "function"
    },
    {
      "constant": true,
      "inputs": [],
      "name": "DOMAIN_SEPARATOR",
      "outputs": [
        {
          "name": "",
          "type": "bytes32"
        }
      ],
      "payable": false,
      "stateMutability": "view",
      "type": "function"
    },
    {
      "constant": false,
      "inputs": [
        {
          "name": "spender",
          "type": "address"
        },
        {
          "name": "addedValue",
          "type": "uint256"
        }
      ],
      "name": "increaseAllowance",
      "outputs": [
        {
          "name": "",
          "type": "bool"
        }
      ],
      "payable": false,
      "stateMutability": "nonpayable",
      "type": "function"
    },
    {
      "constant": false,
      "inputs": [
        {
          "name": "_to",
          "type": "address"
        },
        {
          "name": "_value",
          "type": "uint256"
        },
        {
          "name": "_data",
          "type": "bytes"
        }
      ],
      "name": "transferAndCall",
      "outputs": [
        {
          "name": "",
          "type": "bool"
        }
      ],
      "payable": false,
      "stateMutability": "nonpayable",
      "type": "function"
    },
    {
      "constant": false,
      "inputs": [
        {
          "name": "_to",
          "type": "address"
        },
        {
          "name": "_amount",
          "type": "uint256"
        }
      ],
      "name": "mint",
      "outputs": [
        {
          "name": "",
          "type": "bool"
        }
      ],
      "payable": false,
      "stateMutability": "nonpayable",
      "type": "function"
    },
    {
      "constant": false,
      "inputs": [
        {
          "name": "_value",
          "type": "uint256"
        }
      ],
      "name": "burn",
      "outputs": [],
      "payable": false,
      "stateMutability": "nonpayable",
      "type": "function"
    },
    {
      "constant": true,
      "inputs": [
        {
          "name": "",
          "type": "address"
        }
      ],
      "name": "bridgePointers",
      "outputs": [
        {
          "name": "",
          "type": "address"
        }
      ],
      "payable": false,
      "stateMutability": "view",
      "type": "function"
    },
    {
      "constant": true,
      "inputs": [],
      "name": "version",
      "outputs": [
        {
          "name": "",
          "type": "string"
        }
      ],
      "payable": false,
      "stateMutability": "view",
      "type": "function"
    },
    {
      "constant": false,
      "inputs": [
        {
          "name": "_spender",
          "type": "address"
        },
        {
          "name": "_subtractedValue",
          "type": "uint256"
        }
      ],
      "name": "decreaseApproval",
      "outputs": [
        {
          "name": "",
          "type": "bool"
        }
      ],
      "payable": false,
      "stateMutability": "nonpayable",
      "type": "function"
    },
    {
      "constant": false,
      "inputs": [
        {
          "name": "_token",
          "type": "address"
        },
        {
          "name": "_to",
          "type": "address"
        }
      ],
      "name": "claimTokens",
      "outputs": [],
      "payable": false,
      "stateMutability": "nonpayable",
      "type": "function"
    },
    {
      "constant": true,
      "inputs": [
        {
          "name": "_owner",
          "type": "address"
        }
      ],
      "name": "balanceOf",
      "outputs": [
        {
          "name": "",
          "type": "uint256"
        }
      ],
      "payable": false,
      "stateMutability": "view",
      "type": "function"
    },
    {
      "constant": true,
      "inputs": [
        {
          "name": "",
          "type": "address"
        }
      ],
      "name": "nonces",
      "outputs": [
        {
          "name": "",
          "type": "uint256"
        }
      ],
      "payable": false,
      "stateMutability": "view",
      "type": "function"
    },
    {
      "constant": true,
      "inputs": [],
      "name": "getTokenInterfacesVersion",
      "outputs": [
        {
          "name": "major",
          "type": "uint64"
        },
        {
          "name": "minor",
          "type": "uint64"
        },
        {
          "name": "patch",
          "type": "uint64"
        }
      ],
      "payable": false,
      "stateMutability": "pure",
      "type": "function"
    },
    {
      "constant": true,
      "inputs": [],
      "name": "owner",
      "outputs": [
        {
          "name": "",
          "type": "address"
        }
      ],
      "payable": false,
      "stateMutability": "view",
      "type": "function"
    },
    {
      "constant": false,
      "inputs": [
        {
          "name": "_holder",
          "type": "address"
        },
        {
          "name": "_spender",
          "type": "address"
        },
        {
          "name": "_nonce",
          "type": "uint256"
        },
        {
          "name": "_expiry",
          "type": "uint256"
        },
        {
          "name": "_allowed",
          "type": "bool"
        },
        {
          "name": "_v",
          "type": "uint8"
        },
        {
          "name": "_r",
          "type": "bytes32"
        },
        {
          "name": "_s",
          "type": "bytes32"
        }
      ],
      "name": "permit",
      "outputs": [],
      "payable": false,
      "stateMutability": "nonpayable",
      "type": "function"
    },
    {
      "constant": true,
      "inputs": [],
      "name": "symbol",
      "outputs": [
        {
          "name": "",
          "type": "string"
        }
      ],
      "payable": false,
      "stateMutability": "view",
      "type": "function"
    },
    {
      "constant": false,
      "inputs": [
        {
          "name": "spender",
          "type": "address"
        },
        {
          "name": "subtractedValue",
          "type": "uint256"
        }
      ],
      "name": "decreaseAllowance",
      "outputs": [
        {
          "name": "",
          "type": "bool"
        }
      ],
      "payable": false,
      "stateMutability": "nonpayable",
      "type": "function"
    },
    {
      "constant": false,
      "inputs": [
        {
          "name": "_to",
          "type": "address"
        },
        {
          "name": "_value",
          "type": "uint256"
        }
      ],
      "name": "transfer",
      "outputs": [
        {
          "name": "",
          "type": "bool"
        }
      ],
      "payable": false,
      "stateMutability": "nonpayable",
      "type": "function"
    },
    {
      "constant": false,
      "inputs": [
        {
          "name": "_to",
          "type": "address"
        },
        {
          "name": "_amount",
          "type": "uint256"
        }
      ],
      "name": "push",
      "outputs": [],
      "payable": false,
      "stateMutability": "nonpayable",
      "type": "function"
    },
    {
      "constant": false,
      "inputs": [
        {
          "name": "_from",
          "type": "address"
        },
        {
          "name": "_to",
          "type": "address"
        },
        {
          "name": "_amount",
          "type": "uint256"
        }
      ],
      "name": "move",
      "outputs": [],
      "payable": false,
      "stateMutability": "nonpayable",
      "type": "function"
    },
    {
      "constant": true,
      "inputs": [],
      "name": "F_ADDR",
      "outputs": [
        {
          "name": "",
          "type": "address"
        }
      ],
      "payable": false,
      "stateMutability": "view",
      "type": "function"
    },
    {
      "constant": false,
      "inputs": [
        {
          "name": "_spender",
          "type": "address"
        },
        {
          "name": "_addedValue",
          "type": "uint256"
        }
      ],
      "name": "increaseApproval",
      "outputs": [
        {
          "name": "",
          "type": "bool"
        }
      ],
      "payable": false,
      "stateMutability": "nonpayable",
      "type": "function"
    },
    {
      "constant": true,
      "inputs": [
        {
          "name": "_owner",
          "type": "address"
        },
        {
          "name": "_spender",
          "type": "address"
        }
      ],
      "name": "allowance",
      "outputs": [
        {
          "name": "",
          "type": "uint256"
        }
      ],
      "payable": false,
      "stateMutability": "view",
      "type": "function"
    },
    {
      "constant": false,
      "inputs": [
        {
          "name": "_from",
          "type": "address"
        },
        {
          "name": "_amount",
          "type": "uint256"
        }
      ],
      "name": "pull",
      "outputs": [],
      "payable": false,
      "stateMutability": "nonpayable",
      "type": "function"
    },
    {
      "constant": false,
      "inputs": [
        {
          "name": "_newOwner",
          "type": "address"
        }
      ],
      "name": "transferOwnership",
      "outputs": [],
      "payable": false,
      "stateMutability": "nonpayable",
      "type": "function"
    },
    {
      "constant": true,
      "inputs": [],
      "name": "bridgeCount",
      "outputs": [
        {
          "name": "",
          "type": "uint256"
        }
      ],
      "payable": false,
      "stateMutability": "view",
      "type": "function"
    },
    {
      "constant": true,
      "inputs": [
        {
          "name": "",
          "type": "address"
        },
        {
          "name": "",
          "type": "address"
        }
      ],
      "name": "expirations",
      "outputs": [
        {
          "name": "",
          "type": "uint256"
        }
      ],
      "payable": false,
      "stateMutability": "view",
      "type": "function"
    },
    {
      "inputs": [
        {
          "name": "_name",
          "type": "string"
        },
        {
          "name": "_symbol",
          "type": "string"
        },
        {
          "name": "_decimals",
          "type": "uint8"
        },
        {
          "name": "_chainId",
          "type": "uint256"
        }
      ],
      "payable": false,
      "stateMutability": "nonpayable",
      "type": "constructor"
    },
    {
      "anonymous": false,
      "inputs": [
        {
          "indexed": true,
          "name": "bridge",
          "type": "address"
        }
      ],
      "name": "BridgeAdded",
      "type": "event"
    },
    {
      "anonymous": false,
      "inputs": [
        {
          "indexed": true,
          "name": "bridge",
          "type": "address"
        }
      ],
      "name": "BridgeRemoved",
      "type": "event"
    },
    {
      "anonymous": false,
      "inputs": [
        {
          "indexed": false,
          "name": "from",
          "type": "address"
        },
        {
          "indexed": false,
          "name": "to",
          "type": "address"
        },
        {
          "indexed": false,
          "name": "value",
          "type": "uint256"
        }
      ],
      "name": "ContractFallbackCallFailed",
      "type": "event"
    },
    {
      "anonymous": false,
      "inputs": [
        {
          "indexed": true,
          "name": "to",
          "type": "address"
        },
        {
          "indexed": false,
          "name": "amount",
          "type": "uint256"
        }
      ],
      "name": "Mint",
      "type": "event"
    },
    {
      "anonymous": false,
      "inputs": [
        {
          "indexed": true,
          "name": "previousOwner",
          "type": "address"
        },
        {
          "indexed": true,
          "name": "newOwner",
          "type": "address"
        }
      ],
      "name": "OwnershipTransferred",
      "type": "event"
    },
    {
      "anonymous": false,
      "inputs": [
        {
          "indexed": true,
          "name": "burner",
          "type": "address"
        },
        {
          "indexed": false,
          "name": "value",
          "type": "uint256"
        }
      ],
      "name": "Burn",
      "type": "event"
    },
    {
      "anonymous": false,
      "inputs": [
        {
          "indexed": true,
          "name": "from",
          "type": "address"
        },
        {
          "indexed": true,
          "name": "to",
          "type": "address"
        },
        {
          "indexed": false,
          "name": "value",
          "type": "uint256"
        },
        {
          "indexed": false,
          "name": "data",
          "type": "bytes"
        }
      ],
      "name": "Transfer",
      "type": "event"
    },
    {
      "anonymous": false,
      "inputs": [
        {
          "indexed": true,
          "name": "owner",
          "type": "address"
        },
        {
          "indexed": true,
          "name": "spender",
          "type": "address"
        },
        {
          "indexed": false,
          "name": "value",
          "type": "uint256"
        }
      ],
      "name": "Approval",
      "type": "event"
    },
    {
      "anonymous": false,
      "inputs": [
        {
          "indexed": true,
          "name": "from",
          "type": "address"
        },
        {
          "indexed": true,
          "name": "to",
          "type": "address"
        },
        {
          "indexed": false,
          "name": "value",
          "type": "uint256"
        }
      ],
      "name": "Transfer",
      "type": "event"
    },
    {
      "constant": false,
      "inputs": [
        {
          "name": "_bridge",
          "type": "address"
        }
      ],
      "name": "addBridge",
      "outputs": [],
      "payable": false,
      "stateMutability": "nonpayable",
      "type": "function"
    },
    {
      "constant": false,
      "inputs": [
        {
          "name": "_bridge",
          "type": "address"
        }
      ],
      "name": "removeBridge",
      "outputs": [],
      "payable": false,
      "stateMutability": "nonpayable",
      "type": "function"
    },
    {
      "constant": true,
      "inputs": [],
      "name": "bridgeList",
      "outputs": [
        {
          "name": "",
          "type": "address[]"
        }
      ],
      "payable": false,
      "stateMutability": "view",
      "type": "function"
    },
    {
      "constant": true,
      "inputs": [
        {
          "name": "_address",
          "type": "address"
        }
      ],
      "name": "isBridge",
      "outputs": [
        {
          "name": "",
          "type": "bool"
        }
      ],
      "payable": false,
      "stateMutability": "view",
      "type": "function"
    }
  ],
  "bytecode": "0x60806040523480156200001157600080fd5b5060405162003f8138038062003f81833981810160405260808110156200003757600080fd5b8101908080516401000000008111156200005057600080fd5b828101905060208101848111156200006757600080fd5b81518560018202830111640100000000821117156200008557600080fd5b50509291906020018051640100000000811115620000a257600080fd5b82810190506020810184811115620000b957600080fd5b8151856001820283011164010000000082111715620000d757600080fd5b505092919060200180519060200190929190805190602001909291905050508383838383838382828282600090805190602001906200011892919062000318565b5081600190805190602001906200013192919062000318565b5080600260006101000a81548160ff021916908360ff16021790555050505033600660006101000a81548173ffffffffffffffffffffffffffffffffffffffff021916908373ffffffffffffffffffffffffffffffffffffffff1602179055505050506000811415620001a357600080fd5b604051808062003f2f605291396052019050604051809103902084805190602001206040518060400160405280600181526020017f3100000000000000000000000000000000000000000000000000000000000000815250805190602001208330604051602001808681526020018581526020018481526020018381526020018273ffffffffffffffffffffffffffffffffffffffff1673ffffffffffffffffffffffffffffffffffffffff16815260200195505050505050604051602081830303815290604052805190602001206007819055505050505073ffffffffffffffffffffffffffffffffffffffff600a600073ffffffffffffffffffffffffffffffffffffffff801673ffffffffffffffffffffffffffffffffffffffff16815260200190815260200160002060006101000a81548173ffffffffffffffffffffffffffffffffffffffff021916908373ffffffffffffffffffffffffffffffffffffffff16021790555050505050620003c7565b828054600181600116156101000203166002900490600052602060002090601f016020900481019282601f106200035b57805160ff19168380011785556200038c565b828001600101855582156200038c579182015b828111156200038b5782518255916020019190600101906200036e565b5b5090506200039b91906200039f565b5090565b620003c491905b80821115620003c0576000816000905550600101620003a6565b5090565b90565b613b5880620003d76000396000f3fe608060405234801561001057600080fd5b506004361061021c5760003560e01c80637ecebe0011610125578063b753a98c116100ad578063dd62ed3e1161007c578063dd62ed3e14610d9a578063f2d5d56b14610e12578063f2fde38b14610e60578063fbb2a53f14610ea4578063ff9e884d14610ec25761021c565b8063b753a98c14610c2e578063bb35783b14610c7c578063c794c76914610cea578063d73dd62314610d345761021c565b806395d89b41116100f457806395d89b4114610a3c5780639712fdf814610abf5780639da38e2f14610b03578063a457c2d714610b62578063a9059cbb14610bc85761021c565b80637ecebe001461088c578063859ba28c146108e45780638da5cb5b1461094c5780638fcbaf0c146109965761021c565b80634000aea0116101a857806354fd4d501161017757806354fd4d501461068b578063661884631461070e57806369ffa08a1461077457806370a08231146107d8578063726600ce146108305761021c565b80634000aea0146104b857806340c10f191461057357806342966c68146105d95780634bcb88bc146106075761021c565b806323b872dd116101ef57806323b872dd1461036c57806330adf81f146103f2578063313ce567146104105780633644e5151461043457806339509351146104525761021c565b806304df017d1461022157806306fdde0314610265578063095ea7b3146102e857806318160ddd1461034e575b600080fd5b6102636004803603602081101561023757600080fd5b81019080803573ffffffffffffffffffffffffffffffffffffffff169060200190929190505050610f3a565b005b61026d611316565b6040518080602001828103825283818151815260200191508051906020019080838360005b838110156102ad578082015181840152602081019050610292565b50505050905090810190601f1680156102da5780820380516001836020036101000a031916815260200191505b509250505060405180910390f35b610334600480360360408110156102fe57600080fd5b81019080803573ffffffffffffffffffffffffffffffffffffffff169060200190929190803590602001909291905050506113b4565b604051808215151515815260200191505060405180910390f35b6103566114a6565b6040518082815260200191505060405180910390f35b6103d86004803603606081101561038257600080fd5b81019080803573ffffffffffffffffffffffffffffffffffffffff169060200190929190803573ffffffffffffffffffffffffffffffffffffffff169060200190929190803590602001909291905050506114b0565b604051808215151515815260200191505060405180910390f35b6103fa6119ca565b6040518082815260200191505060405180910390f35b6104186119f1565b604051808260ff1660ff16815260200191505060405180910390f35b61043c611a04565b6040518082815260200191505060405180910390f35b61049e6004803603604081101561046857600080fd5b81019080803573ffffffffffffffffffffffffffffffffffffffff16906020019092919080359060200190929190505050611a0a565b604051808215151515815260200191505060405180910390f35b610559600480360360608110156104ce57600080fd5b81019080803573ffffffffffffffffffffffffffffffffffffffff169060200190929190803590602001909291908035906020019064010000000081111561051557600080fd5b82018360208201111561052757600080fd5b8035906020019184600183028401116401000000008311171561054957600080fd5b9091929391929390505050611a1e565b604051808215151515815260200191505060405180910390f35b6105bf6004803603604081101561058957600080fd5b81019080803573ffffffffffffffffffffffffffffffffffffffff16906020019092919080359060200190929190505050611bb4565b604051808215151515815260200191505060405180910390f35b610605600480360360208110156105ef57600080fd5b8101908080359060200190929190505050611d7e565b005b6106496004803603602081101561061d57600080fd5b81019080803573ffffffffffffffffffffffffffffffffffffffff169060200190929190505050611d8b565b604051808273ffffffffffffffffffffffffffffffffffffffff1673ffffffffffffffffffffffffffffffffffffffff16815260200191505060405180910390f35b610693611dbe565b6040518080602001828103825283818151815260200191508051906020019080838360005b838110156106d35780820151818401526020810190506106b8565b50505050905090810190601f1680156107005780820380516001836020036101000a031916815260200191505b509250505060405180910390f35b61075a6004803603604081101561072457600080fd5b81019080803573ffffffffffffffffffffffffffffffffffffffff16906020019092919080359060200190929190505050611df7565b604051808215151515815260200191505060405180910390f35b6107d66004803603604081101561078a57600080fd5b81019080803573ffffffffffffffffffffffffffffffffffffffff169060200190929190803573ffffffffffffffffffffffffffffffffffffffff169060200190929190505050612087565b005b61081a600480360360208110156107ee57600080fd5b81019080803573ffffffffffffffffffffffffffffffffffffffff16906020019092919050505061212b565b6040518082815260200191505060405180910390f35b6108726004803603602081101561084657600080fd5b81019080803573ffffffffffffffffffffffffffffffffffffffff169060200190929190505050612174565b604051808215151515815260200191505060405180910390f35b6108ce600480360360208110156108a257600080fd5b81019080803573ffffffffffffffffffffffffffffffffffffffff169060200190929190505050612245565b6040518082815260200191505060405180910390f35b6108ec61225d565b604051808467ffffffffffffffff1667ffffffffffffffff1681526020018367ffffffffffffffff1667ffffffffffffffff1681526020018267ffffffffffffffff1667ffffffffffffffff168152602001935050505060405180910390f35b61095461227b565b604051808273ffffffffffffffffffffffffffffffffffffffff1673ffffffffffffffffffffffffffffffffffffffff16815260200191505060405180910390f35b610a3a60048036036101008110156109ad57600080fd5b81019080803573ffffffffffffffffffffffffffffffffffffffff169060200190929190803573ffffffffffffffffffffffffffffffffffffffff1690602001909291908035906020019092919080359060200190929190803515159060200190929190803560ff16906020019092919080359060200190929190803590602001909291905050506122a1565b005b610a44612707565b6040518080602001828103825283818151815260200191508051906020019080838360005b83811015610a84578082015181840152602081019050610a69565b50505050905090810190601f168015610ab15780820380516001836020036101000a031916815260200191505b509250505060405180910390f35b610b0160048036036020811015610ad557600080fd5b81019080803573ffffffffffffffffffffffffffffffffffffffff1690602001909291905050506127a5565b005b610b0b612a30565b6040518080602001828103825283818151815260200191508051906020019060200280838360005b83811015610b4e578082015181840152602081019050610b33565b505050509050019250505060405180910390f35b610bae60048036036040811015610b7857600080fd5b81019080803573ffffffffffffffffffffffffffffffffffffffff16906020019092919080359060200190929190505050612c37565b604051808215151515815260200191505060405180910390f35b610c1460048036036040811015610bde57600080fd5b81019080803573ffffffffffffffffffffffffffffffffffffffff16906020019092919080359060200190929190505050612c4b565b604051808215151515815260200191505060405180910390f35b610c7a60048036036040811015610c4457600080fd5b81019080803573ffffffffffffffffffffffffffffffffffffffff16906020019092919080359060200190929190505050612c75565b005b610ce860048036036060811015610c9257600080fd5b81019080803573ffffffffffffffffffffffffffffffffffffffff169060200190929190803573ffffffffffffffffffffffffffffffffffffffff16906020019092919080359060200190929190505050612c85565b005b610cf2612c96565b604051808273ffffffffffffffffffffffffffffffffffffffff1673ffffffffffffffffffffffffffffffffffffffff16815260200191505060405180910390f35b610d8060048036036040811015610d4a57600080fd5b81019080803573ffffffffffffffffffffffffffffffffffffffff16906020019092919080359060200190929190505050612cae565b604051808215151515815260200191505060405180910390f35b610dfc60048036036040811015610db057600080fd5b81019080803573ffffffffffffffffffffffffffffffffffffffff169060200190929190803573ffffffffffffffffffffffffffffffffffffffff169060200190929190505050612eaa565b6040518082815260200191505060405180910390f35b610e5e60048036036040811015610e2857600080fd5b81019080803573ffffffffffffffffffffffffffffffffffffffff16906020019092919080359060200190929190505050612f31565b005b610ea260048036036020811015610e7657600080fd5b81019080803573ffffffffffffffffffffffffffffffffffffffff169060200190929190505050612f41565b005b610eac612fa7565b6040518082815260200191505060405180910390f35b610f2460048036036040811015610ed857600080fd5b81019080803573ffffffffffffffffffffffffffffffffffffffff169060200190929190803573ffffffffffffffffffffffffffffffffffffffff169060200190929190505050612fad565b6040518082815260200191505060405180910390f35b600660009054906101000a900473ffffffffffffffffffffffffffffffffffffffff1673ffffffffffffffffffffffffffffffffffffffff163373ffffffffffffffffffffffffffffffffffffffff1614610f9457600080fd5b610f9d81612174565b610fa657600080fd5b6000600a60008373ffffffffffffffffffffffffffffffffffffffff1673ffffffffffffffffffffffffffffffffffffffff16815260200190815260200160002060009054906101000a900473ffffffffffffffffffffffffffffffffffffffff169050600073ffffffffffffffffffffffffffffffffffffffff90506000600a60008373ffffffffffffffffffffffffffffffffffffffff1673ffffffffffffffffffffffffffffffffffffffff16815260200190815260200160002060009054906101000a900473ffffffffffffffffffffffffffffffffffffffff169050600073ffffffffffffffffffffffffffffffffffffffff168173ffffffffffffffffffffffffffffffffffffffff1614156110c157600080fd5b5b8373ffffffffffffffffffffffffffffffffffffffff168173ffffffffffffffffffffffffffffffffffffffff16146111d157809150600a60008373ffffffffffffffffffffffffffffffffffffffff1673ffffffffffffffffffffffffffffffffffffffff16815260200190815260200160002060009054906101000a900473ffffffffffffffffffffffffffffffffffffffff16905073ffffffffffffffffffffffffffffffffffffffff80168173ffffffffffffffffffffffffffffffffffffffff16141580156111c35750600073ffffffffffffffffffffffffffffffffffffffff168173ffffffffffffffffffffffffffffffffffffffff1614155b6111cc57600080fd5b6110c2565b82600a60008473ffffffffffffffffffffffffffffffffffffffff1673ffffffffffffffffffffffffffffffffffffffff16815260200190815260200160002060006101000a81548173ffffffffffffffffffffffffffffffffffffffff021916908373ffffffffffffffffffffffffffffffffffffffff160217905550600a60008573ffffffffffffffffffffffffffffffffffffffff1673ffffffffffffffffffffffffffffffffffffffff16815260200190815260200160002060006101000a81549073ffffffffffffffffffffffffffffffffffffffff02191690556112c76001600b54612fd290919063ffffffff16565b600b819055508373ffffffffffffffffffffffffffffffffffffffff167f5d9d5034656cb3ebfb0655057cd7f9b4077a9b42ff42ce223cbac5bc586d212660405160405180910390a250505050565b60008054600181600116156101000203166002900480601f0160208091040260200160405190810160405280929190818152602001828054600181600116156101000203166002900480156113ac5780601f10611381576101008083540402835291602001916113ac565b820191906000526020600020905b81548152906001019060200180831161138f57829003601f168201915b505050505081565b600081600560003373ffffffffffffffffffffffffffffffffffffffff1673ffffffffffffffffffffffffffffffffffffffff16815260200190815260200160002060008573ffffffffffffffffffffffffffffffffffffffff1673ffffffffffffffffffffffffffffffffffffffff168152602001908152602001600020819055508273ffffffffffffffffffffffffffffffffffffffff163373ffffffffffffffffffffffffffffffffffffffff167f8c5be1e5ebec7d5bd14f71427d1e84f3dd0314c0f7b2291e5b200ac8c7c3b925846040518082815260200191505060405180910390a36001905092915050565b6000600454905090565b60008073ffffffffffffffffffffffffffffffffffffffff168473ffffffffffffffffffffffffffffffffffffffff1614156114eb57600080fd5b600073ffffffffffffffffffffffffffffffffffffffff168373ffffffffffffffffffffffffffffffffffffffff16141561152557600080fd5b61157782600360008773ffffffffffffffffffffffffffffffffffffffff1673ffffffffffffffffffffffffffffffffffffffff16815260200190815260200160002054612fd290919063ffffffff16565b600360008673ffffffffffffffffffffffffffffffffffffffff1673ffffffffffffffffffffffffffffffffffffffff1681526020019081526020016000208190555061160c82600360008673ffffffffffffffffffffffffffffffffffffffff1673ffffffffffffffffffffffffffffffffffffffff16815260200190815260200160002054612fe990919063ffffffff16565b600360008573ffffffffffffffffffffffffffffffffffffffff1673ffffffffffffffffffffffffffffffffffffffff168152602001908152602001600020819055508273ffffffffffffffffffffffffffffffffffffffff168473ffffffffffffffffffffffffffffffffffffffff167fddf252ad1be2c89b69c2b068fc378daa952ba7f163c4a11628f55a4df523b3ef846040518082815260200191505060405180910390a33373ffffffffffffffffffffffffffffffffffffffff168473ffffffffffffffffffffffffffffffffffffffff16146119b35760006116f38533612eaa565b90507fffffffffffffffffffffffffffffffffffffffffffffffffffffffffffffffff81146118955761172f8382612fd290919063ffffffff16565b600560008773ffffffffffffffffffffffffffffffffffffffff1673ffffffffffffffffffffffffffffffffffffffff16815260200190815260200160002060003373ffffffffffffffffffffffffffffffffffffffff1673ffffffffffffffffffffffffffffffffffffffff168152602001908152602001600020819055503373ffffffffffffffffffffffffffffffffffffffff168573ffffffffffffffffffffffffffffffffffffffff167f8c5be1e5ebec7d5bd14f71427d1e84f3dd0314c0f7b2291e5b200ac8c7c3b925600560008973ffffffffffffffffffffffffffffffffffffffff1673ffffffffffffffffffffffffffffffffffffffff16815260200190815260200160002060003373ffffffffffffffffffffffffffffffffffffffff1673ffffffffffffffffffffffffffffffffffffffff168152602001908152602001600020546040518082815260200191505060405180910390a36119ad565b6000600960008773ffffffffffffffffffffffffffffffffffffffff1673ffffffffffffffffffffffffffffffffffffffff16815260200190815260200160002060003373ffffffffffffffffffffffffffffffffffffffff1673ffffffffffffffffffffffffffffffffffffffff1681526020019081526020016000205414806119a35750611923613003565b600960008773ffffffffffffffffffffffffffffffffffffffff1673ffffffffffffffffffffffffffffffffffffffff16815260200190815260200160002060003373ffffffffffffffffffffffffffffffffffffffff1673ffffffffffffffffffffffffffffffffffffffff1681526020019081526020016000205410155b6119ac57600080fd5b5b506119b4565b5b6119bf84848461300b565b600190509392505050565b7fea2aa0a1be11a07ed86d755c93467f4f82362b452371d1ba94d1715123511acb60001b81565b600260009054906101000a900460ff1681565b60075481565b6000611a168383612cae565b905092915050565b600084600073ffffffffffffffffffffffffffffffffffffffff168173ffffffffffffffffffffffffffffffffffffffff1614158015611a8a57503073ffffffffffffffffffffffffffffffffffffffff168173ffffffffffffffffffffffffffffffffffffffff1614155b611a9357600080fd5b611a9d868661311a565b611aa657600080fd5b8573ffffffffffffffffffffffffffffffffffffffff163373ffffffffffffffffffffffffffffffffffffffff167fe19260aff97b920c7df27010903aeb9c8d2be5d310a2c67824cf3f15396e4c1687878760405180848152602001806020018281038252848482818152602001925080828437600081840152601f19601f82011690508083019250505094505050505060405180910390a3611b488661312e565b15611ba757611b9d33878787878080601f016020809104026020016040519081016040528093929190818152602001838380828437600081840152601f19601f82011690508083019250505050505050613141565b611ba657600080fd5b5b6001915050949350505050565b6000600660009054906101000a900473ffffffffffffffffffffffffffffffffffffffff1673ffffffffffffffffffffffffffffffffffffffff163373ffffffffffffffffffffffffffffffffffffffff1614611c1057600080fd5b611c2582600454612fe990919063ffffffff16565b600481905550611c7d82600360008673ffffffffffffffffffffffffffffffffffffffff1673ffffffffffffffffffffffffffffffffffffffff16815260200190815260200160002054612fe990919063ffffffff16565b600360008573ffffffffffffffffffffffffffffffffffffffff1673ffffffffffffffffffffffffffffffffffffffff168152602001908152602001600020819055508273ffffffffffffffffffffffffffffffffffffffff167f0f6798a560793a54c3bcfe86a93cde1e73087d944c0ea20544137d4121396885836040518082815260200191505060405180910390a28273ffffffffffffffffffffffffffffffffffffffff16600073ffffffffffffffffffffffffffffffffffffffff167fddf252ad1be2c89b69c2b068fc378daa952ba7f163c4a11628f55a4df523b3ef846040518082815260200191505060405180910390a36001905092915050565b611d88338261331c565b50565b600a6020528060005260406000206000915054906101000a900473ffffffffffffffffffffffffffffffffffffffff1681565b6040518060400160405280600181526020017f310000000000000000000000000000000000000000000000000000000000000081525081565b600080600560003373ffffffffffffffffffffffffffffffffffffffff1673ffffffffffffffffffffffffffffffffffffffff16815260200190815260200160002060008573ffffffffffffffffffffffffffffffffffffffff1673ffffffffffffffffffffffffffffffffffffffff168152602001908152602001600020549050808310611f07576000600560003373ffffffffffffffffffffffffffffffffffffffff1673ffffffffffffffffffffffffffffffffffffffff16815260200190815260200160002060008673ffffffffffffffffffffffffffffffffffffffff1673ffffffffffffffffffffffffffffffffffffffff16815260200190815260200160002081905550611f9b565b611f1a8382612fd290919063ffffffff16565b600560003373ffffffffffffffffffffffffffffffffffffffff1673ffffffffffffffffffffffffffffffffffffffff16815260200190815260200160002060008673ffffffffffffffffffffffffffffffffffffffff1673ffffffffffffffffffffffffffffffffffffffff168152602001908152602001600020819055505b8373ffffffffffffffffffffffffffffffffffffffff163373ffffffffffffffffffffffffffffffffffffffff167f8c5be1e5ebec7d5bd14f71427d1e84f3dd0314c0f7b2291e5b200ac8c7c3b925600560003373ffffffffffffffffffffffffffffffffffffffff1673ffffffffffffffffffffffffffffffffffffffff16815260200190815260200160002060008873ffffffffffffffffffffffffffffffffffffffff1673ffffffffffffffffffffffffffffffffffffffff168152602001908152602001600020546040518082815260200191505060405180910390a3600191505092915050565b600660009054906101000a900473ffffffffffffffffffffffffffffffffffffffff1673ffffffffffffffffffffffffffffffffffffffff163373ffffffffffffffffffffffffffffffffffffffff16146120e157600080fd5b80600073ffffffffffffffffffffffffffffffffffffffff168173ffffffffffffffffffffffffffffffffffffffff16141561211c57600080fd5b61212683836134d0565b505050565b6000600360008373ffffffffffffffffffffffffffffffffffffffff1673ffffffffffffffffffffffffffffffffffffffff168152602001908152602001600020549050919050565b600073ffffffffffffffffffffffffffffffffffffffff80168273ffffffffffffffffffffffffffffffffffffffff161415801561223e5750600073ffffffffffffffffffffffffffffffffffffffff16600a60008473ffffffffffffffffffffffffffffffffffffffff1673ffffffffffffffffffffffffffffffffffffffff16815260200190815260200160002060009054906101000a900473ffffffffffffffffffffffffffffffffffffffff1673ffffffffffffffffffffffffffffffffffffffff1614155b9050919050565b60086020528060005260406000206000915090505481565b60008060006002806000829250819150809050925092509250909192565b600660009054906101000a900473ffffffffffffffffffffffffffffffffffffffff1681565b600073ffffffffffffffffffffffffffffffffffffffff168873ffffffffffffffffffffffffffffffffffffffff1614156122db57600080fd5b600073ffffffffffffffffffffffffffffffffffffffff168773ffffffffffffffffffffffffffffffffffffffff16141561231557600080fd5b600085148061232b575084612328613003565b11155b61233457600080fd5b60006007547fea2aa0a1be11a07ed86d755c93467f4f82362b452371d1ba94d1715123511acb60001b8a8a8a8a8a604051602001808781526020018673ffffffffffffffffffffffffffffffffffffffff1673ffffffffffffffffffffffffffffffffffffffff1681526020018573ffffffffffffffffffffffffffffffffffffffff1673ffffffffffffffffffffffffffffffffffffffff1681526020018481526020018381526020018215151515815260200196505050505050506040516020818303038152906040528051906020012060405160200180807f19010000000000000000000000000000000000000000000000000000000000008152506002018381526020018281526020019250505060405160208183030381529060405280519060200120905060018185858560405160008152602001604052604051808581526020018460ff1660ff1681526020018381526020018281526020019450505050506020604051602081039080840390855afa1580156124bb573d6000803e3d6000fd5b5050506020604051035173ffffffffffffffffffffffffffffffffffffffff168973ffffffffffffffffffffffffffffffffffffffff16146124fc57600080fd5b600860008a73ffffffffffffffffffffffffffffffffffffffff1673ffffffffffffffffffffffffffffffffffffffff168152602001908152602001600020600081548092919060010191905055871461255557600080fd5b600085612563576000612585565b7fffffffffffffffffffffffffffffffffffffffffffffffffffffffffffffffff5b905080600560008c73ffffffffffffffffffffffffffffffffffffffff1673ffffffffffffffffffffffffffffffffffffffff16815260200190815260200160002060008b73ffffffffffffffffffffffffffffffffffffffff1673ffffffffffffffffffffffffffffffffffffffff1681526020019081526020016000208190555085612614576000612616565b865b600960008c73ffffffffffffffffffffffffffffffffffffffff1673ffffffffffffffffffffffffffffffffffffffff16815260200190815260200160002060008b73ffffffffffffffffffffffffffffffffffffffff1673ffffffffffffffffffffffffffffffffffffffff168152602001908152602001600020819055508873ffffffffffffffffffffffffffffffffffffffff168a73ffffffffffffffffffffffffffffffffffffffff167f8c5be1e5ebec7d5bd14f71427d1e84f3dd0314c0f7b2291e5b200ac8c7c3b925836040518082815260200191505060405180910390a350505050505050505050565b60018054600181600116156101000203166002900480601f01602080910402602001604051908101604052809291908181526020018280546001816001161561010002031660029004801561279d5780601f106127725761010080835404028352916020019161279d565b820191906000526020600020905b81548152906001019060200180831161278057829003601f168201915b505050505081565b600660009054906101000a900473ffffffffffffffffffffffffffffffffffffffff1673ffffffffffffffffffffffffffffffffffffffff163373ffffffffffffffffffffffffffffffffffffffff16146127ff57600080fd5b6032600b541061280e57600080fd5b6128178161312e565b61282057600080fd5b61282981612174565b1561283357600080fd5b6000600a600073ffffffffffffffffffffffffffffffffffffffff801673ffffffffffffffffffffffffffffffffffffffff16815260200190815260200160002060009054906101000a900473ffffffffffffffffffffffffffffffffffffffff169050600073ffffffffffffffffffffffffffffffffffffffff168173ffffffffffffffffffffffffffffffffffffffff1614156128d157600080fd5b81600a600073ffffffffffffffffffffffffffffffffffffffff801673ffffffffffffffffffffffffffffffffffffffff16815260200190815260200160002060006101000a81548173ffffffffffffffffffffffffffffffffffffffff021916908373ffffffffffffffffffffffffffffffffffffffff16021790555080600a60008473ffffffffffffffffffffffffffffffffffffffff1673ffffffffffffffffffffffffffffffffffffffff16815260200190815260200160002060006101000a81548173ffffffffffffffffffffffffffffffffffffffff021916908373ffffffffffffffffffffffffffffffffffffffff1602179055506129e36001600b54612fe990919063ffffffff16565b600b819055508173ffffffffffffffffffffffffffffffffffffffff167f3cda433c5679ae4c6a5dea50840e222a42cba3695e4663de4366be899348422160405160405180910390a25050565b606080600b54604051908082528060200260200182016040528015612a645781602001602082028038833980820191505090505b50905060008090506000600a600073ffffffffffffffffffffffffffffffffffffffff801673ffffffffffffffffffffffffffffffffffffffff16815260200190815260200160002060009054906101000a900473ffffffffffffffffffffffffffffffffffffffff169050600073ffffffffffffffffffffffffffffffffffffffff168173ffffffffffffffffffffffffffffffffffffffff161415612b0a57600080fd5b5b73ffffffffffffffffffffffffffffffffffffffff80168173ffffffffffffffffffffffffffffffffffffffff1614612c2e5780838381518110612b4b57fe5b602002602001019073ffffffffffffffffffffffffffffffffffffffff16908173ffffffffffffffffffffffffffffffffffffffff1681525050600a60008273ffffffffffffffffffffffffffffffffffffffff1673ffffffffffffffffffffffffffffffffffffffff16815260200190815260200160002060009054906101000a900473ffffffffffffffffffffffffffffffffffffffff1690508180600101925050600073ffffffffffffffffffffffffffffffffffffffff168173ffffffffffffffffffffffffffffffffffffffff161415612c2957600080fd5b612b0b565b82935050505090565b6000612c438383611df7565b905092915050565b6000612c57838361311a565b612c6057600080fd5b612c6b33848461300b565b6001905092915050565b612c803383836114b0565b505050565b612c908383836114b0565b50505050565b73ffffffffffffffffffffffffffffffffffffffff81565b6000612d3f82600560003373ffffffffffffffffffffffffffffffffffffffff1673ffffffffffffffffffffffffffffffffffffffff16815260200190815260200160002060008673ffffffffffffffffffffffffffffffffffffffff1673ffffffffffffffffffffffffffffffffffffffff16815260200190815260200160002054612fe990919063ffffffff16565b600560003373ffffffffffffffffffffffffffffffffffffffff1673ffffffffffffffffffffffffffffffffffffffff16815260200190815260200160002060008573ffffffffffffffffffffffffffffffffffffffff1673ffffffffffffffffffffffffffffffffffffffff168152602001908152602001600020819055508273ffffffffffffffffffffffffffffffffffffffff163373ffffffffffffffffffffffffffffffffffffffff167f8c5be1e5ebec7d5bd14f71427d1e84f3dd0314c0f7b2291e5b200ac8c7c3b925600560003373ffffffffffffffffffffffffffffffffffffffff1673ffffffffffffffffffffffffffffffffffffffff16815260200190815260200160002060008773ffffffffffffffffffffffffffffffffffffffff1673ffffffffffffffffffffffffffffffffffffffff168152602001908152602001600020546040518082815260200191505060405180910390a36001905092915050565b6000600560008473ffffffffffffffffffffffffffffffffffffffff1673ffffffffffffffffffffffffffffffffffffffff16815260200190815260200160002060008373ffffffffffffffffffffffffffffffffffffffff1673ffffffffffffffffffffffffffffffffffffffff16815260200190815260200160002054905092915050565b612f3c8233836114b0565b505050565b600660009054906101000a900473ffffffffffffffffffffffffffffffffffffffff1673ffffffffffffffffffffffffffffffffffffffff163373ffffffffffffffffffffffffffffffffffffffff1614612f9b57600080fd5b612fa481613522565b50565b600b5481565b6009602052816000526040600020602052806000526040600020600091509150505481565b600082821115612fde57fe5b818303905092915050565b6000818301905082811015612ffa57fe5b80905092915050565b600042905090565b6130148261312e565b801561305d575061305b83838360006040519080825280601f01601f1916602001820160405280156130555781602001600182028038833980820191505090505b50613141565b155b156131155761306b82612174565b1561307557600080fd5b7f11249f0fc79fc134a15a10d1da8291b79515bf987e036ced05b9ec119614070b838383604051808473ffffffffffffffffffffffffffffffffffffffff1673ffffffffffffffffffffffffffffffffffffffff1681526020018373ffffffffffffffffffffffffffffffffffffffff1673ffffffffffffffffffffffffffffffffffffffff168152602001828152602001935050505060405180910390a15b505050565b6000613126838361361c565b905092915050565b600080823b905060008111915050919050565b6000808473ffffffffffffffffffffffffffffffffffffffff1663a4c0ed3660e01b878686604051602401808473ffffffffffffffffffffffffffffffffffffffff1673ffffffffffffffffffffffffffffffffffffffff16815260200183815260200180602001828103825283818151815260200191508051906020019080838360005b838110156131e15780820151818401526020810190506131c6565b50505050905090810190601f16801561320e5780820380516001836020036101000a031916815260200191505b50945050505050604051602081830303815290604052907bffffffffffffffffffffffffffffffffffffffffffffffffffffffff19166020820180517bffffffffffffffffffffffffffffffffffffffffffffffffffffffff83818316178352505050506040518082805190602001908083835b602083106132a55780518252602082019150602081019050602083039250613282565b6001836020036101000a0380198251168184511680821785525050505050509050019150506000604051808303816000865af19150503d8060008114613307576040519150601f19603f3d011682016040523d82523d6000602084013e61330c565b606091505b5050905080915050949350505050565b600360008373ffffffffffffffffffffffffffffffffffffffff1673ffffffffffffffffffffffffffffffffffffffff1681526020019081526020016000205481111561336857600080fd5b6133ba81600360008573ffffffffffffffffffffffffffffffffffffffff1673ffffffffffffffffffffffffffffffffffffffff16815260200190815260200160002054612fd290919063ffffffff16565b600360008473ffffffffffffffffffffffffffffffffffffffff1673ffffffffffffffffffffffffffffffffffffffff1681526020019081526020016000208190555061341281600454612fd290919063ffffffff16565b6004819055508173ffffffffffffffffffffffffffffffffffffffff167fcc16f5dbb4873280815c1ee09dbd06736cffcc184412cf7a71a0fdb75d397ca5826040518082815260200191505060405180910390a2600073ffffffffffffffffffffffffffffffffffffffff168273ffffffffffffffffffffffffffffffffffffffff167fddf252ad1be2c89b69c2b068fc378daa952ba7f163c4a11628f55a4df523b3ef836040518082815260200191505060405180910390a35050565b600073ffffffffffffffffffffffffffffffffffffffff168273ffffffffffffffffffffffffffffffffffffffff1614156135135761350e8161383d565b61351e565b61351d82826138fa565b5b5050565b600073ffffffffffffffffffffffffffffffffffffffff168173ffffffffffffffffffffffffffffffffffffffff16141561355c57600080fd5b8073ffffffffffffffffffffffffffffffffffffffff16600660009054906101000a900473ffffffffffffffffffffffffffffffffffffffff1673ffffffffffffffffffffffffffffffffffffffff167f8be0079c531659141344cd1fd0a4f28419497f9722a3daafe3b4186f6b6457e060405160405180910390a380600660006101000a81548173ffffffffffffffffffffffffffffffffffffffff021916908373ffffffffffffffffffffffffffffffffffffffff16021790555050565b6000600360003373ffffffffffffffffffffffffffffffffffffffff1673ffffffffffffffffffffffffffffffffffffffff1681526020019081526020016000205482111561366a57600080fd5b600073ffffffffffffffffffffffffffffffffffffffff168373ffffffffffffffffffffffffffffffffffffffff1614156136a457600080fd5b6136f682600360003373ffffffffffffffffffffffffffffffffffffffff1673ffffffffffffffffffffffffffffffffffffffff16815260200190815260200160002054612fd290919063ffffffff16565b600360003373ffffffffffffffffffffffffffffffffffffffff1673ffffffffffffffffffffffffffffffffffffffff1681526020019081526020016000208190555061378b82600360008673ffffffffffffffffffffffffffffffffffffffff1673ffffffffffffffffffffffffffffffffffffffff16815260200190815260200160002054612fe990919063ffffffff16565b600360008573ffffffffffffffffffffffffffffffffffffffff1673ffffffffffffffffffffffffffffffffffffffff168152602001908152602001600020819055508273ffffffffffffffffffffffffffffffffffffffff163373ffffffffffffffffffffffffffffffffffffffff167fddf252ad1be2c89b69c2b068fc378daa952ba7f163c4a11628f55a4df523b3ef846040518082815260200191505060405180910390a36001905092915050565b60003073ffffffffffffffffffffffffffffffffffffffff163190508173ffffffffffffffffffffffffffffffffffffffff166108fc829081150290604051600060405180830381858888f193505050506138f65780826040516138a090613ac9565b808273ffffffffffffffffffffffffffffffffffffffff1673ffffffffffffffffffffffffffffffffffffffff1681526020019150506040518091039082f0801580156138f1573d6000803e3d6000fd5b509050505b5050565b600082905060008173ffffffffffffffffffffffffffffffffffffffff166370a08231306040518263ffffffff1660e01b8152600401808273ffffffffffffffffffffffffffffffffffffffff1673ffffffffffffffffffffffffffffffffffffffff16815260200191505060206040518083038186803b15801561397e57600080fd5b505afa158015613992573d6000803e3d6000fd5b505050506040513d60208110156139a857600080fd5b810190808051906020019092919050505090506139c68484836139cc565b50505050565b60606000606063a9059cbb60e01b8585604051602401808373ffffffffffffffffffffffffffffffffffffffff1673ffffffffffffffffffffffffffffffffffffffff16815260200182815260200192505050604051602081830303815290604052907bffffffffffffffffffffffffffffffffffffffffffffffffffffffff19166020820180517bffffffffffffffffffffffffffffffffffffffffffffffffffffffff838183161783525050505090506020600082516020840160008a5af1600051935060005192508060008114613aa557613aaa565b600080fd5b5050600083511115613ac15781613ac057600080fd5b5b505050505050565b604e80613ad68339019056fe6080604052604051604e380380604e83398181016040526020811015602357600080fd5b81019080805190602001909291905050508073ffffffffffffffffffffffffffffffffffffffff16fffea265627a7a7230582011dca36d9db5224531f92d7a1ef4cfb4f985fde9995410b49b89499a891b68a864736f6c634300050a0032454950373132446f6d61696e28737472696e67206e616d652c737472696e672076657273696f6e2c75696e7432353620636861696e49642c6164647265737320766572696679696e67436f6e747261637429",
  "source": "pragma solidity 0.5.10;\n\n// This is a staking token ERC677 contract\n// (a copy of the token contract from https://github.com/poanetwork/tokenbridge-contracts repo).\n\n// Since the source `ERC677BridgeTokenRewardable` requires solc v0.4.24 but truffle\n// doesn't allow using different versions of compiler at the same time, this flat\n// source file for `ERC677BridgeTokenRewardable` was taken from\n// https://github.com/poanetwork/tokenbridge-contracts/tree/a7ce4441ab77e1c3e4d01017d862c53516933645\n// cleared of excess functions and adapted for solc v0.5.10.\n\n\n/* solhint-disable */\n// File: openzeppelin-solidity/contracts/token/ERC20/ERC20Basic.sol\n\n/**\n * @title ERC20Basic\n * @dev Simpler version of ERC20 interface\n * See https://github.com/ethereum/EIPs/issues/179\n */\ncontract ERC20Basic {\n  function totalSupply() public view returns (uint256);\n  function balanceOf(address _who) public view returns (uint256);\n  function transfer(address _to, uint256 _value) public returns (bool);\n  event Transfer(address indexed from, address indexed to, uint256 value);\n}\n\n// File: openzeppelin-solidity/contracts/math/SafeMath.sol\n\n/**\n * @title SafeMath\n * @dev Math operations with safety checks that throw on error\n */\nlibrary SafeMath {\n\n  /**\n  * @dev Multiplies two numbers, throws on overflow.\n  */\n  function mul(uint256 _a, uint256 _b) internal pure returns (uint256 c) {\n    // Gas optimization: this is cheaper than asserting 'a' not being zero, but the\n    // benefit is lost if 'b' is also tested.\n    // See: https://github.com/OpenZeppelin/openzeppelin-solidity/pull/522\n    if (_a == 0) {\n      return 0;\n    }\n\n    c = _a * _b;\n    assert(c / _a == _b);\n    return c;\n  }\n\n  /**\n  * @dev Integer division of two numbers, truncating the quotient.\n  */\n  function div(uint256 _a, uint256 _b) internal pure returns (uint256) {\n    // assert(_b > 0); // Solidity automatically throws when dividing by 0\n    // uint256 c = _a / _b;\n    // assert(_a == _b * c + _a % _b); // There is no case in which this doesn't hold\n    return _a / _b;\n  }\n\n  /**\n  * @dev Subtracts two numbers, throws on overflow (i.e. if subtrahend is greater than minuend).\n  */\n  function sub(uint256 _a, uint256 _b) internal pure returns (uint256) {\n    assert(_b <= _a);\n    return _a - _b;\n  }\n\n  /**\n  * @dev Adds two numbers, throws on overflow.\n  */\n  function add(uint256 _a, uint256 _b) internal pure returns (uint256 c) {\n    c = _a + _b;\n    assert(c >= _a);\n    return c;\n  }\n}\n\n// File: openzeppelin-solidity/contracts/token/ERC20/BasicToken.sol\n\n/**\n * @title Basic token\n * @dev Basic version of StandardToken, with no allowances.\n */\ncontract BasicToken is ERC20Basic {\n  using SafeMath for uint256;\n\n  mapping(address => uint256) internal balances;\n\n  uint256 internal totalSupply_;\n\n  /**\n  * @dev Total number of tokens in existence\n  */\n  function totalSupply() public view returns (uint256) {\n    return totalSupply_;\n  }\n\n  /**\n  * @dev Transfer token for a specified address\n  * @param _to The address to transfer to.\n  * @param _value The amount to be transferred.\n  */\n  function transfer(address _to, uint256 _value) public returns (bool) {\n    require(_value <= balances[msg.sender]);\n    require(_to != address(0));\n\n    balances[msg.sender] = balances[msg.sender].sub(_value);\n    balances[_to] = balances[_to].add(_value);\n    emit Transfer(msg.sender, _to, _value);\n    return true;\n  }\n\n  /**\n  * @dev Gets the balance of the specified address.\n  * @param _owner The address to query the the balance of.\n  * @return An uint256 representing the amount owned by the passed address.\n  */\n  function balanceOf(address _owner) public view returns (uint256) {\n    return balances[_owner];\n  }\n\n}\n\n// File: openzeppelin-solidity/contracts/token/ERC20/BurnableToken.sol\n\n/**\n * @title Burnable Token\n * @dev Token that can be irreversibly burned (destroyed).\n */\ncontract BurnableToken is BasicToken {\n\n  event Burn(address indexed burner, uint256 value);\n\n  /**\n   * @dev Burns a specific amount of tokens.\n   * @param _value The amount of token to be burned.\n   */\n  function burn(uint256 _value) public {\n    _burn(msg.sender, _value);\n  }\n\n  function _burn(address _who, uint256 _value) internal {\n    require(_value <= balances[_who]);\n    // no need to require value <= totalSupply, since that would imply the\n    // sender's balance is greater than the totalSupply, which *should* be an assertion failure\n\n    balances[_who] = balances[_who].sub(_value);\n    totalSupply_ = totalSupply_.sub(_value);\n    emit Burn(_who, _value);\n    emit Transfer(_who, address(0), _value);\n  }\n}\n\n// File: openzeppelin-solidity/contracts/token/ERC20/ERC20.sol\n\n/**\n * @title ERC20 interface\n * @dev see https://github.com/ethereum/EIPs/issues/20\n */\ncontract ERC20 is ERC20Basic {\n  function allowance(address _owner, address _spender)\n    public view returns (uint256);\n\n  function transferFrom(address _from, address _to, uint256 _value)\n    public returns (bool);\n\n  function approve(address _spender, uint256 _value) public returns (bool);\n  event Approval(\n    address indexed owner,\n    address indexed spender,\n    uint256 value\n  );\n}\n\n// File: openzeppelin-solidity/contracts/token/ERC20/StandardToken.sol\n\n/**\n * @title Standard ERC20 token\n *\n * @dev Implementation of the basic standard token.\n * https://github.com/ethereum/EIPs/issues/20\n * Based on code by FirstBlood: https://github.com/Firstbloodio/token/blob/master/smart_contract/FirstBloodToken.sol\n */\ncontract StandardToken is ERC20, BasicToken {\n\n  mapping (address => mapping (address => uint256)) internal allowed;\n\n\n  /**\n   * @dev Transfer tokens from one address to another\n   * @param _from address The address which you want to send tokens from\n   * @param _to address The address which you want to transfer to\n   * @param _value uint256 the amount of tokens to be transferred\n   */\n  function transferFrom(\n    address _from,\n    address _to,\n    uint256 _value\n  )\n    public\n    returns (bool)\n  {\n    require(_value <= balances[_from]);\n    require(_value <= allowed[_from][msg.sender]);\n    require(_to != address(0));\n\n    balances[_from] = balances[_from].sub(_value);\n    balances[_to] = balances[_to].add(_value);\n    allowed[_from][msg.sender] = allowed[_from][msg.sender].sub(_value);\n    emit Transfer(_from, _to, _value);\n    return true;\n  }\n\n  /**\n   * @dev Approve the passed address to spend the specified amount of tokens on behalf of msg.sender.\n   * Beware that changing an allowance with this method brings the risk that someone may use both the old\n   * and the new allowance by unfortunate transaction ordering. One possible solution to mitigate this\n   * race condition is to first reduce the spender's allowance to 0 and set the desired value afterwards:\n   * https://github.com/ethereum/EIPs/issues/20#issuecomment-263524729\n   * @param _spender The address which will spend the funds.\n   * @param _value The amount of tokens to be spent.\n   */\n  function approve(address _spender, uint256 _value) public returns (bool) {\n    allowed[msg.sender][_spender] = _value;\n    emit Approval(msg.sender, _spender, _value);\n    return true;\n  }\n\n  /**\n   * @dev Function to check the amount of tokens that an owner allowed to a spender.\n   * @param _owner address The address which owns the funds.\n   * @param _spender address The address which will spend the funds.\n   * @return A uint256 specifying the amount of tokens still available for the spender.\n   */\n  function allowance(\n    address _owner,\n    address _spender\n   )\n    public\n    view\n    returns (uint256)\n  {\n    return allowed[_owner][_spender];\n  }\n\n  /**\n   * @dev Increase the amount of tokens that an owner allowed to a spender.\n   * approve should be called when allowed[_spender] == 0. To increment\n   * allowed value is better to use this function to avoid 2 calls (and wait until\n   * the first transaction is mined)\n   * From MonolithDAO Token.sol\n   * @param _spender The address which will spend the funds.\n   * @param _addedValue The amount of tokens to increase the allowance by.\n   */\n  function increaseApproval(\n    address _spender,\n    uint256 _addedValue\n  )\n    public\n    returns (bool)\n  {\n    allowed[msg.sender][_spender] = (\n      allowed[msg.sender][_spender].add(_addedValue));\n    emit Approval(msg.sender, _spender, allowed[msg.sender][_spender]);\n    return true;\n  }\n\n  /**\n   * @dev Decrease the amount of tokens that an owner allowed to a spender.\n   * approve should be called when allowed[_spender] == 0. To decrement\n   * allowed value is better to use this function to avoid 2 calls (and wait until\n   * the first transaction is mined)\n   * From MonolithDAO Token.sol\n   * @param _spender The address which will spend the funds.\n   * @param _subtractedValue The amount of tokens to decrease the allowance by.\n   */\n  function decreaseApproval(\n    address _spender,\n    uint256 _subtractedValue\n  )\n    public\n    returns (bool)\n  {\n    uint256 oldValue = allowed[msg.sender][_spender];\n    if (_subtractedValue >= oldValue) {\n      allowed[msg.sender][_spender] = 0;\n    } else {\n      allowed[msg.sender][_spender] = oldValue.sub(_subtractedValue);\n    }\n    emit Approval(msg.sender, _spender, allowed[msg.sender][_spender]);\n    return true;\n  }\n\n}\n\n// File: openzeppelin-solidity/contracts/ownership/Ownable.sol\n\n/**\n * @title Ownable\n * @dev The Ownable contract has an owner address, and provides basic authorization control\n * functions, this simplifies the implementation of \"user permissions\".\n */\ncontract Ownable {\n  address public owner;\n\n\n  event OwnershipTransferred(\n    address indexed previousOwner,\n    address indexed newOwner\n  );\n\n\n  /**\n   * @dev The Ownable constructor sets the original `owner` of the contract to the sender\n   * account.\n   */\n  constructor() public {\n    owner = msg.sender;\n  }\n\n  /**\n   * @dev Throws if called by any account other than the owner.\n   */\n  modifier onlyOwner() {\n    require(msg.sender == owner);\n    _;\n  }\n\n  /**\n   * @dev Allows the current owner to transfer control of the contract to a newOwner.\n   * @param _newOwner The address to transfer ownership to.\n   */\n  function transferOwnership(address _newOwner) public onlyOwner {\n    _transferOwnership(_newOwner);\n  }\n\n  /**\n   * @dev Transfers control of the contract to a newOwner.\n   * @param _newOwner The address to transfer ownership to.\n   */\n  function _transferOwnership(address _newOwner) internal {\n    require(_newOwner != address(0));\n    emit OwnershipTransferred(owner, _newOwner);\n    owner = _newOwner;\n  }\n}\n\n// File: openzeppelin-solidity/contracts/token/ERC20/MintableToken.sol\n\n/**\n * @title Mintable token\n * @dev Simple ERC20 Token example, with mintable token creation\n * Based on code by TokenMarketNet: https://github.com/TokenMarketNet/ico/blob/master/contracts/MintableToken.sol\n */\ncontract MintableToken is StandardToken, Ownable {\n  event Mint(address indexed to, uint256 amount);\n\n  modifier hasMintPermission() {\n    require(msg.sender == owner);\n    _;\n  }\n\n  /**\n   * @dev Function to mint tokens\n   * @param _to The address that will receive the minted tokens.\n   * @param _amount The amount of tokens to mint.\n   * @return A boolean that indicates if the operation was successful.\n   */\n  function mint(\n    address _to,\n    uint256 _amount\n  )\n    public\n    hasMintPermission\n    returns (bool)\n  {\n    totalSupply_ = totalSupply_.add(_amount);\n    balances[_to] = balances[_to].add(_amount);\n    emit Mint(_to, _amount);\n    emit Transfer(address(0), _to, _amount);\n    return true;\n  }\n}\n\n// File: openzeppelin-solidity/contracts/token/ERC20/DetailedERC20.sol\n\n/**\n * @title DetailedERC20 token\n * @dev The decimals are only for visualization purposes.\n * All the operations are done using the smallest and indivisible token unit,\n * just as on Ethereum all the operations are done in wei.\n */\ncontract DetailedERC20 is ERC20 {\n  string public name;\n  string public symbol;\n  uint8 public decimals;\n\n  constructor(string memory _name, string memory _symbol, uint8 _decimals) public {\n    name = _name;\n    symbol = _symbol;\n    decimals = _decimals;\n  }\n}\n\n// File: openzeppelin-solidity/contracts/AddressUtils.sol\n\n/**\n * Utility library of inline functions on addresses\n */\nlibrary AddressUtils {\n\n  /**\n   * Returns whether the target address is a contract\n   * @dev This function will return false if invoked during the constructor of a contract,\n   * as the code is not actually created until after the constructor finishes.\n   * @param _addr address to check\n   * @return whether the target address is a contract\n   */\n  function isContract(address _addr) internal view returns (bool) {\n    uint256 size;\n    // XXX Currently there is no better way to check if there is a contract in an address\n    // than to check the size of the code at that address.\n    // See https://ethereum.stackexchange.com/a/14016/36603\n    // for more details about how this works.\n    // TODO Check this again before the Serenity release, because all addresses will be\n    // contracts then.\n    // solium-disable-next-line security/no-inline-assembly\n    assembly { size := extcodesize(_addr) }\n    return size > 0;\n  }\n\n}\n\n// File: contracts/interfaces/ERC677.sol\n\ncontract ERC677 is ERC20 {\n    event Transfer(address indexed from, address indexed to, uint256 value, bytes data);\n\n    function transferAndCall(address, uint256, bytes calldata) external returns (bool);\n\n    function increaseAllowance(address spender, uint256 addedValue) public returns (bool);\n    function decreaseAllowance(address spender, uint256 subtractedValue) public returns (bool);\n}\n\n// File: contracts/interfaces/IBurnableMintableERC677Token.sol\n\ncontract IBurnableMintableERC677Token is ERC677 {\n    function mint(address _to, uint256 _amount) public returns (bool);\n    function burn(uint256 _value) public;\n    function claimTokens(address _token, address payable _to) public;\n}\n\n// File: contracts/upgradeable_contracts/Sacrifice.sol\n\ncontract Sacrifice {\n    constructor(address payable _recipient) public payable {\n        selfdestruct(_recipient);\n    }\n}\n\n// File: contracts/upgradeable_contracts/Claimable.sol\n\ncontract Claimable {\n    bytes4 internal constant TRANSFER = 0xa9059cbb; // transfer(address,uint256)\n\n    modifier validAddress(address _to) {\n        require(_to != address(0));\n        /* solcov ignore next */\n        _;\n    }\n\n    function claimValues(address _token, address payable _to) internal {\n        if (_token == address(0)) {\n            claimNativeCoins(_to);\n        } else {\n            claimErc20Tokens(_token, _to);\n        }\n    }\n\n    function claimNativeCoins(address payable _to) internal {\n        uint256 value = address(this).balance;\n        if (!_to.send(value)) {\n            (new Sacrifice).value(value)(_to);\n        }\n    }\n\n    function claimErc20Tokens(address _token, address _to) internal {\n        ERC20Basic token = ERC20Basic(_token);\n        uint256 balance = token.balanceOf(address(this));\n        safeTransfer(_token, _to, balance);\n    }\n\n    function safeTransfer(address _token, address _to, uint256 _value) internal {\n        bytes memory returnData;\n        bool returnDataResult;\n        bytes memory callData = abi.encodeWithSelector(TRANSFER, _to, _value);\n        assembly {\n            let result := call(gas, _token, 0x0, add(callData, 0x20), mload(callData), 0, 32)\n            returnData := mload(0)\n            returnDataResult := mload(0)\n\n            switch result\n                case 0 {\n                    revert(0, 0)\n                }\n        }\n\n        // Return data is optional\n        if (returnData.length > 0) {\n            require(returnDataResult);\n        }\n    }\n}\n\n// File: contracts/ERC677BridgeToken.sol\n\n/**\n* @title ERC677BridgeToken\n* @dev The basic implementation of a bridgeable ERC677-compatible token\n*/\ncontract ERC677BridgeToken is IBurnableMintableERC677Token, DetailedERC20, BurnableToken, MintableToken, Claimable {\n    bytes4 internal constant ON_TOKEN_TRANSFER = 0xa4c0ed36; // onTokenTransfer(address,uint256,bytes)\n\n    event ContractFallbackCallFailed(address from, address to, uint256 value);\n\n    constructor(\n        string memory _name,\n        string memory _symbol,\n        uint8 _decimals\n    ) DetailedERC20(_name, _symbol, _decimals) public {\n        // solhint-disable-previous-line no-empty-blocks\n    }\n\n    modifier validRecipient(address _recipient) {\n        require(_recipient != address(0) && _recipient != address(this));\n        /* solcov ignore next */\n        _;\n    }\n\n    function transferAndCall(address _to, uint256 _value, bytes calldata _data) external validRecipient(_to) returns (bool) {\n        require(superTransfer(_to, _value));\n        emit Transfer(msg.sender, _to, _value, _data);\n\n        if (AddressUtils.isContract(_to)) {\n            require(contractFallback(msg.sender, _to, _value, _data));\n        }\n        return true;\n    }\n\n    function getTokenInterfacesVersion() external pure returns (uint64 major, uint64 minor, uint64 patch) {\n        return (2, 2, 0);\n    }\n\n    function superTransfer(address _to, uint256 _value) internal returns (bool) {\n        return super.transfer(_to, _value);\n    }\n\n    function transfer(address _to, uint256 _value) public returns (bool) {\n        require(superTransfer(_to, _value));\n        callAfterTransfer(msg.sender, _to, _value);\n        return true;\n    }\n\n    function transferFrom(address _from, address _to, uint256 _value) public returns (bool) {\n        require(super.transferFrom(_from, _to, _value));\n        callAfterTransfer(_from, _to, _value);\n        return true;\n    }\n\n    function callAfterTransfer(address _from, address _to, uint256 _value) internal {\n        if (AddressUtils.isContract(_to) && !contractFallback(_from, _to, _value, new bytes(0))) {\n            require(!isBridge(_to));\n            emit ContractFallbackCallFailed(_from, _to, _value);\n        }\n    }\n\n    function isBridge(address) public view returns (bool);\n\n    /**\n     * @dev call onTokenTransfer fallback on the token recipient contract\n     * @param _from tokens sender\n     * @param _to tokens recipient\n     * @param _value amount of tokens that was sent\n     * @param _data set of extra bytes that can be passed to the recipient\n     */\n    function contractFallback(address _from, address _to, uint256 _value, bytes memory _data) private returns (bool) {\n        (bool success,) = _to.call(abi.encodeWithSelector(ON_TOKEN_TRANSFER, _from, _value, _data));\n        return success;\n    }\n\n    function claimTokens(address _token, address payable _to) public onlyOwner validAddress(_to) {\n        claimValues(_token, _to);\n    }\n\n    function increaseAllowance(address spender, uint256 addedValue) public returns (bool) {\n        return super.increaseApproval(spender, addedValue);\n    }\n\n    function decreaseAllowance(address spender, uint256 subtractedValue) public returns (bool) {\n        return super.decreaseApproval(spender, subtractedValue);\n    }\n}\n\n// File: contracts/PermittableToken.sol\n\ncontract PermittableToken is ERC677BridgeToken {\n    string public constant version = \"1\";\n\n    // EIP712 niceties\n    bytes32 public DOMAIN_SEPARATOR;\n    // bytes32 public constant PERMIT_TYPEHASH = keccak256(\"Permit(address holder,address spender,uint256 nonce,uint256 expiry,bool allowed)\");\n    bytes32 public constant PERMIT_TYPEHASH = 0xea2aa0a1be11a07ed86d755c93467f4f82362b452371d1ba94d1715123511acb;\n\n    mapping(address => uint256) public nonces;\n    mapping(address => mapping(address => uint256)) public expirations;\n\n    constructor(\n        string memory _name,\n        string memory _symbol,\n        uint8 _decimals,\n        uint256 _chainId\n    ) ERC677BridgeToken(_name, _symbol, _decimals) public {\n        require(_chainId != 0);\n        DOMAIN_SEPARATOR = keccak256(abi.encode(\n            keccak256(\"EIP712Domain(string name,string version,uint256 chainId,address verifyingContract)\"),\n            keccak256(bytes(_name)),\n            keccak256(bytes(version)),\n            _chainId,\n            address(this)\n        ));\n    }\n\n    /// @dev transferFrom in this contract works in a slightly different form than the generic\n    /// transferFrom function. This contract allows for \"unlimited approval\".\n    /// Should the user approve an address for the maximum uint256 value,\n    /// then that address will have unlimited approval until told otherwise.\n    /// @param _sender The address of the sender.\n    /// @param _recipient The address of the recipient.\n    /// @param _amount The value to transfer.\n    /// @return Success status.\n    function transferFrom(address _sender, address _recipient, uint256 _amount) public returns (bool) {\n        require(_sender != address(0));\n        require(_recipient != address(0));\n\n        balances[_sender] = balances[_sender].sub(_amount);\n        balances[_recipient] = balances[_recipient].add(_amount);\n        emit Transfer(_sender, _recipient, _amount);\n\n        if (_sender != msg.sender) {\n            uint256 allowedAmount = allowance(_sender, msg.sender);\n\n            if (allowedAmount != uint256(-1)) {\n                // If allowance is limited, adjust it.\n                // In this case `transferFrom` works like the generic\n                allowed[_sender][msg.sender] = allowedAmount.sub(_amount);\n                emit Approval(_sender, msg.sender, allowed[_sender][msg.sender]);\n            } else {\n                // If allowance is unlimited by `permit`, `approve`, or `increaseAllowance`\n                // function, don't adjust it. But the expiration date must be empty or in the future\n                require(\n                    expirations[_sender][msg.sender] == 0 || expirations[_sender][msg.sender] >= _now()\n                );\n            }\n        } else {\n            // If `_sender` is `msg.sender`,\n            // the function works just like `transfer()`\n        }\n\n        callAfterTransfer(_sender, _recipient, _amount);\n        return true;\n    }\n\n    /// @dev An alias for `transfer` function.\n    /// @param _to The address of the recipient.\n    /// @param _amount The value to transfer.\n    function push(address _to, uint256 _amount) public {\n        transferFrom(msg.sender, _to, _amount);\n    }\n\n    /// @dev Makes a request to transfer the specified amount\n    /// from the specified address to the caller's address.\n    /// @param _from The address of the holder.\n    /// @param _amount The value to transfer.\n    function pull(address _from, uint256 _amount) public {\n        transferFrom(_from, msg.sender, _amount);\n    }\n\n    /// @dev An alias for `transferFrom` function.\n    /// @param _from The address of the sender.\n    /// @param _to The address of the recipient.\n    /// @param _amount The value to transfer.\n    function move(address _from, address _to, uint256 _amount) public {\n        transferFrom(_from, _to, _amount);\n    }\n\n    /// @dev Allows to spend holder's unlimited amount by the specified spender.\n    /// The function can be called by anyone, but requires having allowance parameters\n    /// signed by the holder according to EIP712.\n    /// @param _holder The holder's address.\n    /// @param _spender The spender's address.\n    /// @param _nonce The nonce taken from `nonces(_holder)` public getter.\n    /// @param _expiry The allowance expiration date (unix timestamp in UTC).\n    /// Can be zero for no expiration. Forced to zero if `_allowed` is `false`.\n    /// @param _allowed True to enable unlimited allowance for the spender by the holder. False to disable.\n    /// @param _v A final byte of signature (ECDSA component).\n    /// @param _r The first 32 bytes of signature (ECDSA component).\n    /// @param _s The second 32 bytes of signature (ECDSA component).\n    function permit(\n        address _holder,\n        address _spender,\n        uint256 _nonce,\n        uint256 _expiry,\n        bool _allowed,\n        uint8 _v,\n        bytes32 _r,\n        bytes32 _s\n    ) external {\n        require(_holder != address(0));\n        require(_spender != address(0));\n        require(_expiry == 0 || _now() <= _expiry);\n\n        bytes32 digest = keccak256(abi.encodePacked(\n            \"\\x19\\x01\",\n            DOMAIN_SEPARATOR,\n            keccak256(abi.encode(\n                PERMIT_TYPEHASH,\n                _holder,\n                _spender,\n                _nonce,\n                _expiry,\n                _allowed\n            ))\n        ));\n\n        require(_holder == ecrecover(digest, _v, _r, _s));\n        require(_nonce == nonces[_holder]++);\n\n        uint256 amount = _allowed ? uint256(-1) : 0;\n\n        allowed[_holder][_spender] = amount;\n        expirations[_holder][_spender] = _allowed ? _expiry : 0;\n\n        emit Approval(_holder, _spender, amount);\n    }\n\n    function _now() internal view returns(uint256) {\n        return now;\n    }\n}\n\n// File: contracts/ERC677MultiBridgeToken.sol\n\n/**\n * @title ERC677MultiBridgeToken\n * @dev This contract extends ERC677BridgeToken to support several bridge simulteniously\n */\ncontract ERC677MultiBridgeToken is PermittableToken {\n    address public constant F_ADDR = 0xFFfFfFffFFfffFFfFFfFFFFFffFFFffffFfFFFfF;\n    uint256 internal constant MAX_BRIDGES = 50;\n    mapping(address => address) public bridgePointers;\n    uint256 public bridgeCount;\n\n    event BridgeAdded(address indexed bridge);\n    event BridgeRemoved(address indexed bridge);\n\n    constructor(\n        string memory _name,\n        string memory _symbol,\n        uint8 _decimals,\n        uint256 _chainId\n    ) PermittableToken(_name, _symbol, _decimals, _chainId) public {\n        bridgePointers[F_ADDR] = F_ADDR; // empty bridge contracts list\n    }\n\n    /**\n    * @dev Adds one more bridge contract into the list\n    * @param _bridge bridge contract address\n    */\n    function addBridge(address _bridge) external onlyOwner {\n        require(bridgeCount < MAX_BRIDGES);\n        require(AddressUtils.isContract(_bridge));\n        require(!isBridge(_bridge));\n\n        address firstBridge = bridgePointers[F_ADDR];\n        require(firstBridge != address(0));\n        bridgePointers[F_ADDR] = _bridge;\n        bridgePointers[_bridge] = firstBridge;\n        bridgeCount = bridgeCount.add(1);\n\n        emit BridgeAdded(_bridge);\n    }\n\n    /**\n    * @dev Removes one existing bridge contract from the list\n    * @param _bridge bridge contract address\n    */\n    function removeBridge(address _bridge) external onlyOwner {\n        require(isBridge(_bridge));\n\n        address nextBridge = bridgePointers[_bridge];\n        address index = F_ADDR;\n        address next = bridgePointers[index];\n        require(next != address(0));\n\n        while (next != _bridge) {\n            index = next;\n            next = bridgePointers[index];\n\n            require(next != F_ADDR && next != address(0));\n        }\n\n        bridgePointers[index] = nextBridge;\n        delete bridgePointers[_bridge];\n        bridgeCount = bridgeCount.sub(1);\n\n        emit BridgeRemoved(_bridge);\n    }\n\n    /**\n    * @dev Returns all recorded bridge contract addresses\n    * @return address[] bridge contract addresses\n    */\n    function bridgeList() external view returns (address[] memory) {\n        address[] memory list = new address[](bridgeCount);\n        uint256 counter = 0;\n        address nextBridge = bridgePointers[F_ADDR];\n        require(nextBridge != address(0));\n\n        while (nextBridge != F_ADDR) {\n            list[counter] = nextBridge;\n            nextBridge = bridgePointers[nextBridge];\n            counter++;\n\n            require(nextBridge != address(0));\n        }\n\n        return list;\n    }\n\n    /**\n    * @dev Checks if given address is included into bridge contracts list\n    * @param _address bridge contract address\n    * @return bool true, if given address is a known bridge contract \n    */\n    function isBridge(address _address) public view returns (bool) {\n        return _address != F_ADDR && bridgePointers[_address] != address(0);\n    }\n}\n\n// File: contracts/ERC677BridgeTokenRewardable.sol\n\ncontract ERC677BridgeTokenRewardable is ERC677MultiBridgeToken {\n    address public blockRewardContract;\n    address public stakingContract;\n\n    constructor(\n        string memory _name,\n        string memory _symbol,\n        uint8 _decimals,\n        uint256 _chainId\n    ) ERC677MultiBridgeToken(_name, _symbol, _decimals, _chainId) public {\n        // solhint-disable-previous-line no-empty-blocks\n    }\n\n    function setBlockRewardContract(address _blockRewardContract) external onlyOwner {\n        require(AddressUtils.isContract(_blockRewardContract));\n        blockRewardContract = _blockRewardContract;\n    }\n\n    function setStakingContract(address _stakingContract) external onlyOwner {\n        require(AddressUtils.isContract(_stakingContract));\n        require(balanceOf(_stakingContract) == 0);\n        stakingContract = _stakingContract;\n    }\n\n    modifier onlyBlockRewardContract() {\n        require(msg.sender == blockRewardContract);\n        /* solcov ignore next */\n        _;\n    }\n\n    modifier onlyStakingContract() {\n        require(msg.sender == stakingContract);\n        /* solcov ignore next */\n        _;\n    }\n\n    function mintReward(uint256 _amount) external onlyBlockRewardContract {\n        if (_amount == 0) return;\n        // Mint `_amount` for the BlockReward contract\n        address to = blockRewardContract;\n        totalSupply_ = totalSupply_.add(_amount);\n        balances[to] = balances[to].add(_amount);\n        emit Mint(to, _amount);\n        emit Transfer(address(0), to, _amount);\n    }\n\n    function stake(address _staker, uint256 _amount) external onlyStakingContract {\n        // Transfer `_amount` from `_staker` to `stakingContract`\n        balances[_staker] = balances[_staker].sub(_amount);\n        balances[stakingContract] = balances[stakingContract].add(_amount);\n        emit Transfer(_staker, stakingContract, _amount);\n    }\n\n    function transfer(address _to, uint256 _value) public returns (bool) {\n        require(_to != blockRewardContract);\n        require(_to != stakingContract);\n        return super.transfer(_to, _value);\n    }\n\n    function transferFrom(address _from, address _to, uint256 _value) public returns (bool) {\n        require(_to != blockRewardContract);\n        require(_to != stakingContract);\n        return super.transferFrom(_from, _to, _value);\n    }\n\n}\n/* solhint-enable */\n",
  "sourcePath": "/Users/akshaypatil/Documents/etherlite/pos-contracts/posdao-etherlite/contracts/ERC677BridgeTokenRewardable.sol",
  "compiler": {
    "name": "solc",
    "version": "0.5.10+commit.5a6ea5b1.Emscripten.clang"
  },
  "schemaVersion": "3.3.1",
  "updatedAt": "2021-04-11T17:55:35.804Z",
  "devdoc": {
    "details": "This contract extends ERC677BridgeToken to support several bridge simulteniously",
    "methods": {
      "addBridge(address)": {
        "details": "Adds one more bridge contract into the list",
        "params": {
          "_bridge": "bridge contract address"
        }
      },
      "allowance(address,address)": {
        "details": "Function to check the amount of tokens that an owner allowed to a spender.",
        "params": {
          "_owner": "address The address which owns the funds.",
          "_spender": "address The address which will spend the funds."
        },
        "return": "A uint256 specifying the amount of tokens still available for the spender."
      },
      "approve(address,uint256)": {
        "details": "Approve the passed address to spend the specified amount of tokens on behalf of msg.sender. Beware that changing an allowance with this method brings the risk that someone may use both the old and the new allowance by unfortunate transaction ordering. One possible solution to mitigate this race condition is to first reduce the spender's allowance to 0 and set the desired value afterwards: https://github.com/ethereum/EIPs/issues/20#issuecomment-263524729",
        "params": {
          "_spender": "The address which will spend the funds.",
          "_value": "The amount of tokens to be spent."
        }
      },
      "balanceOf(address)": {
        "details": "Gets the balance of the specified address.",
        "params": {
          "_owner": "The address to query the the balance of."
        },
        "return": "An uint256 representing the amount owned by the passed address."
      },
      "bridgeList()": {
        "details": "Returns all recorded bridge contract addresses",
        "return": "address[] bridge contract addresses"
      },
      "burn(uint256)": {
        "details": "Burns a specific amount of tokens.",
        "params": {
          "_value": "The amount of token to be burned."
        }
      },
      "decreaseApproval(address,uint256)": {
        "details": "Decrease the amount of tokens that an owner allowed to a spender. approve should be called when allowed[_spender] == 0. To decrement allowed value is better to use this function to avoid 2 calls (and wait until the first transaction is mined) From MonolithDAO Token.sol",
        "params": {
          "_spender": "The address which will spend the funds.",
          "_subtractedValue": "The amount of tokens to decrease the allowance by."
        }
      },
      "increaseApproval(address,uint256)": {
        "details": "Increase the amount of tokens that an owner allowed to a spender. approve should be called when allowed[_spender] == 0. To increment allowed value is better to use this function to avoid 2 calls (and wait until the first transaction is mined) From MonolithDAO Token.sol",
        "params": {
          "_addedValue": "The amount of tokens to increase the allowance by.",
          "_spender": "The address which will spend the funds."
        }
      },
      "isBridge(address)": {
        "details": "Checks if given address is included into bridge contracts list",
        "params": {
          "_address": "bridge contract address"
        },
        "return": "bool true, if given address is a known bridge contract "
      },
      "mint(address,uint256)": {
        "details": "Function to mint tokens",
        "params": {
          "_amount": "The amount of tokens to mint.",
          "_to": "The address that will receive the minted tokens."
        },
        "return": "A boolean that indicates if the operation was successful."
      },
      "move(address,address,uint256)": {
        "details": "An alias for `transferFrom` function.",
        "params": {
          "_amount": "The value to transfer.",
          "_from": "The address of the sender.",
          "_to": "The address of the recipient."
        }
      },
      "permit(address,address,uint256,uint256,bool,uint8,bytes32,bytes32)": {
        "details": "Allows to spend holder's unlimited amount by the specified spender. The function can be called by anyone, but requires having allowance parameters signed by the holder according to EIP712.",
        "params": {
          "_allowed": "True to enable unlimited allowance for the spender by the holder. False to disable.",
          "_expiry": "The allowance expiration date (unix timestamp in UTC). Can be zero for no expiration. Forced to zero if `_allowed` is `false`.",
          "_holder": "The holder's address.",
          "_nonce": "The nonce taken from `nonces(_holder)` public getter.",
          "_r": "The first 32 bytes of signature (ECDSA component).",
          "_s": "The second 32 bytes of signature (ECDSA component).",
          "_spender": "The spender's address.",
          "_v": "A final byte of signature (ECDSA component)."
        }
      },
      "pull(address,uint256)": {
        "details": "Makes a request to transfer the specified amount from the specified address to the caller's address.",
        "params": {
          "_amount": "The value to transfer.",
          "_from": "The address of the holder."
        }
      },
      "push(address,uint256)": {
        "details": "An alias for `transfer` function.",
        "params": {
          "_amount": "The value to transfer.",
          "_to": "The address of the recipient."
        }
      },
      "removeBridge(address)": {
        "details": "Removes one existing bridge contract from the list",
        "params": {
          "_bridge": "bridge contract address"
        }
      },
      "totalSupply()": {
        "details": "Total number of tokens in existence"
      },
      "transferFrom(address,address,uint256)": {
        "details": "transferFrom in this contract works in a slightly different form than the generic transferFrom function. This contract allows for \"unlimited approval\". Should the user approve an address for the maximum uint256 value, then that address will have unlimited approval until told otherwise.",
        "params": {
          "_amount": "The value to transfer.",
          "_recipient": "The address of the recipient.",
          "_sender": "The address of the sender."
        },
        "return": "Success status."
      },
      "transferOwnership(address)": {
        "details": "Allows the current owner to transfer control of the contract to a newOwner.",
        "params": {
          "_newOwner": "The address to transfer ownership to."
        }
      }
    },
    "title": "ERC677MultiBridgeToken"
  },
  "userdoc": {
    "methods": {}
  }
}