{
  "contractName": "RandomAuRa",
  "abi": [
    {
      "constant": true,
      "inputs": [],
      "name": "collectRoundLength",
      "outputs": [
        {
          "name": "",
          "type": "uint256"
        }
      ],
      "payable": false,
      "stateMutability": "view",
      "type": "function"
    },
    {
      "constant": true,
      "inputs": [],
      "name": "punishForUnreveal",
      "outputs": [
        {
          "name": "",
          "type": "bool"
        }
      ],
      "payable": false,
      "stateMutability": "view",
      "type": "function"
    },
    {
      "constant": true,
      "inputs": [],
      "name": "currentSeed",
      "outputs": [
        {
          "name": "",
          "type": "uint256"
        }
      ],
      "payable": false,
      "stateMutability": "view",
      "type": "function"
    },
    {
      "constant": true,
      "inputs": [],
      "name": "validatorSetContract",
      "outputs": [
        {
          "name": "",
          "type": "address"
        }
      ],
      "payable": false,
      "stateMutability": "view",
      "type": "function"
    },
    {
      "constant": false,
      "inputs": [
        {
          "name": "_poolId",
          "type": "uint256"
        }
      ],
      "name": "clearCommit",
      "outputs": [],
      "payable": false,
      "stateMutability": "nonpayable",
      "type": "function"
    },
    {
      "constant": false,
      "inputs": [
        {
          "name": "_numberHash",
          "type": "bytes32"
        },
        {
          "name": "_cipher",
          "type": "bytes"
        }
      ],
      "name": "commitHash",
      "outputs": [],
      "payable": false,
      "stateMutability": "nonpayable",
      "type": "function"
    },
    {
      "constant": false,
      "inputs": [
        {
          "name": "_number",
          "type": "uint256"
        }
      ],
      "name": "revealNumber",
      "outputs": [],
      "payable": false,
      "stateMutability": "nonpayable",
      "type": "function"
    },
    {
      "constant": false,
      "inputs": [
        {
          "name": "_number",
          "type": "uint256"
        }
      ],
      "name": "revealSecret",
      "outputs": [],
      "payable": false,
      "stateMutability": "nonpayable",
      "type": "function"
    },
    {
      "constant": false,
      "inputs": [
        {
          "name": "_punishForUnreveal",
          "type": "bool"
        }
      ],
      "name": "setPunishForUnreveal",
      "outputs": [],
      "payable": false,
      "stateMutability": "nonpayable",
      "type": "function"
    },
    {
      "constant": false,
      "inputs": [
        {
          "name": "_collectRoundLength",
          "type": "uint256"
        },
        {
          "name": "_validatorSet",
          "type": "address"
        },
        {
          "name": "_punishForUnreveal",
          "type": "bool"
        }
      ],
      "name": "initialize",
      "outputs": [],
      "payable": false,
      "stateMutability": "nonpayable",
      "type": "function"
    },
    {
      "constant": false,
      "inputs": [],
      "name": "onFinishCollectRound",
      "outputs": [],
      "payable": false,
      "stateMutability": "nonpayable",
      "type": "function"
    },
    {
      "constant": true,
      "inputs": [],
      "name": "commitPhaseLength",
      "outputs": [
        {
          "name": "",
          "type": "uint256"
        }
      ],
      "payable": false,
      "stateMutability": "view",
      "type": "function"
    },
    {
      "constant": true,
      "inputs": [],
      "name": "currentCollectRound",
      "outputs": [
        {
          "name": "",
          "type": "uint256"
        }
      ],
      "payable": false,
      "stateMutability": "view",
      "type": "function"
    },
    {
      "constant": true,
      "inputs": [],
      "name": "currentCollectRoundStartBlock",
      "outputs": [
        {
          "name": "",
          "type": "uint256"
        }
      ],
      "payable": false,
      "stateMutability": "view",
      "type": "function"
    },
    {
      "constant": true,
      "inputs": [
        {
          "name": "_collectRound",
          "type": "uint256"
        },
        {
          "name": "_miningAddress",
          "type": "address"
        }
      ],
      "name": "getCipher",
      "outputs": [
        {
          "name": "",
          "type": "bytes"
        }
      ],
      "payable": false,
      "stateMutability": "view",
      "type": "function"
    },
    {
      "constant": true,
      "inputs": [
        {
          "name": "_collectRound",
          "type": "uint256"
        },
        {
          "name": "_miningAddress",
          "type": "address"
        }
      ],
      "name": "getCommit",
      "outputs": [
        {
          "name": "",
          "type": "bytes32"
        }
      ],
      "payable": false,
      "stateMutability": "view",
      "type": "function"
    },
    {
      "constant": true,
      "inputs": [
        {
          "name": "_collectRound",
          "type": "uint256"
        },
        {
          "name": "_miningAddress",
          "type": "address"
        }
      ],
      "name": "getCommitAndCipher",
      "outputs": [
        {
          "name": "",
          "type": "bytes32"
        },
        {
          "name": "",
          "type": "bytes"
        }
      ],
      "payable": false,
      "stateMutability": "view",
      "type": "function"
    },
    {
      "constant": true,
      "inputs": [
        {
          "name": "_collectRound",
          "type": "uint256"
        },
        {
          "name": "_miningAddress",
          "type": "address"
        }
      ],
      "name": "isCommitted",
      "outputs": [
        {
          "name": "",
          "type": "bool"
        }
      ],
      "payable": false,
      "stateMutability": "view",
      "type": "function"
    },
    {
      "constant": true,
      "inputs": [],
      "name": "isCommitPhase",
      "outputs": [
        {
          "name": "",
          "type": "bool"
        }
      ],
      "payable": false,
      "stateMutability": "view",
      "type": "function"
    },
    {
      "constant": true,
      "inputs": [],
      "name": "isInitialized",
      "outputs": [
        {
          "name": "",
          "type": "bool"
        }
      ],
      "payable": false,
      "stateMutability": "view",
      "type": "function"
    },
    {
      "constant": true,
      "inputs": [],
      "name": "isRevealPhase",
      "outputs": [
        {
          "name": "",
          "type": "bool"
        }
      ],
      "payable": false,
      "stateMutability": "view",
      "type": "function"
    },
    {
      "constant": true,
      "inputs": [
        {
          "name": "_miningAddress",
          "type": "address"
        },
        {
          "name": "_numberHash",
          "type": "bytes32"
        }
      ],
      "name": "commitHashCallable",
      "outputs": [
        {
          "name": "",
          "type": "bool"
        }
      ],
      "payable": false,
      "stateMutability": "view",
      "type": "function"
    },
    {
      "constant": true,
      "inputs": [],
      "name": "nextCollectRoundStartBlock",
      "outputs": [
        {
          "name": "",
          "type": "uint256"
        }
      ],
      "payable": false,
      "stateMutability": "view",
      "type": "function"
    },
    {
      "constant": true,
      "inputs": [],
      "name": "nextCommitPhaseStartBlock",
      "outputs": [
        {
          "name": "",
          "type": "uint256"
        }
      ],
      "payable": false,
      "stateMutability": "view",
      "type": "function"
    },
    {
      "constant": true,
      "inputs": [],
      "name": "nextRevealPhaseStartBlock",
      "outputs": [
        {
          "name": "",
          "type": "uint256"
        }
      ],
      "payable": false,
      "stateMutability": "view",
      "type": "function"
    },
    {
      "constant": true,
      "inputs": [
        {
          "name": "_miningAddress",
          "type": "address"
        },
        {
          "name": "_number",
          "type": "uint256"
        }
      ],
      "name": "revealNumberCallable",
      "outputs": [
        {
          "name": "",
          "type": "bool"
        }
      ],
      "payable": false,
      "stateMutability": "view",
      "type": "function"
    },
    {
      "constant": true,
      "inputs": [
        {
          "name": "_miningAddress",
          "type": "address"
        },
        {
          "name": "_number",
          "type": "uint256"
        }
      ],
      "name": "revealSecretCallable",
      "outputs": [
        {
          "name": "",
          "type": "bool"
        }
      ],
      "payable": false,
      "stateMutability": "view",
      "type": "function"
    },
    {
      "constant": true,
      "inputs": [
        {
          "name": "_stakingEpoch",
          "type": "uint256"
        },
        {
          "name": "_miningAddress",
          "type": "address"
        }
      ],
      "name": "revealSkips",
      "outputs": [
        {
          "name": "",
          "type": "uint256"
        }
      ],
      "payable": false,
      "stateMutability": "view",
      "type": "function"
    },
    {
      "constant": true,
      "inputs": [
        {
          "name": "_collectRound",
          "type": "uint256"
        },
        {
          "name": "_miningAddress",
          "type": "address"
        }
      ],
      "name": "sentReveal",
      "outputs": [
        {
          "name": "",
          "type": "bool"
        }
      ],
      "payable": false,
      "stateMutability": "view",
      "type": "function"
    }
  ],
  "bytecode": "0x608060405234801561001057600080fd5b50612aeb806100206000396000f3fe608060405234801561001057600080fd5b50600436106101cf5760003560e01c80637a3e286b11610104578063c64c2064116100a2578063f2f56ffe11610071578063f2f56ffe1461087a578063f58ccc6a146108dc578063fd6c1d15146108fa578063fe7d567d14610960576101cf565b8063c64c20641461077c578063cc93dab41461079a578063de109e20146107ca578063dfc8bf4e14610830576101cf565b806398df67c6116100de57806398df67c614610660578063b6b295ae1461068e578063baf11cab146106f4578063c358ced01461075a576101cf565b80637a3e286b1461060657806383209c3f146106245780638322062614610642576101cf565b80633afa443c1161017157806363f160e61161014b57806363f160e614610492578063695e89f6146104f857806374ce9067146105c657806378ab865d146105e8576101cf565b80633afa443c146103f057806343e7aa1d146104125780635aca47f614610430576101cf565b8063109c1107116101ad578063109c11071461034c5780631c77c58c1461035657806328804dbd14610374578063392e53cd146103ce576101cf565b8063096a113d146101d45780630b4028231461029b5780630b61ba85146102c9575b600080fd5b610220600480360360408110156101ea57600080fd5b8101908080359060200190929190803573ffffffffffffffffffffffffffffffffffffffff16906020019092919050505061098e565b6040518080602001828103825283818151815260200191508051906020019080838360005b83811015610260578082015181840152602081019050610245565b50505050905090810190601f16801561028d5780820380516001836020036101000a031916815260200191505b509250505060405180910390f35b6102c7600480360360208110156102b157600080fd5b8101908080359060200190929190505050610b33565b005b61034a600480360360408110156102df57600080fd5b81019080803590602001909291908035906020019064010000000081111561030657600080fd5b82018360208201111561031857600080fd5b8035906020019184600183028401116401000000008311171561033a57600080fd5b9091929391929390505050610c2b565b005b610354610e1e565b005b61035e611826565b6040518082815260200191505060405180910390f35b6103cc6004803603606081101561038a57600080fd5b8101908080359060200190929190803573ffffffffffffffffffffffffffffffffffffffff16906020019092919080351515906020019092919050505061182c565b005b6103d6611b15565b604051808215151515815260200191505060405180910390f35b6103f8611b6e565b604051808215151515815260200191505060405180910390f35b61041a611b81565b6040518082815260200191505060405180910390f35b61047c6004803603604081101561044657600080fd5b8101908080359060200190929190803573ffffffffffffffffffffffffffffffffffffffff169060200190929190505050611b95565b6040518082815260200191505060405180910390f35b6104de600480360360408110156104a857600080fd5b8101908080359060200190929190803573ffffffffffffffffffffffffffffffffffffffff169060200190929190505050611ca2565b604051808215151515815260200191505060405180910390f35b6105446004803603604081101561050e57600080fd5b8101908080359060200190929190803573ffffffffffffffffffffffffffffffffffffffff169060200190929190505050611dbc565b6040518083815260200180602001828103825283818151815260200191508051906020019080838360005b8381101561058a57808201518184015260208101905061056f565b50505050905090810190601f1680156105b75780820380516001836020036101000a031916815260200191505b50935050505060405180910390f35b6105ce611f8e565b604051808215151515815260200191505060405180910390f35b6105f0611fb4565b6040518082815260200191505060405180910390f35b61060e611fc3565b6040518082815260200191505060405180910390f35b61062c611fe0565b6040518082815260200191505060405180910390f35b61064a61200e565b6040518082815260200191505060405180910390f35b61068c6004803603602081101561067657600080fd5b8101908080359060200190929190505050612014565b005b6106da600480360360408110156106a457600080fd5b81019080803573ffffffffffffffffffffffffffffffffffffffff16906020019092919080359060200190929190505050612031565b604051808215151515815260200191505060405180910390f35b6107406004803603604081101561070a57600080fd5b8101908080359060200190929190803573ffffffffffffffffffffffffffffffffffffffff169060200190929190505050612045565b604051808215151515815260200191505060405180910390f35b610762612239565b604051808215151515815260200191505060405180910390f35b610784612249565b6040518082815260200191505060405180910390f35b6107c8600480360360208110156107b057600080fd5b81019080803515159060200190929190505050612287565b005b610816600480360360408110156107e057600080fd5b81019080803573ffffffffffffffffffffffffffffffffffffffff169060200190929190803590602001909291905050506122e3565b604051808215151515815260200191505060405180910390f35b61083861241f565b604051808273ffffffffffffffffffffffffffffffffffffffff1673ffffffffffffffffffffffffffffffffffffffff16815260200191505060405180910390f35b6108c66004803603604081101561089057600080fd5b8101908080359060200190929190803573ffffffffffffffffffffffffffffffffffffffff169060200190929190505050612445565b6040518082815260200191505060405180910390f35b6108e4612552565b6040518082815260200191505060405180910390f35b6109466004803603604081101561091057600080fd5b81019080803573ffffffffffffffffffffffffffffffffffffffff16906020019092919080359060200190929190505050612568565b604051808215151515815260200191505060405180910390f35b61098c6004803603602081101561097657600080fd5b810190808035906020019092919050505061257c565b005b60606000600860009054906101000a900473ffffffffffffffffffffffffffffffffffffffff1673ffffffffffffffffffffffffffffffffffffffff16632bbb7b72846040518263ffffffff1660e01b8152600401808273ffffffffffffffffffffffffffffffffffffffff1673ffffffffffffffffffffffffffffffffffffffff16815260200191505060206040518083038186803b158015610a3157600080fd5b505afa158015610a45573d6000803e3d6000fd5b505050506040513d6020811015610a5b57600080fd5b8101908080519060200190929190505050905060008085815260200190815260200160002060008281526020019081526020016000208054600181600116156101000203166002900480601f016020809104026020016040519081016040528092919081815260200182805460018160011615610100020316600290048015610b255780601f10610afa57610100808354040283529160200191610b25565b820191906000526020600020905b815481529060010190602001808311610b0857829003601f168201915b505050505091505092915050565b600860009054906101000a900473ffffffffffffffffffffffffffffffffffffffff1673ffffffffffffffffffffffffffffffffffffffff163373ffffffffffffffffffffffffffffffffffffffff1614610b8d57600080fd5b6000610b97611fc3565b905060076000828152602001908152602001600020600083815260200190815260200160002060009054906101000a900460ff16610c27576001600082815260200190815260200160002060008381526020019081526020016000206000905560008082815260200190815260200160002060008381526020019081526020016000206000610c26919061299d565b5b5050565b610c33611b15565b610c3c57600080fd5b6000339050610c4b81856122e3565b610c5457600080fd5b8073ffffffffffffffffffffffffffffffffffffffff16610c73612599565b73ffffffffffffffffffffffffffffffffffffffff1614610c9357600080fd5b6000610c9d611fc3565b90506000600860009054906101000a900473ffffffffffffffffffffffffffffffffffffffff1673ffffffffffffffffffffffffffffffffffffffff16632bbb7b72846040518263ffffffff1660e01b8152600401808273ffffffffffffffffffffffffffffffffffffffff1673ffffffffffffffffffffffffffffffffffffffff16815260200191505060206040518083038186803b158015610d4057600080fd5b505afa158015610d54573d6000803e3d6000fd5b505050506040513d6020811015610d6a57600080fd5b810190808051906020019092919050505090508560016000848152602001908152602001600020600083815260200190815260200160002081905550848460008085815260200190815260200160002060008481526020019081526020016000209190610dd89291906129e5565b5060026000838152602001908152602001600020819080600181540180825580915050906001820390600052602060002001600090919290919091505550505050505050565b600860009054906101000a900473ffffffffffffffffffffffffffffffffffffffff1673ffffffffffffffffffffffffffffffffffffffff166356b54bae6040518163ffffffff1660e01b815260040160206040518083038186803b158015610e8657600080fd5b505afa158015610e9a573d6000803e3d6000fd5b505050506040513d6020811015610eb057600080fd5b810190808051906020019092919050505073ffffffffffffffffffffffffffffffffffffffff163373ffffffffffffffffffffffffffffffffffffffff1614610ef857600080fd5b6000600354610f056125a1565b81610f0c57fe5b0614610f1757611824565b60606000806000600860009054906101000a900473ffffffffffffffffffffffffffffffffffffffff1673ffffffffffffffffffffffffffffffffffffffff1663ee99205c6040518163ffffffff1660e01b815260040160206040518083038186803b158015610f8657600080fd5b505afa158015610f9a573d6000803e3d6000fd5b505050506040513d6020811015610fb057600080fd5b8101908080519060200190929190505050905060008173ffffffffffffffffffffffffffffffffffffffff1663794c0c686040518163ffffffff1660e01b815260040160206040518083038186803b15801561100b57600080fd5b505afa15801561101f573d6000803e3d6000fd5b505050506040513d602081101561103557600080fd5b8101908080519060200190929190505050905060008273ffffffffffffffffffffffffffffffffffffffff16637069e7466040518163ffffffff1660e01b815260040160206040518083038186803b15801561109057600080fd5b505afa1580156110a4573d6000803e3d6000fd5b505050506040513d60208110156110ba57600080fd5b8101908080519060200190929190505050905060008373ffffffffffffffffffffffffffffffffffffffff16638c2243ae6040518163ffffffff1660e01b815260040160206040518083038186803b15801561111557600080fd5b505afa158015611129573d6000803e3d6000fd5b505050506040513d602081101561113f57600080fd5b81019080805190602001909291905050509050600061115c611fc3565b90506003805402830161116d6125a1565b11156113c257600860009054906101000a900473ffffffffffffffffffffffffffffffffffffffff1673ffffffffffffffffffffffffffffffffffffffff1663b7ab4db56040518163ffffffff1660e01b815260040160006040518083038186803b1580156111db57600080fd5b505afa1580156111ef573d6000803e3d6000fd5b505050506040513d6000823e3d601f19601f82011682018060405250602081101561121957600080fd5b81019080805164010000000081111561123157600080fd5b8281019050602081018481111561124757600080fd5b815185602082028301116401000000008211171561126457600080fd5b50509291905050509750600095505b87518610156113c15787868151811061128857fe5b6020026020010151965061129c8188611ca2565b6113b4576000600860009054906101000a900473ffffffffffffffffffffffffffffffffffffffff1673ffffffffffffffffffffffffffffffffffffffff16632bbb7b72896040518263ffffffff1660e01b8152600401808273ffffffffffffffffffffffffffffffffffffffff1673ffffffffffffffffffffffffffffffffffffffff16815260200191505060206040518083038186803b15801561134157600080fd5b505afa158015611355573d6000803e3d6000fd5b505050506040513d602081101561136b57600080fd5b8101908080519060200190929190505050905060066000868152602001908152602001600020600082815260200190815260200160002060008154809291906001019190505550505b8580600101965050611273565b5b600560009054906101000a900460ff1680156113f95750816113e26125a1565b14806113f85750816003546113f56125a1565b01115b5b156118125760006003548673ffffffffffffffffffffffffffffffffffffffff166397997ebb6040518163ffffffff1660e01b815260040160206040518083038186803b15801561144957600080fd5b505afa15801561145d573d6000803e3d6000fd5b505050506040513d602081101561147357600080fd5b81019080805190602001909291905050508161148b57fe5b04905060018111156114a2576002810390506114b6565b60008111156114b5578080600190039150505b5b600860009054906101000a900473ffffffffffffffffffffffffffffffffffffffff1673ffffffffffffffffffffffffffffffffffffffff1663b7ab4db56040518163ffffffff1660e01b815260040160006040518083038186803b15801561151e57600080fd5b505afa158015611532573d6000803e3d6000fd5b505050506040513d6000823e3d601f19601f82011682018060405250602081101561155c57600080fd5b81019080805164010000000081111561157457600080fd5b8281019050602081018481111561158a57600080fd5b81518560208202830111640100000000821117156115a757600080fd5b50509291905050509850606089516040519080825280602002602001820160405280156115e35781602001602082028038833980820191505090505b5090506000809050600098505b8a5189101561168d578a898151811061160557fe5b60200260200101519950611619848b611ca2565b158061162d57508261162b888c611b95565b115b15611680578982828060010193508151811061164557fe5b602002602001019073ffffffffffffffffffffffffffffffffffffffff16908173ffffffffffffffffffffffffffffffffffffffff16815250505b88806001019950506115f0565b600081111561180e576060816040519080825280602002602001820160405280156116c75781602001602082028038833980820191505090505b509050600099505b818a101561173e57828a815181106116e357fe5b6020026020010151818b815181106116f757fe5b602002602001019073ffffffffffffffffffffffffffffffffffffffff16908173ffffffffffffffffffffffffffffffffffffffff168152505089806001019a50506116cf565b600860009054906101000a900473ffffffffffffffffffffffffffffffffffffffff1673ffffffffffffffffffffffffffffffffffffffff16630636bdac826040518263ffffffff1660e01b81526004018080602001828103825283818151815260200191508051906020019060200280838360005b838110156117cf5780820151818401526020810190506117b4565b5050505090500192505050600060405180830381600087803b1580156117f457600080fd5b505af1158015611808573d6000803e3d6000fd5b50505050505b5050505b61181b816125a9565b50505050505050505b565b60035481565b60006118366125a1565b14806118745750611845612656565b73ffffffffffffffffffffffffffffffffffffffff163373ffffffffffffffffffffffffffffffffffffffff16145b61187d57600080fd5b611885611b15565b1561188f57600080fd5b60008290506000600285816118a057fe5b06146118ab57600080fd5b60008173ffffffffffffffffffffffffffffffffffffffff1663714897df6040518163ffffffff1660e01b815260040160206040518083038186803b1580156118f357600080fd5b505afa158015611907573d6000803e3d6000fd5b505050506040513d602081101561191d57600080fd5b8101908080519060200190929190505050858161193657fe5b061461194157600080fd5b6000848273ffffffffffffffffffffffffffffffffffffffff1663ee99205c6040518163ffffffff1660e01b815260040160206040518083038186803b15801561198a57600080fd5b505afa15801561199e573d6000803e3d6000fd5b505050506040513d60208110156119b457600080fd5b810190808051906020019092919050505073ffffffffffffffffffffffffffffffffffffffff1663d609ea936040518163ffffffff1660e01b815260040160206040518083038186803b158015611a0a57600080fd5b505afa158015611a1e573d6000803e3d6000fd5b505050506040513d6020811015611a3457600080fd5b810190808051906020019092919050505081611a4c57fe5b0614611a5757600080fd5b60008411611a6457600080fd5b600060035414611a7357600080fd5b600073ffffffffffffffffffffffffffffffffffffffff168373ffffffffffffffffffffffffffffffffffffffff161415611aad57600080fd5b8360038190555082600860006101000a81548173ffffffffffffffffffffffffffffffffffffffff021916908373ffffffffffffffffffffffffffffffffffffffff16021790555081600560006101000a81548160ff02191690831515021790555050505050565b60008073ffffffffffffffffffffffffffffffffffffffff16600860009054906101000a900473ffffffffffffffffffffffffffffffffffffffff1673ffffffffffffffffffffffffffffffffffffffff161415905090565b600560009054906101000a900460ff1681565b6000600260035481611b8f57fe5b04905090565b600080600860009054906101000a900473ffffffffffffffffffffffffffffffffffffffff1673ffffffffffffffffffffffffffffffffffffffff16632bbb7b72846040518263ffffffff1660e01b8152600401808273ffffffffffffffffffffffffffffffffffffffff1673ffffffffffffffffffffffffffffffffffffffff16815260200191505060206040518083038186803b158015611c3757600080fd5b505afa158015611c4b573d6000803e3d6000fd5b505050506040513d6020811015611c6157600080fd5b810190808051906020019092919050505090506006600085815260200190815260200160002060008281526020019081526020016000205491505092915050565b600080600860009054906101000a900473ffffffffffffffffffffffffffffffffffffffff1673ffffffffffffffffffffffffffffffffffffffff16632bbb7b72846040518263ffffffff1660e01b8152600401808273ffffffffffffffffffffffffffffffffffffffff1673ffffffffffffffffffffffffffffffffffffffff16815260200191505060206040518083038186803b158015611d4457600080fd5b505afa158015611d58573d6000803e3d6000fd5b505050506040513d6020811015611d6e57600080fd5b8101908080519060200190929190505050905060076000858152602001908152602001600020600082815260200190815260200160002060009054906101000a900460ff1691505092915050565b600060606000600860009054906101000a900473ffffffffffffffffffffffffffffffffffffffff1673ffffffffffffffffffffffffffffffffffffffff16632bbb7b72856040518263ffffffff1660e01b8152600401808273ffffffffffffffffffffffffffffffffffffffff1673ffffffffffffffffffffffffffffffffffffffff16815260200191505060206040518083038186803b158015611e6157600080fd5b505afa158015611e75573d6000803e3d6000fd5b505050506040513d6020811015611e8b57600080fd5b81019080805190602001909291905050509050600160008681526020019081526020016000206000828152602001908152602001600020546000808781526020019081526020016000206000838152602001908152602001600020808054600181600116156101000203166002900480601f016020809104026020016040519081016040528092919081815260200182805460018160011615610100020316600290048015611f7b5780601f10611f5057610100808354040283529160200191611f7b565b820191906000526020600020905b815481529060010190602001808311611f5e57829003601f168201915b5050505050905092509250509250929050565b6000611f98611b81565b6003546001611fa56125a1565b0381611fad57fe5b0610905090565b6000611fbe611fe0565b905090565b60006003546001611fd26125a1565b0381611fda57fe5b04905090565b600080611feb6125a1565b905060006003546001830381611ffd57fe5b066003540390508082019250505090565b60045481565b61201c611b15565b61202557600080fd5b61202e81612687565b50565b600061203d8383612810565b905092915050565b600080600860009054906101000a900473ffffffffffffffffffffffffffffffffffffffff1673ffffffffffffffffffffffffffffffffffffffff16632bbb7b72846040518263ffffffff1660e01b8152600401808273ffffffffffffffffffffffffffffffffffffffff1673ffffffffffffffffffffffffffffffffffffffff16815260200191505060206040518083038186803b1580156120e757600080fd5b505afa1580156120fb573d6000803e3d6000fd5b505050506040513d602081101561211157600080fd5b81019080805190602001909291905050509050600081141580156121395750612138611f8e565b5b15612204576000600860009054906101000a900473ffffffffffffffffffffffffffffffffffffffff1673ffffffffffffffffffffffffffffffffffffffff166392d276b46040518163ffffffff1660e01b8152600401604080518083038186803b1580156121a757600080fd5b505afa1580156121bb573d6000803e3d6000fd5b505050506040513d60408110156121d157600080fd5b8101908080519060200190929190805190602001909291905050505090508082141561220257600192505050612233565b505b6000801b6001600086815260200190815260200160002060008381526020019081526020016000205414159150505b92915050565b6000612243611f8e565b15905090565b6000612253611f8e565b1561227057612260611b81565b612268612552565b019050612284565b612278611b81565b612280611fe0565b0190505b90565b61228f612656565b73ffffffffffffffffffffffffffffffffffffffff163373ffffffffffffffffffffffffffffffffffffffff16146122c657600080fd5b80600560006101000a81548160ff02191690831515021790555050565b60006122ed611f8e565b6122fa5760009050612419565b6000801b82141561230e5760009050612419565b600860009054906101000a900473ffffffffffffffffffffffffffffffffffffffff1673ffffffffffffffffffffffffffffffffffffffff1663facd743b846040518263ffffffff1660e01b8152600401808273ffffffffffffffffffffffffffffffffffffffff1673ffffffffffffffffffffffffffffffffffffffff16815260200191505060206040518083038186803b1580156123ad57600080fd5b505afa1580156123c1573d6000803e3d6000fd5b505050506040513d60208110156123d757600080fd5b81019080805190602001909291905050506123f55760009050612419565b612406612400611fc3565b84612045565b156124145760009050612419565b600190505b92915050565b600860009054906101000a900473ffffffffffffffffffffffffffffffffffffffff1681565b600080600860009054906101000a900473ffffffffffffffffffffffffffffffffffffffff1673ffffffffffffffffffffffffffffffffffffffff16632bbb7b72846040518263ffffffff1660e01b8152600401808273ffffffffffffffffffffffffffffffffffffffff1673ffffffffffffffffffffffffffffffffffffffff16815260200191505060206040518083038186803b1580156124e757600080fd5b505afa1580156124fb573d6000803e3d6000fd5b505050506040513d602081101561251157600080fd5b810190808051906020019092919050505090506001600085815260200190815260200160002060008281526020019081526020016000205491505092915050565b60006001600354612561611fc3565b0201905090565b60006125748383612810565b905092915050565b612584611b15565b61258d57600080fd5b61259681612687565b50565b600041905090565b600043905090565b60008114156125b757612653565b6000600182039050600060026000838152602001908152602001600020905060008180549050905060008090505b8181101561263f57600080858152602001908152602001600020600084838154811061260d57fe5b906000526020600020015481526020019081526020016000206000612632919061299d565b80806001019150506125e5565b506000828161264e9190612a65565b505050505b50565b6000807fb53127684a568b3173ae13b9f8a6016e243e63b6e8ee1178d6a717850b5d610360001b9050805491505090565b60003390506126968183612568565b61269f57600080fd5b8073ffffffffffffffffffffffffffffffffffffffff166126be612599565b73ffffffffffffffffffffffffffffffffffffffff16146126de57600080fd5b6000600860009054906101000a900473ffffffffffffffffffffffffffffffffffffffff1673ffffffffffffffffffffffffffffffffffffffff16632bbb7b72836040518263ffffffff1660e01b8152600401808273ffffffffffffffffffffffffffffffffffffffff1673ffffffffffffffffffffffffffffffffffffffff16815260200191505060206040518083038186803b15801561277f57600080fd5b505afa158015612793573d6000803e3d6000fd5b505050506040513d60208110156127a957600080fd5b8101908080519060200190929190505050905082600454186004819055506001600760006127d5611fc3565b8152602001908152602001600020600083815260200190815260200160002060006101000a81548160ff021916908315150217905550505050565b600061281a612239565b6128275760009050612997565b600082604051602001808281526020019150506040516020818303038152906040528051906020012090506000801b811415612867576000915050612997565b600860009054906101000a900473ffffffffffffffffffffffffffffffffffffffff1673ffffffffffffffffffffffffffffffffffffffff1663facd743b856040518263ffffffff1660e01b8152600401808273ffffffffffffffffffffffffffffffffffffffff1673ffffffffffffffffffffffffffffffffffffffff16815260200191505060206040518083038186803b15801561290657600080fd5b505afa15801561291a573d6000803e3d6000fd5b505050506040513d602081101561293057600080fd5b810190808051906020019092919050505061294f576000915050612997565b6000612959611fc3565b90506129658186611ca2565b1561297557600092505050612997565b61297f8186612445565b821461299057600092505050612997565b6001925050505b92915050565b50805460018160011615610100020316600290046000825580601f106129c357506129e2565b601f0160209004906000526020600020908101906129e19190612a91565b5b50565b828054600181600116156101000203166002900490600052602060002090601f016020900481019282601f10612a2657803560ff1916838001178555612a54565b82800160010185558215612a54579182015b82811115612a53578235825591602001919060010190612a38565b5b509050612a619190612a91565b5090565b815481835581811115612a8c57818360005260206000209182019101612a8b9190612a91565b5b505050565b612ab391905b80821115612aaf576000816000905550600101612a97565b5090565b9056fea265627a7a7230582006d5c3d546cfe3531186cd496a328346845856da7211492974e32a572dd9934e64736f6c634300050a0032",
  "source": "pragma solidity 0.5.10;\n\nimport \"./interfaces/IRandomAuRa.sol\";\nimport \"./interfaces/IStakingAuRa.sol\";\nimport \"./interfaces/IValidatorSetAuRa.sol\";\nimport \"./upgradeability/UpgradeableOwned.sol\";\n\n\n/// @dev Generates and stores random numbers in a RANDAO manner (and controls when they are revealed by AuRa\n/// validators) and accumulates a random seed. The random seed is used to form a new validator set by the\n/// `ValidatorSetAuRa.newValidatorSet` function.\ncontract RandomAuRa is UpgradeableOwned, IRandomAuRa {\n\n    // =============================================== Storage ========================================================\n\n    // WARNING: since this contract is upgradeable, do not remove\n    // existing storage variables, do not change their order,\n    // and do not change their types!\n\n    mapping(uint256 => mapping(uint256 => bytes)) internal _ciphers;\n    mapping(uint256 => mapping(uint256 => bytes32)) internal _commits;\n    mapping(uint256 => uint256[]) internal _committedValidators;\n\n    /// @dev The length of the collection round (in blocks).\n    uint256 public collectRoundLength;\n\n    /// @dev The current random seed accumulated during RANDAO or another process\n    /// (depending on implementation).\n    uint256 public currentSeed;\n\n    /// @dev A boolean flag defining whether to punish validators for unrevealing.\n    bool public punishForUnreveal;\n\n    /// @dev The number of reveal skips made by the specified validator during the specified staking epoch.\n    mapping(uint256 => mapping(uint256 => uint256)) internal _revealSkips;\n\n    /// @dev A boolean flag of whether the specified validator has revealed their number for the\n    /// specified collection round.\n    mapping(uint256 => mapping(uint256 => bool)) internal _sentReveal;\n\n    /// @dev The address of the `ValidatorSetAuRa` contract.\n    IValidatorSetAuRa public validatorSetContract;\n\n    // ============================================== Modifiers =======================================================\n\n    /// @dev Ensures the caller is the BlockRewardAuRa contract address.\n    modifier onlyBlockReward() {\n        require(msg.sender == validatorSetContract.blockRewardContract());\n        _;\n    }\n\n    /// @dev Ensures the `initialize` function was called before.\n    modifier onlyInitialized {\n        require(isInitialized());\n        _;\n    }\n\n    /// @dev Ensures the caller is the ValidatorSetAuRa contract address.\n    modifier onlyValidatorSet() {\n        require(msg.sender == address(validatorSetContract));\n        _;\n    }\n\n    // =============================================== Setters ========================================================\n\n    /// @dev Clears commit and cipher for the given validator's pool if the pool\n    /// hasn't yet revealed their number.\n    /// Called by the ValidatorSetAuRa.changeMiningAddress function\n    /// when a validator creates a request to change their mining address.\n    function clearCommit(uint256 _poolId) external onlyValidatorSet {\n        uint256 collectRound = currentCollectRound();\n        if (!_sentReveal[collectRound][_poolId]) {\n            delete _commits[collectRound][_poolId];\n            delete _ciphers[collectRound][_poolId];\n        }\n    }\n\n    /// @dev Called by the validator's node to store a hash and a cipher of the validator's number on each collection\n    /// round. The validator's node must use its mining address to call this function.\n    /// This function can only be called once per collection round (during the `commits phase`).\n    /// @param _numberHash The Keccak-256 hash of the validator's number.\n    /// @param _cipher The cipher of the validator's number. Can be used by the node to restore the lost number after\n    /// the node is restarted (see the `getCipher` getter).\n    function commitHash(bytes32 _numberHash, bytes calldata _cipher) external onlyInitialized {\n        address miningAddress = msg.sender;\n\n        require(commitHashCallable(miningAddress, _numberHash));\n        require(_getCoinbase() == miningAddress); // make sure validator node is live\n\n        uint256 collectRound = currentCollectRound();\n        uint256 poolId = validatorSetContract.idByMiningAddress(miningAddress);\n\n        _commits[collectRound][poolId] = _numberHash;\n        _ciphers[collectRound][poolId] = _cipher;\n        _committedValidators[collectRound].push(poolId);\n    }\n\n    /// @dev Called by the validator's node to XOR its number with the current random seed.\n    /// The validator's node must use its mining address to call this function.\n    /// This function can only be called once per collection round (during the `reveals phase`).\n    /// @param _number The validator's number.\n    function revealNumber(uint256 _number) external onlyInitialized {\n        _revealNumber(_number);\n    }\n\n    /// @dev The same as the `revealNumber` function (see its description).\n    /// The `revealSecret` was renamed to `revealNumber`, so this function\n    /// is left for backward compatibility with the previous client\n    /// implementation and should be deleted in the future.\n    /// @param _number The validator's number.\n    function revealSecret(uint256 _number) external onlyInitialized {\n        _revealNumber(_number);\n    }\n\n    /// @dev Changes the `punishForUnreveal` boolean flag. Can only be called by an owner.\n    function setPunishForUnreveal(bool _punishForUnreveal) external onlyOwner {\n        punishForUnreveal = _punishForUnreveal;\n    }\n\n    /// @dev Initializes the contract at network startup.\n    /// Can only be called by the constructor of the `InitializerAuRa` contract or owner.\n    /// @param _collectRoundLength The length of a collection round in blocks.\n    /// @param _validatorSet The address of the `ValidatorSet` contract.\n    /// @param _punishForUnreveal A boolean flag defining whether to punish validators for unrevealing.\n    function initialize(\n        uint256 _collectRoundLength, // in blocks\n        address _validatorSet,\n        bool _punishForUnreveal\n    ) external {\n        require(_getCurrentBlockNumber() == 0 || msg.sender == _admin());\n        require(!isInitialized());\n        IValidatorSetAuRa validatorSet = IValidatorSetAuRa(_validatorSet);\n        require(_collectRoundLength % 2 == 0);\n        require(_collectRoundLength % validatorSet.MAX_VALIDATORS() == 0);\n        require(IStakingAuRa(validatorSet.stakingContract()).stakingEpochDuration() % _collectRoundLength == 0);\n        require(_collectRoundLength > 0);\n        require(collectRoundLength == 0);\n        require(_validatorSet != address(0));\n        collectRoundLength = _collectRoundLength;\n        validatorSetContract = IValidatorSetAuRa(_validatorSet);\n        punishForUnreveal = _punishForUnreveal;\n    }\n\n    /// @dev Checks whether the current validators at the end of each collection round revealed their numbers,\n    /// and removes malicious validators if needed.\n    /// This function does nothing if the current block is not the last block of the current collection round.\n    /// Can only be called by the `BlockRewardAuRa` contract (by its `reward` function).\n    function onFinishCollectRound() external onlyBlockReward {\n        if (_getCurrentBlockNumber() % collectRoundLength != 0) return;\n\n        // This is the last block of the current collection round\n\n        address[] memory validators;\n        address validator;\n        uint256 i;\n\n        address stakingContract = validatorSetContract.stakingContract();\n\n        uint256 stakingEpoch = IStakingAuRa(stakingContract).stakingEpoch();\n        uint256 startBlock = IStakingAuRa(stakingContract).stakingEpochStartBlock();\n        uint256 endBlock = IStakingAuRa(stakingContract).stakingEpochEndBlock();\n        uint256 currentRound = currentCollectRound();\n\n        if (_getCurrentBlockNumber() > startBlock + collectRoundLength * 3) {\n            // Check whether each validator didn't reveal their number\n            // during the current collection round\n            validators = validatorSetContract.getValidators();\n            for (i = 0; i < validators.length; i++) {\n                validator = validators[i];\n                if (!sentReveal(currentRound, validator)) {\n                    uint256 poolId = validatorSetContract.idByMiningAddress(validator);\n                    _revealSkips[stakingEpoch][poolId]++;\n                }\n            }\n        }\n\n        // If this is the last collection round in the current staking epoch\n        // and punishing for unreveal is enabled.\n        if (\n            punishForUnreveal &&\n            (_getCurrentBlockNumber() == endBlock || _getCurrentBlockNumber() + collectRoundLength > endBlock)\n        ) {\n            uint256 maxRevealSkipsAllowed =\n                IStakingAuRa(stakingContract).stakeWithdrawDisallowPeriod() / collectRoundLength;\n\n            if (maxRevealSkipsAllowed > 1) {\n                maxRevealSkipsAllowed -= 2;\n            } else if (maxRevealSkipsAllowed > 0) {\n                maxRevealSkipsAllowed--;\n            }\n\n            // Check each validator to see if they didn't reveal\n            // their number during the last full `reveals phase`\n            // or if they missed the required number of reveals per staking epoch.\n            validators = validatorSetContract.getValidators();\n\n            address[] memory maliciousValidators = new address[](validators.length);\n            uint256 maliciousValidatorsLength = 0;\n\n            for (i = 0; i < validators.length; i++) {\n                validator = validators[i];\n                if (\n                    !sentReveal(currentRound, validator) ||\n                    revealSkips(stakingEpoch, validator) > maxRevealSkipsAllowed\n                ) {\n                    // Mark the validator as malicious\n                    maliciousValidators[maliciousValidatorsLength++] = validator;\n                }\n            }\n\n            if (maliciousValidatorsLength > 0) {\n                address[] memory miningAddresses = new address[](maliciousValidatorsLength);\n                for (i = 0; i < maliciousValidatorsLength; i++) {\n                    miningAddresses[i] = maliciousValidators[i];\n                }\n                validatorSetContract.removeMaliciousValidators(miningAddresses);\n            }\n        }\n\n        // Clear unnecessary info about previous collection round.\n        _clearOldCiphers(currentRound);\n    }\n\n    // =============================================== Getters ========================================================\n\n    /// @dev Returns the length of the commits/reveals phase which is always half of the collection round length.\n    function commitPhaseLength() public view returns(uint256) {\n        return collectRoundLength / 2;\n    }\n\n    /// @dev Returns the serial number of the current collection round.\n    function currentCollectRound() public view returns(uint256) {\n        return (_getCurrentBlockNumber() - 1) / collectRoundLength;\n    }\n\n    /// @dev Returns the number of the first block of the current collection round.\n    function currentCollectRoundStartBlock() public view returns(uint256) {\n        return currentCollectRound() * collectRoundLength + 1;\n    }\n\n    /// @dev Returns the cipher of the validator's number for the specified collection round and the specified validator\n    /// stored by the validator through the `commitHash` function.\n    /// For the past collection rounds the cipher is empty as it's erased by the internal `_clearOldCiphers` function.\n    /// @param _collectRound The serial number of the collection round for which the cipher should be retrieved.\n    /// @param _miningAddress The mining address of validator.\n    function getCipher(uint256 _collectRound, address _miningAddress) public view returns(bytes memory) {\n        uint256 poolId = validatorSetContract.idByMiningAddress(_miningAddress);\n        return _ciphers[_collectRound][poolId];\n    }\n\n    /// @dev Returns the Keccak-256 hash of the validator's number for the specified collection round and the specified\n    /// validator stored by the validator through the `commitHash` function. Note that for the past collection rounds\n    /// it can return empty results because there was a migration from mining addresses to staking addresses.\n    /// @param _collectRound The serial number of the collection round for which the hash should be retrieved.\n    /// @param _miningAddress The mining address of validator.\n    function getCommit(uint256 _collectRound, address _miningAddress) public view returns(bytes32) {\n        uint256 poolId = validatorSetContract.idByMiningAddress(_miningAddress);\n        return _commits[_collectRound][poolId];\n    }\n\n    /// @dev Returns the Keccak-256 hash and cipher of the validator's number for the specified collection round\n    /// and the specified validator stored by the validator through the `commitHash` function.\n    /// For the past collection rounds the cipher is empty. Note that for the past collection rounds\n    /// it can return empty results because there was a migration from mining addresses to staking addresses.\n    /// @param _collectRound The serial number of the collection round for which hash and cipher should be retrieved.\n    /// @param _miningAddress The mining address of validator.\n    function getCommitAndCipher(\n        uint256 _collectRound,\n        address _miningAddress\n    ) public view returns(bytes32, bytes memory) {\n        uint256 poolId = validatorSetContract.idByMiningAddress(_miningAddress);\n        return (_commits[_collectRound][poolId], _ciphers[_collectRound][poolId]);\n    }\n\n    /// @dev Returns a boolean flag indicating whether the specified validator has committed their number's hash for the\n    /// specified collection round. Note that for the past collection rounds it can return false-negative results\n    /// because there was a migration from mining addresses to staking addresses (on etl chain).\n    /// Also, it intentionally returns a false-positive result during the commit phase when the specified\n    /// mining address of a validator is about to be changed. This is needed to prevent committing hash/cipher pair\n    /// by Ethereum node to guarantee that a new validator's node (with a new mining address) won't try to wrongly\n    /// decrypt the cipher stored by the previous node (created by the private key of the previous mining address).\n    /// @param _collectRound The serial number of the collection round for which the checkup should be done.\n    /// @param _miningAddress The mining address of the validator.\n    function isCommitted(uint256 _collectRound, address _miningAddress) public view returns(bool) {\n        uint256 poolId = validatorSetContract.idByMiningAddress(_miningAddress);\n\n        if (poolId != 0 && isCommitPhase()) {\n            (uint256 requestPoolId,) = validatorSetContract.miningAddressChangeRequest();\n            if (poolId == requestPoolId) {\n                return true;\n            }\n        }\n\n        return _commits[_collectRound][poolId] != bytes32(0);\n    }\n\n    /// @dev Returns a boolean flag indicating whether the current phase of the current collection round\n    /// is a `commits phase`. Used by the validator's node to determine if it should commit the hash of\n    /// the number during the current collection round.\n    function isCommitPhase() public view returns(bool) {\n        return ((_getCurrentBlockNumber() - 1) % collectRoundLength) < commitPhaseLength();\n    }\n\n    /// @dev Returns a boolean flag indicating if the `initialize` function has been called.\n    function isInitialized() public view returns(bool) {\n        return validatorSetContract != IValidatorSetAuRa(0);\n    }\n\n    /// @dev Returns a boolean flag indicating whether the current phase of the current collection round\n    /// is a `reveals phase`. Used by the validator's node to determine if it should reveal the number during\n    /// the current collection round.\n    function isRevealPhase() public view returns(bool) {\n        return !isCommitPhase();\n    }\n\n    /// @dev Returns a boolean flag of whether the `commitHash` function can be called at the current block\n    /// by the specified validator. Used by the `commitHash` function and the `TxPermission` contract.\n    /// @param _miningAddress The mining address of the validator which tries to call the `commitHash` function.\n    /// @param _numberHash The Keccak-256 hash of validator's number passed to the `commitHash` function.\n    function commitHashCallable(address _miningAddress, bytes32 _numberHash) public view returns(bool) {\n        if (!isCommitPhase()) return false; // must only be called in `commits phase`\n\n        if (_numberHash == bytes32(0)) return false;\n\n        if (!validatorSetContract.isValidator(_miningAddress)) return false;\n\n        if (isCommitted(currentCollectRound(), _miningAddress)) return false; // cannot commit more than once\n\n        return true;\n    }\n\n    /// @dev Returns the number of the first block of the next (future) collection round.\n    function nextCollectRoundStartBlock() public view returns(uint256) {\n        uint256 currentBlock = _getCurrentBlockNumber();\n        uint256 remainingBlocksToNextRound = collectRoundLength - (currentBlock - 1) % collectRoundLength;\n        return currentBlock + remainingBlocksToNextRound;\n    }\n\n    /// @dev Returns the number of the first block of the next (future) commit phase.\n    function nextCommitPhaseStartBlock() public view returns(uint256) {\n        return nextCollectRoundStartBlock();\n    }\n\n    /// @dev Returns the number of the first block of the next (future) reveal phase.\n    function nextRevealPhaseStartBlock() public view returns(uint256) {\n        if (isCommitPhase()) {\n            return currentCollectRoundStartBlock() + commitPhaseLength();\n        } else {\n            return nextCollectRoundStartBlock() + commitPhaseLength();\n        }\n    }\n\n    /// @dev Returns a boolean flag of whether the `revealNumber` function can be called at the current block\n    /// by the specified validator. Used by the `revealNumber` function and the `TxPermission` contract.\n    /// @param _miningAddress The mining address of validator which tries to call the `revealNumber` function.\n    /// @param _number The validator's number passed to the `revealNumber` function.\n    function revealNumberCallable(address _miningAddress, uint256 _number) public view returns(bool) {\n        return _revealNumberCallable(_miningAddress, _number);\n    }\n\n    /// @dev The same as the `revealNumberCallable` getter (see its description).\n    /// The `revealSecretCallable` was renamed to `revealNumberCallable`, so this function\n    /// is left for backward compatibility with the previous client\n    /// implementation and should be deleted in the future.\n    /// @param _miningAddress The mining address of validator which tries to call the `revealSecret` function.\n    /// @param _number The validator's number passed to the `revealSecret` function.\n    function revealSecretCallable(address _miningAddress, uint256 _number) public view returns(bool) {\n        return _revealNumberCallable(_miningAddress, _number);\n    }\n\n    /// @dev Returns the number of reveal skips made by the specified validator during the specified staking epoch.\n    /// @param _stakingEpoch The number of staking epoch.\n    /// @param _miningAddress The mining address of the validator.\n    function revealSkips(uint256 _stakingEpoch, address _miningAddress) public view returns(uint256) {\n        uint256 poolId = validatorSetContract.idByMiningAddress(_miningAddress);\n        return _revealSkips[_stakingEpoch][poolId];\n    }\n\n    /// @dev Returns a boolean flag indicating whether the specified validator has revealed their number for the\n    /// specified collection round. Note that for the past collection rounds it can return false-negative results\n    /// because there was a migration from mining addresses to staking addresses.\n    /// @param _collectRound The serial number of the collection round for which the checkup should be done.\n    /// @param _miningAddress The mining address of the validator.\n    function sentReveal(uint256 _collectRound, address _miningAddress) public view returns(bool) {\n        uint256 poolId = validatorSetContract.idByMiningAddress(_miningAddress);\n        return _sentReveal[_collectRound][poolId];\n    }\n\n    // ============================================== Internal ========================================================\n\n    /// @dev Removes the ciphers of all committed validators for the collection round\n    /// preceding to the specified collection round.\n    /// @param _collectRound The serial number of the collection round.\n    function _clearOldCiphers(uint256 _collectRound) internal {\n        if (_collectRound == 0) {\n            return;\n        }\n\n        uint256 collectRound = _collectRound - 1;\n        uint256[] storage poolIds = _committedValidators[collectRound];\n        uint256 poolIdsLength = poolIds.length;\n\n        for (uint256 i = 0; i < poolIdsLength; i++) {\n            delete _ciphers[collectRound][poolIds[i]];\n        }\n\n        poolIds.length = 0;\n    }\n\n    /// @dev Used by the `revealNumber` function.\n    /// @param _number The validator's number.\n    function _revealNumber(uint256 _number) internal {\n        address miningAddress = msg.sender;\n\n        require(revealNumberCallable(miningAddress, _number));\n        require(_getCoinbase() == miningAddress); // make sure validator node is live\n\n        uint256 poolId = validatorSetContract.idByMiningAddress(miningAddress);\n\n        currentSeed = currentSeed ^ _number;\n        _sentReveal[currentCollectRound()][poolId] = true;\n    }\n\n    /// @dev Returns the current `coinbase` address. Needed mostly for unit tests.\n    function _getCoinbase() internal view returns(address) {\n        return block.coinbase;\n    }\n\n    /// @dev Returns the current block number. Needed mostly for unit tests.\n    function _getCurrentBlockNumber() internal view returns(uint256) {\n        return block.number;\n    }\n\n    /// @dev Used by the `revealNumberCallable` public getter.\n    /// @param _miningAddress The mining address of validator which tries to call the `revealNumber` function.\n    /// @param _number The validator's number passed to the `revealNumber` function.\n    function _revealNumberCallable(address _miningAddress, uint256 _number) internal view returns(bool) {\n        if (!isRevealPhase()) return false; // must only be called in `reveals phase`\n\n        bytes32 numberHash = keccak256(abi.encodePacked(_number));\n\n        if (numberHash == bytes32(0)) return false;\n\n        if (!validatorSetContract.isValidator(_miningAddress)) return false;\n\n        uint256 collectRound = currentCollectRound();\n\n        if (sentReveal(collectRound, _miningAddress)) {\n            return false; // cannot reveal more than once during the same collectRound\n        }\n\n        if (numberHash != getCommit(collectRound, _miningAddress)) {\n            return false; // the hash must be commited\n        }\n\n        return true;\n    }\n}\n",
  "sourcePath": "/Users/akshaypatil/Documents/etherlite/pos-contracts/posdao-etherlite/contracts/RandomAuRa.sol",
  "compiler": {
    "name": "solc",
    "version": "0.5.10+commit.5a6ea5b1.Emscripten.clang"
  },
  "schemaVersion": "3.3.1",
  "updatedAt": "2021-04-11T17:55:35.893Z",
  "devdoc": {
    "details": "Generates and stores random numbers in a RANDAO manner (and controls when they are revealed by AuRa validators) and accumulates a random seed. The random seed is used to form a new validator set by the `ValidatorSetAuRa.newValidatorSet` function.",
    "methods": {
      "clearCommit(uint256)": {
        "details": "Clears commit and cipher for the given validator's pool if the pool hasn't yet revealed their number. Called by the ValidatorSetAuRa.changeMiningAddress function when a validator creates a request to change their mining address."
      },
      "commitHash(bytes32,bytes)": {
        "details": "Called by the validator's node to store a hash and a cipher of the validator's number on each collection round. The validator's node must use its mining address to call this function. This function can only be called once per collection round (during the `commits phase`).",
        "params": {
          "_cipher": "The cipher of the validator's number. Can be used by the node to restore the lost number after the node is restarted (see the `getCipher` getter).",
          "_numberHash": "The Keccak-256 hash of the validator's number."
        }
      },
      "commitHashCallable(address,bytes32)": {
        "details": "Returns a boolean flag of whether the `commitHash` function can be called at the current block by the specified validator. Used by the `commitHash` function and the `TxPermission` contract.",
        "params": {
          "_miningAddress": "The mining address of the validator which tries to call the `commitHash` function.",
          "_numberHash": "The Keccak-256 hash of validator's number passed to the `commitHash` function."
        }
      },
      "commitPhaseLength()": {
        "details": "Returns the length of the commits/reveals phase which is always half of the collection round length."
      },
      "currentCollectRound()": {
        "details": "Returns the serial number of the current collection round."
      },
      "currentCollectRoundStartBlock()": {
        "details": "Returns the number of the first block of the current collection round."
      },
      "getCipher(uint256,address)": {
        "details": "Returns the cipher of the validator's number for the specified collection round and the specified validator stored by the validator through the `commitHash` function. For the past collection rounds the cipher is empty as it's erased by the internal `_clearOldCiphers` function.",
        "params": {
          "_collectRound": "The serial number of the collection round for which the cipher should be retrieved.",
          "_miningAddress": "The mining address of validator."
        }
      },
      "getCommit(uint256,address)": {
        "details": "Returns the Keccak-256 hash of the validator's number for the specified collection round and the specified validator stored by the validator through the `commitHash` function. Note that for the past collection rounds it can return empty results because there was a migration from mining addresses to staking addresses.",
        "params": {
          "_collectRound": "The serial number of the collection round for which the hash should be retrieved.",
          "_miningAddress": "The mining address of validator."
        }
      },
      "getCommitAndCipher(uint256,address)": {
        "details": "Returns the Keccak-256 hash and cipher of the validator's number for the specified collection round and the specified validator stored by the validator through the `commitHash` function. For the past collection rounds the cipher is empty. Note that for the past collection rounds it can return empty results because there was a migration from mining addresses to staking addresses.",
        "params": {
          "_collectRound": "The serial number of the collection round for which hash and cipher should be retrieved.",
          "_miningAddress": "The mining address of validator."
        }
      },
      "initialize(uint256,address,bool)": {
        "details": "Initializes the contract at network startup. Can only be called by the constructor of the `InitializerAuRa` contract or owner.",
        "params": {
          "_collectRoundLength": "The length of a collection round in blocks.",
          "_punishForUnreveal": "A boolean flag defining whether to punish validators for unrevealing.",
          "_validatorSet": "The address of the `ValidatorSet` contract."
        }
      },
      "isCommitPhase()": {
        "details": "Returns a boolean flag indicating whether the current phase of the current collection round is a `commits phase`. Used by the validator's node to determine if it should commit the hash of the number during the current collection round."
      },
      "isCommitted(uint256,address)": {
        "details": "Returns a boolean flag indicating whether the specified validator has committed their number's hash for the specified collection round. Note that for the past collection rounds it can return false-negative results because there was a migration from mining addresses to staking addresses (on etl chain). Also, it intentionally returns a false-positive result during the commit phase when the specified mining address of a validator is about to be changed. This is needed to prevent committing hash/cipher pair by Ethereum node to guarantee that a new validator's node (with a new mining address) won't try to wrongly decrypt the cipher stored by the previous node (created by the private key of the previous mining address).",
        "params": {
          "_collectRound": "The serial number of the collection round for which the checkup should be done.",
          "_miningAddress": "The mining address of the validator."
        }
      },
      "isInitialized()": {
        "details": "Returns a boolean flag indicating if the `initialize` function has been called."
      },
      "isRevealPhase()": {
        "details": "Returns a boolean flag indicating whether the current phase of the current collection round is a `reveals phase`. Used by the validator's node to determine if it should reveal the number during the current collection round."
      },
      "nextCollectRoundStartBlock()": {
        "details": "Returns the number of the first block of the next (future) collection round."
      },
      "nextCommitPhaseStartBlock()": {
        "details": "Returns the number of the first block of the next (future) commit phase."
      },
      "nextRevealPhaseStartBlock()": {
        "details": "Returns the number of the first block of the next (future) reveal phase."
      },
      "onFinishCollectRound()": {
        "details": "Checks whether the current validators at the end of each collection round revealed their numbers, and removes malicious validators if needed. This function does nothing if the current block is not the last block of the current collection round. Can only be called by the `BlockRewardAuRa` contract (by its `reward` function)."
      },
      "revealNumber(uint256)": {
        "details": "Called by the validator's node to XOR its number with the current random seed. The validator's node must use its mining address to call this function. This function can only be called once per collection round (during the `reveals phase`).",
        "params": {
          "_number": "The validator's number."
        }
      },
      "revealNumberCallable(address,uint256)": {
        "details": "Returns a boolean flag of whether the `revealNumber` function can be called at the current block by the specified validator. Used by the `revealNumber` function and the `TxPermission` contract.",
        "params": {
          "_miningAddress": "The mining address of validator which tries to call the `revealNumber` function.",
          "_number": "The validator's number passed to the `revealNumber` function."
        }
      },
      "revealSecret(uint256)": {
        "details": "The same as the `revealNumber` function (see its description). The `revealSecret` was renamed to `revealNumber`, so this function is left for backward compatibility with the previous client implementation and should be deleted in the future.",
        "params": {
          "_number": "The validator's number."
        }
      },
      "revealSecretCallable(address,uint256)": {
        "details": "The same as the `revealNumberCallable` getter (see its description). The `revealSecretCallable` was renamed to `revealNumberCallable`, so this function is left for backward compatibility with the previous client implementation and should be deleted in the future.",
        "params": {
          "_miningAddress": "The mining address of validator which tries to call the `revealSecret` function.",
          "_number": "The validator's number passed to the `revealSecret` function."
        }
      },
      "revealSkips(uint256,address)": {
        "details": "Returns the number of reveal skips made by the specified validator during the specified staking epoch.",
        "params": {
          "_miningAddress": "The mining address of the validator.",
          "_stakingEpoch": "The number of staking epoch."
        }
      },
      "sentReveal(uint256,address)": {
        "details": "Returns a boolean flag indicating whether the specified validator has revealed their number for the specified collection round. Note that for the past collection rounds it can return false-negative results because there was a migration from mining addresses to staking addresses.",
        "params": {
          "_collectRound": "The serial number of the collection round for which the checkup should be done.",
          "_miningAddress": "The mining address of the validator."
        }
      },
      "setPunishForUnreveal(bool)": {
        "details": "Changes the `punishForUnreveal` boolean flag. Can only be called by an owner."
      }
    }
  },
  "userdoc": {
    "methods": {}
  }
}