{
  "contractName": "Registry",
  "abi": [
    {
      "constant": false,
      "inputs": [
        {
          "name": "_new",
          "type": "address"
        }
      ],
      "name": "setOwner",
      "outputs": [],
      "payable": false,
      "stateMutability": "nonpayable",
      "type": "function"
    },
    {
      "constant": true,
      "inputs": [],
      "name": "owner",
      "outputs": [
        {
          "name": "",
          "type": "address"
        }
      ],
      "payable": false,
      "stateMutability": "view",
      "type": "function"
    },
    {
      "constant": true,
      "inputs": [],
      "name": "fee",
      "outputs": [
        {
          "name": "",
          "type": "uint256"
        }
      ],
      "payable": false,
      "stateMutability": "view",
      "type": "function"
    },
    {
      "inputs": [
        {
          "name": "_certifierContract",
          "type": "address"
        },
        {
          "name": "_owner",
          "type": "address"
        }
      ],
      "payable": false,
      "stateMutability": "nonpayable",
      "type": "constructor"
    },
    {
      "anonymous": false,
      "inputs": [
        {
          "indexed": false,
          "name": "amount",
          "type": "uint256"
        }
      ],
      "name": "Drained",
      "type": "event"
    },
    {
      "anonymous": false,
      "inputs": [
        {
          "indexed": false,
          "name": "amount",
          "type": "uint256"
        }
      ],
      "name": "FeeChanged",
      "type": "event"
    },
    {
      "anonymous": false,
      "inputs": [
        {
          "indexed": false,
          "name": "name",
          "type": "string"
        },
        {
          "indexed": true,
          "name": "reverse",
          "type": "address"
        }
      ],
      "name": "ReverseProposed",
      "type": "event"
    },
    {
      "anonymous": false,
      "inputs": [
        {
          "indexed": false,
          "name": "name",
          "type": "string"
        },
        {
          "indexed": true,
          "name": "reverse",
          "type": "address"
        }
      ],
      "name": "ReverseConfirmed",
      "type": "event"
    },
    {
      "anonymous": false,
      "inputs": [
        {
          "indexed": false,
          "name": "name",
          "type": "string"
        },
        {
          "indexed": true,
          "name": "reverse",
          "type": "address"
        }
      ],
      "name": "ReverseRemoved",
      "type": "event"
    },
    {
      "anonymous": false,
      "inputs": [
        {
          "indexed": true,
          "name": "name",
          "type": "bytes32"
        },
        {
          "indexed": true,
          "name": "owner",
          "type": "address"
        }
      ],
      "name": "Reserved",
      "type": "event"
    },
    {
      "anonymous": false,
      "inputs": [
        {
          "indexed": true,
          "name": "name",
          "type": "bytes32"
        },
        {
          "indexed": true,
          "name": "oldOwner",
          "type": "address"
        },
        {
          "indexed": true,
          "name": "newOwner",
          "type": "address"
        }
      ],
      "name": "Transferred",
      "type": "event"
    },
    {
      "anonymous": false,
      "inputs": [
        {
          "indexed": true,
          "name": "name",
          "type": "bytes32"
        },
        {
          "indexed": true,
          "name": "owner",
          "type": "address"
        }
      ],
      "name": "Dropped",
      "type": "event"
    },
    {
      "anonymous": false,
      "inputs": [
        {
          "indexed": true,
          "name": "name",
          "type": "bytes32"
        },
        {
          "indexed": false,
          "name": "key",
          "type": "string"
        },
        {
          "indexed": false,
          "name": "plainKey",
          "type": "string"
        }
      ],
      "name": "DataChanged",
      "type": "event"
    },
    {
      "anonymous": false,
      "inputs": [
        {
          "indexed": true,
          "name": "old",
          "type": "address"
        },
        {
          "indexed": true,
          "name": "current",
          "type": "address"
        }
      ],
      "name": "NewOwner",
      "type": "event"
    },
    {
      "constant": false,
      "inputs": [
        {
          "name": "_name",
          "type": "bytes32"
        }
      ],
      "name": "reserve",
      "outputs": [
        {
          "name": "success",
          "type": "bool"
        }
      ],
      "payable": true,
      "stateMutability": "payable",
      "type": "function"
    },
    {
      "constant": false,
      "inputs": [
        {
          "name": "_name",
          "type": "bytes32"
        },
        {
          "name": "_to",
          "type": "address"
        }
      ],
      "name": "transfer",
      "outputs": [
        {
          "name": "success",
          "type": "bool"
        }
      ],
      "payable": false,
      "stateMutability": "nonpayable",
      "type": "function"
    },
    {
      "constant": false,
      "inputs": [
        {
          "name": "_name",
          "type": "bytes32"
        }
      ],
      "name": "drop",
      "outputs": [
        {
          "name": "success",
          "type": "bool"
        }
      ],
      "payable": false,
      "stateMutability": "nonpayable",
      "type": "function"
    },
    {
      "constant": false,
      "inputs": [
        {
          "name": "_name",
          "type": "bytes32"
        },
        {
          "name": "_key",
          "type": "string"
        },
        {
          "name": "_value",
          "type": "bytes32"
        }
      ],
      "name": "setData",
      "outputs": [
        {
          "name": "success",
          "type": "bool"
        }
      ],
      "payable": false,
      "stateMutability": "nonpayable",
      "type": "function"
    },
    {
      "constant": false,
      "inputs": [
        {
          "name": "_name",
          "type": "bytes32"
        },
        {
          "name": "_key",
          "type": "string"
        },
        {
          "name": "_value",
          "type": "address"
        }
      ],
      "name": "setAddress",
      "outputs": [
        {
          "name": "success",
          "type": "bool"
        }
      ],
      "payable": false,
      "stateMutability": "nonpayable",
      "type": "function"
    },
    {
      "constant": false,
      "inputs": [
        {
          "name": "_name",
          "type": "bytes32"
        },
        {
          "name": "_key",
          "type": "string"
        },
        {
          "name": "_value",
          "type": "uint256"
        }
      ],
      "name": "setUint",
      "outputs": [
        {
          "name": "success",
          "type": "bool"
        }
      ],
      "payable": false,
      "stateMutability": "nonpayable",
      "type": "function"
    },
    {
      "constant": false,
      "inputs": [
        {
          "name": "_name",
          "type": "string"
        },
        {
          "name": "_who",
          "type": "address"
        }
      ],
      "name": "proposeReverse",
      "outputs": [
        {
          "name": "success",
          "type": "bool"
        }
      ],
      "payable": false,
      "stateMutability": "nonpayable",
      "type": "function"
    },
    {
      "constant": false,
      "inputs": [
        {
          "name": "_name",
          "type": "string"
        }
      ],
      "name": "confirmReverse",
      "outputs": [
        {
          "name": "success",
          "type": "bool"
        }
      ],
      "payable": false,
      "stateMutability": "nonpayable",
      "type": "function"
    },
    {
      "constant": false,
      "inputs": [
        {
          "name": "_name",
          "type": "string"
        },
        {
          "name": "_who",
          "type": "address"
        }
      ],
      "name": "confirmReverseAs",
      "outputs": [
        {
          "name": "success",
          "type": "bool"
        }
      ],
      "payable": false,
      "stateMutability": "nonpayable",
      "type": "function"
    },
    {
      "constant": false,
      "inputs": [],
      "name": "removeReverse",
      "outputs": [],
      "payable": false,
      "stateMutability": "nonpayable",
      "type": "function"
    },
    {
      "constant": false,
      "inputs": [
        {
          "name": "_amount",
          "type": "uint256"
        }
      ],
      "name": "setFee",
      "outputs": [
        {
          "name": "",
          "type": "bool"
        }
      ],
      "payable": false,
      "stateMutability": "nonpayable",
      "type": "function"
    },
    {
      "constant": false,
      "inputs": [],
      "name": "drain",
      "outputs": [
        {
          "name": "",
          "type": "bool"
        }
      ],
      "payable": false,
      "stateMutability": "nonpayable",
      "type": "function"
    },
    {
      "constant": true,
      "inputs": [
        {
          "name": "_name",
          "type": "bytes32"
        },
        {
          "name": "_key",
          "type": "string"
        }
      ],
      "name": "getData",
      "outputs": [
        {
          "name": "",
          "type": "bytes32"
        }
      ],
      "payable": false,
      "stateMutability": "view",
      "type": "function"
    },
    {
      "constant": true,
      "inputs": [
        {
          "name": "_name",
          "type": "bytes32"
        },
        {
          "name": "_key",
          "type": "string"
        }
      ],
      "name": "getAddress",
      "outputs": [
        {
          "name": "",
          "type": "address"
        }
      ],
      "payable": false,
      "stateMutability": "view",
      "type": "function"
    },
    {
      "constant": true,
      "inputs": [
        {
          "name": "_name",
          "type": "bytes32"
        },
        {
          "name": "_key",
          "type": "string"
        }
      ],
      "name": "getUint",
      "outputs": [
        {
          "name": "",
          "type": "uint256"
        }
      ],
      "payable": false,
      "stateMutability": "view",
      "type": "function"
    },
    {
      "constant": true,
      "inputs": [
        {
          "name": "_name",
          "type": "bytes32"
        }
      ],
      "name": "getOwner",
      "outputs": [
        {
          "name": "",
          "type": "address"
        }
      ],
      "payable": false,
      "stateMutability": "view",
      "type": "function"
    },
    {
      "constant": true,
      "inputs": [
        {
          "name": "_name",
          "type": "bytes32"
        }
      ],
      "name": "hasReverse",
      "outputs": [
        {
          "name": "",
          "type": "bool"
        }
      ],
      "payable": false,
      "stateMutability": "view",
      "type": "function"
    },
    {
      "constant": true,
      "inputs": [
        {
          "name": "_name",
          "type": "bytes32"
        }
      ],
      "name": "getReverse",
      "outputs": [
        {
          "name": "",
          "type": "address"
        }
      ],
      "payable": false,
      "stateMutability": "view",
      "type": "function"
    },
    {
      "constant": true,
      "inputs": [
        {
          "name": "_data",
          "type": "address"
        }
      ],
      "name": "canReverse",
      "outputs": [
        {
          "name": "",
          "type": "bool"
        }
      ],
      "payable": false,
      "stateMutability": "view",
      "type": "function"
    },
    {
      "constant": true,
      "inputs": [
        {
          "name": "_data",
          "type": "address"
        }
      ],
      "name": "reverse",
      "outputs": [
        {
          "name": "",
          "type": "string"
        }
      ],
      "payable": false,
      "stateMutability": "view",
      "type": "function"
    },
    {
      "constant": true,
      "inputs": [
        {
          "name": "_name",
          "type": "bytes32"
        }
      ],
      "name": "reserved",
      "outputs": [
        {
          "name": "",
          "type": "bool"
        }
      ],
      "payable": false,
      "stateMutability": "view",
      "type": "function"
    }
  ],
  "bytecode": "0x6080604052336000806101000a81548173ffffffffffffffffffffffffffffffffffffffff021916908373ffffffffffffffffffffffffffffffffffffffff160217905550670de0b6b3a76400006003553480156200005d57600080fd5b506040516200374038038062003740833981810160405260408110156200008357600080fd5b810190808051906020019092919080519060200190929190505050600073ffffffffffffffffffffffffffffffffffffffff168273ffffffffffffffffffffffffffffffffffffffff161415620000d957600080fd5b600060405180807f736572766963655f7472616e73616374696f6e5f636865636b65720000000000815250601b019050604051809103902090506000339050600073ffffffffffffffffffffffffffffffffffffffff168373ffffffffffffffffffffffffffffffffffffffff16146200019157826000806101000a81548173ffffffffffffffffffffffffffffffffffffffff021916908373ffffffffffffffffffffffffffffffffffffffff1602179055508290505b806001600084815260200190815260200160002060000160006101000a81548173ffffffffffffffffffffffffffffffffffffffff021916908373ffffffffffffffffffffffffffffffffffffffff1602179055508360601b6bffffffffffffffffffffffff19166001600084815260200190815260200160002060020160405180807f410000000000000000000000000000000000000000000000000000000000000081525060010190509081526020016040518091039020819055508073ffffffffffffffffffffffffffffffffffffffff16827f4963513eca575aba66fdcd25f267aae85958fe6fb97e75fa25d783f1a091a22160405160405180910390a3817fb829c3e412537bbe794c048ccb9e4605bb4aaaa8e4d4c15c1a6e0c2adc1716ea604051808060200180602001838103835260018152602001807f4100000000000000000000000000000000000000000000000000000000000000815250602001838103825260018152602001807f41000000000000000000000000000000000000000000000000000000000000008152506020019250505060405180910390a2505050506133f780620003496000396000f3fe60806040526004361061014b5760003560e01c80639890220b116100b6578063df57b7421161006f578063df57b74214610961578063e30bd740146109dc578063eadf976014610aa6578063ef5454d614610b58578063f25eb5c114610c16578063f6d339e414610c2d5761014b565b80639890220b146106d7578063ac4e73f914610706578063ac72c120146107c4578063c3a3582514610817578063ddca3f43146108bb578063deb931a2146108e65761014b565b80636795dbcd116101085780636795dbcd146103f357806369fe0e2d146104c357806379ce9fac146105165780638da5cb5b1461058957806390b97fc1146105e057806392698814146106845761014b565b806306b2ff471461015057806313af4035146101b957806319362a281461020a5780633f3935d1146102bc578063432ced041461035a5780634f39ca59146103a0575b600080fd5b34801561015c57600080fd5b5061019f6004803603602081101561017357600080fd5b81019080803573ffffffffffffffffffffffffffffffffffffffff169060200190929190505050610cf5565b604051808215151515815260200191505060405180910390f35b3480156101c557600080fd5b50610208600480360360208110156101dc57600080fd5b81019080803573ffffffffffffffffffffffffffffffffffffffff169060200190929190505050610d55565b005b34801561021657600080fd5b506102a26004803603606081101561022d57600080fd5b81019080803590602001909291908035906020019064010000000081111561025457600080fd5b82018360208201111561026657600080fd5b8035906020019184600183028401116401000000008311171561028857600080fd5b909192939192939080359060200190929190505050610ea6565b604051808215151515815260200191505060405180910390f35b3480156102c857600080fd5b50610340600480360360208110156102df57600080fd5b81019080803590602001906401000000008111156102fc57600080fd5b82018360208201111561030e57600080fd5b8035906020019184600183028401116401000000008311171561033057600080fd5b909192939192939050505061109b565b604051808215151515815260200191505060405180910390f35b6103866004803603602081101561037057600080fd5b810190808035906020019092919050505061131c565b604051808215151515815260200191505060405180910390f35b3480156103ac57600080fd5b506103d9600480360360208110156103c357600080fd5b810190808035906020019092919050505061146d565b604051808215151515815260200191505060405180910390f35b3480156103ff57600080fd5b506104816004803603604081101561041657600080fd5b81019080803590602001909291908035906020019064010000000081111561043d57600080fd5b82018360208201111561044f57600080fd5b8035906020019184600183028401116401000000008311171561047157600080fd5b90919293919293905050506118d9565b604051808273ffffffffffffffffffffffffffffffffffffffff1673ffffffffffffffffffffffffffffffffffffffff16815260200191505060405180910390f35b3480156104cf57600080fd5b506104fc600480360360208110156104e657600080fd5b81019080803590602001909291905050506119c2565b604051808215151515815260200191505060405180910390f35b34801561052257600080fd5b5061056f6004803603604081101561053957600080fd5b8101908080359060200190929190803573ffffffffffffffffffffffffffffffffffffffff169060200190929190505050611a64565b604051808215151515815260200191505060405180910390f35b34801561059557600080fd5b5061059e611c2f565b604051808273ffffffffffffffffffffffffffffffffffffffff1673ffffffffffffffffffffffffffffffffffffffff16815260200191505060405180910390f35b3480156105ec57600080fd5b5061066e6004803603604081101561060357600080fd5b81019080803590602001909291908035906020019064010000000081111561062a57600080fd5b82018360208201111561063c57600080fd5b8035906020019184600183028401116401000000008311171561065e57600080fd5b9091929391929390505050611c54565b6040518082815260200191505060405180910390f35b34801561069057600080fd5b506106bd600480360360208110156106a757600080fd5b8101908080359060200190929190505050611d3a565b604051808215151515815260200191505060405180910390f35b3480156106e357600080fd5b506106ec611e49565b604051808215151515815260200191505060405180910390f35b34801561071257600080fd5b506107aa6004803603604081101561072957600080fd5b810190808035906020019064010000000081111561074657600080fd5b82018360208201111561075857600080fd5b8035906020019184600183028401116401000000008311171561077a57600080fd5b9091929391929390803573ffffffffffffffffffffffffffffffffffffffff169060200190929190505050611f57565b604051808215151515815260200191505060405180910390f35b3480156107d057600080fd5b506107fd600480360360208110156107e757600080fd5b810190808035906020019092919050505061245b565b604051808215151515815260200191505060405180910390f35b34801561082357600080fd5b506108a56004803603604081101561083a57600080fd5b81019080803590602001909291908035906020019064010000000081111561086157600080fd5b82018360208201111561087357600080fd5b8035906020019184600183028401116401000000008311171561089557600080fd5b909192939192939050505061256a565b6040518082815260200191505060405180910390f35b3480156108c757600080fd5b506108d0612653565b6040518082815260200191505060405180910390f35b3480156108f257600080fd5b5061091f6004803603602081101561090957600080fd5b8101908080359060200190929190505050612659565b604051808273ffffffffffffffffffffffffffffffffffffffff1673ffffffffffffffffffffffffffffffffffffffff16815260200191505060405180910390f35b34801561096d57600080fd5b5061099a6004803603602081101561098457600080fd5b8101908080359060200190929190505050612738565b604051808273ffffffffffffffffffffffffffffffffffffffff1673ffffffffffffffffffffffffffffffffffffffff16815260200191505060405180910390f35b3480156109e857600080fd5b50610a2b600480360360208110156109ff57600080fd5b81019080803573ffffffffffffffffffffffffffffffffffffffff169060200190929190505050612817565b6040518080602001828103825283818151815260200191508051906020019080838360005b83811015610a6b578082015181840152602081019050610a50565b50505050905090810190601f168015610a985780820380516001836020036101000a031916815260200191505b509250505060405180910390f35b348015610ab257600080fd5b50610b3e60048036036060811015610ac957600080fd5b810190808035906020019092919080359060200190640100000000811115610af057600080fd5b820183602082011115610b0257600080fd5b80359060200191846001830284011164010000000083111715610b2457600080fd5b9091929391929390803590602001909291905050506128f8565b604051808215151515815260200191505060405180910390f35b348015610b6457600080fd5b50610bfc60048036036040811015610b7b57600080fd5b8101908080359060200190640100000000811115610b9857600080fd5b820183602082011115610baa57600080fd5b80359060200191846001830284011164010000000083111715610bcc57600080fd5b9091929391929390803573ffffffffffffffffffffffffffffffffffffffff169060200190929190505050612af0565b604051808215151515815260200191505060405180910390f35b348015610c2257600080fd5b50610c2b612d10565b005b348015610c3957600080fd5b50610cdb60048036036060811015610c5057600080fd5b810190808035906020019092919080359060200190640100000000811115610c7757600080fd5b820183602082011115610c8957600080fd5b80359060200191846001830284011164010000000083111715610cab57600080fd5b9091929391929390803573ffffffffffffffffffffffffffffffffffffffff1690602001909291905050506130ce565b604051808215151515815260200191505060405180910390f35b600080600260008473ffffffffffffffffffffffffffffffffffffffff1673ffffffffffffffffffffffffffffffffffffffff16815260200190815260200160002080546001816001161561010002031660029004905014159050919050565b6000809054906101000a900473ffffffffffffffffffffffffffffffffffffffff1673ffffffffffffffffffffffffffffffffffffffff163373ffffffffffffffffffffffffffffffffffffffff1614610dae57600080fd5b600073ffffffffffffffffffffffffffffffffffffffff168173ffffffffffffffffffffffffffffffffffffffff161415610de857600080fd5b8073ffffffffffffffffffffffffffffffffffffffff166000809054906101000a900473ffffffffffffffffffffffffffffffffffffffff1673ffffffffffffffffffffffffffffffffffffffff167f70aea8d848e8a90fb7661b227dc522eb6395c3dac71b63cb59edd5c9899b236460405160405180910390a3806000806101000a81548173ffffffffffffffffffffffffffffffffffffffff021916908373ffffffffffffffffffffffffffffffffffffffff16021790555050565b6000846001600082815260200190815260200160002060010160149054906101000a900460ff16158015610f3d5750600073ffffffffffffffffffffffffffffffffffffffff166001600083815260200190815260200160002060000160009054906101000a900473ffffffffffffffffffffffffffffffffffffffff1673ffffffffffffffffffffffffffffffffffffffff1614155b610f4657600080fd5b853373ffffffffffffffffffffffffffffffffffffffff166001600083815260200190815260200160002060000160009054906101000a900473ffffffffffffffffffffffffffffffffffffffff1673ffffffffffffffffffffffffffffffffffffffff1614610fb557600080fd5b83600160008981526020019081526020016000206002018787604051808383808284378083019250505092505050908152602001604051809103902081905550867fb829c3e412537bbe794c048ccb9e4605bb4aaaa8e4d4c15c1a6e0c2adc1716ea878789896040518080602001806020018381038352878782818152602001925080828437600081840152601f19601f8201169050808301925050508381038252858582818152602001925080828437600081840152601f19601f820116905080830192505050965050505050505060405180910390a2600192505050949350505050565b600082828080601f016020809104026020016040519081016040528093929190818152602001838380828437600081840152601f19601f82011690508083019250505050505050600160008280519060200120815260200190815260200160002060010160149054906101000a900460ff161580156111845750600073ffffffffffffffffffffffffffffffffffffffff16600160008380519060200120815260200190815260200160002060000160009054906101000a900473ffffffffffffffffffffffffffffffffffffffff1673ffffffffffffffffffffffffffffffffffffffff1614155b61118d57600080fd5b83838080601f016020809104026020016040519081016040528093929190818152602001838380828437600081840152601f19601f820116905080830192505050505050503373ffffffffffffffffffffffffffffffffffffffff16600160008380519060200120815260200190815260200160002060010160009054906101000a900473ffffffffffffffffffffffffffffffffffffffff1673ffffffffffffffffffffffffffffffffffffffff161461124757600080fd5b8484600260003373ffffffffffffffffffffffffffffffffffffffff1673ffffffffffffffffffffffffffffffffffffffff16815260200190815260200160002091906112959291906132d5565b503373ffffffffffffffffffffffffffffffffffffffff167f098ae8581bb8bd9af1beaf7f2e9f51f31a8e5a8bfada4e303a645d71d9c91920868660405180806020018281038252848482818152602001925080828437600081840152601f19601f820116905080830192505050935050505060405180910390a260019250505092915050565b6000816001600082815260200190815260200160002060010160149054906101000a900460ff161580156113b25750600073ffffffffffffffffffffffffffffffffffffffff166001600083815260200190815260200160002060000160009054906101000a900473ffffffffffffffffffffffffffffffffffffffff1673ffffffffffffffffffffffffffffffffffffffff16145b6113bb57600080fd5b6003543410156113ca57600080fd5b336001600085815260200190815260200160002060000160006101000a81548173ffffffffffffffffffffffffffffffffffffffff021916908373ffffffffffffffffffffffffffffffffffffffff1602179055503373ffffffffffffffffffffffffffffffffffffffff16837f4963513eca575aba66fdcd25f267aae85958fe6fb97e75fa25d783f1a091a22160405160405180910390a36001915050919050565b6000816001600082815260200190815260200160002060010160149054906101000a900460ff161580156115045750600073ffffffffffffffffffffffffffffffffffffffff166001600083815260200190815260200160002060000160009054906101000a900473ffffffffffffffffffffffffffffffffffffffff1673ffffffffffffffffffffffffffffffffffffffff1614155b61150d57600080fd5b823373ffffffffffffffffffffffffffffffffffffffff166001600083815260200190815260200160002060000160009054906101000a900473ffffffffffffffffffffffffffffffffffffffff1673ffffffffffffffffffffffffffffffffffffffff161461157c57600080fd5b83600260006001600088815260200190815260200160002060010160009054906101000a900473ffffffffffffffffffffffffffffffffffffffff1673ffffffffffffffffffffffffffffffffffffffff1673ffffffffffffffffffffffffffffffffffffffff168152602001908152602001600020604051808280546001816001161561010002031660029004801561164d5780601f1061162b57610100808354040283529182019161164d565b820191906000526020600020905b815481529060010190602001808311611639575b50509150506040518091039020141561185c576001600085815260200190815260200160002060010160009054906101000a900473ffffffffffffffffffffffffffffffffffffffff1673ffffffffffffffffffffffffffffffffffffffff167f12491ad95fd945e444d88a894ffad3c21959880a4dcd8af99d4ae4ffc71d4abd600260006001600089815260200190815260200160002060010160009054906101000a900473ffffffffffffffffffffffffffffffffffffffff1673ffffffffffffffffffffffffffffffffffffffff1673ffffffffffffffffffffffffffffffffffffffff16815260200190815260200160002060405180806020018281038252838181546001816001161561010002031660029004815260200191508054600181600116156101000203166002900480156117cc5780601f106117a1576101008083540402835291602001916117cc565b820191906000526020600020905b8154815290600101906020018083116117af57829003601f168201915b50509250505060405180910390a2600260006001600087815260200190815260200160002060010160009054906101000a900473ffffffffffffffffffffffffffffffffffffffff1673ffffffffffffffffffffffffffffffffffffffff1673ffffffffffffffffffffffffffffffffffffffff168152602001908152602001600020600061185b9190613355565b5b600180600086815260200190815260200160002060010160146101000a81548160ff0219169083151502179055503373ffffffffffffffffffffffffffffffffffffffff16847fef1961b4d2909dc23643b309bfe5c3e5646842d98c3a58517037ef3871185af360405160405180910390a3600192505050919050565b6000836001600082815260200190815260200160002060010160149054906101000a900460ff161580156119705750600073ffffffffffffffffffffffffffffffffffffffff166001600083815260200190815260200160002060000160009054906101000a900473ffffffffffffffffffffffffffffffffffffffff1673ffffffffffffffffffffffffffffffffffffffff1614155b61197957600080fd5b60016000868152602001908152602001600020600201848460405180838380828437808301925050509250505090815260200160405180910390205460601c9150509392505050565b60008060009054906101000a900473ffffffffffffffffffffffffffffffffffffffff1673ffffffffffffffffffffffffffffffffffffffff163373ffffffffffffffffffffffffffffffffffffffff1614611a1d57600080fd5b816003819055507f6bbc57480a46553fa4d156ce702beef5f3ad66303b0ed1a5d4cb44966c6584c3826040518082815260200191505060405180910390a160019050919050565b6000826001600082815260200190815260200160002060010160149054906101000a900460ff16158015611afb5750600073ffffffffffffffffffffffffffffffffffffffff166001600083815260200190815260200160002060000160009054906101000a900473ffffffffffffffffffffffffffffffffffffffff1673ffffffffffffffffffffffffffffffffffffffff1614155b611b0457600080fd5b833373ffffffffffffffffffffffffffffffffffffffff166001600083815260200190815260200160002060000160009054906101000a900473ffffffffffffffffffffffffffffffffffffffff1673ffffffffffffffffffffffffffffffffffffffff1614611b7357600080fd5b836001600087815260200190815260200160002060000160006101000a81548173ffffffffffffffffffffffffffffffffffffffff021916908373ffffffffffffffffffffffffffffffffffffffff1602179055508373ffffffffffffffffffffffffffffffffffffffff163373ffffffffffffffffffffffffffffffffffffffff16867f7b97c62130aa09acbbcbf7482630e756592496f1759eaf702f469cf64dfb779460405160405180910390a460019250505092915050565b6000809054906101000a900473ffffffffffffffffffffffffffffffffffffffff1681565b6000836001600082815260200190815260200160002060010160149054906101000a900460ff16158015611ceb5750600073ffffffffffffffffffffffffffffffffffffffff166001600083815260200190815260200160002060000160009054906101000a900473ffffffffffffffffffffffffffffffffffffffff1673ffffffffffffffffffffffffffffffffffffffff1614155b611cf457600080fd5b6001600086815260200190815260200160002060020184846040518083838082843780830192505050925050509081526020016040518091039020549150509392505050565b6000816001600082815260200190815260200160002060010160149054906101000a900460ff16158015611dd15750600073ffffffffffffffffffffffffffffffffffffffff166001600083815260200190815260200160002060000160009054906101000a900473ffffffffffffffffffffffffffffffffffffffff1673ffffffffffffffffffffffffffffffffffffffff1614155b611dda57600080fd5b600073ffffffffffffffffffffffffffffffffffffffff166001600085815260200190815260200160002060000160009054906101000a900473ffffffffffffffffffffffffffffffffffffffff1673ffffffffffffffffffffffffffffffffffffffff161415915050919050565b60008060009054906101000a900473ffffffffffffffffffffffffffffffffffffffff1673ffffffffffffffffffffffffffffffffffffffff163373ffffffffffffffffffffffffffffffffffffffff1614611ea457600080fd5b7fdef931299fe61d176f949118058530c1f3f539dcb6950b4e372c9b835c33ca073073ffffffffffffffffffffffffffffffffffffffff16316040518082815260200191505060405180910390a13373ffffffffffffffffffffffffffffffffffffffff166108fc3073ffffffffffffffffffffffffffffffffffffffff16319081150290604051600060405180830381858888f19350505050158015611f4f573d6000803e3d6000fd5b506001905090565b600083838080601f016020809104026020016040519081016040528093929190818152602001838380828437600081840152601f19601f82011690508083019250505050505050600160008280519060200120815260200190815260200160002060010160149054906101000a900460ff161580156120405750600073ffffffffffffffffffffffffffffffffffffffff16600160008380519060200120815260200190815260200160002060000160009054906101000a900473ffffffffffffffffffffffffffffffffffffffff1673ffffffffffffffffffffffffffffffffffffffff1614155b61204957600080fd5b848460405180838380828437808301925050509250505060405180910390203373ffffffffffffffffffffffffffffffffffffffff166001600083815260200190815260200160002060000160009054906101000a900473ffffffffffffffffffffffffffffffffffffffff1673ffffffffffffffffffffffffffffffffffffffff16146120d657600080fd5b6000868660405180838380828437808301925050509250505060405180910390209050600073ffffffffffffffffffffffffffffffffffffffff166001600083815260200190815260200160002060010160009054906101000a900473ffffffffffffffffffffffffffffffffffffffff1673ffffffffffffffffffffffffffffffffffffffff1614158015612247575080600260006001600085815260200190815260200160002060010160009054906101000a900473ffffffffffffffffffffffffffffffffffffffff1673ffffffffffffffffffffffffffffffffffffffff1673ffffffffffffffffffffffffffffffffffffffff16815260200190815260200160002060405180828054600181600116156101000203166002900480156122385780601f10612216576101008083540402835291820191612238565b820191906000526020600020905b815481529060010190602001808311612224575b50509150506040518091039020145b1561237e57600260006001600084815260200190815260200160002060010160009054906101000a900473ffffffffffffffffffffffffffffffffffffffff1673ffffffffffffffffffffffffffffffffffffffff1673ffffffffffffffffffffffffffffffffffffffff16815260200190815260200160002060006122cd9190613355565b6001600082815260200190815260200160002060010160009054906101000a900473ffffffffffffffffffffffffffffffffffffffff1673ffffffffffffffffffffffffffffffffffffffff167f12491ad95fd945e444d88a894ffad3c21959880a4dcd8af99d4ae4ffc71d4abd888860405180806020018281038252848482818152602001925080828437600081840152601f19601f820116905080830192505050935050505060405180910390a25b846001600083815260200190815260200160002060010160006101000a81548173ffffffffffffffffffffffffffffffffffffffff021916908373ffffffffffffffffffffffffffffffffffffffff1602179055508473ffffffffffffffffffffffffffffffffffffffff167f728435a0031f6a04538fcdd24922a7e06bc7bc945db03e83d22122d1bc5f28df888860405180806020018281038252848482818152602001925080828437600081840152601f19601f820116905080830192505050935050505060405180910390a2600193505050509392505050565b6000816001600082815260200190815260200160002060010160149054906101000a900460ff161580156124f25750600073ffffffffffffffffffffffffffffffffffffffff166001600083815260200190815260200160002060000160009054906101000a900473ffffffffffffffffffffffffffffffffffffffff1673ffffffffffffffffffffffffffffffffffffffff1614155b6124fb57600080fd5b600073ffffffffffffffffffffffffffffffffffffffff166001600085815260200190815260200160002060010160009054906101000a900473ffffffffffffffffffffffffffffffffffffffff1673ffffffffffffffffffffffffffffffffffffffff161415915050919050565b6000836001600082815260200190815260200160002060010160149054906101000a900460ff161580156126015750600073ffffffffffffffffffffffffffffffffffffffff166001600083815260200190815260200160002060000160009054906101000a900473ffffffffffffffffffffffffffffffffffffffff1673ffffffffffffffffffffffffffffffffffffffff1614155b61260a57600080fd5b60016000868152602001908152602001600020600201848460405180838380828437808301925050509250505090815260200160405180910390205460001c9150509392505050565b60035481565b6000816001600082815260200190815260200160002060010160149054906101000a900460ff161580156126f05750600073ffffffffffffffffffffffffffffffffffffffff166001600083815260200190815260200160002060000160009054906101000a900473ffffffffffffffffffffffffffffffffffffffff1673ffffffffffffffffffffffffffffffffffffffff1614155b6126f957600080fd5b6001600084815260200190815260200160002060000160009054906101000a900473ffffffffffffffffffffffffffffffffffffffff16915050919050565b6000816001600082815260200190815260200160002060010160149054906101000a900460ff161580156127cf5750600073ffffffffffffffffffffffffffffffffffffffff166001600083815260200190815260200160002060000160009054906101000a900473ffffffffffffffffffffffffffffffffffffffff1673ffffffffffffffffffffffffffffffffffffffff1614155b6127d857600080fd5b6001600084815260200190815260200160002060010160009054906101000a900473ffffffffffffffffffffffffffffffffffffffff16915050919050565b6060600260008373ffffffffffffffffffffffffffffffffffffffff1673ffffffffffffffffffffffffffffffffffffffff1681526020019081526020016000208054600181600116156101000203166002900480601f0160208091040260200160405190810160405280929190818152602001828054600181600116156101000203166002900480156128ec5780601f106128c1576101008083540402835291602001916128ec565b820191906000526020600020905b8154815290600101906020018083116128cf57829003601f168201915b50505050509050919050565b6000846001600082815260200190815260200160002060010160149054906101000a900460ff1615801561298f5750600073ffffffffffffffffffffffffffffffffffffffff166001600083815260200190815260200160002060000160009054906101000a900473ffffffffffffffffffffffffffffffffffffffff1673ffffffffffffffffffffffffffffffffffffffff1614155b61299857600080fd5b853373ffffffffffffffffffffffffffffffffffffffff166001600083815260200190815260200160002060000160009054906101000a900473ffffffffffffffffffffffffffffffffffffffff1673ffffffffffffffffffffffffffffffffffffffff1614612a0757600080fd5b8360001b600160008981526020019081526020016000206002018787604051808383808284378083019250505092505050908152602001604051809103902081905550867fb829c3e412537bbe794c048ccb9e4605bb4aaaa8e4d4c15c1a6e0c2adc1716ea878789896040518080602001806020018381038352878782818152602001925080828437600081840152601f19601f8201169050808301925050508381038252858582818152602001925080828437600081840152601f19601f820116905080830192505050965050505050505060405180910390a2600192505050949350505050565b600083838080601f016020809104026020016040519081016040528093929190818152602001838380828437600081840152601f19601f82011690508083019250505050505050600160008280519060200120815260200190815260200160002060010160149054906101000a900460ff16158015612bd95750600073ffffffffffffffffffffffffffffffffffffffff16600160008380519060200120815260200190815260200160002060000160009054906101000a900473ffffffffffffffffffffffffffffffffffffffff1673ffffffffffffffffffffffffffffffffffffffff1614155b612be257600080fd5b6000809054906101000a900473ffffffffffffffffffffffffffffffffffffffff1673ffffffffffffffffffffffffffffffffffffffff163373ffffffffffffffffffffffffffffffffffffffff1614612c3b57600080fd5b8484600260008673ffffffffffffffffffffffffffffffffffffffff1673ffffffffffffffffffffffffffffffffffffffff1681526020019081526020016000209190612c899291906132d5565b508273ffffffffffffffffffffffffffffffffffffffff167f098ae8581bb8bd9af1beaf7f2e9f51f31a8e5a8bfada4e303a645d71d9c91920868660405180806020018281038252848482818152602001925080828437600081840152601f19601f820116905080830192505050935050505060405180910390a260019150509392505050565b600260003373ffffffffffffffffffffffffffffffffffffffff1673ffffffffffffffffffffffffffffffffffffffff1681526020019081526020016000208054600181600116156101000203166002900480601f016020809104026020016040519081016040528092919081815260200182805460018160011615610100020316600290048015612de35780601f10612db857610100808354040283529160200191612de3565b820191906000526020600020905b815481529060010190602001808311612dc657829003601f168201915b5050505050600160008280519060200120815260200190815260200160002060010160149054906101000a900460ff16158015612e8a5750600073ffffffffffffffffffffffffffffffffffffffff16600160008380519060200120815260200190815260200160002060000160009054906101000a900473ffffffffffffffffffffffffffffffffffffffff1673ffffffffffffffffffffffffffffffffffffffff1614155b612e9357600080fd5b3373ffffffffffffffffffffffffffffffffffffffff167f12491ad95fd945e444d88a894ffad3c21959880a4dcd8af99d4ae4ffc71d4abd600260003373ffffffffffffffffffffffffffffffffffffffff1673ffffffffffffffffffffffffffffffffffffffff1681526020019081526020016000206040518080602001828103825283818154600181600116156101000203166002900481526020019150805460018160011615610100020316600290048015612f935780601f10612f6857610100808354040283529160200191612f93565b820191906000526020600020905b815481529060010190602001808311612f7657829003601f168201915b50509250505060405180910390a260016000600260003373ffffffffffffffffffffffffffffffffffffffff1673ffffffffffffffffffffffffffffffffffffffff168152602001908152602001600020604051808280546001816001161561010002031660029004801561303f5780601f1061301d57610100808354040283529182019161303f565b820191906000526020600020905b81548152906001019060200180831161302b575b50509150506040518091039020815260200190815260200160002060010160006101000a81549073ffffffffffffffffffffffffffffffffffffffff0219169055600260003373ffffffffffffffffffffffffffffffffffffffff1673ffffffffffffffffffffffffffffffffffffffff16815260200190815260200160002060006130cb9190613355565b50565b6000846001600082815260200190815260200160002060010160149054906101000a900460ff161580156131655750600073ffffffffffffffffffffffffffffffffffffffff166001600083815260200190815260200160002060000160009054906101000a900473ffffffffffffffffffffffffffffffffffffffff1673ffffffffffffffffffffffffffffffffffffffff1614155b61316e57600080fd5b853373ffffffffffffffffffffffffffffffffffffffff166001600083815260200190815260200160002060000160009054906101000a900473ffffffffffffffffffffffffffffffffffffffff1673ffffffffffffffffffffffffffffffffffffffff16146131dd57600080fd5b8360601b6bffffffffffffffffffffffff1916600160008981526020019081526020016000206002018787604051808383808284378083019250505092505050908152602001604051809103902081905550867fb829c3e412537bbe794c048ccb9e4605bb4aaaa8e4d4c15c1a6e0c2adc1716ea878789896040518080602001806020018381038352878782818152602001925080828437600081840152601f19601f8201169050808301925050508381038252858582818152602001925080828437600081840152601f19601f820116905080830192505050965050505050505060405180910390a2600192505050949350505050565b828054600181600116156101000203166002900490600052602060002090601f016020900481019282601f1061331657803560ff1916838001178555613344565b82800160010185558215613344579182015b82811115613343578235825591602001919060010190613328565b5b509050613351919061339d565b5090565b50805460018160011615610100020316600290046000825580601f1061337b575061339a565b601f016020900490600052602060002090810190613399919061339d565b5b50565b6133bf91905b808211156133bb5760008160009055506001016133a3565b5090565b9056fea265627a7a7230582081a5fea8f4462de5fa25925f0836909cfb11c816856b235e059ef707cebc301364736f6c634300050a0032",
  "source": "pragma solidity 0.5.10;\n\nimport \"./interfaces/IMetadataRegistry.sol\";\nimport \"./interfaces/IOwnerRegistry.sol\";\nimport \"./interfaces/IReverseRegistry.sol\";\n\n\ncontract Owned {\n    event NewOwner(address indexed old, address indexed current);\n\n    address public owner = msg.sender;\n\n    modifier onlyOwner {\n        require(msg.sender == owner);\n        _;\n    }\n\n    function setOwner(address _new) external onlyOwner {\n        require(_new != address(0));\n        emit NewOwner(owner, _new);\n        owner = _new;\n    }\n}\n\n\n/// @dev Stores human-readable keys associated with addresses, like DNS information.\n/// Needed primarily to store the address of the `Certifier` contract (see\n/// https://openethereum.github.io/Service-transaction-checker-contract.html for details).\ncontract Registry is Owned, IMetadataRegistry, IOwnerRegistry, IReverseRegistry {\n    struct Entry {\n        address owner;\n        address reverse;\n        bool deleted;\n        mapping(string => bytes32) data;\n    }\n\n    event Drained(uint amount);\n    event FeeChanged(uint amount);\n    event ReverseProposed(string name, address indexed reverse);\n\n    mapping(bytes32 => Entry) internal entries;\n    mapping(address => string) internal reverses;\n\n    uint256 public fee = 1 ether;\n\n    modifier whenUnreserved(bytes32 _name) {\n        require(!entries[_name].deleted && entries[_name].owner == address(0));\n        _;\n    }\n\n    modifier onlyOwnerOf(bytes32 _name) {\n        require(entries[_name].owner == msg.sender);\n        _;\n    }\n\n    modifier whenProposed(string memory _name) {\n        require(entries[keccak256(bytes(_name))].reverse == msg.sender);\n        _;\n    }\n\n    modifier whenEntry(string memory _name) {\n        require(\n            !entries[keccak256(bytes(_name))].deleted &&\n            entries[keccak256(bytes(_name))].owner != address(0)\n        );\n        _;\n    }\n\n    modifier whenEntryRaw(bytes32 _name) {\n        require(\n            !entries[_name].deleted &&\n            entries[_name].owner != address(0)\n        );\n        _;\n    }\n\n    modifier whenFeePaid {\n        require(msg.value >= fee);\n        _;\n    }\n\n    constructor(address _certifierContract, address _owner) public {\n        require(_certifierContract != address(0));\n        bytes32 serviceTransactionChecker = keccak256(\"service_transaction_checker\");\n        address entryOwner = msg.sender;\n        if (_owner != address(0)) {\n            owner = _owner;\n            entryOwner = _owner;\n        }\n        entries[serviceTransactionChecker].owner = entryOwner;\n        entries[serviceTransactionChecker].data[\"A\"] = bytes20(_certifierContract);\n        emit Reserved(serviceTransactionChecker, entryOwner);\n        emit DataChanged(serviceTransactionChecker, \"A\", \"A\");\n    }\n\n    // Reservation functions\n    function reserve(bytes32 _name)\n        external\n        payable\n        whenUnreserved(_name)\n        whenFeePaid\n        returns (bool success)\n    {\n        entries[_name].owner = msg.sender;\n        emit Reserved(_name, msg.sender);\n        return true;\n    }\n\n    function transfer(bytes32 _name, address _to)\n        external\n        whenEntryRaw(_name)\n        onlyOwnerOf(_name)\n        returns (bool success)\n    {\n        entries[_name].owner = _to;\n        emit Transferred(_name, msg.sender, _to);\n        return true;\n    }\n\n    function drop(bytes32 _name)\n        external\n        whenEntryRaw(_name)\n        onlyOwnerOf(_name)\n        returns (bool success)\n    {\n        if (keccak256(bytes(reverses[entries[_name].reverse])) == _name) {\n            emit ReverseRemoved(reverses[entries[_name].reverse], entries[_name].reverse);\n            delete reverses[entries[_name].reverse];\n        }\n        entries[_name].deleted = true;\n        emit Dropped(_name, msg.sender);\n        return true;\n    }\n\n    // Data admin functions\n    function setData(bytes32 _name, string calldata _key, bytes32 _value)\n        external\n        whenEntryRaw(_name)\n        onlyOwnerOf(_name)\n        returns (bool success)\n    {\n        entries[_name].data[_key] = _value;\n        emit DataChanged(_name, _key, _key);\n        return true;\n    }\n\n    function setAddress(bytes32 _name, string calldata _key, address _value)\n        external\n        whenEntryRaw(_name)\n        onlyOwnerOf(_name)\n        returns (bool success)\n    {\n        entries[_name].data[_key] = bytes20(_value);\n        emit DataChanged(_name, _key, _key);\n        return true;\n    }\n\n    function setUint(bytes32 _name, string calldata _key, uint _value)\n        external\n        whenEntryRaw(_name)\n        onlyOwnerOf(_name)\n        returns (bool success)\n    {\n        entries[_name].data[_key] = bytes32(_value);\n        emit DataChanged(_name, _key, _key);\n        return true;\n    }\n\n    // Reverse registration functions\n    function proposeReverse(string calldata _name, address _who)\n        external\n        whenEntry(_name)\n        onlyOwnerOf(keccak256(bytes(_name)))\n        returns (bool success)\n    {\n        bytes32 sha3Name = keccak256(bytes(_name));\n        if (\n            entries[sha3Name].reverse != address(0) &&\n            keccak256(bytes(reverses[entries[sha3Name].reverse])) == sha3Name\n        ) {\n            delete reverses[entries[sha3Name].reverse];\n            emit ReverseRemoved(_name, entries[sha3Name].reverse);\n        }\n        entries[sha3Name].reverse = _who;\n        emit ReverseProposed(_name, _who);\n        return true;\n    }\n\n    function confirmReverse(string calldata _name)\n        external\n        whenEntry(_name)\n        whenProposed(_name)\n        returns (bool success)\n    {\n        reverses[msg.sender] = _name;\n        emit ReverseConfirmed(_name, msg.sender);\n        return true;\n    }\n\n    function confirmReverseAs(string calldata _name, address _who)\n        external\n        whenEntry(_name)\n        onlyOwner\n        returns (bool success)\n    {\n        reverses[_who] = _name;\n        emit ReverseConfirmed(_name, _who);\n        return true;\n    }\n\n    function removeReverse()\n        external\n        whenEntry(reverses[msg.sender])\n    {\n        emit ReverseRemoved(reverses[msg.sender], msg.sender);\n        delete entries[keccak256(bytes(reverses[msg.sender]))].reverse;\n        delete reverses[msg.sender];\n    }\n\n    // Admin functions for the owner\n    function setFee(uint _amount)\n        external\n        onlyOwner\n        returns (bool)\n    {\n        fee = _amount;\n        emit FeeChanged(_amount);\n        return true;\n    }\n\n    function drain()\n        external\n        onlyOwner\n        returns (bool)\n    {\n        emit Drained(address(this).balance);\n        msg.sender.transfer(address(this).balance);\n        return true;\n    }\n\n    // MetadataRegistry views\n    function getData(bytes32 _name, string calldata _key)\n        external\n        view\n        whenEntryRaw(_name)\n        returns (bytes32)\n    {\n        return entries[_name].data[_key];\n    }\n\n    function getAddress(bytes32 _name, string calldata _key)\n        external\n        view\n        whenEntryRaw(_name)\n        returns (address)\n    {\n        return address(bytes20(entries[_name].data[_key]));\n    }\n\n    function getUint(bytes32 _name, string calldata _key)\n        external\n        view\n        whenEntryRaw(_name)\n        returns (uint)\n    {\n        return uint(entries[_name].data[_key]);\n    }\n\n    // OwnerRegistry views\n    function getOwner(bytes32 _name)\n        external\n        view\n        whenEntryRaw(_name)\n        returns (address)\n    {\n        return entries[_name].owner;\n    }\n\n    // ReversibleRegistry views\n    function hasReverse(bytes32 _name)\n        external\n        view\n        whenEntryRaw(_name)\n        returns (bool)\n    {\n        return entries[_name].reverse != address(0);\n    }\n\n    function getReverse(bytes32 _name)\n        external\n        view\n        whenEntryRaw(_name)\n        returns (address)\n    {\n        return entries[_name].reverse;\n    }\n\n    function canReverse(address _data)\n        external\n        view\n        returns (bool)\n    {\n        return bytes(reverses[_data]).length != 0;\n    }\n\n    function reverse(address _data)\n        external\n        view\n        returns (string memory)\n    {\n        return reverses[_data];\n    }\n\n    function reserved(bytes32 _name)\n        external\n        view\n        whenEntryRaw(_name)\n        returns (bool)\n    {\n        return entries[_name].owner != address(0);\n    }\n}\n",
  "sourcePath": "/Users/akshaypatil/Documents/etherlite/pos-contracts/posdao-etherlite/contracts/Registry.sol",
  "compiler": {
    "name": "solc",
    "version": "0.5.10+commit.5a6ea5b1.Emscripten.clang"
  },
  "schemaVersion": "3.3.1",
  "updatedAt": "2021-04-11T17:55:35.911Z",
  "devdoc": {
    "details": "Stores human-readable keys associated with addresses, like DNS information. Needed primarily to store the address of the `Certifier` contract (see https://openethereum.github.io/Service-transaction-checker-contract.html for details).",
    "methods": {}
  },
  "userdoc": {
    "methods": {}
  }
}