{
  "contractName": "StakingAuRa",
  "abi": [
    {
      "constant": true,
      "inputs": [
        {
          "name": "",
          "type": "uint256"
        },
        {
          "name": "",
          "type": "address"
        }
      ],
      "name": "poolDelegatorIndex",
      "outputs": [
        {
          "name": "",
          "type": "uint256"
        }
      ],
      "payable": false,
      "stateMutability": "view",
      "type": "function"
    },
    {
      "constant": false,
      "inputs": [
        {
          "name": "_totalAmount",
          "type": "uint256"
        }
      ],
      "name": "initialValidatorStake",
      "outputs": [],
      "payable": false,
      "stateMutability": "nonpayable",
      "type": "function"
    },
    {
      "constant": true,
      "inputs": [
        {
          "name": "_poolId",
          "type": "uint256"
        },
        {
          "name": "_delegatorOrZero",
          "type": "address"
        }
      ],
      "name": "stakeAmountByCurrentEpoch",
      "outputs": [
        {
          "name": "",
          "type": "uint256"
        }
      ],
      "payable": false,
      "stateMutability": "view",
      "type": "function"
    },
    {
      "constant": true,
      "inputs": [
        {
          "name": "",
          "type": "uint256"
        },
        {
          "name": "",
          "type": "address"
        }
      ],
      "name": "poolDelegatorInactiveIndex",
      "outputs": [
        {
          "name": "",
          "type": "uint256"
        }
      ],
      "payable": false,
      "stateMutability": "view",
      "type": "function"
    },
    {
      "constant": false,
      "inputs": [],
      "name": "removePools",
      "outputs": [],
      "payable": false,
      "stateMutability": "nonpayable",
      "type": "function"
    },
    {
      "constant": true,
      "inputs": [
        {
          "name": "",
          "type": "uint256"
        },
        {
          "name": "",
          "type": "address"
        },
        {
          "name": "",
          "type": "uint256"
        }
      ],
      "name": "rewardWasTaken",
      "outputs": [
        {
          "name": "",
          "type": "bool"
        }
      ],
      "payable": false,
      "stateMutability": "view",
      "type": "function"
    },
    {
      "constant": false,
      "inputs": [
        {
          "name": "_blockNumber",
          "type": "uint256"
        }
      ],
      "name": "setStakingEpochStartBlock",
      "outputs": [],
      "payable": false,
      "stateMutability": "nonpayable",
      "type": "function"
    },
    {
      "constant": false,
      "inputs": [
        {
          "name": "_fromPoolStakingAddress",
          "type": "address"
        },
        {
          "name": "_toPoolStakingAddress",
          "type": "address"
        },
        {
          "name": "_amount",
          "type": "uint256"
        }
      ],
      "name": "moveStake",
      "outputs": [],
      "payable": false,
      "stateMutability": "nonpayable",
      "type": "function"
    },
    {
      "constant": true,
      "inputs": [
        {
          "name": "",
          "type": "uint256"
        },
        {
          "name": "",
          "type": "address"
        }
      ],
      "name": "stakeFirstEpoch",
      "outputs": [
        {
          "name": "",
          "type": "uint256"
        }
      ],
      "payable": false,
      "stateMutability": "view",
      "type": "function"
    },
    {
      "constant": true,
      "inputs": [
        {
          "name": "",
          "type": "uint256"
        }
      ],
      "name": "stakeAmountTotal",
      "outputs": [
        {
          "name": "",
          "type": "uint256"
        }
      ],
      "payable": false,
      "stateMutability": "view",
      "type": "function"
    },
    {
      "constant": false,
      "inputs": [
        {
          "name": "_minStake",
          "type": "uint256"
        }
      ],
      "name": "setDelegatorMinStake",
      "outputs": [],
      "payable": false,
      "stateMutability": "nonpayable",
      "type": "function"
    },
    {
      "constant": true,
      "inputs": [
        {
          "name": "_delegator",
          "type": "address"
        },
        {
          "name": "_offset",
          "type": "uint256"
        },
        {
          "name": "_length",
          "type": "uint256"
        }
      ],
      "name": "getDelegatorPools",
      "outputs": [
        {
          "name": "result",
          "type": "uint256[]"
        }
      ],
      "payable": false,
      "stateMutability": "view",
      "type": "function"
    },
    {
      "constant": false,
      "inputs": [
        {
          "name": "_unremovablePoolId",
          "type": "uint256"
        }
      ],
      "name": "clearUnremovableValidator",
      "outputs": [],
      "payable": false,
      "stateMutability": "nonpayable",
      "type": "function"
    },
    {
      "constant": true,
      "inputs": [
        {
          "name": "",
          "type": "uint256"
        },
        {
          "name": "",
          "type": "address"
        }
      ],
      "name": "stakeLastEpoch",
      "outputs": [
        {
          "name": "",
          "type": "uint256"
        }
      ],
      "payable": false,
      "stateMutability": "view",
      "type": "function"
    },
    {
      "constant": true,
      "inputs": [],
      "name": "isInitialized",
      "outputs": [
        {
          "name": "",
          "type": "bool"
        }
      ],
      "payable": false,
      "stateMutability": "view",
      "type": "function"
    },
    {
      "constant": false,
      "inputs": [
        {
          "name": "_stakingEpochs",
          "type": "uint256[]"
        },
        {
          "name": "_poolStakingAddress",
          "type": "address"
        }
      ],
      "name": "claimReward",
      "outputs": [],
      "payable": false,
      "stateMutability": "nonpayable",
      "type": "function"
    },
    {
      "constant": true,
      "inputs": [
        {
          "name": "",
          "type": "uint256"
        },
        {
          "name": "",
          "type": "address"
        }
      ],
      "name": "stakeAmount",
      "outputs": [
        {
          "name": "",
          "type": "uint256"
        }
      ],
      "payable": false,
      "stateMutability": "view",
      "type": "function"
    },
    {
      "constant": true,
      "inputs": [
        {
          "name": "",
          "type": "uint256"
        }
      ],
      "name": "orderedWithdrawAmountTotal",
      "outputs": [
        {
          "name": "",
          "type": "uint256"
        }
      ],
      "payable": false,
      "stateMutability": "view",
      "type": "function"
    },
    {
      "constant": false,
      "inputs": [
        {
          "name": "_minStake",
          "type": "uint256"
        }
      ],
      "name": "setCandidateMinStake",
      "outputs": [],
      "payable": false,
      "stateMutability": "nonpayable",
      "type": "function"
    },
    {
      "constant": true,
      "inputs": [
        {
          "name": "_poolId",
          "type": "uint256"
        }
      ],
      "name": "poolDelegators",
      "outputs": [
        {
          "name": "",
          "type": "address[]"
        }
      ],
      "payable": false,
      "stateMutability": "view",
      "type": "function"
    },
    {
      "constant": true,
      "inputs": [],
      "name": "candidateMinStake",
      "outputs": [
        {
          "name": "",
          "type": "uint256"
        }
      ],
      "payable": false,
      "stateMutability": "view",
      "type": "function"
    },
    {
      "constant": true,
      "inputs": [],
      "name": "getPools",
      "outputs": [
        {
          "name": "",
          "type": "uint256[]"
        }
      ],
      "payable": false,
      "stateMutability": "view",
      "type": "function"
    },
    {
      "constant": true,
      "inputs": [
        {
          "name": "_poolStakingAddress",
          "type": "address"
        },
        {
          "name": "_staker",
          "type": "address"
        }
      ],
      "name": "maxWithdrawAllowed",
      "outputs": [
        {
          "name": "",
          "type": "uint256"
        }
      ],
      "payable": false,
      "stateMutability": "view",
      "type": "function"
    },
    {
      "constant": true,
      "inputs": [
        {
          "name": "",
          "type": "uint256"
        },
        {
          "name": "",
          "type": "address"
        },
        {
          "name": "",
          "type": "uint256"
        }
      ],
      "name": "delegatorStakeSnapshot",
      "outputs": [
        {
          "name": "",
          "type": "uint256"
        }
      ],
      "payable": false,
      "stateMutability": "view",
      "type": "function"
    },
    {
      "constant": true,
      "inputs": [
        {
          "name": "",
          "type": "uint256"
        }
      ],
      "name": "poolInactiveIndex",
      "outputs": [
        {
          "name": "",
          "type": "uint256"
        }
      ],
      "payable": false,
      "stateMutability": "view",
      "type": "function"
    },
    {
      "constant": true,
      "inputs": [],
      "name": "stakingEpochStartBlock",
      "outputs": [
        {
          "name": "",
          "type": "uint256"
        }
      ],
      "payable": false,
      "stateMutability": "view",
      "type": "function"
    },
    {
      "constant": true,
      "inputs": [],
      "name": "lastChangeBlock",
      "outputs": [
        {
          "name": "",
          "type": "uint256"
        }
      ],
      "payable": false,
      "stateMutability": "view",
      "type": "function"
    },
    {
      "constant": true,
      "inputs": [],
      "name": "stakingEpoch",
      "outputs": [
        {
          "name": "",
          "type": "uint256"
        }
      ],
      "payable": false,
      "stateMutability": "view",
      "type": "function"
    },
    {
      "constant": true,
      "inputs": [
        {
          "name": "_delegator",
          "type": "address"
        }
      ],
      "name": "getDelegatorPoolsLength",
      "outputs": [
        {
          "name": "",
          "type": "uint256"
        }
      ],
      "payable": false,
      "stateMutability": "view",
      "type": "function"
    },
    {
      "constant": true,
      "inputs": [],
      "name": "stakingEpochEndBlock",
      "outputs": [
        {
          "name": "",
          "type": "uint256"
        }
      ],
      "payable": false,
      "stateMutability": "view",
      "type": "function"
    },
    {
      "constant": true,
      "inputs": [
        {
          "name": "_poolStakingAddress",
          "type": "address"
        },
        {
          "name": "_staker",
          "type": "address"
        }
      ],
      "name": "maxWithdrawOrderAllowed",
      "outputs": [
        {
          "name": "",
          "type": "uint256"
        }
      ],
      "payable": false,
      "stateMutability": "view",
      "type": "function"
    },
    {
      "constant": true,
      "inputs": [],
      "name": "getPoolsLikelihood",
      "outputs": [
        {
          "name": "likelihoods",
          "type": "uint256[]"
        },
        {
          "name": "sum",
          "type": "uint256"
        }
      ],
      "payable": false,
      "stateMutability": "view",
      "type": "function"
    },
    {
      "constant": true,
      "inputs": [],
      "name": "stakeWithdrawDisallowPeriod",
      "outputs": [
        {
          "name": "",
          "type": "uint256"
        }
      ],
      "payable": false,
      "stateMutability": "view",
      "type": "function"
    },
    {
      "constant": true,
      "inputs": [
        {
          "name": "",
          "type": "uint256"
        }
      ],
      "name": "poolToBeElectedIndex",
      "outputs": [
        {
          "name": "",
          "type": "uint256"
        }
      ],
      "payable": false,
      "stateMutability": "view",
      "type": "function"
    },
    {
      "constant": true,
      "inputs": [
        {
          "name": "_poolId",
          "type": "uint256"
        }
      ],
      "name": "poolDelegatorsInactive",
      "outputs": [
        {
          "name": "",
          "type": "address[]"
        }
      ],
      "payable": false,
      "stateMutability": "view",
      "type": "function"
    },
    {
      "constant": false,
      "inputs": [
        {
          "name": "_poolId",
          "type": "uint256"
        }
      ],
      "name": "removePool",
      "outputs": [],
      "payable": false,
      "stateMutability": "nonpayable",
      "type": "function"
    },
    {
      "constant": true,
      "inputs": [],
      "name": "getPoolsToBeElected",
      "outputs": [
        {
          "name": "",
          "type": "uint256[]"
        }
      ],
      "payable": false,
      "stateMutability": "view",
      "type": "function"
    },
    {
      "constant": false,
      "inputs": [
        {
          "name": "_validatorSetContract",
          "type": "address"
        },
        {
          "name": "_initialIds",
          "type": "uint256[]"
        },
        {
          "name": "_delegatorMinStake",
          "type": "uint256"
        },
        {
          "name": "_candidateMinStake",
          "type": "uint256"
        },
        {
          "name": "_stakingEpochDuration",
          "type": "uint256"
        },
        {
          "name": "_stakingEpochStartBlock",
          "type": "uint256"
        },
        {
          "name": "_stakeWithdrawDisallowPeriod",
          "type": "uint256"
        }
      ],
      "name": "initialize",
      "outputs": [],
      "payable": false,
      "stateMutability": "nonpayable",
      "type": "function"
    },
    {
      "constant": false,
      "inputs": [
        {
          "name": "_toPoolStakingAddress",
          "type": "address"
        },
        {
          "name": "_amount",
          "type": "uint256"
        }
      ],
      "name": "stake",
      "outputs": [],
      "payable": true,
      "stateMutability": "payable",
      "type": "function"
    },
    {
      "constant": false,
      "inputs": [
        {
          "name": "_poolStakingAddress",
          "type": "address"
        },
        {
          "name": "_amount",
          "type": "int256"
        }
      ],
      "name": "orderWithdraw",
      "outputs": [],
      "payable": false,
      "stateMutability": "nonpayable",
      "type": "function"
    },
    {
      "constant": true,
      "inputs": [
        {
          "name": "_poolId",
          "type": "uint256"
        }
      ],
      "name": "isPoolActive",
      "outputs": [
        {
          "name": "",
          "type": "bool"
        }
      ],
      "payable": false,
      "stateMutability": "view",
      "type": "function"
    },
    {
      "constant": true,
      "inputs": [
        {
          "name": "",
          "type": "uint256"
        }
      ],
      "name": "poolToBeRemovedIndex",
      "outputs": [
        {
          "name": "",
          "type": "uint256"
        }
      ],
      "payable": false,
      "stateMutability": "view",
      "type": "function"
    },
    {
      "constant": true,
      "inputs": [
        {
          "name": "",
          "type": "uint256"
        }
      ],
      "name": "poolIndex",
      "outputs": [
        {
          "name": "",
          "type": "uint256"
        }
      ],
      "payable": false,
      "stateMutability": "view",
      "type": "function"
    },
    {
      "constant": false,
      "inputs": [
        {
          "name": "_poolStakingAddress",
          "type": "address"
        }
      ],
      "name": "claimOrderedWithdraw",
      "outputs": [],
      "payable": false,
      "stateMutability": "nonpayable",
      "type": "function"
    },
    {
      "constant": true,
      "inputs": [],
      "name": "getPoolsToBeRemoved",
      "outputs": [
        {
          "name": "",
          "type": "uint256[]"
        }
      ],
      "payable": false,
      "stateMutability": "view",
      "type": "function"
    },
    {
      "constant": true,
      "inputs": [
        {
          "name": "",
          "type": "uint256"
        },
        {
          "name": "",
          "type": "address"
        }
      ],
      "name": "orderWithdrawEpoch",
      "outputs": [
        {
          "name": "",
          "type": "uint256"
        }
      ],
      "payable": false,
      "stateMutability": "view",
      "type": "function"
    },
    {
      "constant": true,
      "inputs": [],
      "name": "stakingEpochDuration",
      "outputs": [
        {
          "name": "",
          "type": "uint256"
        }
      ],
      "payable": false,
      "stateMutability": "view",
      "type": "function"
    },
    {
      "constant": true,
      "inputs": [],
      "name": "delegatorMinStake",
      "outputs": [
        {
          "name": "",
          "type": "uint256"
        }
      ],
      "payable": false,
      "stateMutability": "view",
      "type": "function"
    },
    {
      "constant": true,
      "inputs": [],
      "name": "getPoolsInactive",
      "outputs": [
        {
          "name": "",
          "type": "uint256[]"
        }
      ],
      "payable": false,
      "stateMutability": "view",
      "type": "function"
    },
    {
      "constant": true,
      "inputs": [],
      "name": "validatorSetContract",
      "outputs": [
        {
          "name": "",
          "type": "address"
        }
      ],
      "payable": false,
      "stateMutability": "view",
      "type": "function"
    },
    {
      "constant": true,
      "inputs": [
        {
          "name": "",
          "type": "uint256"
        },
        {
          "name": "",
          "type": "address"
        }
      ],
      "name": "orderedWithdrawAmount",
      "outputs": [
        {
          "name": "",
          "type": "uint256"
        }
      ],
      "payable": false,
      "stateMutability": "view",
      "type": "function"
    },
    {
      "constant": false,
      "inputs": [
        {
          "name": "_amount",
          "type": "uint256"
        },
        {
          "name": "_miningAddress",
          "type": "address"
        },
        {
          "name": "_name",
          "type": "string"
        },
        {
          "name": "_description",
          "type": "string"
        }
      ],
      "name": "addPool",
      "outputs": [
        {
          "name": "",
          "type": "uint256"
        }
      ],
      "payable": true,
      "stateMutability": "payable",
      "type": "function"
    },
    {
      "constant": false,
      "inputs": [],
      "name": "removeMyPool",
      "outputs": [],
      "payable": false,
      "stateMutability": "nonpayable",
      "type": "function"
    },
    {
      "constant": false,
      "inputs": [],
      "name": "incrementStakingEpoch",
      "outputs": [],
      "payable": false,
      "stateMutability": "nonpayable",
      "type": "function"
    },
    {
      "constant": true,
      "inputs": [],
      "name": "MAX_CANDIDATES",
      "outputs": [
        {
          "name": "",
          "type": "uint256"
        }
      ],
      "payable": false,
      "stateMutability": "view",
      "type": "function"
    },
    {
      "constant": false,
      "inputs": [
        {
          "name": "_fromPoolStakingAddress",
          "type": "address"
        },
        {
          "name": "_amount",
          "type": "uint256"
        }
      ],
      "name": "withdraw",
      "outputs": [],
      "payable": false,
      "stateMutability": "nonpayable",
      "type": "function"
    },
    {
      "constant": true,
      "inputs": [],
      "name": "areStakeAndWithdrawAllowed",
      "outputs": [
        {
          "name": "",
          "type": "bool"
        }
      ],
      "payable": false,
      "stateMutability": "view",
      "type": "function"
    },
    {
      "constant": true,
      "inputs": [
        {
          "name": "_stakingEpochs",
          "type": "uint256[]"
        },
        {
          "name": "_poolStakingAddress",
          "type": "address"
        },
        {
          "name": "_staker",
          "type": "address"
        }
      ],
      "name": "getRewardAmount",
      "outputs": [
        {
          "name": "rewardSum",
          "type": "uint256"
        }
      ],
      "payable": false,
      "stateMutability": "view",
      "type": "function"
    },
    {
      "payable": true,
      "stateMutability": "payable",
      "type": "fallback"
    },
    {
      "anonymous": false,
      "inputs": [
        {
          "indexed": true,
          "name": "fromPoolStakingAddress",
          "type": "address"
        },
        {
          "indexed": true,
          "name": "staker",
          "type": "address"
        },
        {
          "indexed": true,
          "name": "stakingEpoch",
          "type": "uint256"
        },
        {
          "indexed": false,
          "name": "nativeCoinsAmount",
          "type": "uint256"
        },
        {
          "indexed": false,
          "name": "fromPoolId",
          "type": "uint256"
        }
      ],
      "name": "ClaimedReward",
      "type": "event"
    },
    {
      "anonymous": false,
      "inputs": [
        {
          "indexed": true,
          "name": "poolStakingAddress",
          "type": "address"
        },
        {
          "indexed": true,
          "name": "poolMiningAddress",
          "type": "address"
        },
        {
          "indexed": false,
          "name": "poolId",
          "type": "uint256"
        }
      ],
      "name": "AddedPool",
      "type": "event"
    },
    {
      "anonymous": false,
      "inputs": [
        {
          "indexed": true,
          "name": "fromPoolStakingAddress",
          "type": "address"
        },
        {
          "indexed": true,
          "name": "staker",
          "type": "address"
        },
        {
          "indexed": true,
          "name": "stakingEpoch",
          "type": "uint256"
        },
        {
          "indexed": false,
          "name": "amount",
          "type": "uint256"
        },
        {
          "indexed": false,
          "name": "fromPoolId",
          "type": "uint256"
        }
      ],
      "name": "ClaimedOrderedWithdrawal",
      "type": "event"
    },
    {
      "anonymous": false,
      "inputs": [
        {
          "indexed": false,
          "name": "fromPoolStakingAddress",
          "type": "address"
        },
        {
          "indexed": true,
          "name": "toPoolStakingAddress",
          "type": "address"
        },
        {
          "indexed": true,
          "name": "staker",
          "type": "address"
        },
        {
          "indexed": true,
          "name": "stakingEpoch",
          "type": "uint256"
        },
        {
          "indexed": false,
          "name": "amount",
          "type": "uint256"
        },
        {
          "indexed": false,
          "name": "fromPoolId",
          "type": "uint256"
        },
        {
          "indexed": false,
          "name": "toPoolId",
          "type": "uint256"
        }
      ],
      "name": "MovedStake",
      "type": "event"
    },
    {
      "anonymous": false,
      "inputs": [
        {
          "indexed": true,
          "name": "fromPoolStakingAddress",
          "type": "address"
        },
        {
          "indexed": true,
          "name": "staker",
          "type": "address"
        },
        {
          "indexed": true,
          "name": "stakingEpoch",
          "type": "uint256"
        },
        {
          "indexed": false,
          "name": "amount",
          "type": "int256"
        },
        {
          "indexed": false,
          "name": "fromPoolId",
          "type": "uint256"
        }
      ],
      "name": "OrderedWithdrawal",
      "type": "event"
    },
    {
      "anonymous": false,
      "inputs": [
        {
          "indexed": true,
          "name": "toPoolStakingAddress",
          "type": "address"
        },
        {
          "indexed": true,
          "name": "staker",
          "type": "address"
        },
        {
          "indexed": true,
          "name": "stakingEpoch",
          "type": "uint256"
        },
        {
          "indexed": false,
          "name": "amount",
          "type": "uint256"
        },
        {
          "indexed": false,
          "name": "toPoolId",
          "type": "uint256"
        }
      ],
      "name": "PlacedStake",
      "type": "event"
    },
    {
      "anonymous": false,
      "inputs": [
        {
          "indexed": true,
          "name": "fromPoolStakingAddress",
          "type": "address"
        },
        {
          "indexed": true,
          "name": "staker",
          "type": "address"
        },
        {
          "indexed": true,
          "name": "stakingEpoch",
          "type": "uint256"
        },
        {
          "indexed": false,
          "name": "amount",
          "type": "uint256"
        },
        {
          "indexed": false,
          "name": "fromPoolId",
          "type": "uint256"
        }
      ],
      "name": "WithdrewStake",
      "type": "event"
    }
  ],
  "bytecode": "0x608060405234801561001057600080fd5b506179eb80620000216000396000f3fe6080604052600436106103815760003560e01c80638c2243ae116101d1578063cfef144111610102578063e3f0ff66116100a0578063f07860961161006f578063f078609614611750578063f3fef3a31461177b578063f4942501146117d6578063fb367a9b1461180557610381565b8063e3f0ff66146115a7578063e4a9e42e14611616578063edd7db7514611722578063ee435f551461173957610381565b8063d609ea93116100dc578063d609ea931461148e578063da7a9b6a146114b9578063df6f55f5146114e4578063dfc8bf4e1461155057610381565b8063cfef144114611362578063d290c21d146113b3578063d2f2a1361461141f57610381565b8063a5d54f651161016f578063b61ed63a11610149578063b61ed63a14611216578063bbbaf8c814611271578063bcdb0d38146112c4578063cd22c7521461131357610381565b8063a5d54f6514611084578063accc0f03146110f0578063adc9772e146111c857610381565b806397997ebb116101ab57806397997ebb14610f3f5780639fb0e72e14610f6a578063a1fc275314610fb9578063a38dcbd01461104957610381565b80638c2243ae14610e1c578063950a651314610e47578063957950a714610ecc57610381565b8063392e53cd116102b6578063673a2a1f116102545780637069e746116102235780637069e74614610d3657806374bdb37214610d61578063794c0c6814610d8c5780638ba31a1c14610db757610381565b8063673a2a1f14610b7d5780636bda157714610be95780636d01b4fe14610c6e5780636e69cd8b14610ce757610381565b80634070a2d0116102905780634070a2d014610a3857806348aaa4a214610a87578063561c4c8114610ac25780635fef764314610b5257610381565b8063392e53cd146108b55780633ea15d62146108e45780633fb1a1e4146109c957610381565b8063251441a9116103235780632bafde8d116102fd5780632bafde8d146107165780632ebfaf4e146107515780632f248e301461080b578063381883b01461084657610381565b8063251441a9146105dd57806327d89b3a146106585780632a8f6ecd146106c757610381565b8063093411da1161035f578063093411da1461049f5780631555371c1461050e578063186dc46f1461052557806320d96e46146105a257610381565b806302a53ba1146103865780630555c5e2146103f5578063073b62fe14610430575b600080fd5b34801561039257600080fd5b506103df600480360360408110156103a957600080fd5b8101908080359060200190929190803573ffffffffffffffffffffffffffffffffffffffff16906020019092919050505061191e565b6040518082815260200191505060405180910390f35b34801561040157600080fd5b5061042e6004803603602081101561041857600080fd5b8101908080359060200190929190505050611943565b005b34801561043c57600080fd5b506104896004803603604081101561045357600080fd5b8101908080359060200190929190803573ffffffffffffffffffffffffffffffffffffffff169060200190929190505050611b7f565b6040518082815260200191505060405180910390f35b3480156104ab57600080fd5b506104f8600480360360408110156104c257600080fd5b8101908080359060200190929190803573ffffffffffffffffffffffffffffffffffffffff169060200190929190505050611bed565b6040518082815260200191505060405180910390f35b34801561051a57600080fd5b50610523611c12565b005b34801561053157600080fd5b506105886004803603606081101561054857600080fd5b8101908080359060200190929190803573ffffffffffffffffffffffffffffffffffffffff16906020019092919080359060200190929190505050611cfd565b604051808215151515815260200191505060405180910390f35b3480156105ae57600080fd5b506105db600480360360208110156105c557600080fd5b8101908080359060200190929190505050611d39565b005b3480156105e957600080fd5b506106566004803603606081101561060057600080fd5b81019080803573ffffffffffffffffffffffffffffffffffffffff169060200190929190803573ffffffffffffffffffffffffffffffffffffffff16906020019092919080359060200190929190505050611d9d565b005b34801561066457600080fd5b506106b16004803603604081101561067b57600080fd5b8101908080359060200190929190803573ffffffffffffffffffffffffffffffffffffffff169060200190929190505050612061565b6040518082815260200191505060405180910390f35b3480156106d357600080fd5b50610700600480360360208110156106ea57600080fd5b8101908080359060200190929190505050612086565b6040518082815260200191505060405180910390f35b34801561072257600080fd5b5061074f6004803603602081101561073957600080fd5b810190808035906020019092919050505061209e565b005b34801561075d57600080fd5b506107b46004803603606081101561077457600080fd5b81019080803573ffffffffffffffffffffffffffffffffffffffff16906020019092919080359060200190929190803590602001909291905050506120f8565b6040518080602001828103825283818151815260200191508051906020019060200280838360005b838110156107f75780820151818401526020810190506107dc565b505050509050019250505060405180910390f35b34801561081757600080fd5b506108446004803603602081101561082e57600080fd5b8101908080359060200190929190505050612251565b005b34801561085257600080fd5b5061089f6004803603604081101561086957600080fd5b8101908080359060200190929190803573ffffffffffffffffffffffffffffffffffffffff169060200190929190505050612335565b6040518082815260200191505060405180910390f35b3480156108c157600080fd5b506108ca61235a565b604051808215151515815260200191505060405180910390f35b3480156108f057600080fd5b506109c76004803603604081101561090757600080fd5b810190808035906020019064010000000081111561092457600080fd5b82018360208201111561093657600080fd5b8035906020019184602083028401116401000000008311171561095857600080fd5b919080806020026020016040519081016040528093929190818152602001838360200280828437600081840152601f19601f820116905080830192505050505050509192919290803573ffffffffffffffffffffffffffffffffffffffff1690602001909291905050506123b3565b005b3480156109d557600080fd5b50610a22600480360360408110156109ec57600080fd5b8101908080359060200190929190803573ffffffffffffffffffffffffffffffffffffffff169060200190929190505050612c48565b6040518082815260200191505060405180910390f35b348015610a4457600080fd5b50610a7160048036036020811015610a5b57600080fd5b8101908080359060200190929190505050612c6d565b6040518082815260200191505060405180910390f35b348015610a9357600080fd5b50610ac060048036036020811015610aaa57600080fd5b8101908080359060200190929190505050612c85565b005b348015610ace57600080fd5b50610afb60048036036020811015610ae557600080fd5b8101908080359060200190929190505050612cdf565b6040518080602001828103825283818151815260200191508051906020019060200280838360005b83811015610b3e578082015181840152602081019050610b23565b505050509050019250505060405180910390f35b348015610b5e57600080fd5b50610b67612d80565b6040518082815260200191505060405180910390f35b348015610b8957600080fd5b50610b92612d86565b6040518080602001828103825283818151815260200191508051906020019060200280838360005b83811015610bd5578082015181840152602081019050610bba565b505050509050019250505060405180910390f35b348015610bf557600080fd5b50610c5860048036036040811015610c0c57600080fd5b81019080803573ffffffffffffffffffffffffffffffffffffffff169060200190929190803573ffffffffffffffffffffffffffffffffffffffff169060200190929190505050612dde565b6040518082815260200191505060405180910390f35b348015610c7a57600080fd5b50610cd160048036036060811015610c9157600080fd5b8101908080359060200190929190803573ffffffffffffffffffffffffffffffffffffffff169060200190929190803590602001909291905050506130b6565b6040518082815260200191505060405180910390f35b348015610cf357600080fd5b50610d2060048036036020811015610d0a57600080fd5b81019080803590602001909291905050506130e8565b6040518082815260200191505060405180910390f35b348015610d4257600080fd5b50610d4b613100565b6040518082815260200191505060405180910390f35b348015610d6d57600080fd5b50610d76613106565b6040518082815260200191505060405180910390f35b348015610d9857600080fd5b50610da161310c565b6040518082815260200191505060405180910390f35b348015610dc357600080fd5b50610e0660048036036020811015610dda57600080fd5b81019080803573ffffffffffffffffffffffffffffffffffffffff169060200190929190505050613112565b6040518082815260200191505060405180910390f35b348015610e2857600080fd5b50610e3161315e565b6040518082815260200191505060405180910390f35b348015610e5357600080fd5b50610eb660048036036040811015610e6a57600080fd5b81019080803573ffffffffffffffffffffffffffffffffffffffff169060200190929190803573ffffffffffffffffffffffffffffffffffffffff169060200190929190505050613187565b6040518082815260200191505060405180910390f35b348015610ed857600080fd5b50610ee1613430565b6040518080602001838152602001828103825284818151815260200191508051906020019060200280838360005b83811015610f2a578082015181840152602081019050610f0f565b50505050905001935050505060405180910390f35b348015610f4b57600080fd5b50610f54613493565b6040518082815260200191505060405180910390f35b348015610f7657600080fd5b50610fa360048036036020811015610f8d57600080fd5b8101908080359060200190929190505050613499565b6040518082815260200191505060405180910390f35b348015610fc557600080fd5b50610ff260048036036020811015610fdc57600080fd5b81019080803590602001909291905050506134b1565b6040518080602001828103825283818151815260200191508051906020019060200280838360005b8381101561103557808201518184015260208101905061101a565b505050509050019250505060405180910390f35b34801561105557600080fd5b506110826004803603602081101561106c57600080fd5b8101908080359060200190929190505050613552565b005b34801561109057600080fd5b506110996135b8565b6040518080602001828103825283818151815260200191508051906020019060200280838360005b838110156110dc5780820151818401526020810190506110c1565b505050509050019250505060405180910390f35b3480156110fc57600080fd5b506111c6600480360360e081101561111357600080fd5b81019080803573ffffffffffffffffffffffffffffffffffffffff1690602001909291908035906020019064010000000081111561115057600080fd5b82018360208201111561116257600080fd5b8035906020019184602083028401116401000000008311171561118457600080fd5b90919293919293908035906020019092919080359060200190929190803590602001909291908035906020019092919080359060200190929190505050613610565b005b611214600480360360408110156111de57600080fd5b81019080803573ffffffffffffffffffffffffffffffffffffffff169060200190929190803590602001909291905050506138b6565b005b34801561122257600080fd5b5061126f6004803603604081101561123957600080fd5b81019080803573ffffffffffffffffffffffffffffffffffffffff169060200190929190803590602001909291905050506138c4565b005b34801561127d57600080fd5b506112aa6004803603602081101561129457600080fd5b8101908080359060200190929190505050613fb3565b604051808215151515815260200191505060405180910390f35b3480156112d057600080fd5b506112fd600480360360208110156112e757600080fd5b8101908080359060200190929190505050613ffe565b6040518082815260200191505060405180910390f35b34801561131f57600080fd5b5061134c6004803603602081101561133657600080fd5b8101908080359060200190929190505050614016565b6040518082815260200191505060405180910390f35b34801561136e57600080fd5b506113b16004803603602081101561138557600080fd5b81019080803573ffffffffffffffffffffffffffffffffffffffff16906020019092919050505061402e565b005b3480156113bf57600080fd5b506113c86143dd565b6040518080602001828103825283818151815260200191508051906020019060200280838360005b8381101561140b5780820151818401526020810190506113f0565b505050509050019250505060405180910390f35b34801561142b57600080fd5b506114786004803603604081101561144257600080fd5b8101908080359060200190929190803573ffffffffffffffffffffffffffffffffffffffff169060200190929190505050614435565b6040518082815260200191505060405180910390f35b34801561149a57600080fd5b506114a361445a565b6040518082815260200191505060405180910390f35b3480156114c557600080fd5b506114ce614460565b6040518082815260200191505060405180910390f35b3480156114f057600080fd5b506114f9614466565b6040518080602001828103825283818151815260200191508051906020019060200280838360005b8381101561153c578082015181840152602081019050611521565b505050509050019250505060405180910390f35b34801561155c57600080fd5b506115656144be565b604051808273ffffffffffffffffffffffffffffffffffffffff1673ffffffffffffffffffffffffffffffffffffffff16815260200191505060405180910390f35b3480156115b357600080fd5b50611600600480360360408110156115ca57600080fd5b8101908080359060200190929190803573ffffffffffffffffffffffffffffffffffffffff1690602001909291905050506144e4565b6040518082815260200191505060405180910390f35b61170c6004803603608081101561162c57600080fd5b8101908080359060200190929190803573ffffffffffffffffffffffffffffffffffffffff1690602001909291908035906020019064010000000081111561167357600080fd5b82018360208201111561168557600080fd5b803590602001918460018302840111640100000000831117156116a757600080fd5b9091929391929390803590602001906401000000008111156116c857600080fd5b8201836020820111156116da57600080fd5b803590602001918460018302840111640100000000831117156116fc57600080fd5b9091929391929390505050614509565b6040518082815260200191505060405180910390f35b34801561172e57600080fd5b506117376145ae565b005b34801561174557600080fd5b5061174e614839565b005b34801561175c57600080fd5b506117656148a7565b6040518082815260200191505060405180910390f35b34801561178757600080fd5b506117d46004803603604081101561179e57600080fd5b81019080803573ffffffffffffffffffffffffffffffffffffffff169060200190929190803590602001909291905050506148ae565b005b3480156117e257600080fd5b506117eb614a1c565b604051808215151515815260200191505060405180910390f35b34801561181157600080fd5b506119086004803603606081101561182857600080fd5b810190808035906020019064010000000081111561184557600080fd5b82018360208201111561185757600080fd5b8035906020019184602083028401116401000000008311171561187957600080fd5b919080806020026020016040519081016040528093929190818152602001838360200280828437600081840152601f19601f820116905080830192505050505050509192919290803573ffffffffffffffffffffffffffffffffffffffff169060200190929190803573ffffffffffffffffffffffffffffffffffffffff169060200190929190505050614a6b565b6040518082815260200191505060405180910390f35b602a602052816000526040600020602052806000526040600020600091509150505481565b61194b615146565b73ffffffffffffffffffffffffffffffffffffffff163373ffffffffffffffffffffffffffffffffffffffff161461198257600080fd5b600061198c615177565b905060006035541461199d57600080fd5b60375481106119ab57600080fd5b816119b461517f565b146119be57600080fd5b6000808054905083816119cd57fe5b06146119d857600080fd5b60006119f26000805490508461519e90919063ffffffff16565b9050600060375490508260378190555060008090505b600080549050811015611b71576000808281548110611a2357fe5b906000526020600020015490506000603960009054906101000a900473ffffffffffffffffffffffffffffffffffffffff1673ffffffffffffffffffffffffffffffffffffffff166316cf66ab836040518263ffffffff1660e01b81526004018082815260200191505060206040518083038186803b158015611aa557600080fd5b505afa158015611ab9573d6000803e3d6000fd5b505050506040513d6020811015611acf57600080fd5b8101908080519060200190929190505050905060006031600084815260200190815260200160002060008073ffffffffffffffffffffffffffffffffffffffff1673ffffffffffffffffffffffffffffffffffffffff1681526020019081526020016000205414611b3f57600080fd5b611b4a8182876151c4565b84600b60008481526020019081526020016000208190555050508080600101915050611a08565b508060378190555050505050565b6000600a600084815260200190815260200160002060008373ffffffffffffffffffffffffffffffffffffffff1673ffffffffffffffffffffffffffffffffffffffff1681526020019081526020016000206000603554815260200190815260200160002054905092915050565b602b602052816000526040600020602052806000526040600020600091509150505481565b603960009054906101000a900473ffffffffffffffffffffffffffffffffffffffff1673ffffffffffffffffffffffffffffffffffffffff163373ffffffffffffffffffffffffffffffffffffffff1614611c6c57600080fd5b60606003805480602002602001604051908101604052809291908181526020018280548015611cba57602002820191906000526020600020905b815481526020019060010190808311611ca6575b5050505050905060008090505b8151811015611cf957611cec828281518110611cdf57fe5b6020026020010151615a16565b8080600101915050611cc7565b5050565b6030602052826000526040600020602052816000526040600020602052806000526040600020600092509250509054906101000a900460ff1681565b603960009054906101000a900473ffffffffffffffffffffffffffffffffffffffff1673ffffffffffffffffffffffffffffffffffffffff163373ffffffffffffffffffffffffffffffffffffffff1614611d9357600080fd5b8060378190555050565b8173ffffffffffffffffffffffffffffffffffffffff168373ffffffffffffffffffffffffffffffffffffffff161415611dd657600080fd5b6000603960009054906101000a900473ffffffffffffffffffffffffffffffffffffffff1673ffffffffffffffffffffffffffffffffffffffff1663a26301f9856040518263ffffffff1660e01b8152600401808273ffffffffffffffffffffffffffffffffffffffff1673ffffffffffffffffffffffffffffffffffffffff16815260200191505060206040518083038186803b158015611e7757600080fd5b505afa158015611e8b573d6000803e3d6000fd5b505050506040513d6020811015611ea157600080fd5b810190808051906020019092919050505090506000603960009054906101000a900473ffffffffffffffffffffffffffffffffffffffff1673ffffffffffffffffffffffffffffffffffffffff1663a26301f9856040518263ffffffff1660e01b8152600401808273ffffffffffffffffffffffffffffffffffffffff1673ffffffffffffffffffffffffffffffffffffffff16815260200191505060206040518083038186803b158015611f5557600080fd5b505afa158015611f69573d6000803e3d6000fd5b505050506040513d6020811015611f7f57600080fd5b810190808051906020019092919050505090506000339050611fa2868286615b2f565b611fad8582866151c4565b6035548173ffffffffffffffffffffffffffffffffffffffff168673ffffffffffffffffffffffffffffffffffffffff167f982f87186288986ca297b6c86b6d4547934327c6e005ce210da6b0cdc06a370d89888888604051808573ffffffffffffffffffffffffffffffffffffffff1673ffffffffffffffffffffffffffffffffffffffff16815260200184815260200183815260200182815260200194505050505060405180910390a4505050505050565b6032602052816000526040600020602052806000526040600020600091509150505481565b60386020528060005260406000206000915090505481565b6120a6615146565b73ffffffffffffffffffffffffffffffffffffffff163373ffffffffffffffffffffffffffffffffffffffff16146120dd57600080fd5b6120e561235a565b6120ee57600080fd5b8060258190555050565b60606000600860008673ffffffffffffffffffffffffffffffffffffffff1673ffffffffffffffffffffffffffffffffffffffff1681526020019081526020016000209050600083141561219e578080548060200260200160405190810160405280929190818152602001828054801561219157602002820191906000526020600020905b81548152602001906001019080831161217d575b505050505091505061224a565b60006121b7858380549050615f3e90919063ffffffff16565b90508084116121c657836121c8565b805b6040519080825280602002602001820160405280156121f65781602001602082028038833980820191505090505b50925060008090505b835181101561224657828187018154811061221657fe5b906000526020600020015484828151811061222d57fe5b60200260200101818152505080806001019150506121ff565b5050505b9392505050565b603960009054906101000a900473ffffffffffffffffffffffffffffffffffffffff1673ffffffffffffffffffffffffffffffffffffffff163373ffffffffffffffffffffffffffffffffffffffff16146122ab57600080fd5b60008114156122b957600080fd5b60006031600083815260200190815260200160002060008073ffffffffffffffffffffffffffffffffffffffff1673ffffffffffffffffffffffffffffffffffffffff16815260200190815260200160002054146123285761231a81615f58565b61232381616025565b612332565b612331816160ee565b5b50565b6033602052816000526040600020602052806000526040600020600091509150505481565b60008073ffffffffffffffffffffffffffffffffffffffff16603960009054906101000a900473ffffffffffffffffffffffffffffffffffffffff1673ffffffffffffffffffffffffffffffffffffffff161415905090565b60003a14156123c157600080fd5b6123c961235a565b6123d257600080fd5b60003390506000603960009054906101000a900473ffffffffffffffffffffffffffffffffffffffff1673ffffffffffffffffffffffffffffffffffffffff1663a26301f9846040518263ffffffff1660e01b8152600401808273ffffffffffffffffffffffffffffffffffffffff1673ffffffffffffffffffffffffffffffffffffffff16815260200191505060206040518083038186803b15801561247857600080fd5b505afa15801561248c573d6000803e3d6000fd5b505050506040513d60208110156124a257600080fd5b81019080805190602001909291905050509050600073ffffffffffffffffffffffffffffffffffffffff168373ffffffffffffffffffffffffffffffffffffffff1614156124ef57600080fd5b600073ffffffffffffffffffffffffffffffffffffffff168273ffffffffffffffffffffffffffffffffffffffff16141561252957600080fd5b600081141561253757600080fd5b60008373ffffffffffffffffffffffffffffffffffffffff168373ffffffffffffffffffffffffffffffffffffffff161415612574576000612576565b825b90506000808473ffffffffffffffffffffffffffffffffffffffff168673ffffffffffffffffffffffffffffffffffffffff1614612663576032600085815260200190815260200160002060008673ffffffffffffffffffffffffffffffffffffffff1673ffffffffffffffffffffffffffffffffffffffff168152602001908152602001600020549150600082141561260f57600080fd5b6033600085815260200190815260200160002060008673ffffffffffffffffffffffffffffffffffffffff1673ffffffffffffffffffffffffffffffffffffffff1681526020019081526020016000205490505b6000603960009054906101000a900473ffffffffffffffffffffffffffffffffffffffff1673ffffffffffffffffffffffffffffffffffffffff166356b54bae6040518163ffffffff1660e01b815260040160206040518083038186803b1580156126cd57600080fd5b505afa1580156126e1573d6000803e3d6000fd5b505050506040513d60208110156126f757600080fd5b810190808051906020019092919050505090506000809050600080905060008a511415612803578273ffffffffffffffffffffffffffffffffffffffff1663e7f6cfe2886040518263ffffffff1660e01b81526004018082815260200191505060006040518083038186803b15801561276f57600080fd5b505afa158015612783573d6000803e3d6000fd5b505050506040513d6000823e3d601f19601f8201168201806040525060208110156127ad57600080fd5b8101908080516401000000008111156127c557600080fd5b828101905060208101848111156127db57600080fd5b81518560208202830111640100000000821117156127f857600080fd5b505092919050505099505b60008090505b8a51811015612b9c5760008b828151811061282057fe5b60200260200101519050600082148061284e57508b600183038151811061284357fe5b602002602001015181115b61285757600080fd5b603554811061286557600080fd5b603060008a815260200190815260200160002060008973ffffffffffffffffffffffffffffffffffffffff1673ffffffffffffffffffffffffffffffffffffffff168152602001908152602001600020600082815260200190815260200160002060009054906101000a900460ff16156128df5750612b8f565b60008a73ffffffffffffffffffffffffffffffffffffffff168c73ffffffffffffffffffffffffffffffffffffffff16146129f85787821015612923575050612b8f565b818711158015612934575060008714155b15612940575050612b9c565b61294d8289868d8f61618e565b93506001820197508573ffffffffffffffffffffffffffffffffffffffff1663877ffdea85848d6040518463ffffffff1660e01b815260040180848152602001838152602001828152602001935050505060206040518083038186803b1580156129b657600080fd5b505afa1580156129ca573d6000803e3d6000fd5b505050506040513d60208110156129e057600080fd5b81019080805190602001909291905050509050612a8f565b8573ffffffffffffffffffffffffffffffffffffffff16631289b179838c6040518363ffffffff1660e01b8152600401808381526020018281526020019250505060206040518083038186803b158015612a5157600080fd5b505afa158015612a65573d6000803e3d6000fd5b505050506040513d6020811015612a7b57600080fd5b810190808051906020019092919050505090505b612aa2818661626290919063ffffffff16565b94506001603060008c815260200190815260200160002060008b73ffffffffffffffffffffffffffffffffffffffff1673ffffffffffffffffffffffffffffffffffffffff168152602001908152602001600020600084815260200190815260200160002060006101000a81548160ff021916908315150217905550818b73ffffffffffffffffffffffffffffffffffffffff168d73ffffffffffffffffffffffffffffffffffffffff167fc1ddb27e5367c13c1c22aae2b42bcaa45f854da4c8c061c22a4b74516824aa79848e604051808381526020018281526020019250505060405180910390a450505b8080600101915050612809565b508273ffffffffffffffffffffffffffffffffffffffff1663469507c6838a6040518363ffffffff1660e01b8152600401808381526020018273ffffffffffffffffffffffffffffffffffffffff1673ffffffffffffffffffffffffffffffffffffffff16815260200192505050600060405180830381600087803b158015612c2457600080fd5b505af1158015612c38573d6000803e3d6000fd5b5050505050505050505050505050565b6031602052816000526040600020602052806000526040600020600091509150505481565b60286020528060005260406000206000915090505481565b612c8d615146565b73ffffffffffffffffffffffffffffffffffffffff163373ffffffffffffffffffffffffffffffffffffffff1614612cc457600080fd5b612ccc61235a565b612cd557600080fd5b8060248190555050565b606060066000838152602001908152602001600020805480602002602001604051908101604052809291908181526020018280548015612d7457602002820191906000526020600020905b8160009054906101000a900473ffffffffffffffffffffffffffffffffffffffff1673ffffffffffffffffffffffffffffffffffffffff1681526020019060010190808311612d2a575b50505050509050919050565b60245481565b60606000805480602002602001604051908101604052809291908181526020018280548015612dd457602002820191906000526020600020905b815481526020019060010190808311612dc0575b5050505050905090565b600080603960009054906101000a900473ffffffffffffffffffffffffffffffffffffffff1673ffffffffffffffffffffffffffffffffffffffff1663a26301f9856040518263ffffffff1660e01b8152600401808273ffffffffffffffffffffffffffffffffffffffff1673ffffffffffffffffffffffffffffffffffffffff16815260200191505060206040518083038186803b158015612e8057600080fd5b505afa158015612e94573d6000803e3d6000fd5b505050506040513d6020811015612eaa57600080fd5b8101908080519060200190929190505050905060008473ffffffffffffffffffffffffffffffffffffffff168473ffffffffffffffffffffffffffffffffffffffff161415612efa576000612efc565b835b905060008473ffffffffffffffffffffffffffffffffffffffff168673ffffffffffffffffffffffffffffffffffffffff1614159050612f3c8382616281565b612f4c57600093505050506130b0565b60006031600085815260200190815260200160002060008473ffffffffffffffffffffffffffffffffffffffff1673ffffffffffffffffffffffffffffffffffffffff16815260200190815260200160002054905081612fcf57612fcc600b60008681526020019081526020016000205482615f3e90919063ffffffff16565b90505b603960009054906101000a900473ffffffffffffffffffffffffffffffffffffffff1673ffffffffffffffffffffffffffffffffffffffff1663a48b042a856040518263ffffffff1660e01b81526004018082815260200191505060206040518083038186803b15801561304257600080fd5b505afa158015613056573d6000803e3d6000fd5b505050506040513d602081101561306c57600080fd5b810190808051906020019092919050505061308d57809450505050506130b0565b60006130998585611b7f565b9050808211156130a7578091505b81955050505050505b92915050565b602660205282600052604060002060205281600052604060002060205280600052604060002060009250925050505481565b602c6020528060005260406000206000915090505481565b60375481565b603a5481565b60355481565b6000600860008373ffffffffffffffffffffffffffffffffffffffff1673ffffffffffffffffffffffffffffffffffffffff168152602001908152602001600020805490509050919050565b600080603754905060008114613175576001613178565b60005b60ff1660365482010391505090565b600080603960009054906101000a900473ffffffffffffffffffffffffffffffffffffffff1673ffffffffffffffffffffffffffffffffffffffff1663a26301f9856040518263ffffffff1660e01b8152600401808273ffffffffffffffffffffffffffffffffffffffff1673ffffffffffffffffffffffffffffffffffffffff16815260200191505060206040518083038186803b15801561322957600080fd5b505afa15801561323d573d6000803e3d6000fd5b505050506040513d602081101561325357600080fd5b8101908080519060200190929190505050905060008373ffffffffffffffffffffffffffffffffffffffff168573ffffffffffffffffffffffffffffffffffffffff16141590506000816132a85760006132aa565b845b90506132b68383616281565b6132c6576000935050505061342a565b603960009054906101000a900473ffffffffffffffffffffffffffffffffffffffff1673ffffffffffffffffffffffffffffffffffffffff1663a48b042a846040518263ffffffff1660e01b81526004018082815260200191505060206040518083038186803b15801561333957600080fd5b505afa15801561334d573d6000803e3d6000fd5b505050506040513d602081101561336357600080fd5b8101908080519060200190929190505050613384576000935050505061342a565b60006031600085815260200190815260200160002060008373ffffffffffffffffffffffffffffffffffffffff1673ffffffffffffffffffffffffffffffffffffffff1681526020019081526020016000205490508261340757613404600b60008681526020019081526020016000205482615f3e90919063ffffffff16565b90505b6134236134148584611b7f565b82615f3e90919063ffffffff16565b9450505050505b92915050565b6060600060046005548180548060200260200160405190810160405280929190818152602001828054801561348457602002820191906000526020600020905b815481526020019060010190808311613470575b50505050509150915091509091565b60345481565b602e6020528060005260406000206000915090505481565b60606007600083815260200190815260200160002080548060200260200160405190810160405280929190818152602001828054801561354657602002820191906000526020600020905b8160009054906101000a900473ffffffffffffffffffffffffffffffffffffffff1673ffffffffffffffffffffffffffffffffffffffff16815260200190600101908083116134fc575b50505050509050919050565b603960009054906101000a900473ffffffffffffffffffffffffffffffffffffffff1673ffffffffffffffffffffffffffffffffffffffff163373ffffffffffffffffffffffffffffffffffffffff16146135ac57600080fd5b6135b581615a16565b50565b6060600280548060200260200160405190810160405280929190818152602001828054801561360657602002820191906000526020600020905b8154815260200190600101908083116135f2575b5050505050905090565b600073ffffffffffffffffffffffffffffffffffffffff168873ffffffffffffffffffffffffffffffffffffffff16141561364a57600080fd5b6000878790501161365a57600080fd5b600085141561366857600080fd5b600084141561367657600080fd5b600083141561368457600080fd5b80831161369057600080fd5b600081141561369e57600080fd5b60006136a8615177565b14806136e657506136b7615146565b73ffffffffffffffffffffffffffffffffffffffff163373ffffffffffffffffffffffffffffffffffffffff16145b6136ef57600080fd5b6136f761235a565b1561370157600080fd5b87603960006101000a81548173ffffffffffffffffffffffffffffffffffffffff021916908373ffffffffffffffffffffffffffffffffffffffff1602179055506000603960009054906101000a900473ffffffffffffffffffffffffffffffffffffffff1673ffffffffffffffffffffffffffffffffffffffff1663704189ca6040518163ffffffff1660e01b815260040160206040518083038186803b1580156137ac57600080fd5b505afa1580156137c0573d6000803e3d6000fd5b505050506040513d60208110156137d657600080fd5b8101908080519060200190929190505050905060008090505b8888905081101561387957600089898381811061380857fe5b90506020020135141561381a57600080fd5b61383789898381811061382957fe5b905060200201356000616427565b8189898381811061384457fe5b905060200201351461386c5761386b89898381811061385f57fe5b905060200201356160ee565b5b80806001019150506137ef565b5085602581905550846024819055508360368190555082603781905550816034819055506138a5615177565b603a81905550505050505050505050565b6138c082826164b4565b5050565b60003a14156138d257600080fd5b6138da61235a565b6138e357600080fd5b6000603960009054906101000a900473ffffffffffffffffffffffffffffffffffffffff1673ffffffffffffffffffffffffffffffffffffffff1663a26301f9846040518263ffffffff1660e01b8152600401808273ffffffffffffffffffffffffffffffffffffffff1673ffffffffffffffffffffffffffffffffffffffff16815260200191505060206040518083038186803b15801561398457600080fd5b505afa158015613998573d6000803e3d6000fd5b505050506040513d60208110156139ae57600080fd5b81019080805190602001909291905050509050600073ffffffffffffffffffffffffffffffffffffffff168373ffffffffffffffffffffffffffffffffffffffff1614156139fb57600080fd5b6000821415613a0957600080fd5b6000811415613a1757600080fd5b600033905060008473ffffffffffffffffffffffffffffffffffffffff168273ffffffffffffffffffffffffffffffffffffffff161415613a59576000613a5b565b815b9050613a9783600073ffffffffffffffffffffffffffffffffffffffff168373ffffffffffffffffffffffffffffffffffffffff161415616281565b613aa057600080fd5b60006027600085815260200190815260200160002060008373ffffffffffffffffffffffffffffffffffffffff1673ffffffffffffffffffffffffffffffffffffffff16815260200190815260200160002054905060006028600086815260200190815260200160002054905060006031600087815260200190815260200160002060008573ffffffffffffffffffffffffffffffffffffffff1673ffffffffffffffffffffffffffffffffffffffff1681526020019081526020016000205490506000603860008881526020019081526020016000205490506000881315613c4f576000889050613b928a88613187565b811115613b9e57600080fd5b613bb1818661626290919063ffffffff16565b9450613bc6818561626290919063ffffffff16565b9350613bdb8184615f3e90919063ffffffff16565b9250613bf08183615f3e90919063ffffffff16565b9150603554602960008a815260200190815260200160002060008873ffffffffffffffffffffffffffffffffffffffff1673ffffffffffffffffffffffffffffffffffffffff1681526020019081526020016000208190555050613cad565b6000886000039050613c6a8186615f3e90919063ffffffff16565b9450613c7f8185615f3e90919063ffffffff16565b9350613c94818461626290919063ffffffff16565b9250613ca9818361626290919063ffffffff16565b9150505b836027600089815260200190815260200160002060008773ffffffffffffffffffffffffffffffffffffffff1673ffffffffffffffffffffffffffffffffffffffff16815260200190815260200160002081905550826028600089815260200190815260200160002081905550816031600089815260200190815260200160002060008773ffffffffffffffffffffffffffffffffffffffff1673ffffffffffffffffffffffffffffffffffffffff168152602001908152602001600020819055508060386000898152602001908152602001600020819055508873ffffffffffffffffffffffffffffffffffffffff168673ffffffffffffffffffffffffffffffffffffffff161415613edd57600b600088815260200190815260200160002054821015613ddb57600080fd5b6000821480613dec57506024548210155b613df557600080fd5b6000603960009054906101000a900473ffffffffffffffffffffffffffffffffffffffff1673ffffffffffffffffffffffffffffffffffffffff1663704189ca6040518163ffffffff1660e01b815260040160206040518083038186803b158015613e5f57600080fd5b505afa158015613e73573d6000803e3d6000fd5b505050506040513d6020811015613e8957600080fd5b810190808051906020019092919050505090506000891315613ec957600083148015613eb55750808814155b15613ec457613ec3886160ee565b5b613ed7565b613ed688828a1415616427565b5b50613f2f565b6000821480613eee57506025548210155b613ef757600080fd5b6000881315613f19576000821415613f1457613f1387876164cc565b5b613f24565b613f238787616782565b5b613f2e8787616939565b5b613f3887616025565b6035548673ffffffffffffffffffffffffffffffffffffffff168a73ffffffffffffffffffffffffffffffffffffffff167f89b66c7c015442886e0ce3c9c8137443ebbe1b1766f6b3a942dde6c3bb82517d8b8b604051808381526020018281526020019250505060405180910390a4505050505050505050565b600080602d600084815260200190815260200160002054905060008054905081108015613ff657508260008281548110613fe957fe5b9060005260206000200154145b915050919050565b602f6020528060005260406000206000915090505481565b602d6020528060005260406000206000915090505481565b6000603960009054906101000a900473ffffffffffffffffffffffffffffffffffffffff1673ffffffffffffffffffffffffffffffffffffffff1663a26301f9836040518263ffffffff1660e01b8152600401808273ffffffffffffffffffffffffffffffffffffffff1673ffffffffffffffffffffffffffffffffffffffff16815260200191505060206040518083038186803b1580156140cf57600080fd5b505afa1580156140e3573d6000803e3d6000fd5b505050506040513d60208110156140f957600080fd5b81019080805190602001909291905050509050600081141561411a57600080fd5b600033905060008373ffffffffffffffffffffffffffffffffffffffff168273ffffffffffffffffffffffffffffffffffffffff16141561415c57600061415e565b815b90506029600084815260200190815260200160002060008273ffffffffffffffffffffffffffffffffffffffff1673ffffffffffffffffffffffffffffffffffffffff16815260200190815260200160002054603554116141be57600080fd5b6141f883600073ffffffffffffffffffffffffffffffffffffffff168373ffffffffffffffffffffffffffffffffffffffff161415616281565b61420157600080fd5b60006027600085815260200190815260200160002060008373ffffffffffffffffffffffffffffffffffffffff1673ffffffffffffffffffffffffffffffffffffffff168152602001908152602001600020549050600081141561426457600080fd5b60006027600086815260200190815260200160002060008473ffffffffffffffffffffffffffffffffffffffff1673ffffffffffffffffffffffffffffffffffffffff168152602001908152602001600020819055506142e0816028600087815260200190815260200160002054615f3e90919063ffffffff16565b602860008681526020019081526020016000208190555060006031600086815260200190815260200160002060008473ffffffffffffffffffffffffffffffffffffffff1673ffffffffffffffffffffffffffffffffffffffff16815260200190815260200160002054141561435c5761435b848685616b48565b5b6143668382616d24565b6035548373ffffffffffffffffffffffffffffffffffffffff168673ffffffffffffffffffffffffffffffffffffffff167f3b1f0416a322c81d02b7eb108c29b8c9cf15503da84e83c389c529625b10389e8488604051808381526020018281526020019250505060405180910390a45050505050565b6060600380548060200260200160405190810160405280929190818152602001828054801561442b57602002820191906000526020600020905b815481526020019060010190808311614417575b5050505050905090565b6029602052816000526040600020602052806000526040600020600091509150505481565b60365481565b60255481565b606060018054806020026020016040519081016040528092919081815260200182805480156144b457602002820191906000526020600020905b8154815260200190600101908083116144a0575b5050505050905090565b603960009054906101000a900473ffffffffffffffffffffffffffffffffffffffff1681565b6027602052816000526040600020602052806000526040600020600091509150505481565b60006145a2873388600089898080601f016020809104026020016040519081016040528093929190818152602001838380828437600081840152601f19601f8201169050808301925050505050505088888080601f016020809104026020016040519081016040528093929190818152602001838380828437600081840152601f19601f82011690508083019250505050505050616df2565b90509695505050505050565b60003a14156145bc57600080fd5b6145c461235a565b6145cd57600080fd5b6000603960009054906101000a900473ffffffffffffffffffffffffffffffffffffffff1673ffffffffffffffffffffffffffffffffffffffff1663a26301f9336040518263ffffffff1660e01b8152600401808273ffffffffffffffffffffffffffffffffffffffff1673ffffffffffffffffffffffffffffffffffffffff16815260200191505060206040518083038186803b15801561466e57600080fd5b505afa158015614682573d6000803e3d6000fd5b505050506040513d602081101561469857600080fd5b8101908080519060200190929190505050905060008114156146b957600080fd5b600060355411806147755750603960009054906101000a900473ffffffffffffffffffffffffffffffffffffffff1673ffffffffffffffffffffffffffffffffffffffff16639b4a14bf826040518263ffffffff1660e01b81526004018082815260200191505060206040518083038186803b15801561473857600080fd5b505afa15801561474c573d6000803e3d6000fd5b505050506040513d602081101561476257600080fd5b8101908080519060200190929190505050155b61477e57600080fd5b603960009054906101000a900473ffffffffffffffffffffffffffffffffffffffff1673ffffffffffffffffffffffffffffffffffffffff1663704189ca6040518163ffffffff1660e01b815260040160206040518083038186803b1580156147e657600080fd5b505afa1580156147fa573d6000803e3d6000fd5b505050506040513d602081101561481057600080fd5b810190808051906020019092919050505081141561482d57600080fd5b61483681615a16565b50565b603960009054906101000a900473ffffffffffffffffffffffffffffffffffffffff1673ffffffffffffffffffffffffffffffffffffffff163373ffffffffffffffffffffffffffffffffffffffff161461489357600080fd5b603560008154809291906001019190505550565b620493e081565b60003390506000603960009054906101000a900473ffffffffffffffffffffffffffffffffffffffff1673ffffffffffffffffffffffffffffffffffffffff1663a26301f9856040518263ffffffff1660e01b8152600401808273ffffffffffffffffffffffffffffffffffffffff1673ffffffffffffffffffffffffffffffffffffffff16815260200191505060206040518083038186803b15801561495457600080fd5b505afa158015614968573d6000803e3d6000fd5b505050506040513d602081101561497e57600080fd5b8101908080519060200190929190505050905061499c848385615b2f565b6149a68284616d24565b6035548273ffffffffffffffffffffffffffffffffffffffff168573ffffffffffffffffffffffffffffffffffffffff167f5c5eecdba4673a19126d31c4ea006153eec8120d460905a4643cacd174da87228685604051808381526020018281526020019250505060405180910390a450505050565b600080614a27615177565b9050603754811015614a3d576000915050614a68565b600060345460365403905060006037541415614a5c5780806001019150505b80603754830310925050505b90565b600080603960009054906101000a900473ffffffffffffffffffffffffffffffffffffffff1673ffffffffffffffffffffffffffffffffffffffff1663a26301f9856040518263ffffffff1660e01b8152600401808273ffffffffffffffffffffffffffffffffffffffff1673ffffffffffffffffffffffffffffffffffffffff16815260200191505060206040518083038186803b158015614b0d57600080fd5b505afa158015614b21573d6000803e3d6000fd5b505050506040513d6020811015614b3757600080fd5b81019080805190602001909291905050509050600073ffffffffffffffffffffffffffffffffffffffff168473ffffffffffffffffffffffffffffffffffffffff161415614b8457600080fd5b600073ffffffffffffffffffffffffffffffffffffffff168373ffffffffffffffffffffffffffffffffffffffff161415614bbe57600080fd5b6000811415614bcc57600080fd5b60008473ffffffffffffffffffffffffffffffffffffffff168473ffffffffffffffffffffffffffffffffffffffff161415614c09576000614c0b565b835b90506000808573ffffffffffffffffffffffffffffffffffffffff168773ffffffffffffffffffffffffffffffffffffffff1614614cf8576032600085815260200190815260200160002060008773ffffffffffffffffffffffffffffffffffffffff1673ffffffffffffffffffffffffffffffffffffffff1681526020019081526020016000205491506000821415614ca457600080fd5b6033600085815260200190815260200160002060008773ffffffffffffffffffffffffffffffffffffffff1673ffffffffffffffffffffffffffffffffffffffff1681526020019081526020016000205490505b6000603960009054906101000a900473ffffffffffffffffffffffffffffffffffffffff1673ffffffffffffffffffffffffffffffffffffffff166356b54bae6040518163ffffffff1660e01b815260040160206040518083038186803b158015614d6257600080fd5b505afa158015614d76573d6000803e3d6000fd5b505050506040513d6020811015614d8c57600080fd5b8101908080519060200190929190505050905060008090506000965060008a511415614e97578173ffffffffffffffffffffffffffffffffffffffff1663e7f6cfe2876040518263ffffffff1660e01b81526004018082815260200191505060006040518083038186803b158015614e0357600080fd5b505afa158015614e17573d6000803e3d6000fd5b505050506040513d6000823e3d601f19601f820116820180604052506020811015614e4157600080fd5b810190808051640100000000811115614e5957600080fd5b82810190506020810184811115614e6f57600080fd5b8151856020820283011164010000000082111715614e8c57600080fd5b505092919050505099505b60008090505b8a518110156151385760008b8281518110614eb457fe5b602002602001015190506000821480614ee257508b6001830381518110614ed757fe5b602002602001015181115b614eeb57600080fd5b6035548110614ef957600080fd5b6030600089815260200190815260200160002060008873ffffffffffffffffffffffffffffffffffffffff1673ffffffffffffffffffffffffffffffffffffffff168152602001908152602001600020600082815260200190815260200160002060009054906101000a900460ff1615614f73575061512b565b60008a73ffffffffffffffffffffffffffffffffffffffff168c73ffffffffffffffffffffffffffffffffffffffff161461508c5786821015614fb757505061512b565b818611158015614fc8575060008614155b15614fd4575050615138565b614fe18288868c8f61618e565b93506001820196508473ffffffffffffffffffffffffffffffffffffffff1663877ffdea85848c6040518463ffffffff1660e01b815260040180848152602001838152602001828152602001935050505060206040518083038186803b15801561504a57600080fd5b505afa15801561505e573d6000803e3d6000fd5b505050506040513d602081101561507457600080fd5b81019080805190602001909291905050509050615123565b8473ffffffffffffffffffffffffffffffffffffffff16631289b179838b6040518363ffffffff1660e01b8152600401808381526020018281526020019250505060206040518083038186803b1580156150e557600080fd5b505afa1580156150f9573d6000803e3d6000fd5b505050506040513d602081101561510f57600080fd5b810190808051906020019092919050505090505b808a01995050505b8080600101915050614e9d565b505050505050509392505050565b6000807fb53127684a568b3173ae13b9f8a6016e243e63b6e8ee1178d6a717850b5d610360001b9050805491505090565b600043905090565b60003073ffffffffffffffffffffffffffffffffffffffff1631905090565b60008082116151ac57600080fd5b60008284816151b757fe5b0490508091505092915050565b60003a14156151d257600080fd5b6151da61235a565b6151e357600080fd5b6000603960009054906101000a900473ffffffffffffffffffffffffffffffffffffffff1673ffffffffffffffffffffffffffffffffffffffff1663a26301f9856040518263ffffffff1660e01b8152600401808273ffffffffffffffffffffffffffffffffffffffff1673ffffffffffffffffffffffffffffffffffffffff16815260200191505060206040518083038186803b15801561528457600080fd5b505afa158015615298573d6000803e3d6000fd5b505050506040513d60208110156152ae57600080fd5b81019080805190602001909291905050509050600073ffffffffffffffffffffffffffffffffffffffff168473ffffffffffffffffffffffffffffffffffffffff1614156152fb57600080fd5b600081141561530957600080fd5b600082141561531757600080fd5b603960009054906101000a900473ffffffffffffffffffffffffffffffffffffffff1673ffffffffffffffffffffffffffffffffffffffff16634d04481e826040518263ffffffff1660e01b81526004018082815260200191505060206040518083038186803b15801561538a57600080fd5b505afa15801561539e573d6000803e3d6000fd5b505050506040513d60208110156153b457600080fd5b8101908080519060200190929190505050156153cf57600080fd5b6153d7614a1c565b6153e057600080fd5b60008473ffffffffffffffffffffffffffffffffffffffff168473ffffffffffffffffffffffffffffffffffffffff16141561541d57600061541f565b835b90506000615486846031600086815260200190815260200160002060008573ffffffffffffffffffffffffffffffffffffffff1673ffffffffffffffffffffffffffffffffffffffff1681526020019081526020016000205461626290919063ffffffff16565b90508573ffffffffffffffffffffffffffffffffffffffff168573ffffffffffffffffffffffffffffffffffffffff1614156154d0576024548110156154cb57600080fd5b61553e565b6025548110156154df57600080fd5b60006031600085815260200190815260200160002060008073ffffffffffffffffffffffffffffffffffffffff1673ffffffffffffffffffffffffffffffffffffffff16815260200190815260200160002054141561553d57600080fd5b5b806031600085815260200190815260200160002060008473ffffffffffffffffffffffffffffffffffffffff1673ffffffffffffffffffffffffffffffffffffffff168152602001908152602001600020819055506155af846155a18585611b7f565b61626290919063ffffffff16565b600a600085815260200190815260200160002060008473ffffffffffffffffffffffffffffffffffffffff1673ffffffffffffffffffffffffffffffffffffffff168152602001908152602001600020600060355481526020019081526020016000208190555061563c84603860008681526020019081526020016000205461626290919063ffffffff16565b60386000858152602001908152602001600020819055508573ffffffffffffffffffffffffffffffffffffffff168573ffffffffffffffffffffffffffffffffffffffff16141561573b5761573683603960009054906101000a900473ffffffffffffffffffffffffffffffffffffffff1673ffffffffffffffffffffffffffffffffffffffff1663704189ca6040518163ffffffff1660e01b815260040160206040518083038186803b1580156156f357600080fd5b505afa158015615707573d6000803e3d6000fd5b505050506040513d602081101561571d57600080fd5b8101908080519060200190929190505050851415616427565b615995565b6157458386616782565b61574f8386616939565b6000600860008773ffffffffffffffffffffffffffffffffffffffff1673ffffffffffffffffffffffffffffffffffffffff16815260200190815260200160002090506000818054905090506000600960008973ffffffffffffffffffffffffffffffffffffffff1673ffffffffffffffffffffffffffffffffffffffff16815260200190815260200160002060008781526020019081526020016000205490506000828210158061581757508684838154811061580957fe5b906000526020600020015414155b905080156158a05782600960008b73ffffffffffffffffffffffffffffffffffffffff1673ffffffffffffffffffffffffffffffffffffffff168152602001908152602001600020600089815260200190815260200160002081905550838790806001815401808255809150509060018203906000526020600020016000909192909190915055505b6000831415615990576000603960009054906101000a900473ffffffffffffffffffffffffffffffffffffffff1673ffffffffffffffffffffffffffffffffffffffff166383465b828b6040518263ffffffff1660e01b8152600401808273ffffffffffffffffffffffffffffffffffffffff1673ffffffffffffffffffffffffffffffffffffffff16815260200191505060206040518083038186803b15801561594a57600080fd5b505afa15801561595e573d6000803e3d6000fd5b505050506040513d602081101561597457600080fd5b81019080805190602001909291905050501461598f57600080fd5b5b505050505b61599e83616025565b6035548573ffffffffffffffffffffffffffffffffffffffff168773ffffffffffffffffffffffffffffffffffffffff167f1111552b4d689ce73a2a7356e066e28215e6d61a2294e89ac9e02a933ebb0d508787604051808381526020018281526020019250505060405180910390a4505050505050565b6000602d600083815260200190815260200160002054905080600080549050118015615a5857508160008281548110615a4b57fe5b9060005260206000200154145b15615ae55760008060016000805490500381548110615a7357fe5b906000526020600020015490508060008381548110615a8e57fe5b906000526020600020018190555081602d6000838152602001908152602001600020819055506000602d6000858152602001908152602001600020819055506000805480919060019003615ae291906178df565b50505b615aee82617075565b15615b0157615afc826170b3565b615b0b565b615b0a82617185565b5b615b148261721c565b615b1d826173ab565b615b25615177565b603a819055505050565b60003a1415615b3d57600080fd5b615b4561235a565b615b4e57600080fd5b6000603960009054906101000a900473ffffffffffffffffffffffffffffffffffffffff1673ffffffffffffffffffffffffffffffffffffffff1663a26301f9856040518263ffffffff1660e01b8152600401808273ffffffffffffffffffffffffffffffffffffffff1673ffffffffffffffffffffffffffffffffffffffff16815260200191505060206040518083038186803b158015615bef57600080fd5b505afa158015615c03573d6000803e3d6000fd5b505050506040513d6020811015615c1957600080fd5b81019080805190602001909291905050509050600073ffffffffffffffffffffffffffffffffffffffff168473ffffffffffffffffffffffffffffffffffffffff161415615c6657600080fd5b6000821415615c7457600080fd5b6000811415615c8257600080fd5b615c8c8484612dde565b821115615c9857600080fd5b60008473ffffffffffffffffffffffffffffffffffffffff168473ffffffffffffffffffffffffffffffffffffffff161415615cd5576000615cd7565b835b90506000615d3e846031600086815260200190815260200160002060008573ffffffffffffffffffffffffffffffffffffffff1673ffffffffffffffffffffffffffffffffffffffff16815260200190815260200160002054615f3e90919063ffffffff16565b905060008573ffffffffffffffffffffffffffffffffffffffff168773ffffffffffffffffffffffffffffffffffffffff161415615da057600b600085815260200190815260200160002054821015615d9657600080fd5b6024549050615da6565b60255490505b6000821480615db55750808210155b615dbe57600080fd5b816031600086815260200190815260200160002060008573ffffffffffffffffffffffffffffffffffffffff1673ffffffffffffffffffffffffffffffffffffffff168152602001908152602001600020819055506000615e1f8585611b7f565b905085811015615e30576000615e34565b8581035b600a600087815260200190815260200160002060008673ffffffffffffffffffffffffffffffffffffffff1673ffffffffffffffffffffffffffffffffffffffff1681526020019081526020016000206000603554815260200190815260200160002081905550615ec1866038600088815260200190815260200160002054615f3e90919063ffffffff16565b60386000878152602001908152602001600020819055506000831415615eed57615eec858989616b48565b5b8773ffffffffffffffffffffffffffffffffffffffff168773ffffffffffffffffffffffffffffffffffffffff1614615f2b57615f2a8588616939565b5b615f3485616025565b5050505050505050565b600082821115615f4d57600080fd5b818303905092915050565b6000602e6000838152602001908152602001600020549050600060028054905090508082101580615fa057508260028381548110615f9257fe5b906000526020600020015414155b156160175780602e60008581526020019081526020016000208190555060028390806001815401808255809150509060018203906000526020600020016000909192909190915055506004600090806001815401808255809150509060018203906000526020600020016000909192909190915055505b616020836173ab565b505050565b61602d615177565b603a8190555060008061603f8361747f565b915091508161604f5750506160eb565b60006004828154811061605e57fe5b90600052602060002001549050600060386000868152602001908152602001600020549050806004848154811061609157fe5b90600052602060002001819055508181106160c8576160bd82820360055461626290919063ffffffff16565b6005819055506160e6565b6160df818303600554615f3e90919063ffffffff16565b6005819055505b505050505b50565b6000602f60008381526020019081526020016000205490506000600380549050905080821015806161365750826003838154811061612857fe5b906000526020600020015414155b156161805780602f60008581526020019081526020016000208190555060038390806001815401808255809150509060018203906000526020600020016000909192909190915055505b6161898361721c565b505050565b60005b600115616259576026600084815260200190815260200160002060008373ffffffffffffffffffffffffffffffffffffffff1673ffffffffffffffffffffffffffffffffffffffff16815260200190815260200160002060008781526020019081526020016000205490506000811461623b577fffffffffffffffffffffffffffffffffffffffffffffffffffffffffffffffff81146162315780616234565b60005b9050616259565b8486141561624b57839050616259565b858060019003965050616191565b95945050505050565b60008082840190508381101561627757600080fd5b8091505092915050565b6000811561634a57603960009054906101000a900473ffffffffffffffffffffffffffffffffffffffff1673ffffffffffffffffffffffffffffffffffffffff1663a4e01eaa846040518263ffffffff1660e01b81526004018082815260200191505060206040518083038186803b1580156162fc57600080fd5b505afa158015616310573d6000803e3d6000fd5b505050506040513d602081101561632657600080fd5b8101908080519060200190929190505050156163455760009050616421565b616407565b603960009054906101000a900473ffffffffffffffffffffffffffffffffffffffff1673ffffffffffffffffffffffffffffffffffffffff16634d04481e846040518263ffffffff1660e01b81526004018082815260200191505060206040518083038186803b1580156163bd57600080fd5b505afa1580156163d1573d6000803e3d6000fd5b505050506040513d60208110156163e757600080fd5b8101908080519060200190929190505050156164065760009050616421565b5b61640f614a1c565b61641c5760009050616421565b600190505b92915050565b61643082613fb3565b61649757600080549050602d60008481526020019081526020016000208190555060008290806001815401808255809150509060018203906000526020600020016000909192909190915055506164856174e3565b600080549050111561649657600080fd5b5b6164a0826170b3565b80156164b0576164af82615f58565b5b5050565b60003390503491506164c78382846151c4565b505050565b60006006600084815260200190815260200160002090506000602a600085815260200190815260200160002060008473ffffffffffffffffffffffffffffffffffffffff1673ffffffffffffffffffffffffffffffffffffffff1681526020019081526020016000205490508082805490501180156165ac57508273ffffffffffffffffffffffffffffffffffffffff1682828154811061656957fe5b9060005260206000200160009054906101000a900473ffffffffffffffffffffffffffffffffffffffff1673ffffffffffffffffffffffffffffffffffffffff16145b1561670a576000826001848054905003815481106165c657fe5b9060005260206000200160009054906101000a900473ffffffffffffffffffffffffffffffffffffffff1690508083838154811061660057fe5b9060005260206000200160006101000a81548173ffffffffffffffffffffffffffffffffffffffff021916908373ffffffffffffffffffffffffffffffffffffffff16021790555081602a600087815260200190815260200160002060008373ffffffffffffffffffffffffffffffffffffffff1673ffffffffffffffffffffffffffffffffffffffff168152602001908152602001600020819055506000602a600087815260200190815260200160002060008673ffffffffffffffffffffffffffffffffffffffff1673ffffffffffffffffffffffffffffffffffffffff1681526020019081526020016000208190555082805480919060019003616707919061790b565b50505b60006027600086815260200190815260200160002060008573ffffffffffffffffffffffffffffffffffffffff1673ffffffffffffffffffffffffffffffffffffffff16815260200190815260200160002054146167715761676c84846174ee565b61677c565b61677b848461769b565b5b50505050565b60006006600084815260200190815260200160002090506000602a600085815260200190815260200160002060008473ffffffffffffffffffffffffffffffffffffffff1673ffffffffffffffffffffffffffffffffffffffff168152602001908152602001600020549050600082805490509050808210158061686857508373ffffffffffffffffffffffffffffffffffffffff1683838154811061682457fe5b9060005260206000200160009054906101000a900473ffffffffffffffffffffffffffffffffffffffff1673ffffffffffffffffffffffffffffffffffffffff1614155b156169285780602a600087815260200190815260200160002060008673ffffffffffffffffffffffffffffffffffffffff1673ffffffffffffffffffffffffffffffffffffffff16815260200190815260200160002081905550828490806001815401808255809150509060018203906000526020600020016000909192909190916101000a81548173ffffffffffffffffffffffffffffffffffffffff021916908373ffffffffffffffffffffffffffffffffffffffff160217905550505b616932858561769b565b5050505050565b6000600160355401905060006031600085815260200190815260200160002060008473ffffffffffffffffffffffffffffffffffffffff1673ffffffffffffffffffffffffffffffffffffffff16815260200190815260200160002054905060008114156169c7577fffffffffffffffffffffffffffffffffffffffffffffffffffffffffffffffff6169c9565b805b6026600086815260200190815260200160002060008573ffffffffffffffffffffffffffffffffffffffff1673ffffffffffffffffffffffffffffffffffffffff16815260200190815260200160002060008481526020019081526020016000208190555060006032600086815260200190815260200160002060008573ffffffffffffffffffffffffffffffffffffffff1673ffffffffffffffffffffffffffffffffffffffff168152602001908152602001600020541415616add57816032600086815260200190815260200160002060008573ffffffffffffffffffffffffffffffffffffffff1673ffffffffffffffffffffffffffffffffffffffff168152602001908152602001600020819055505b60008114616aec576000616aee565b815b6033600086815260200190815260200160002060008573ffffffffffffffffffffffffffffffffffffffff1673ffffffffffffffffffffffffffffffffffffffff1681526020019081526020016000208190555050505050565b8173ffffffffffffffffffffffffffffffffffffffff168173ffffffffffffffffffffffffffffffffffffffff161415616cfc576000603960009054906101000a900473ffffffffffffffffffffffffffffffffffffffff1673ffffffffffffffffffffffffffffffffffffffff1663704189ca6040518163ffffffff1660e01b815260040160206040518083038186803b158015616be657600080fd5b505afa158015616bfa573d6000803e3d6000fd5b505050506040513d6020811015616c1057600080fd5b81019080805190602001909291905050509050808414616cf657603960009054906101000a900473ffffffffffffffffffffffffffffffffffffffff1673ffffffffffffffffffffffffffffffffffffffff16639b4a14bf856040518263ffffffff1660e01b81526004018082815260200191505060206040518083038186803b158015616c9d57600080fd5b505afa158015616cb1573d6000803e3d6000fd5b505050506040513d6020811015616cc757600080fd5b810190808051906020019092919050505015616ceb57616ce6846160ee565b616cf5565b616cf484615a16565b5b5b50616d1f565b616d0683826164cc565b616d0f83617075565b15616d1e57616d1d836170b3565b5b5b505050565b60003a1415616d3257600080fd5b616d3a61235a565b616d4357600080fd5b8173ffffffffffffffffffffffffffffffffffffffff166108fc829081150290604051600060405180830381858888f19350505050616de0578082604051616d8a90617937565b808273ffffffffffffffffffffffffffffffffffffffff1673ffffffffffffffffffffffffffffffffffffffff1681526020019150506040518091039082f080158015616ddb573d6000803e3d6000fd5b509050505b616de8615177565b603a819055505050565b600080603960009054906101000a900473ffffffffffffffffffffffffffffffffffffffff1673ffffffffffffffffffffffffffffffffffffffff1663374dc77d878987876040518563ffffffff1660e01b8152600401808573ffffffffffffffffffffffffffffffffffffffff1673ffffffffffffffffffffffffffffffffffffffff1681526020018473ffffffffffffffffffffffffffffffffffffffff1673ffffffffffffffffffffffffffffffffffffffff1681526020018060200180602001838103835285818151815260200191508051906020019080838360005b83811015616eee578082015181840152602081019050616ed3565b50505050905090810190601f168015616f1b5780820380516001836020036101000a031916815260200191505b50838103825284818151815260200191508051906020019080838360005b83811015616f54578082015181840152602081019050616f39565b50505050905090810190601f168015616f815780820380516001836020036101000a031916815260200191505b509650505050505050602060405180830381600087803b158015616fa457600080fd5b505af1158015616fb8573d6000803e3d6000fd5b505050506040513d6020811015616fce57600080fd5b810190808051906020019092919050505090508415616ff757616ff287888a6151c4565b617002565b61700187896164b4565b5b8573ffffffffffffffffffffffffffffffffffffffff168773ffffffffffffffffffffffffffffffffffffffff167f7342ad45e4a4592daa7f7e40b50c1c2ce42aa21da0242065e849a8509de7ba7e836040518082815260200191505060405180910390a3809150509695505050505050565b60008060386000848152602001908152602001600020541480156170ac575060006028600084815260200190815260200160002054145b9050919050565b6000602c6000838152602001908152602001600020549050806001805490501180156170f5575081600182815481106170e857fe5b9060005260206000200154145b156171815760006001808080549050038154811061710f57fe5b90600052602060002001549050806001838154811061712a57fe5b906000526020600020018190555081602c6000838152602001908152602001600020819055506000602c600085815260200190815260200160002081905550600180548091906001900361717e91906178df565b50505b5050565b6000602c60008381526020019081526020016000205490506000600180549050905080821015806171cd575082600183815481106171bf57fe5b906000526020600020015414155b156172175780602c60008581526020019081526020016000208190555060018390806001815401808255809150509060018203906000526020600020016000909192909190915055505b505050565b60048054905060028054905014617232576173a8565b6000602e6000838152602001908152602001600020549050806002805490501180156172745750816002828154811061726757fe5b9060005260206000200154145b156173a6576004818154811061728657fe5b9060005260206000200154600554106172c557600481815481106172a657fe5b90600052602060002001546005600082825403925050819055506172ce565b60006005819055505b600060016002805490500390506000600282815481106172ea57fe5b90600052602060002001549050806002848154811061730557fe5b90600052602060002001819055506004828154811061732057fe5b90600052602060002001546004848154811061733857fe5b906000526020600020018190555082602e6000838152602001908152602001600020819055506000602e600086815260200190815260200160002081905550600280548091906001900361738c91906178df565b5060048054809190600190036173a291906178df565b5050505b505b50565b6000602f6000838152602001908152602001600020549050806003805490501180156173ed575081600382815481106173e057fe5b9060005260206000200154145b1561747b57600060036001600380549050038154811061740957fe5b90600052602060002001549050806003838154811061742457fe5b906000526020600020018190555081602f6000838152602001908152602001600020819055506000602f600085815260200190815260200160002081905550600380548091906001900361747891906178df565b50505b5050565b600080602e6000848152602001908152602001600020549050806002805490501180156174c2575082600282815481106174b557fe5b9060005260206000200154145b156174d357600181915091506174de565b600080809050915091505b915091565b6000620493e0905090565b60006007600084815260200190815260200160002090506000602b600085815260200190815260200160002060008473ffffffffffffffffffffffffffffffffffffffff1673ffffffffffffffffffffffffffffffffffffffff16815260200190815260200160002054905060008280549050905080821015806175d457508373ffffffffffffffffffffffffffffffffffffffff1683838154811061759057fe5b9060005260206000200160009054906101000a900473ffffffffffffffffffffffffffffffffffffffff1673ffffffffffffffffffffffffffffffffffffffff1614155b156176945780602b600087815260200190815260200160002060008673ffffffffffffffffffffffffffffffffffffffff1673ffffffffffffffffffffffffffffffffffffffff16815260200190815260200160002081905550828490806001815401808255809150509060018203906000526020600020016000909192909190916101000a81548173ffffffffffffffffffffffffffffffffffffffff021916908373ffffffffffffffffffffffffffffffffffffffff160217905550505b5050505050565b60006007600084815260200190815260200160002090506000602b600085815260200190815260200160002060008473ffffffffffffffffffffffffffffffffffffffff1673ffffffffffffffffffffffffffffffffffffffff16815260200190815260200160002054905080828054905011801561777b57508273ffffffffffffffffffffffffffffffffffffffff1682828154811061773857fe5b9060005260206000200160009054906101000a900473ffffffffffffffffffffffffffffffffffffffff1673ffffffffffffffffffffffffffffffffffffffff16145b156178d95760008260018480549050038154811061779557fe5b9060005260206000200160009054906101000a900473ffffffffffffffffffffffffffffffffffffffff169050808383815481106177cf57fe5b9060005260206000200160006101000a81548173ffffffffffffffffffffffffffffffffffffffff021916908373ffffffffffffffffffffffffffffffffffffffff16021790555081602b600087815260200190815260200160002060008373ffffffffffffffffffffffffffffffffffffffff1673ffffffffffffffffffffffffffffffffffffffff168152602001908152602001600020819055506000602b600087815260200190815260200160002060008673ffffffffffffffffffffffffffffffffffffffff1673ffffffffffffffffffffffffffffffffffffffff16815260200190815260200160002081905550828054809190600190036178d6919061790b565b50505b50505050565b815481835581811115617906578183600052602060002091820191016179059190617943565b5b505050565b815481835581811115617932578183600052602060002091820191016179319190617943565b5b505050565b604e8061796983390190565b61796591905b80821115617961576000816000905550600101617949565b5090565b9056fe6080604052604051604e380380604e83398181016040526020811015602357600080fd5b81019080805190602001909291905050508073ffffffffffffffffffffffffffffffffffffffff16fffea265627a7a7230582061155585db9187222609e4aead34304a876eba5401f218128b995496e6a1855664736f6c634300050a0032",
  "source": "pragma solidity 0.5.10;\n\n// import \"./base/StakingAuRaTokens.sol\";\nimport \"./base/StakingAuRaCoins.sol\";\n\n\n// contract StakingAuRa is StakingAuRaTokens {}\n\n// Uncomment this line and comment out the above one\n// if staking in native coins is needed instead of staking in tokens:\ncontract StakingAuRa is StakingAuRaCoins {}",
  "sourcePath": "/Users/akshaypatil/Documents/etherlite/pos-contracts/posdao-etherlite/contracts/StakingAuRa.sol",
  "compiler": {
    "name": "solc",
    "version": "0.5.10+commit.5a6ea5b1.Emscripten.clang"
  },
  "schemaVersion": "3.3.1",
  "updatedAt": "2021-04-11T17:55:35.919Z",
  "devdoc": {
    "methods": {
      "addPool(uint256,address,string,string)": {
        "details": "Adds a new candidate's pool to the list of active pools (see the `getPools` getter), moves the specified amount of staking tokens/coins from the candidate's staking address to the candidate's pool, and returns a unique id of the newly added pool. A participant calls this function using their staking address when they want to create a pool. This is a wrapper for the `stake` function.",
        "params": {
          "_amount": "The amount of tokens to be staked. Ignored when staking in native coins because `msg.value` is used in that case.",
          "_description": "A short description of the pool as UTF-8 string (max length is 1024 bytes).",
          "_miningAddress": "The mining address of the candidate. The mining address is bound to the staking address (msg.sender). This address cannot be equal to `msg.sender`.",
          "_name": "A name of the pool as UTF-8 string (max length is 256 bytes)."
        }
      },
      "areStakeAndWithdrawAllowed()": {
        "details": "Determines whether staking/withdrawal operations are allowed at the moment. Used by all staking/withdrawal functions."
      },
      "claimOrderedWithdraw(address)": {
        "details": "Withdraws the staking tokens/coins from the specified pool ordered during the previous staking epochs with the `orderWithdraw` function. The ordered amount can be retrieved by the `orderedWithdrawAmount` getter.",
        "params": {
          "_poolStakingAddress": "The staking address of the pool from which the ordered tokens/coins are withdrawn."
        }
      },
      "claimReward(uint256[],address)": {
        "details": "Withdraws a reward from the specified pool for the specified staking epochs to the staker address (msg.sender).",
        "params": {
          "_poolStakingAddress": "The staking address of the pool from which the reward needs to be withdrawn.",
          "_stakingEpochs": "The list of staking epochs in ascending order. If the list is empty, it is taken with `BlockRewardAuRa.epochsPoolGotRewardFor` getter."
        }
      },
      "clearUnremovableValidator(uint256)": {
        "details": "Adds the `unremovable validator` to either the `poolsToBeElected` or the `poolsToBeRemoved` array depending on their own stake in their own pool when they become removable. This allows the `ValidatorSetAuRa.newValidatorSet` function to recognize the unremovable validator as a regular removable pool. Called by the `ValidatorSet.clearUnremovableValidator` function.",
        "params": {
          "_unremovablePoolId": "The pool id of the unremovable validator."
        }
      },
      "getDelegatorPools(address,uint256,uint256)": {
        "details": "Returns the list of pool ids into which the specified delegator have ever staked.",
        "params": {
          "_delegator": "The delegator address.",
          "_length": "The max number of items to return.",
          "_offset": "The index in the array at which the reading should start. Ignored if the `_length` is 0."
        }
      },
      "getDelegatorPoolsLength(address)": {
        "details": "Returns the length of the list of pools into which the specified delegator have ever staked.",
        "params": {
          "_delegator": "The delegator address."
        }
      },
      "getPools()": {
        "details": "Returns an array of the current active pools (the pool ids of candidates and validators). The size of the array cannot exceed MAX_CANDIDATES. A pool can be added to this array with the `_addPoolActive` internal function which is called by the `stake` or `orderWithdraw` function. A pool is considered active if its address has at least the minimum stake and this stake is not ordered to be withdrawn."
      },
      "getPoolsInactive()": {
        "details": "Returns an array of the current inactive pools (the pool ids of former candidates). A pool can be added to this array with the `_addPoolInactive` internal function which is called by `_removePool`. A pool is considered inactive if it is banned for some reason, if its address has zero stake, or if its entire stake is ordered to be withdrawn."
      },
      "getPoolsLikelihood()": {
        "details": "Returns the array of stake amounts for each corresponding address in the `poolsToBeElected` array (see the `getPoolsToBeElected` getter) and a sum of these amounts. Used by the `ValidatorSetAuRa.newValidatorSet` function when randomly selecting new validators at the last block of a staking epoch. An array value is updated every time any staked amount is changed in this pool (see the `_setLikelihood` internal function).",
        "return": "`uint256[] likelihoods` - The array of the coefficients. The array length is always equal to the length of the `poolsToBeElected` array. `uint256 sum` - The total sum of the amounts."
      },
      "getPoolsToBeElected()": {
        "details": "Returns the list of pools (their ids) which will participate in a new validator set selection process in the `ValidatorSetAuRa.newValidatorSet` function. This is an array of pools which will be considered as candidates when forming a new validator set (at the last block of a staking epoch). This array is kept updated by the `_addPoolToBeElected` and `_deletePoolToBeElected` internal functions."
      },
      "getPoolsToBeRemoved()": {
        "details": "Returns the list of pools (their ids) which will be removed by the `ValidatorSetAuRa.newValidatorSet` function from the active `pools` array (at the last block of a staking epoch). This array is kept updated by the `_addPoolToBeRemoved` and `_deletePoolToBeRemoved` internal functions. A pool is added to this array when the pool's address withdraws (or orders) all of its own staking tokens from the pool, inactivating the pool."
      },
      "getRewardAmount(uint256[],address,address)": {
        "details": "Returns reward amount in native coins for the specified pool, the specified staking epochs, and the specified staker address (delegator or validator).",
        "params": {
          "_poolStakingAddress": "The staking address of the pool for which the amounts need to be returned.",
          "_staker": "The staker address (validator's staking address or delegator's address).",
          "_stakingEpochs": "The list of staking epochs in ascending order. If the list is empty, it is taken with `BlockRewardAuRa.epochsPoolGotRewardFor` getter."
        }
      },
      "incrementStakingEpoch()": {
        "details": "Increments the serial number of the current staking epoch. Called by the `ValidatorSetAuRa.newValidatorSet` at the last block of the finished staking epoch."
      },
      "initialValidatorStake(uint256)": {
        "details": "Makes initial validator stakes. Can only be called by the owner before the network starts (after `initialize` is called but before `stakingEpochStartBlock`). Cannot be called more than once and cannot be called when starting from genesis. Requires `StakingAuRa` contract balance to be equal to the `_totalAmount`.",
        "params": {
          "_totalAmount": "The initial validator total stake amount (for all initial validators)."
        }
      },
      "initialize(address,uint256[],uint256,uint256,uint256,uint256,uint256)": {
        "details": "Initializes the network parameters. Can only be called by the constructor of the `InitializerAuRa` contract or owner.",
        "params": {
          "_candidateMinStake": "The minimum allowed amount of candidate/validator stake in Wei.",
          "_delegatorMinStake": "The minimum allowed amount of delegator stake in Wei.",
          "_initialIds": "The array of initial validators' pool ids.",
          "_stakeWithdrawDisallowPeriod": "The duration period (in blocks) at the end of a staking epoch during which participants cannot stake/withdraw/order/claim their staking tokens/coins (e.g., 4320 = 6 hours for 5-seconds blocks in AuRa).",
          "_stakingEpochDuration": "The duration of a staking epoch in blocks (e.g., 120954 = 1 week for 5-seconds blocks in AuRa).",
          "_stakingEpochStartBlock": "The number of the first block of initial staking epoch (must be zero if the network is starting from genesis block).",
          "_validatorSetContract": "The address of the `ValidatorSetAuRa` contract."
        }
      },
      "isInitialized()": {
        "details": "Returns a boolean flag indicating if the `initialize` function has been called."
      },
      "isPoolActive(uint256)": {
        "details": "Returns a flag indicating whether a specified id is in the `pools` array. See the `getPools` getter.",
        "params": {
          "_poolId": "An id of the pool."
        }
      },
      "maxWithdrawAllowed(address,address)": {
        "details": "Returns the maximum amount which can be withdrawn from the specified pool by the specified staker at the moment. Used by the `withdraw` and `moveStake` functions.",
        "params": {
          "_poolStakingAddress": "The pool staking address from which the withdrawal will be made.",
          "_staker": "The staker address that is going to withdraw."
        }
      },
      "maxWithdrawOrderAllowed(address,address)": {
        "details": "Returns the maximum amount which can be ordered to be withdrawn from the specified pool by the specified staker at the moment. Used by the `orderWithdraw` function.",
        "params": {
          "_poolStakingAddress": "The pool staking address from which the withdrawal will be ordered.",
          "_staker": "The staker address that is going to order the withdrawal."
        }
      },
      "moveStake(address,address,uint256)": {
        "details": "Moves staking tokens/coins from one pool to another. A staker calls this function when they want to move their tokens/coins from one pool to another without withdrawing their tokens/coins.",
        "params": {
          "_amount": "The amount of staking tokens/coins to be moved. The amount cannot exceed the value returned by the `maxWithdrawAllowed` getter.",
          "_fromPoolStakingAddress": "The staking address of the source pool.",
          "_toPoolStakingAddress": "The staking address of the target pool."
        }
      },
      "orderWithdraw(address,int256)": {
        "details": "Orders tokens/coins withdrawal from the staking address of the specified pool to the staker's address. The requested tokens/coins can be claimed after the current staking epoch is complete using the `claimOrderedWithdraw` function.",
        "params": {
          "_amount": "The amount to be withdrawn. A positive value means the staker wants to either set or increase their withdrawal amount. A negative value means the staker wants to decrease a withdrawal amount that was previously set. The amount cannot exceed the value returned by the `maxWithdrawOrderAllowed` getter.",
          "_poolStakingAddress": "The staking address of the pool from which the amount will be withdrawn."
        }
      },
      "poolDelegators(uint256)": {
        "details": "Returns an array of the current active delegators of the specified pool. A delegator is considered active if they have staked into the specified pool and their stake is not ordered to be withdrawn.",
        "params": {
          "_poolId": "The pool id."
        }
      },
      "poolDelegatorsInactive(uint256)": {
        "details": "Returns an array of the current inactive delegators of the specified pool. A delegator is considered inactive if their entire stake is ordered to be withdrawn but not yet claimed.",
        "params": {
          "_poolId": "The pool id."
        }
      },
      "removeMyPool()": {
        "details": "Removes the candidate's or validator's pool from the `pools` array (a list of active pools which can be retrieved by the `getPools` getter). When a candidate or validator wants to remove their pool, they should call this function from their staking address. A validator cannot remove their pool while they are an `unremovable validator`."
      },
      "removePool(uint256)": {
        "details": "Removes a specified pool from the `pools` array (a list of active pools which can be retrieved by the `getPools` getter). Called by the `ValidatorSetAuRa._removeMaliciousValidator` internal function when a pool must be removed by the algorithm.",
        "params": {
          "_poolId": "The id of the pool to be removed."
        }
      },
      "removePools()": {
        "details": "Removes pools which are in the `_poolsToBeRemoved` internal array from the `pools` array. Called by the `ValidatorSetAuRa.newValidatorSet` function when pools must be removed by the algorithm."
      },
      "setCandidateMinStake(uint256)": {
        "details": "Sets (updates) the limit of the minimum candidate stake (CANDIDATE_MIN_STAKE). Can only be called by the `owner`.",
        "params": {
          "_minStake": "The value of a new limit in Wei."
        }
      },
      "setDelegatorMinStake(uint256)": {
        "details": "Sets (updates) the limit of the minimum delegator stake (DELEGATOR_MIN_STAKE). Can only be called by the `owner`.",
        "params": {
          "_minStake": "The value of a new limit in Wei."
        }
      },
      "setStakingEpochStartBlock(uint256)": {
        "details": "Sets the number of the first block in the upcoming staking epoch. Called by the `ValidatorSetAuRa.newValidatorSet` function at the last block of a staking epoch.",
        "params": {
          "_blockNumber": "The number of the very first block in the upcoming staking epoch."
        }
      },
      "stake(address,uint256)": {
        "details": "Moves the specified amount of staking tokens/coins from the staker's address to the staking address of the specified pool. Actually, the amount is stored in a balance of this StakingAuRa contract. A staker calls this function when they want to make a stake into a pool.",
        "params": {
          "_amount": "The amount of tokens to be staked. Ignored when staking in native coins because `msg.value` is used instead.",
          "_toPoolStakingAddress": "The staking address of the pool where the tokens should be staked."
        }
      },
      "stakeAmountByCurrentEpoch(uint256,address)": {
        "details": "Returns the amount of staking tokens/coins staked into the specified pool by the specified staker during the current staking epoch (see the `stakingEpoch` getter). Used by the `stake`, `withdraw`, and `orderWithdraw` functions.",
        "params": {
          "_delegatorOrZero": "The delegator's address (or zero address if the staker is the pool itself).",
          "_poolId": "The pool id."
        }
      },
      "stakingEpochEndBlock()": {
        "details": "Returns the number of the last block of the current staking epoch."
      },
      "withdraw(address,uint256)": {
        "details": "Moves the specified amount of staking tokens/coins from the staking address of the specified pool to the staker's address. A staker calls this function when they want to withdraw their tokens/coins.",
        "params": {
          "_amount": "The amount of tokens/coins to be withdrawn. The amount cannot exceed the value returned by the `maxWithdrawAllowed` getter.",
          "_fromPoolStakingAddress": "The staking address of the pool from which the tokens/coins should be withdrawn."
        }
      }
    }
  },
  "userdoc": {
    "methods": {}
  }
}