{
  "contractName": "TxPermission",
  "abi": [
    {
      "constant": true,
      "inputs": [],
      "name": "certifierContract",
      "outputs": [
        {
          "name": "",
          "type": "address"
        }
      ],
      "payable": false,
      "stateMutability": "view",
      "type": "function"
    },
    {
      "constant": true,
      "inputs": [],
      "name": "BLOCK_GAS_LIMIT_REDUCED",
      "outputs": [
        {
          "name": "",
          "type": "uint256"
        }
      ],
      "payable": false,
      "stateMutability": "view",
      "type": "function"
    },
    {
      "constant": true,
      "inputs": [
        {
          "name": "",
          "type": "address"
        }
      ],
      "name": "senderMinGasPrice",
      "outputs": [
        {
          "name": "",
          "type": "uint256"
        }
      ],
      "payable": false,
      "stateMutability": "view",
      "type": "function"
    },
    {
      "constant": true,
      "inputs": [],
      "name": "BLOCK_GAS_LIMIT",
      "outputs": [
        {
          "name": "",
          "type": "uint256"
        }
      ],
      "payable": false,
      "stateMutability": "view",
      "type": "function"
    },
    {
      "constant": true,
      "inputs": [],
      "name": "validatorSetContract",
      "outputs": [
        {
          "name": "",
          "type": "address"
        }
      ],
      "payable": false,
      "stateMutability": "view",
      "type": "function"
    },
    {
      "constant": true,
      "inputs": [
        {
          "name": "",
          "type": "address"
        }
      ],
      "name": "isSenderAllowed",
      "outputs": [
        {
          "name": "",
          "type": "bool"
        }
      ],
      "payable": false,
      "stateMutability": "view",
      "type": "function"
    },
    {
      "anonymous": false,
      "inputs": [
        {
          "indexed": true,
          "name": "deployer",
          "type": "address"
        },
        {
          "indexed": false,
          "name": "limit",
          "type": "uint256"
        }
      ],
      "name": "DeployerInputLengthLimitSet",
      "type": "event"
    },
    {
      "anonymous": false,
      "inputs": [
        {
          "indexed": true,
          "name": "sender",
          "type": "address"
        },
        {
          "indexed": false,
          "name": "minGasPrice",
          "type": "uint256"
        }
      ],
      "name": "SenderMinGasPriceSet",
      "type": "event"
    },
    {
      "constant": false,
      "inputs": [
        {
          "name": "_allowed",
          "type": "address[]"
        },
        {
          "name": "_certifier",
          "type": "address"
        },
        {
          "name": "_validatorSet",
          "type": "address"
        }
      ],
      "name": "initialize",
      "outputs": [],
      "payable": false,
      "stateMutability": "nonpayable",
      "type": "function"
    },
    {
      "constant": false,
      "inputs": [
        {
          "name": "_sender",
          "type": "address"
        }
      ],
      "name": "addAllowedSender",
      "outputs": [],
      "payable": false,
      "stateMutability": "nonpayable",
      "type": "function"
    },
    {
      "constant": false,
      "inputs": [
        {
          "name": "_sender",
          "type": "address"
        }
      ],
      "name": "removeAllowedSender",
      "outputs": [],
      "payable": false,
      "stateMutability": "nonpayable",
      "type": "function"
    },
    {
      "constant": false,
      "inputs": [
        {
          "name": "_deployer",
          "type": "address"
        },
        {
          "name": "_limit",
          "type": "uint256"
        }
      ],
      "name": "setDeployerInputLengthLimit",
      "outputs": [],
      "payable": false,
      "stateMutability": "nonpayable",
      "type": "function"
    },
    {
      "constant": false,
      "inputs": [
        {
          "name": "_sender",
          "type": "address"
        },
        {
          "name": "_minGasPrice",
          "type": "uint256"
        }
      ],
      "name": "setSenderMinGasPrice",
      "outputs": [],
      "payable": false,
      "stateMutability": "nonpayable",
      "type": "function"
    },
    {
      "constant": true,
      "inputs": [],
      "name": "contractName",
      "outputs": [
        {
          "name": "",
          "type": "string"
        }
      ],
      "payable": false,
      "stateMutability": "pure",
      "type": "function"
    },
    {
      "constant": true,
      "inputs": [],
      "name": "contractNameHash",
      "outputs": [
        {
          "name": "",
          "type": "bytes32"
        }
      ],
      "payable": false,
      "stateMutability": "pure",
      "type": "function"
    },
    {
      "constant": true,
      "inputs": [],
      "name": "contractVersion",
      "outputs": [
        {
          "name": "",
          "type": "uint256"
        }
      ],
      "payable": false,
      "stateMutability": "pure",
      "type": "function"
    },
    {
      "constant": true,
      "inputs": [],
      "name": "allowedSenders",
      "outputs": [
        {
          "name": "",
          "type": "address[]"
        }
      ],
      "payable": false,
      "stateMutability": "view",
      "type": "function"
    },
    {
      "constant": true,
      "inputs": [
        {
          "name": "_sender",
          "type": "address"
        },
        {
          "name": "_to",
          "type": "address"
        },
        {
          "name": "_value",
          "type": "uint256"
        },
        {
          "name": "_gasPrice",
          "type": "uint256"
        },
        {
          "name": "_data",
          "type": "bytes"
        }
      ],
      "name": "allowedTxTypes",
      "outputs": [
        {
          "name": "typesMask",
          "type": "uint32"
        },
        {
          "name": "cache",
          "type": "bool"
        }
      ],
      "payable": false,
      "stateMutability": "view",
      "type": "function"
    },
    {
      "constant": true,
      "inputs": [],
      "name": "blockGasLimit",
      "outputs": [
        {
          "name": "",
          "type": "uint256"
        }
      ],
      "payable": false,
      "stateMutability": "view",
      "type": "function"
    },
    {
      "constant": true,
      "inputs": [
        {
          "name": "_deployer",
          "type": "address"
        }
      ],
      "name": "deployerInputLengthLimit",
      "outputs": [
        {
          "name": "",
          "type": "uint256"
        }
      ],
      "payable": false,
      "stateMutability": "view",
      "type": "function"
    },
    {
      "constant": true,
      "inputs": [],
      "name": "isInitialized",
      "outputs": [
        {
          "name": "",
          "type": "bool"
        }
      ],
      "payable": false,
      "stateMutability": "view",
      "type": "function"
    }
  ],
  "bytecode": "0x608060405234801561001057600080fd5b50611f86806100206000396000f3fe608060405234801561001057600080fd5b50600436106101215760003560e01c806390482d72116100ad578063baddbfa011610071578063baddbfa014610621578063c746c8f41461066f578063d9eb2d5e146106b3578063dfc8bf4e146106d1578063efc784011461071b57610121565b806390482d721461036057806394a1fd78146104195780639d7912aa14610471578063a0a8e460146104c9578063b9056afa146104e757610121565b8063392e53cd116100f4578063392e53cd1461023b578063469ab1e31461025d578063471eab5c1461027b57806375d0c0dc146102bf5780637877a7971461034257610121565b80630651cd86146101265780631a9ebeaa146101745780631b9f67a1146101be5780633272b28c146101dc575b600080fd5b6101726004803603604081101561013c57600080fd5b81019080803573ffffffffffffffffffffffffffffffffffffffff16906020019092919080359060200190929190505050610777565b005b61017c61085d565b604051808273ffffffffffffffffffffffffffffffffffffffff1673ffffffffffffffffffffffffffffffffffffffff16815260200191505060405180910390f35b6101c6610883565b6040518082815260200191505060405180910390f35b6101e461088a565b6040518080602001828103825283818151815260200191508051906020019060200280838360005b8381101561022757808201518184015260208101905061020c565b505050509050019250505060405180910390f35b610243610918565b604051808215151515815260200191505060405180910390f35b610265610971565b6040518082815260200191505060405180910390f35b6102bd6004803603602081101561029157600080fd5b81019080803573ffffffffffffffffffffffffffffffffffffffff1690602001909291905050506109f1565b005b6102c7610c2e565b6040518080602001828103825283818151815260200191508051906020019080838360005b838110156103075780820151818401526020810190506102ec565b50505050905090810190601f1680156103345780820380516001836020036101000a031916815260200191505b509250505060405180910390f35b61034a610c6b565b6040518082815260200191505060405180910390f35b6104176004803603606081101561037657600080fd5b810190808035906020019064010000000081111561039357600080fd5b8201836020820111156103a557600080fd5b803590602001918460208302840111640100000000831117156103c757600080fd5b9091929391929390803573ffffffffffffffffffffffffffffffffffffffff169060200190929190803573ffffffffffffffffffffffffffffffffffffffff169060200190929190505050610dc6565b005b61045b6004803603602081101561042f57600080fd5b81019080803573ffffffffffffffffffffffffffffffffffffffff169060200190929190505050610f6e565b6040518082815260200191505060405180910390f35b6104b36004803603602081101561048757600080fd5b81019080803573ffffffffffffffffffffffffffffffffffffffff169060200190929190505050610f86565b6040518082815260200191505060405180910390f35b6104d1610fe8565b6040518082815260200191505060405180910390f35b6105f4600480360360a08110156104fd57600080fd5b81019080803573ffffffffffffffffffffffffffffffffffffffff169060200190929190803573ffffffffffffffffffffffffffffffffffffffff16906020019092919080359060200190929190803590602001909291908035906020019064010000000081111561056e57600080fd5b82018360208201111561058057600080fd5b803590602001918460018302840111640100000000831117156105a257600080fd5b91908080601f016020809104026020016040519081016040528093929190818152602001838380828437600081840152601f19601f820116905080830192505050505050509192919290505050610ff1565b604051808363ffffffff1663ffffffff168152602001821515151581526020019250505060405180910390f35b61066d6004803603604081101561063757600080fd5b81019080803573ffffffffffffffffffffffffffffffffffffffff16906020019092919080359060200190929190505050611bee565b005b6106b16004803603602081101561068557600080fd5b81019080803573ffffffffffffffffffffffffffffffffffffffff169060200190929190505050611cd4565b005b6106bb611d30565b6040518082815260200191505060405180910390f35b6106d9611d37565b604051808273ffffffffffffffffffffffffffffffffffffffff1673ffffffffffffffffffffffffffffffffffffffff16815260200191505060405180910390f35b61075d6004803603602081101561073157600080fd5b81019080803573ffffffffffffffffffffffffffffffffffffffff169060200190929190505050611d5d565b604051808215151515815260200191505060405180910390f35b61077f611d7d565b73ffffffffffffffffffffffffffffffffffffffff163373ffffffffffffffffffffffffffffffffffffffff16146107b657600080fd5b6107be610918565b6107c757600080fd5b80600560008473ffffffffffffffffffffffffffffffffffffffff1673ffffffffffffffffffffffffffffffffffffffff168152602001908152602001600020819055508173ffffffffffffffffffffffffffffffffffffffff167fc8eecc08ae9cffd51fce8871ab6f4c6c8c112f8753fad097a055d51433661a7d826040518082815260200191505060405180910390a25050565b600160009054906101000a900473ffffffffffffffffffffffffffffffffffffffff1681565b623d090081565b6060600080548060200260200160405190810160405280929190818152602001828054801561090e57602002820191906000526020600020905b8160009054906101000a900473ffffffffffffffffffffffffffffffffffffffff1673ffffffffffffffffffffffffffffffffffffffff16815260200190600101908083116108c4575b5050505050905090565b60008073ffffffffffffffffffffffffffffffffffffffff16600360009054906101000a900473ffffffffffffffffffffffffffffffffffffffff1673ffffffffffffffffffffffffffffffffffffffff161415905090565b600061097b610c2e565b6040516020018082805190602001908083835b602083106109b1578051825260208201915060208101905060208303925061098e565b6001836020036101000a03801982511681845116808217855250505050505090500191505060405160208183030381529060405280519060200120905090565b6109f9611d7d565b73ffffffffffffffffffffffffffffffffffffffff163373ffffffffffffffffffffffffffffffffffffffff1614610a3057600080fd5b610a38610918565b610a4157600080fd5b600260008273ffffffffffffffffffffffffffffffffffffffff1673ffffffffffffffffffffffffffffffffffffffff16815260200190815260200160002060009054906101000a900460ff16610a9757600080fd5b60008080549050905060008090505b81811015610bd15760008181548110610abb57fe5b9060005260206000200160009054906101000a900473ffffffffffffffffffffffffffffffffffffffff1673ffffffffffffffffffffffffffffffffffffffff168373ffffffffffffffffffffffffffffffffffffffff161415610bc45760006001830381548110610b2957fe5b9060005260206000200160009054906101000a900473ffffffffffffffffffffffffffffffffffffffff1660008281548110610b6157fe5b9060005260206000200160006101000a81548173ffffffffffffffffffffffffffffffffffffffff021916908373ffffffffffffffffffffffffffffffffffffffff1602179055506000805480919060019003610bbe9190611f00565b50610bd1565b8080600101915050610aa6565b506000600260008473ffffffffffffffffffffffffffffffffffffffff1673ffffffffffffffffffffffffffffffffffffffff16815260200190815260200160002060006101000a81548160ff0219169083151502179055505050565b60606040518060400160405280601681526020017f54585f5045524d495353494f4e5f434f4e545241435400000000000000000000815250905090565b600080600360009054906101000a900473ffffffffffffffffffffffffffffffffffffffff1673ffffffffffffffffffffffffffffffffffffffff1663ee99205c6040518163ffffffff1660e01b815260040160206040518083038186803b158015610cd657600080fd5b505afa158015610cea573d6000803e3d6000fd5b505050506040513d6020811015610d0057600080fd5b8101908080519060200190929190505050905060008173ffffffffffffffffffffffffffffffffffffffff16638c2243ae6040518163ffffffff1660e01b815260040160206040518083038186803b158015610d5b57600080fd5b505afa158015610d6f573d6000803e3d6000fd5b505050506040513d6020811015610d8557600080fd5b8101908080519060200190929190505050905060018103431480610da857508043145b15610dba57623d090092505050610dc3565b62bebc20925050505b90565b6000431480610e075750610dd8611d7d565b73ffffffffffffffffffffffffffffffffffffffff163373ffffffffffffffffffffffffffffffffffffffff16145b610e1057600080fd5b610e18610918565b15610e2257600080fd5b600073ffffffffffffffffffffffffffffffffffffffff168273ffffffffffffffffffffffffffffffffffffffff161415610e5c57600080fd5b600073ffffffffffffffffffffffffffffffffffffffff168173ffffffffffffffffffffffffffffffffffffffff161415610e9657600080fd5b60008090505b84849050811015610ee557610ed8858583818110610eb657fe5b9050602002013573ffffffffffffffffffffffffffffffffffffffff16611dae565b8080600101915050610e9c565b5081600160006101000a81548173ffffffffffffffffffffffffffffffffffffffff021916908373ffffffffffffffffffffffffffffffffffffffff16021790555080600360006101000a81548173ffffffffffffffffffffffffffffffffffffffff021916908373ffffffffffffffffffffffffffffffffffffffff16021790555050505050565b60056020528060005260406000206000915090505481565b600080600460008473ffffffffffffffffffffffffffffffffffffffff1673ffffffffffffffffffffffffffffffffffffffff16815260200190815260200160002054905060008114610fdc5780915050610fe3565b6178009150505b919050565b60006003905090565b600080600260008873ffffffffffffffffffffffffffffffffffffffff1673ffffffffffffffffffffffffffffffffffffffff16815260200190815260200160002060009054906101000a900460ff16156110565763ffffffff600091509150611be4565b600073ffffffffffffffffffffffffffffffffffffffff168673ffffffffffffffffffffffffffffffffffffffff1614801561109a575061109687610f86565b8351115b156110ab5760008091509150611be4565b60008060e01b9050600484015160e01b9050600360009054906101000a900473ffffffffffffffffffffffffffffffffffffffff1673ffffffffffffffffffffffffffffffffffffffff1663ccf69e9b6040518163ffffffff1660e01b815260040160206040518083038186803b15801561112557600080fd5b505afa158015611139573d6000803e3d6000fd5b505050506040513d602081101561114f57600080fd5b810190808051906020019092919050505073ffffffffffffffffffffffffffffffffffffffff168773ffffffffffffffffffffffffffffffffffffffff16141561146b57630b61ba8560e01b7bffffffffffffffffffffffffffffffffffffffffffffffffffffffff1916817bffffffffffffffffffffffffffffffffffffffffffffffffffffffff19161480156111e8575060248451115b156112d1576000602485015190508773ffffffffffffffffffffffffffffffffffffffff1663de109e208a836040518363ffffffff1660e01b8152600401808373ffffffffffffffffffffffffffffffffffffffff1673ffffffffffffffffffffffffffffffffffffffff1681526020018281526020019250505060206040518083038186803b15801561127b57600080fd5b505afa15801561128f573d6000803e3d6000fd5b505050506040513d60208110156112a557600080fd5b81019080805190602001909291905050506112c15760006112c4565b60025b6000935093505050611be4565b63fe7d567d60e01b7bffffffffffffffffffffffffffffffffffffffffffffffffffffffff1916817bffffffffffffffffffffffffffffffffffffffffffffffffffffffff1916148061136857506398df67c660e01b7bffffffffffffffffffffffffffffffffffffffffffffffffffffffff1916817bffffffffffffffffffffffffffffffffffffffffffffffffffffffff1916145b8015611375575060248451145b1561145e576000602485015190508773ffffffffffffffffffffffffffffffffffffffff1663fd6c1d158a836040518363ffffffff1660e01b8152600401808373ffffffffffffffffffffffffffffffffffffffff1673ffffffffffffffffffffffffffffffffffffffff1681526020018281526020019250505060206040518083038186803b15801561140857600080fd5b505afa15801561141c573d6000803e3d6000fd5b505050506040513d602081101561143257600080fd5b810190808051906020019092919050505061144e576000611451565b60025b6000935093505050611be4565b6000809250925050611be4565b600360009054906101000a900473ffffffffffffffffffffffffffffffffffffffff1673ffffffffffffffffffffffffffffffffffffffff168773ffffffffffffffffffffffffffffffffffffffff161415611877576393b4e25e60e01b7bffffffffffffffffffffffffffffffffffffffffffffffffffffffff1916817bffffffffffffffffffffffffffffffffffffffffffffffffffffffff191614156115cb57600360009054906101000a900473ffffffffffffffffffffffffffffffffffffffff1673ffffffffffffffffffffffffffffffffffffffff16633d3b54586040518163ffffffff1660e01b815260040160206040518083038186803b15801561157657600080fd5b505afa15801561158a573d6000803e3d6000fd5b505050506040513d60208110156115a057600080fd5b81019080805190602001909291905050506115bc5760006115bf565b60025b60009250925050611be4565b63c476dd4060e01b7bffffffffffffffffffffffffffffffffffffffffffffffffffffffff1916817bffffffffffffffffffffffffffffffffffffffffffffffffffffffff191614801561162157506044845110155b156117795760008060248601519150604486015190506000600360009054906101000a900473ffffffffffffffffffffffffffffffffffffffff1673ffffffffffffffffffffffffffffffffffffffff1663a670eb568c85856040518463ffffffff1660e01b8152600401808473ffffffffffffffffffffffffffffffffffffffff1673ffffffffffffffffffffffffffffffffffffffff1681526020018373ffffffffffffffffffffffffffffffffffffffff1673ffffffffffffffffffffffffffffffffffffffff1681526020018281526020019350505050604080518083038186803b15801561171357600080fd5b505afa158015611727573d6000803e3d6000fd5b505050506040513d604081101561173d57600080fd5b8101908080519060200190929190805190602001909291905050505090508061176757600061176a565b60025b60009550955050505050611be4565b600085111561187657600360009054906101000a900473ffffffffffffffffffffffffffffffffffffffff1673ffffffffffffffffffffffffffffffffffffffff1663facd743b896040518263ffffffff1660e01b8152600401808273ffffffffffffffffffffffffffffffffffffffff1673ffffffffffffffffffffffffffffffffffffffff16815260200191505060206040518083038186803b15801561182157600080fd5b505afa158015611835573d6000803e3d6000fd5b505050506040513d602081101561184b57600080fd5b810190808051906020019092919050505061186757600261186a565b60005b60009250925050611be4565b5b600360009054906101000a900473ffffffffffffffffffffffffffffffffffffffff1673ffffffffffffffffffffffffffffffffffffffff1663facd743b896040518263ffffffff1660e01b8152600401808273ffffffffffffffffffffffffffffffffffffffff1673ffffffffffffffffffffffffffffffffffffffff16815260200191505060206040518083038186803b15801561191657600080fd5b505afa15801561192a573d6000803e3d6000fd5b505050506040513d602081101561194057600080fd5b8101908080519060200190929190505050801561195d5750600085115b156119975760008873ffffffffffffffffffffffffffffffffffffffff16311161198857600061198b565b60015b60009250925050611be4565b600360009054906101000a900473ffffffffffffffffffffffffffffffffffffffff1673ffffffffffffffffffffffffffffffffffffffff1663facd743b886040518263ffffffff1660e01b8152600401808273ffffffffffffffffffffffffffffffffffffffff1673ffffffffffffffffffffffffffffffffffffffff16815260200191505060206040518083038186803b158015611a3657600080fd5b505afa158015611a4a573d6000803e3d6000fd5b505050506040513d6020811015611a6057600080fd5b810190808051906020019092919050505015611a83576000809250925050611be4565b6000851415611b8357600160009054906101000a900473ffffffffffffffffffffffffffffffffffffffff1673ffffffffffffffffffffffffffffffffffffffff1663e8e23ac0896040518263ffffffff1660e01b8152600401808273ffffffffffffffffffffffffffffffffffffffff1673ffffffffffffffffffffffffffffffffffffffff16815260200191505060206040518083038186803b158015611b2b57600080fd5b505afa158015611b3f573d6000803e3d6000fd5b505050506040513d6020811015611b5557600080fd5b8101908080519060200190929190505050611b71576000611b77565b63ffffffff5b60009250925050611be4565b600560008973ffffffffffffffffffffffffffffffffffffffff1673ffffffffffffffffffffffffffffffffffffffff16815260200190815260200160002054851015611bd7576000809250925050611be4565b63ffffffff600092509250505b9550959350505050565b611bf6611d7d565b73ffffffffffffffffffffffffffffffffffffffff163373ffffffffffffffffffffffffffffffffffffffff1614611c2d57600080fd5b611c35610918565b611c3e57600080fd5b80600460008473ffffffffffffffffffffffffffffffffffffffff1673ffffffffffffffffffffffffffffffffffffffff168152602001908152602001600020819055508173ffffffffffffffffffffffffffffffffffffffff167f89afe3f32b77b643649ede79272f126acd78aa80feeabe1b8c103d0b2f284896826040518082815260200191505060405180910390a25050565b611cdc611d7d565b73ffffffffffffffffffffffffffffffffffffffff163373ffffffffffffffffffffffffffffffffffffffff1614611d1357600080fd5b611d1b610918565b611d2457600080fd5b611d2d81611dae565b50565b62bebc2081565b600360009054906101000a900473ffffffffffffffffffffffffffffffffffffffff1681565b60026020528060005260406000206000915054906101000a900460ff1681565b6000807fb53127684a568b3173ae13b9f8a6016e243e63b6e8ee1178d6a717850b5d610360001b9050805491505090565b600260008273ffffffffffffffffffffffffffffffffffffffff1673ffffffffffffffffffffffffffffffffffffffff16815260200190815260200160002060009054906101000a900460ff1615611e0557600080fd5b600073ffffffffffffffffffffffffffffffffffffffff168173ffffffffffffffffffffffffffffffffffffffff161415611e3f57600080fd5b60008190806001815401808255809150509060018203906000526020600020016000909192909190916101000a81548173ffffffffffffffffffffffffffffffffffffffff021916908373ffffffffffffffffffffffffffffffffffffffff160217905550506001600260008373ffffffffffffffffffffffffffffffffffffffff1673ffffffffffffffffffffffffffffffffffffffff16815260200190815260200160002060006101000a81548160ff02191690831515021790555050565b815481835581811115611f2757818360005260206000209182019101611f269190611f2c565b5b505050565b611f4e91905b80821115611f4a576000816000905550600101611f32565b5090565b9056fea265627a7a72305820a954d8d8039f00a17ec57487fb7c5a23efdf25a432381629efb8fc3270d7bac164736f6c634300050a0032",
  "source": "pragma solidity 0.5.10;\n\nimport \"./interfaces/ICertifier.sol\";\nimport \"./interfaces/IRandomAuRa.sol\";\nimport \"./interfaces/IStakingAuRa.sol\";\nimport \"./interfaces/ITxPermission.sol\";\nimport \"./interfaces/IValidatorSetAuRa.sol\";\nimport \"./upgradeability/UpgradeableOwned.sol\";\n\n\n/// @dev Controls the use of zero gas price by validators in service transactions,\n/// protecting the network against \"transaction spamming\" by malicious validators.\n/// The protection logic is declared in the `allowedTxTypes` function.\ncontract TxPermission is UpgradeableOwned, ITxPermission {\n\n    // =============================================== Storage ========================================================\n\n    // WARNING: since this contract is upgradeable, do not remove\n    // existing storage variables, do not change their order,\n    // and do not change their types!\n\n    address[] internal _allowedSenders;\n\n    /// @dev The address of the `Certifier` contract.\n    ICertifier public certifierContract;\n\n    /// @dev A boolean flag indicating whether the specified address is allowed\n    /// to initiate transactions of any type. Used by the `allowedTxTypes` getter.\n    /// See also the `addAllowedSender` and `removeAllowedSender` functions.\n    mapping(address => bool) public isSenderAllowed;\n\n    /// @dev The address of the `ValidatorSetAuRa` contract.\n    IValidatorSetAuRa public validatorSetContract;\n\n    mapping(address => uint256) internal _deployerInputLengthLimit;\n\n    /// @dev The min gas price allowed for a specified sender, in Wei.\n    /// Zero means default min gas price.\n    mapping(address => uint256) public senderMinGasPrice;\n\n    // ============================================== Constants =======================================================\n\n    /// @dev A constant that defines a regular block gas limit.\n    /// Used by the `blockGasLimit` public getter.\n    uint256 public constant BLOCK_GAS_LIMIT = 12500000;\n\n    /// @dev A constant that defines a reduced block gas limit.\n    /// Used by the `blockGasLimit` public getter.\n    uint256 public constant BLOCK_GAS_LIMIT_REDUCED = 4000000;\n\n    // ================================================ Events ========================================================\n\n    /// @dev Emitted by the `setDeployerInputLengthLimit` function.\n    /// @param deployer The address of a contract deployer.\n    /// @param limit The maximum number of bytes in `input` field of deployment transaction.\n    event DeployerInputLengthLimitSet(address indexed deployer, uint256 limit);\n\n    /// @dev Emitted by the `setSenderMinGasPrice` function.\n    /// @param sender The address of transaction sender.\n    /// @param minGasPrice The min gas price in Wei. Zero to reset to default min gas price.\n    event SenderMinGasPriceSet(address indexed sender, uint256 minGasPrice);\n\n    // ============================================== Modifiers =======================================================\n\n    /// @dev Ensures the `initialize` function was called before.\n    modifier onlyInitialized {\n        require(isInitialized());\n        _;\n    }\n\n    // =============================================== Setters ========================================================\n\n    /// @dev Initializes the contract at network startup.\n    /// Can only be called by the constructor of the `InitializerAuRa` contract or owner.\n    /// @param _allowed The addresses for which transactions of any type must be allowed.\n    /// See the `allowedTxTypes` getter.\n    /// @param _certifier The address of the `Certifier` contract. It is used by `allowedTxTypes` function to know\n    /// whether some address is explicitly allowed to use zero gas price.\n    /// @param _validatorSet The address of the `ValidatorSetAuRa` contract.\n    function initialize(\n        address[] calldata _allowed,\n        address _certifier,\n        address _validatorSet\n    ) external {\n        require(block.number == 0 || msg.sender == _admin());\n        require(!isInitialized());\n        require(_certifier != address(0));\n        require(_validatorSet != address(0));\n        for (uint256 i = 0; i < _allowed.length; i++) {\n            _addAllowedSender(_allowed[i]);\n        }\n        certifierContract = ICertifier(_certifier);\n        validatorSetContract = IValidatorSetAuRa(_validatorSet);\n    }\n\n    /// @dev Adds the address for which transactions of any type must be allowed.\n    /// Can only be called by the `owner`. See also the `allowedTxTypes` getter.\n    /// @param _sender The address for which transactions of any type must be allowed.\n    function addAllowedSender(address _sender) public onlyOwner onlyInitialized {\n        _addAllowedSender(_sender);\n    }\n\n    /// @dev Removes the specified address from the array of addresses allowed\n    /// to initiate transactions of any type. Can only be called by the `owner`.\n    /// See also the `addAllowedSender` function and `allowedSenders` getter.\n    /// @param _sender The removed address.\n    function removeAllowedSender(address _sender) public onlyOwner onlyInitialized {\n        require(isSenderAllowed[_sender]);\n\n        uint256 allowedSendersLength = _allowedSenders.length;\n\n        for (uint256 i = 0; i < allowedSendersLength; i++) {\n            if (_sender == _allowedSenders[i]) {\n                _allowedSenders[i] = _allowedSenders[allowedSendersLength - 1];\n                _allowedSenders.length--;\n                break;\n            }\n        }\n\n        isSenderAllowed[_sender] = false;\n    }\n\n    /// @dev Sets the limit of `input` transaction field length in bytes\n    /// for contract deployment transaction made by the specified deployer.\n    /// @param _deployer The address of a contract deployer.\n    /// @param _limit The maximum number of bytes in `input` field of deployment transaction.\n    /// Set it to zero to reset to default 24Kb limit defined by EIP 170.\n    function setDeployerInputLengthLimit(address _deployer, uint256 _limit) public onlyOwner onlyInitialized {\n        _deployerInputLengthLimit[_deployer] = _limit;\n        emit DeployerInputLengthLimitSet(_deployer, _limit);\n    }\n\n    /// @dev Sets the min gas price allowed for a specified sender.\n    /// @param _sender The address of transaction sender.\n    /// @param _minGasPrice The min gas price in Wei. Zero to reset to default min gas price.\n    function setSenderMinGasPrice(address _sender, uint256 _minGasPrice) public onlyOwner onlyInitialized {\n        senderMinGasPrice[_sender] = _minGasPrice;\n        emit SenderMinGasPriceSet(_sender, _minGasPrice);\n    }\n\n    // =============================================== Getters ========================================================\n\n    /// @dev Returns the contract's name recognizable by node's engine.\n    function contractName() public pure returns(string memory) {\n        return \"TX_PERMISSION_CONTRACT\";\n    }\n\n    /// @dev Returns the contract name hash needed for node's engine.\n    function contractNameHash() public pure returns(bytes32) {\n        return keccak256(abi.encodePacked(contractName()));\n    }\n\n    /// @dev Returns the contract's version number needed for node's engine.\n    function contractVersion() public pure returns(uint256) {\n        return 3;\n    }\n\n    /// @dev Returns the list of addresses allowed to initiate transactions of any type.\n    /// For these addresses the `allowedTxTypes` getter always returns the `ALL` bit mask\n    /// (see https://openethereum.github.io/Permissioning.html#how-it-works-1).\n    function allowedSenders() public view returns(address[] memory) {\n        return _allowedSenders;\n    }\n\n    /// @dev Defines the allowed transaction types which may be initiated by the specified sender with\n    /// the specified gas price and data. Used by node's engine each time a transaction is about to be\n    /// included into a block. See https://openethereum.github.io/Permissioning.html#how-it-works-1\n    /// @param _sender Transaction sender address.\n    /// @param _to Transaction recipient address. If creating a contract, the `_to` address is zero.\n    /// @param _value Transaction amount in wei.\n    /// @param _gasPrice Gas price in wei for the transaction.\n    /// @param _data Transaction data.\n    /// @return `uint32 typesMask` - Set of allowed transactions for `_sender` depending on tx `_to` address,\n    /// `_gasPrice`, and `_data`. The result is represented as a set of flags:\n    /// 0x01 - basic transaction (e.g. ether transferring to user wallet);\n    /// 0x02 - contract call;\n    /// 0x04 - contract creation;\n    /// 0x08 - private transaction.\n    /// `bool cache` - If `true` is returned, the same permissions will be applied from the same\n    /// `_sender` without calling this contract again.\n    function allowedTxTypes(\n        address _sender,\n        address _to,\n        uint256 _value,\n        uint256 _gasPrice,\n        bytes memory _data\n    )\n        public\n        view\n        returns(uint32 typesMask, bool cache)\n    {\n        if (isSenderAllowed[_sender]) {\n            // Let the `_sender` initiate any transaction if the `_sender` is in the `allowedSenders` list\n            return (ALL, false);\n        }\n\n        if (_to == address(0) && _data.length > deployerInputLengthLimit(_sender)) {\n            // Don't let to deploy too big contracts\n            return (NONE, false);\n        }\n\n        // Get the called function's signature\n        bytes4 signature = bytes4(0);\n        assembly {\n            signature := shl(224, mload(add(_data, 4)))\n        }\n\n        if (_to == validatorSetContract.randomContract()) {\n            if (signature == COMMIT_HASH_SIGNATURE && _data.length > 4+32) {\n                bytes32 numberHash;\n                assembly { numberHash := mload(add(_data, 36)) }\n                return (IRandomAuRa(_to).commitHashCallable(_sender, numberHash) ? CALL : NONE, false);\n            } else if (\n                (signature == REVEAL_NUMBER_SIGNATURE || signature == REVEAL_SECRET_SIGNATURE) &&\n                _data.length == 4+32\n            ) {\n                uint256 num;\n                assembly { num := mload(add(_data, 36)) }\n                return (IRandomAuRa(_to).revealNumberCallable(_sender, num) ? CALL : NONE, false);\n            } else {\n                return (NONE, false);\n            }\n        }\n\n        if (_to == address(validatorSetContract)) {\n            // The rules for the ValidatorSetAuRa contract\n            if (signature == EMIT_INITIATE_CHANGE_SIGNATURE) {\n                // The `emitInitiateChange()` can be called by anyone\n                // if `emitInitiateChangeCallable()` returns `true`\n                return (validatorSetContract.emitInitiateChangeCallable() ? CALL : NONE, false);\n            } else if (signature == REPORT_MALICIOUS_SIGNATURE && _data.length >= 4+64) {\n                address maliciousMiningAddress;\n                uint256 blockNumber;\n                assembly {\n                    maliciousMiningAddress := mload(add(_data, 36))\n                    blockNumber := mload(add(_data, 68))\n                }\n                // The `reportMalicious()` can only be called by the validator's mining address\n                // when the calling is allowed\n                (bool callable,) = validatorSetContract.reportMaliciousCallable(\n                    _sender, maliciousMiningAddress, blockNumber\n                );\n\n                return (callable ? CALL : NONE, false);\n            } else if (_gasPrice > 0) {\n                // The other functions of ValidatorSetAuRa contract can be called\n                // by anyone except validators' mining addresses if gasPrice is not zero\n                return (validatorSetContract.isValidator(_sender) ? NONE : CALL, false);\n            }\n        }\n\n        if (validatorSetContract.isValidator(_sender) && _gasPrice > 0) {\n            // Let the validator's mining address send their accumulated tx fees to some wallet\n            return (_sender.balance > 0 ? BASIC : NONE, false);\n        }\n\n        if (validatorSetContract.isValidator(_to)) {\n            // Validator's mining address can't receive any coins\n            return (NONE, false);\n        }\n\n        // Don't let the `_sender` use a zero gas price, if it is not explicitly allowed by the `Certifier` contract\n        if (_gasPrice == 0) {\n            return (certifierContract.certifiedExplicitly(_sender) ? ALL : NONE, false);\n        }\n\n        // Disallow invalid gas price for the specified sender\n        if (_gasPrice < senderMinGasPrice[_sender]) {\n            return (NONE, false);\n        }\n\n        // In other cases let the `_sender` create any transaction with non-zero gas price\n        return (ALL, false);\n    }\n\n    /// @dev Returns the current block gas limit which depends on the stage of the current\n    /// staking epoch: the block gas limit is temporarily reduced for the latest block of the epoch.\n    function blockGasLimit() public view returns(uint256) {\n        address stakingContract = validatorSetContract.stakingContract();\n        uint256 stakingEpochEndBlock = IStakingAuRa(stakingContract).stakingEpochEndBlock();\n        if (block.number == stakingEpochEndBlock - 1 || block.number == stakingEpochEndBlock) {\n            return BLOCK_GAS_LIMIT_REDUCED;\n        }\n        return BLOCK_GAS_LIMIT;\n    }\n\n    /// @dev Returns the limit of `input` transaction field length in bytes\n    /// for contract deployment transaction made by the specified deployer.\n    /// @param _deployer The address of a contract deployer.\n    function deployerInputLengthLimit(address _deployer) public view returns(uint256) {\n        uint256 limit = _deployerInputLengthLimit[_deployer];\n\n        if (limit != 0) {\n            return limit;\n        } else {\n            return 30720; // default EIP 170 limit (24 Kb + overhead)\n        }\n    }\n\n    /// @dev Returns a boolean flag indicating if the `initialize` function has been called.\n    function isInitialized() public view returns(bool) {\n        return validatorSetContract != IValidatorSetAuRa(0);\n    }\n\n    // ============================================== Internal ========================================================\n\n    // Allowed transaction types mask\n    uint32 internal constant NONE = 0;\n    uint32 internal constant ALL = 0xffffffff;\n    uint32 internal constant BASIC = 0x01;\n    uint32 internal constant CALL = 0x02;\n    uint32 internal constant CREATE = 0x04;\n    uint32 internal constant PRIVATE = 0x08;\n\n    // Function signatures\n\n    // bytes4(keccak256(\"commitHash(bytes32,bytes)\"))\n    bytes4 internal constant COMMIT_HASH_SIGNATURE = 0x0b61ba85; \n\n    // bytes4(keccak256(\"emitInitiateChange()\"))\n    bytes4 internal constant EMIT_INITIATE_CHANGE_SIGNATURE = 0x93b4e25e;\n\n    // bytes4(keccak256(\"reportMalicious(address,uint256,bytes)\"))\n    bytes4 internal constant REPORT_MALICIOUS_SIGNATURE = 0xc476dd40;\n\n    // bytes4(keccak256(\"revealSecret(uint256)\"))\n    bytes4 internal constant REVEAL_SECRET_SIGNATURE = 0x98df67c6;\n\n    // bytes4(keccak256(\"revealNumber(uint256)\"))\n    bytes4 internal constant REVEAL_NUMBER_SIGNATURE = 0xfe7d567d;\n\n    /// @dev An internal function used by the `addAllowedSender` and `initialize` functions.\n    /// @param _sender The address for which transactions of any type must be allowed.\n    function _addAllowedSender(address _sender) internal {\n        require(!isSenderAllowed[_sender]);\n        require(_sender != address(0));\n        _allowedSenders.push(_sender);\n        isSenderAllowed[_sender] = true;\n    }\n}\n",
  "sourcePath": "/Users/akshaypatil/Documents/etherlite/pos-contracts/posdao-etherlite/contracts/TxPermission.sol",
  "compiler": {
    "name": "solc",
    "version": "0.5.10+commit.5a6ea5b1.Emscripten.clang"
  },
  "schemaVersion": "3.3.1",
  "updatedAt": "2021-04-11T17:55:35.935Z",
  "devdoc": {
    "details": "Controls the use of zero gas price by validators in service transactions, protecting the network against \"transaction spamming\" by malicious validators. The protection logic is declared in the `allowedTxTypes` function.",
    "methods": {
      "addAllowedSender(address)": {
        "details": "Adds the address for which transactions of any type must be allowed. Can only be called by the `owner`. See also the `allowedTxTypes` getter.",
        "params": {
          "_sender": "The address for which transactions of any type must be allowed."
        }
      },
      "allowedSenders()": {
        "details": "Returns the list of addresses allowed to initiate transactions of any type. For these addresses the `allowedTxTypes` getter always returns the `ALL` bit mask (see https://openethereum.github.io/Permissioning.html#how-it-works-1)."
      },
      "allowedTxTypes(address,address,uint256,uint256,bytes)": {
        "details": "Defines the allowed transaction types which may be initiated by the specified sender with the specified gas price and data. Used by node's engine each time a transaction is about to be included into a block. See https://openethereum.github.io/Permissioning.html#how-it-works-1",
        "params": {
          "_data": "Transaction data.",
          "_gasPrice": "Gas price in wei for the transaction.",
          "_sender": "Transaction sender address.",
          "_to": "Transaction recipient address. If creating a contract, the `_to` address is zero.",
          "_value": "Transaction amount in wei."
        },
        "return": "`uint32 typesMask` - Set of allowed transactions for `_sender` depending on tx `_to` address, `_gasPrice`, and `_data`. The result is represented as a set of flags: 0x01 - basic transaction (e.g. ether transferring to user wallet); 0x02 - contract call; 0x04 - contract creation; 0x08 - private transaction. `bool cache` - If `true` is returned, the same permissions will be applied from the same `_sender` without calling this contract again."
      },
      "blockGasLimit()": {
        "details": "Returns the current block gas limit which depends on the stage of the current staking epoch: the block gas limit is temporarily reduced for the latest block of the epoch."
      },
      "contractName()": {
        "details": "Returns the contract's name recognizable by node's engine."
      },
      "contractNameHash()": {
        "details": "Returns the contract name hash needed for node's engine."
      },
      "contractVersion()": {
        "details": "Returns the contract's version number needed for node's engine."
      },
      "deployerInputLengthLimit(address)": {
        "details": "Returns the limit of `input` transaction field length in bytes for contract deployment transaction made by the specified deployer.",
        "params": {
          "_deployer": "The address of a contract deployer."
        }
      },
      "initialize(address[],address,address)": {
        "details": "Initializes the contract at network startup. Can only be called by the constructor of the `InitializerAuRa` contract or owner.",
        "params": {
          "_allowed": "The addresses for which transactions of any type must be allowed. See the `allowedTxTypes` getter.",
          "_certifier": "The address of the `Certifier` contract. It is used by `allowedTxTypes` function to know whether some address is explicitly allowed to use zero gas price.",
          "_validatorSet": "The address of the `ValidatorSetAuRa` contract."
        }
      },
      "isInitialized()": {
        "details": "Returns a boolean flag indicating if the `initialize` function has been called."
      },
      "removeAllowedSender(address)": {
        "details": "Removes the specified address from the array of addresses allowed to initiate transactions of any type. Can only be called by the `owner`. See also the `addAllowedSender` function and `allowedSenders` getter.",
        "params": {
          "_sender": "The removed address."
        }
      },
      "setDeployerInputLengthLimit(address,uint256)": {
        "details": "Sets the limit of `input` transaction field length in bytes for contract deployment transaction made by the specified deployer.",
        "params": {
          "_deployer": "The address of a contract deployer.",
          "_limit": "The maximum number of bytes in `input` field of deployment transaction. Set it to zero to reset to default 24Kb limit defined by EIP 170."
        }
      },
      "setSenderMinGasPrice(address,uint256)": {
        "details": "Sets the min gas price allowed for a specified sender.",
        "params": {
          "_minGasPrice": "The min gas price in Wei. Zero to reset to default min gas price.",
          "_sender": "The address of transaction sender."
        }
      }
    }
  },
  "userdoc": {
    "methods": {}
  }
}