{
  "contractName": "TxPriority",
  "abi": [
    {
      "constant": true,
      "inputs": [],
      "name": "weightsCount",
      "outputs": [
        {
          "name": "",
          "type": "uint256"
        }
      ],
      "payable": false,
      "stateMutability": "view",
      "type": "function"
    },
    {
      "constant": true,
      "inputs": [],
      "name": "owner",
      "outputs": [
        {
          "name": "",
          "type": "address"
        }
      ],
      "payable": false,
      "stateMutability": "view",
      "type": "function"
    },
    {
      "constant": true,
      "inputs": [
        {
          "name": "",
          "type": "uint256"
        }
      ],
      "name": "destinationByWeight",
      "outputs": [
        {
          "name": "target",
          "type": "address"
        },
        {
          "name": "fnSignature",
          "type": "bytes4"
        },
        {
          "name": "value",
          "type": "uint256"
        }
      ],
      "payable": false,
      "stateMutability": "view",
      "type": "function"
    },
    {
      "constant": true,
      "inputs": [
        {
          "name": "",
          "type": "address"
        },
        {
          "name": "",
          "type": "bytes4"
        }
      ],
      "name": "weightByDestination",
      "outputs": [
        {
          "name": "",
          "type": "uint256"
        }
      ],
      "payable": false,
      "stateMutability": "view",
      "type": "function"
    },
    {
      "inputs": [
        {
          "name": "_owner",
          "type": "address"
        }
      ],
      "payable": false,
      "stateMutability": "nonpayable",
      "type": "constructor"
    },
    {
      "anonymous": false,
      "inputs": [
        {
          "indexed": true,
          "name": "target",
          "type": "address"
        },
        {
          "indexed": true,
          "name": "fnSignature",
          "type": "bytes4"
        },
        {
          "indexed": false,
          "name": "weight",
          "type": "uint256"
        }
      ],
      "name": "PrioritySet",
      "type": "event"
    },
    {
      "anonymous": false,
      "inputs": [
        {
          "indexed": false,
          "name": "whitelist",
          "type": "address[]"
        }
      ],
      "name": "SendersWhitelistSet",
      "type": "event"
    },
    {
      "anonymous": false,
      "inputs": [
        {
          "indexed": true,
          "name": "target",
          "type": "address"
        },
        {
          "indexed": true,
          "name": "fnSignature",
          "type": "bytes4"
        },
        {
          "indexed": false,
          "name": "minGasPrice",
          "type": "uint256"
        }
      ],
      "name": "MinGasPriceSet",
      "type": "event"
    },
    {
      "anonymous": false,
      "inputs": [
        {
          "indexed": true,
          "name": "previousOwner",
          "type": "address"
        },
        {
          "indexed": true,
          "name": "newOwner",
          "type": "address"
        }
      ],
      "name": "OwnershipTransferred",
      "type": "event"
    },
    {
      "constant": false,
      "inputs": [
        {
          "name": "_newOwner",
          "type": "address"
        }
      ],
      "name": "transferOwnership",
      "outputs": [],
      "payable": false,
      "stateMutability": "nonpayable",
      "type": "function"
    },
    {
      "constant": false,
      "inputs": [
        {
          "name": "_target",
          "type": "address"
        },
        {
          "name": "_fnSignature",
          "type": "bytes4"
        },
        {
          "name": "_weight",
          "type": "uint256"
        }
      ],
      "name": "setPriority",
      "outputs": [],
      "payable": false,
      "stateMutability": "nonpayable",
      "type": "function"
    },
    {
      "constant": false,
      "inputs": [
        {
          "name": "_target",
          "type": "address"
        },
        {
          "name": "_fnSignature",
          "type": "bytes4"
        }
      ],
      "name": "removePriority",
      "outputs": [],
      "payable": false,
      "stateMutability": "nonpayable",
      "type": "function"
    },
    {
      "constant": false,
      "inputs": [
        {
          "name": "_whitelist",
          "type": "address[]"
        }
      ],
      "name": "setSendersWhitelist",
      "outputs": [],
      "payable": false,
      "stateMutability": "nonpayable",
      "type": "function"
    },
    {
      "constant": false,
      "inputs": [
        {
          "name": "_target",
          "type": "address"
        },
        {
          "name": "_fnSignature",
          "type": "bytes4"
        },
        {
          "name": "_minGasPrice",
          "type": "uint256"
        }
      ],
      "name": "setMinGasPrice",
      "outputs": [],
      "payable": false,
      "stateMutability": "nonpayable",
      "type": "function"
    },
    {
      "constant": false,
      "inputs": [
        {
          "name": "_target",
          "type": "address"
        },
        {
          "name": "_fnSignature",
          "type": "bytes4"
        }
      ],
      "name": "removeMinGasPrice",
      "outputs": [],
      "payable": false,
      "stateMutability": "nonpayable",
      "type": "function"
    },
    {
      "constant": true,
      "inputs": [],
      "name": "getPriorities",
      "outputs": [
        {
          "components": [
            {
              "name": "target",
              "type": "address"
            },
            {
              "name": "fnSignature",
              "type": "bytes4"
            },
            {
              "name": "value",
              "type": "uint256"
            }
          ],
          "name": "weights",
          "type": "tuple[]"
        }
      ],
      "payable": false,
      "stateMutability": "view",
      "type": "function"
    },
    {
      "constant": true,
      "inputs": [],
      "name": "getSendersWhitelist",
      "outputs": [
        {
          "name": "whitelist",
          "type": "address[]"
        }
      ],
      "payable": false,
      "stateMutability": "view",
      "type": "function"
    },
    {
      "constant": true,
      "inputs": [],
      "name": "getMinGasPrices",
      "outputs": [
        {
          "components": [
            {
              "name": "target",
              "type": "address"
            },
            {
              "name": "fnSignature",
              "type": "bytes4"
            },
            {
              "name": "value",
              "type": "uint256"
            }
          ],
          "name": "prices",
          "type": "tuple[]"
        }
      ],
      "payable": false,
      "stateMutability": "view",
      "type": "function"
    }
  ],
  "bytecode": "0x60806040523480156200001157600080fd5b5060405162003f4938038062003f49833981810160405262000037919081019062000166565b600073ffffffffffffffffffffffffffffffffffffffff168173ffffffffffffffffffffffffffffffffffffffff16141562000071573390505b600073ffffffffffffffffffffffffffffffffffffffff168173ffffffffffffffffffffffffffffffffffffffff161415620000ac57600080fd5b80600860006101000a81548173ffffffffffffffffffffffffffffffffffffffff021916908373ffffffffffffffffffffffffffffffffffffffff1602179055508073ffffffffffffffffffffffffffffffffffffffff16600073ffffffffffffffffffffffffffffffffffffffff167f8be0079c531659141344cd1fd0a4f28419497f9722a3daafe3b4186f6b6457e060405160405180910390a350620001e0565b6000815190506200016081620001c6565b92915050565b6000602082840312156200017957600080fd5b600062000189848285016200014f565b91505092915050565b60006200019f82620001a6565b9050919050565b600073ffffffffffffffffffffffffffffffffffffffff82169050919050565b620001d18162000192565b8114620001dd57600080fd5b50565b613d5980620001f06000396000f3fe608060405234801561001057600080fd5b50600436106100cf5760003560e01c80638da5cb5b1161008c578063a5b62cb311610066578063a5b62cb3146101da578063d13a2653146101f6578063f2fde38b14610228578063f53c7e2f14610244576100cf565b80638da5cb5b14610182578063a0daeed2146101a0578063a2bf0af5146101be576100cf565b80630af28392146100d4578063338cd6bd146100f0578063399b6f3e1461010e578063662520bd1461012c5780637d616fd314610148578063879cda7314610166575b600080fd5b6100ee60048036036100e99190810190613565565b610274565b005b6100f861076b565b6040516101059190613a4c565b60405180910390f35b6101166107f9565b6040516101239190613b8b565b60405180910390f35b61014660048036036101419190810190613529565b6107ff565b005b610150610af8565b60405161015d9190613a6e565b60405180910390f35b610180600480360361017b9190810190613529565b610c0c565b005b61018a6111a0565b60405161019791906139d6565b60405180910390f35b6101a86111c6565b6040516101b59190613a6e565b60405180910390f35b6101d860048036036101d391908101906135b4565b611341565b005b6101f460048036036101ef9190810190613565565b611420565b005b610210600480360361020b91908101906135f9565b611904565b60405161021f939291906139f1565b60405180910390f35b610242600480360361023d9190810190613500565b61195b565b005b61025e60048036036102599190810190613529565b611b1b565b60405161026b9190613b8b565b60405180910390f35b3373ffffffffffffffffffffffffffffffffffffffff16600860009054906101000a900473ffffffffffffffffffffffffffffffffffffffff1673ffffffffffffffffffffffffffffffffffffffff1614610304576040517f08c379a00000000000000000000000000000000000000000000000000000000081526004016102fb90613b0b565b60405180910390fd5b600073ffffffffffffffffffffffffffffffffffffffff168373ffffffffffffffffffffffffffffffffffffffff161415610374576040517f08c379a000000000000000000000000000000000000000000000000000000000815260040161036b90613b4b565b60405180910390fd5b60008114156103b8576040517f08c379a00000000000000000000000000000000000000000000000000000000081526004016103af90613b6b565b60405180910390fd5b6000600460008573ffffffffffffffffffffffffffffffffffffffff1673ffffffffffffffffffffffffffffffffffffffff1681526020019081526020016000206000847bffffffffffffffffffffffffffffffffffffffffffffffffffffffff19167bffffffffffffffffffffffffffffffffffffffffffffffffffffffff19168152602001908152602001600020549050806003805490501180156104c857508373ffffffffffffffffffffffffffffffffffffffff166003828154811061047e57fe5b906000526020600020906002020160000160009054906101000a900473ffffffffffffffffffffffffffffffffffffffff1673ffffffffffffffffffffffffffffffffffffffff16145b801561053c5750827bffffffffffffffffffffffffffffffffffffffffffffffffffffffff1916600382815481106104fc57fe5b906000526020600020906002020160000160149054906101000a900460e01b7bffffffffffffffffffffffffffffffffffffffffffffffffffffffff1916145b1561056957816003828154811061054f57fe5b9060005260206000209060020201600101819055506106f7565b600380549050600460008673ffffffffffffffffffffffffffffffffffffffff1673ffffffffffffffffffffffffffffffffffffffff1681526020019081526020016000206000857bffffffffffffffffffffffffffffffffffffffffffffffffffffffff19167bffffffffffffffffffffffffffffffffffffffffffffffffffffffff1916815260200190815260200160002081905550600360405180606001604052808673ffffffffffffffffffffffffffffffffffffffff168152602001857bffffffffffffffffffffffffffffffffffffffffffffffffffffffff19168152602001848152509080600181540180825580915050906001820390600052602060002090600202016000909192909190915060008201518160000160006101000a81548173ffffffffffffffffffffffffffffffffffffffff021916908373ffffffffffffffffffffffffffffffffffffffff16021790555060208201518160000160146101000a81548163ffffffff021916908360e01c0217905550604082015181600101555050505b827bffffffffffffffffffffffffffffffffffffffffffffffffffffffff19168473ffffffffffffffffffffffffffffffffffffffff167f7c3ecffa528bfccc8dd5c2454093da1c08757c960b1e5425afb9cb3b184390288460405161075d9190613b8b565b60405180910390a350505050565b606060028054806020026020016040519081016040528092919081815260200182805480156107ef57602002820191906000526020600020905b8160009054906101000a900473ffffffffffffffffffffffffffffffffffffffff1673ffffffffffffffffffffffffffffffffffffffff16815260200190600101908083116107a5575b5050505050905090565b60055481565b3373ffffffffffffffffffffffffffffffffffffffff16600860009054906101000a900473ffffffffffffffffffffffffffffffffffffffff1673ffffffffffffffffffffffffffffffffffffffff161461088f576040517f08c379a000000000000000000000000000000000000000000000000000000000815260040161088690613b0b565b60405180910390fd5b6000600760008473ffffffffffffffffffffffffffffffffffffffff1673ffffffffffffffffffffffffffffffffffffffff1681526020019081526020016000206000837bffffffffffffffffffffffffffffffffffffffffffffffffffffffff19167bffffffffffffffffffffffffffffffffffffffffffffffffffffffff191681526020019081526020016000205490506000811415610966576040517f08c379a000000000000000000000000000000000000000000000000000000000815260040161095d90613aab565b60405180910390fd5b61097a816000611b4090919063ffffffff16565b600760008473ffffffffffffffffffffffffffffffffffffffff1673ffffffffffffffffffffffffffffffffffffffff1681526020019081526020016000206000837bffffffffffffffffffffffffffffffffffffffffffffffffffffffff19167bffffffffffffffffffffffffffffffffffffffffffffffffffffffff191681526020019081526020016000206000905560066000828152602001908152602001600020600080820160006101000a81549073ffffffffffffffffffffffffffffffffffffffff02191690556000820160146101000a81549063ffffffff021916905560018201600090555050610a7e6001600554611ee890919063ffffffff16565b600581905550817bffffffffffffffffffffffffffffffffffffffffffffffffffffffff19168373ffffffffffffffffffffffffffffffffffffffff167f896fc6a8eb054c92d480f4d32ec773e5ebe77109ad3b179f3e97ac78cf3e7cb76000604051610aeb9190613a90565b60405180910390a3505050565b60606003805480602002602001604051908101604052809291908181526020016000905b82821015610c0357838290600052602060002090600202016040518060600160405290816000820160009054906101000a900473ffffffffffffffffffffffffffffffffffffffff1673ffffffffffffffffffffffffffffffffffffffff1673ffffffffffffffffffffffffffffffffffffffff1681526020016000820160149054906101000a900460e01b7bffffffffffffffffffffffffffffffffffffffffffffffffffffffff19167bffffffffffffffffffffffffffffffffffffffffffffffffffffffff1916815260200160018201548152505081526020019060010190610b1c565b50505050905090565b3373ffffffffffffffffffffffffffffffffffffffff16600860009054906101000a900473ffffffffffffffffffffffffffffffffffffffff1673ffffffffffffffffffffffffffffffffffffffff1614610c9c576040517f08c379a0000000000000000000000000000000000000000000000000000000008152600401610c9390613b0b565b60405180910390fd5b6000600460008473ffffffffffffffffffffffffffffffffffffffff1673ffffffffffffffffffffffffffffffffffffffff1681526020019081526020016000206000837bffffffffffffffffffffffffffffffffffffffffffffffffffffffff19167bffffffffffffffffffffffffffffffffffffffffffffffffffffffff1916815260200190815260200160002054905080600380549050118015610dac57508273ffffffffffffffffffffffffffffffffffffffff1660038281548110610d6257fe5b906000526020600020906002020160000160009054906101000a900473ffffffffffffffffffffffffffffffffffffffff1673ffffffffffffffffffffffffffffffffffffffff16145b8015610e205750817bffffffffffffffffffffffffffffffffffffffffffffffffffffffff191660038281548110610de057fe5b906000526020600020906002020160000160149054906101000a900460e01b7bffffffffffffffffffffffffffffffffffffffffffffffffffffffff1916145b1561116057610e2d613251565b600360016003805490500381548110610e4257fe5b90600052602060002090600202016040518060600160405290816000820160009054906101000a900473ffffffffffffffffffffffffffffffffffffffff1673ffffffffffffffffffffffffffffffffffffffff1673ffffffffffffffffffffffffffffffffffffffff1681526020016000820160149054906101000a900460e01b7bffffffffffffffffffffffffffffffffffffffffffffffffffffffff19167bffffffffffffffffffffffffffffffffffffffffffffffffffffffff1916815260200160018201548152505090508060038381548110610f2057fe5b906000526020600020906002020160008201518160000160006101000a81548173ffffffffffffffffffffffffffffffffffffffff021916908373ffffffffffffffffffffffffffffffffffffffff16021790555060208201518160000160146101000a81548163ffffffff021916908360e01c0217905550604082015181600101559050508160046000836000015173ffffffffffffffffffffffffffffffffffffffff1673ffffffffffffffffffffffffffffffffffffffff168152602001908152602001600020600083602001517bffffffffffffffffffffffffffffffffffffffffffffffffffffffff19167bffffffffffffffffffffffffffffffffffffffffffffffffffffffff19168152602001908152602001600020819055506000600460008673ffffffffffffffffffffffffffffffffffffffff1673ffffffffffffffffffffffffffffffffffffffff1681526020019081526020016000206000857bffffffffffffffffffffffffffffffffffffffffffffffffffffffff19167bffffffffffffffffffffffffffffffffffffffffffffffffffffffff191681526020019081526020016000208190555060038054809190600190036110ea91906132a7565b50827bffffffffffffffffffffffffffffffffffffffffffffffffffffffff19168473ffffffffffffffffffffffffffffffffffffffff167f7c3ecffa528bfccc8dd5c2454093da1c08757c960b1e5425afb9cb3b1843902860006040516111529190613a90565b60405180910390a35061119b565b6040517f08c379a000000000000000000000000000000000000000000000000000000000815260040161119290613b2b565b60405180910390fd5b505050565b600860009054906101000a900473ffffffffffffffffffffffffffffffffffffffff1681565b606060055460405190808252806020026020018201604052801561120457816020015b6111f16132d9565b8152602001906001900390816111e95790505b50905060006112136000611f02565b905060008090505b6000821461133c57600554811061123157600080fd5b600660008381526020019081526020016000206040518060600160405290816000820160009054906101000a900473ffffffffffffffffffffffffffffffffffffffff1673ffffffffffffffffffffffffffffffffffffffff1673ffffffffffffffffffffffffffffffffffffffff1681526020016000820160149054906101000a900460e01b7bffffffffffffffffffffffffffffffffffffffffffffffffffffffff19167bffffffffffffffffffffffffffffffffffffffffffffffffffffffff1916815260200160018201548152505083828060010193508151811061131657fe5b6020026020010181905250611335826000611f5a90919063ffffffff16565b915061121b565b505090565b3373ffffffffffffffffffffffffffffffffffffffff16600860009054906101000a900473ffffffffffffffffffffffffffffffffffffffff1673ffffffffffffffffffffffffffffffffffffffff16146113d1576040517f08c379a00000000000000000000000000000000000000000000000000000000081526004016113c890613b0b565b60405180910390fd5b8181600291906113e292919061332f565b507ff3a1b17f96de235ad0ae63327b65739025bc92dd4bc161c9d8b661cb449ec62d8282604051611414929190613a28565b60405180910390a15050565b3373ffffffffffffffffffffffffffffffffffffffff16600860009054906101000a900473ffffffffffffffffffffffffffffffffffffffff1673ffffffffffffffffffffffffffffffffffffffff16146114b0576040517f08c379a00000000000000000000000000000000000000000000000000000000081526004016114a790613b0b565b60405180910390fd5b600073ffffffffffffffffffffffffffffffffffffffff168373ffffffffffffffffffffffffffffffffffffffff161415611520576040517f08c379a000000000000000000000000000000000000000000000000000000000815260040161151790613b4b565b60405180910390fd5b6000811415611564576040517f08c379a000000000000000000000000000000000000000000000000000000000815260040161155b90613acb565b60405180910390fd5b6000600760008573ffffffffffffffffffffffffffffffffffffffff1673ffffffffffffffffffffffffffffffffffffffff1681526020019081526020016000206000847bffffffffffffffffffffffffffffffffffffffffffffffffffffffff19167bffffffffffffffffffffffffffffffffffffffffffffffffffffffff19168152602001908152602001600020549050600081146116f0578181141561167b57827bffffffffffffffffffffffffffffffffffffffffffffffffffffffff19168473ffffffffffffffffffffffffffffffffffffffff167f896fc6a8eb054c92d480f4d32ec773e5ebe77109ad3b179f3e97ac78cf3e7cb78460405161166d9190613b8b565b60405180910390a3506118ff565b61168f816000611b4090919063ffffffff16565b60066000828152602001908152602001600020600080820160006101000a81549073ffffffffffffffffffffffffffffffffffffffff02191690556000820160146101000a81549063ffffffff02191690556001820160009055505061170d565b611706600160055461202590919063ffffffff16565b6005819055505b61172182600061204490919063ffffffff16565b60405180606001604052808573ffffffffffffffffffffffffffffffffffffffff168152602001847bffffffffffffffffffffffffffffffffffffffffffffffffffffffff19168152602001838152506006600084815260200190815260200160002060008201518160000160006101000a81548173ffffffffffffffffffffffffffffffffffffffff021916908373ffffffffffffffffffffffffffffffffffffffff16021790555060208201518160000160146101000a81548163ffffffff021916908360e01c02179055506040820151816001015590505081600760008673ffffffffffffffffffffffffffffffffffffffff1673ffffffffffffffffffffffffffffffffffffffff1681526020019081526020016000206000857bffffffffffffffffffffffffffffffffffffffffffffffffffffffff19167bffffffffffffffffffffffffffffffffffffffffffffffffffffffff1916815260200190815260200160002081905550827bffffffffffffffffffffffffffffffffffffffffffffffffffffffff19168473ffffffffffffffffffffffffffffffffffffffff167f896fc6a8eb054c92d480f4d32ec773e5ebe77109ad3b179f3e97ac78cf3e7cb7846040516118f59190613b8b565b60405180910390a3505b505050565b60066020528060005260406000206000915090508060000160009054906101000a900473ffffffffffffffffffffffffffffffffffffffff16908060000160149054906101000a900460e01b908060010154905083565b3373ffffffffffffffffffffffffffffffffffffffff16600860009054906101000a900473ffffffffffffffffffffffffffffffffffffffff1673ffffffffffffffffffffffffffffffffffffffff16146119eb576040517f08c379a00000000000000000000000000000000000000000000000000000000081526004016119e290613b0b565b60405180910390fd5b600073ffffffffffffffffffffffffffffffffffffffff168173ffffffffffffffffffffffffffffffffffffffff161415611a5b576040517f08c379a0000000000000000000000000000000000000000000000000000000008152600401611a5290613aeb565b60405180910390fd5b8073ffffffffffffffffffffffffffffffffffffffff16600860009054906101000a900473ffffffffffffffffffffffffffffffffffffffff1673ffffffffffffffffffffffffffffffffffffffff167f8be0079c531659141344cd1fd0a4f28419497f9722a3daafe3b4186f6b6457e060405160405180910390a380600860006101000a81548173ffffffffffffffffffffffffffffffffffffffff021916908373ffffffffffffffffffffffffffffffffffffffff16021790555050565b6007602052816000526040600020602052806000526040600020600091509150505481565b6000811415611b4e57600080fd5b611b5882826121b5565b611b6157600080fd5b6000806000846001016000858152602001908152602001600020600101541480611ba35750600084600101600085815260200190815260200160002060020154145b15611bb057829050611c0d565b8360010160008481526020019081526020016000206002015490505b60008460010160008381526020019081526020016000206001015414611c0c57836001016000828152602001908152602001600020600101549050611bcc565b5b60008460010160008381526020019081526020016000206001015414611c4d57836001016000828152602001908152602001600020600101549150611c69565b8360010160008281526020019081526020016000206002015491505b6000846001016000838152602001908152602001600020600001549050808560010160008581526020019081526020016000206000018190555060008114611d105784600101600082815260200190815260200160002060010154821415611ced578285600101600083815260200190815260200160002060010181905550611d0b565b82856001016000838152602001908152602001600020600201819055505b611d1a565b8285600001819055505b600085600101600084815260200190815260200160002060030160009054906101000a900460ff16159050848314611e8b57611d578684876121f6565b856001016000868152602001908152602001600020600101548660010160008581526020019081526020016000206001018190555082866001016000886001016000878152602001908152602001600020600101548152602001908152602001600020600001819055508560010160008681526020019081526020016000206002015486600101600085815260200190815260200160002060020181905550828660010160008860010160008781526020019081526020016000206002015481526020019081526020016000206000018190555085600101600086815260200190815260200160002060030160009054906101000a900460ff1686600101600085815260200190815260200160002060030160006101000a81548160ff021916908315150217905550848380965081945050505b8015611e9c57611e9b86856122ae565b5b856001016000848152602001908152602001600020600080820160009055600182016000905560028201600090556003820160006101000a81549060ff02191690555050505050505050565b600082821115611ef757600080fd5b818303905092915050565b60008160000154905060008114611f55575b60008260010160008381526020019081526020016000206002015414611f5457816001016000828152602001908152602001600020600201549050611f14565b5b919050565b600080821415611f6957600080fd5b60008360010160008481526020019081526020016000206001015414611fb257611fab8384600101600085815260200190815260200160002060010154612a16565b905061201f565b8260010160008381526020019081526020016000206000015490505b60008114158015611ff657508260010160008281526020019081526020016000206001015482145b1561201e57809150826001016000828152602001908152602001600020600001549050611fce565b5b92915050565b60008082840190508381101561203a57600080fd5b8091505092915050565b600081141561205257600080fd5b61205c82826121b5565b1561206657600080fd5b60008090506000836000015490505b600081146120c957809150808310156120a8578360010160008281526020019081526020016000206001015490506120c4565b8360010160008281526020019081526020016000206002015490505b612075565b604051806080016040528083815260200160008152602001600081526020016001151581525084600101600085815260200190815260200160002060008201518160000155602082015181600101556040820151816002015560608201518160030160006101000a81548160ff021916908315150217905550905050600082141561215c578284600001819055506121a5565b818310156121865782846001016000848152602001908152602001600020600101819055506121a4565b82846001016000848152602001908152602001600020600201819055505b5b6121af8484612a62565b50505050565b60008082141580156121ee575082600001548214806121ed575060008360010160008481526020019081526020016000206000015414155b5b905092915050565b600083600101600083815260200190815260200160002060000154905080846001016000858152602001908152602001600020600001819055506000811415612247578284600001819055506122a8565b836001016000828152602001908152602001600020600101548214156122895782846001016000838152602001908152602001600020600101819055506122a7565b82846001016000838152602001908152602001600020600201819055505b5b50505050565b60005b826000015482141580156122e8575082600101600083815260200190815260200160002060030160009054906101000a900460ff16155b156129e0576000836001016000848152602001908152602001600020600001549050836001016000828152602001908152602001600020600101548314156126845783600101600082815260200190815260200160002060020154915083600101600083815260200190815260200160002060030160009054906101000a900460ff16156123f857600084600101600084815260200190815260200160002060030160006101000a81548160ff021916908315150217905550600184600101600083815260200190815260200160002060030160006101000a81548160ff0219169083151502179055506123dc8482612f71565b8360010160008281526020019081526020016000206002015491505b83600101600085600101600085815260200190815260200160002060010154815260200190815260200160002060030160009054906101000a900460ff1615801561247e575083600101600085600101600085815260200190815260200160002060020154815260200190815260200160002060030160009054906101000a900460ff16155b156124bc57600184600101600084815260200190815260200160002060030160006101000a81548160ff02191690831515021790555080925061267f565b83600101600085600101600085815260200190815260200160002060020154815260200190815260200160002060030160009054906101000a900460ff1661259e57600084600101600086600101600086815260200190815260200160002060010154815260200190815260200160002060030160006101000a81548160ff021916908315150217905550600184600101600084815260200190815260200160002060030160006101000a81548160ff02191690831515021790555061258284836130e1565b8360010160008281526020019081526020016000206002015491505b83600101600082815260200190815260200160002060030160009054906101000a900460ff1684600101600084815260200190815260200160002060030160006101000a81548160ff021916908315150217905550600084600101600083815260200190815260200160002060030160006101000a81548160ff021916908315150217905550600084600101600086600101600086815260200190815260200160002060020154815260200190815260200160002060030160006101000a81548160ff0219169083151502179055506126778482612f71565b836000015492505b6129da565b83600101600082815260200190815260200160002060010154915083600101600083815260200190815260200160002060030160009054906101000a900460ff161561275257600084600101600084815260200190815260200160002060030160006101000a81548160ff021916908315150217905550600184600101600083815260200190815260200160002060030160006101000a81548160ff02191690831515021790555061273684826130e1565b8360010160008281526020019081526020016000206001015491505b83600101600085600101600085815260200190815260200160002060020154815260200190815260200160002060030160009054906101000a900460ff161580156127d8575083600101600085600101600085815260200190815260200160002060010154815260200190815260200160002060030160009054906101000a900460ff16155b1561281657600184600101600084815260200190815260200160002060030160006101000a81548160ff0219169083151502179055508092506129d9565b83600101600085600101600085815260200190815260200160002060010154815260200190815260200160002060030160009054906101000a900460ff166128f857600084600101600086600101600086815260200190815260200160002060020154815260200190815260200160002060030160006101000a81548160ff021916908315150217905550600184600101600084815260200190815260200160002060030160006101000a81548160ff0219169083151502179055506128dc8483612f71565b8360010160008281526020019081526020016000206001015491505b83600101600082815260200190815260200160002060030160009054906101000a900460ff1684600101600084815260200190815260200160002060030160006101000a81548160ff021916908315150217905550600084600101600083815260200190815260200160002060030160006101000a81548160ff021916908315150217905550600084600101600086600101600086815260200190815260200160002060010154815260200190815260200160002060030160006101000a81548160ff0219169083151502179055506129d184826130e1565b836000015492505b5b506122b1565b600083600101600084815260200190815260200160002060030160006101000a81548160ff021916908315150217905550505050565b60005b60008360010160008481526020019081526020016000206002015414612a5957826001016000838152602001908152602001600020600201549150612a19565b81905092915050565b60005b82600001548214158015612ab3575082600101600084600101600085815260200190815260200160002060000154815260200190815260200160002060030160009054906101000a900460ff165b15612f3757600083600101600084815260200190815260200160002060000154905083600101600085600101600084815260200190815260200160002060000154815260200190815260200160002060010154811415612d215783600101600085600101600084815260200190815260200160002060000154815260200190815260200160002060020154915083600101600083815260200190815260200160002060030160009054906101000a900460ff1615612c3657600084600101600083815260200190815260200160002060030160006101000a81548160ff021916908315150217905550600084600101600084815260200190815260200160002060030160006101000a81548160ff021916908315150217905550600184600101600086600101600085815260200190815260200160002060000154815260200190815260200160002060030160006101000a81548160ff021916908315150217905550836001016000828152602001908152602001600020600001549250612d1c565b83600101600082815260200190815260200160002060020154831415612c6457809250612c638484612f71565b5b836001016000848152602001908152602001600020600001549050600084600101600083815260200190815260200160002060030160006101000a81548160ff021916908315150217905550600184600101600086600101600085815260200190815260200160002060000154815260200190815260200160002060030160006101000a81548160ff021916908315150217905550612d1b84856001016000848152602001908152602001600020600001546130e1565b5b612f31565b83600101600085600101600084815260200190815260200160002060000154815260200190815260200160002060010154915083600101600083815260200190815260200160002060030160009054906101000a900460ff1615612e4a57600084600101600083815260200190815260200160002060030160006101000a81548160ff021916908315150217905550600084600101600084815260200190815260200160002060030160006101000a81548160ff021916908315150217905550600184600101600086600101600085815260200190815260200160002060000154815260200190815260200160002060030160006101000a81548160ff021916908315150217905550836001016000828152602001908152602001600020600001549250612f30565b83600101600082815260200190815260200160002060010154831415612e7857809250612e7784846130e1565b5b836001016000848152602001908152602001600020600001549050600084600101600083815260200190815260200160002060030160006101000a81548160ff021916908315150217905550600184600101600086600101600085815260200190815260200160002060000154815260200190815260200160002060030160006101000a81548160ff021916908315150217905550612f2f8485600101600084815260200190815260200160002060000154612f71565b5b5b50612a65565b60008360010160008560000154815260200190815260200160002060030160006101000a81548160ff021916908315150217905550505050565b60008260010160008381526020019081526020016000206002015490506000836001016000848152602001908152602001600020600001549050600084600101600084815260200190815260200160002060010154905080856001016000868152602001908152602001600020600201819055506000811461300b5783856001016000838152602001908152602001600020600001819055505b8185600101600085815260200190815260200160002060000181905550600082141561303f578285600001819055506130a0565b8460010160008381526020019081526020016000206001015484141561308157828560010160008481526020019081526020016000206001018190555061309f565b82856001016000848152602001908152602001600020600201819055505b5b838560010160008581526020019081526020016000206001018190555082856001016000868152602001908152602001600020600001819055505050505050565b60008260010160008381526020019081526020016000206001015490506000836001016000848152602001908152602001600020600001549050600084600101600084815260200190815260200160002060020154905080856001016000868152602001908152602001600020600101819055506000811461317b5783856001016000838152602001908152602001600020600001819055505b818560010160008581526020019081526020016000206000018190555060008214156131af57828560000181905550613210565b846001016000838152602001908152602001600020600201548414156131f157828560010160008481526020019081526020016000206002018190555061320f565b82856001016000848152602001908152602001600020600101819055505b5b838560010160008581526020019081526020016000206002018190555082856001016000868152602001908152602001600020600001819055505050505050565b6040518060600160405280600073ffffffffffffffffffffffffffffffffffffffff16815260200160007bffffffffffffffffffffffffffffffffffffffffffffffffffffffff19168152602001600081525090565b8154818355818111156132d4576002028160020283600052602060002091820191016132d391906133cf565b5b505050565b6040518060600160405280600073ffffffffffffffffffffffffffffffffffffffff16815260200160007bffffffffffffffffffffffffffffffffffffffffffffffffffffffff19168152602001600081525090565b8280548282559060005260206000209081019282156133be579160200282015b828111156133bd57823573ffffffffffffffffffffffffffffffffffffffff168260006101000a81548173ffffffffffffffffffffffffffffffffffffffff021916908373ffffffffffffffffffffffffffffffffffffffff1602179055509160200191906001019061334f565b5b5090506133cb9190613434565b5090565b61343191905b8082111561342d57600080820160006101000a81549073ffffffffffffffffffffffffffffffffffffffff02191690556000820160146101000a81549063ffffffff02191690556001820160009055506002016133d5565b5090565b90565b61347491905b8082111561347057600081816101000a81549073ffffffffffffffffffffffffffffffffffffffff02191690555060010161343a565b5090565b90565b60008135905061348681613cd1565b92915050565b60008083601f84011261349e57600080fd5b8235905067ffffffffffffffff8111156134b757600080fd5b6020830191508360208202830111156134cf57600080fd5b9250929050565b6000813590506134e581613ce8565b92915050565b6000813590506134fa81613cff565b92915050565b60006020828403121561351257600080fd5b600061352084828501613477565b91505092915050565b6000806040838503121561353c57600080fd5b600061354a85828601613477565b925050602061355b858286016134d6565b9150509250929050565b60008060006060848603121561357a57600080fd5b600061358886828701613477565b9350506020613599868287016134d6565b92505060406135aa868287016134eb565b9150509250925092565b600080602083850312156135c757600080fd5b600083013567ffffffffffffffff8111156135e157600080fd5b6135ed8582860161348c565b92509250509250929050565b60006020828403121561360b57600080fd5b6000613619848285016134eb565b91505092915050565b600061362e8383613652565b60208301905092915050565b60006136468383613976565b60608301905092915050565b61365b81613c57565b82525050565b61366a81613c57565b82525050565b600061367c8385613c0d565b935061368782613ba6565b8060005b858110156136c05761369d8284613c40565b6136a78882613622565b97506136b283613be6565b92505060018101905061368b565b5085925050509392505050565b60006136d882613bd0565b6136e28185613c0d565b93506136ed83613bb0565b8060005b8381101561371e5781516137058882613622565b975061371083613bf3565b9250506001810190506136f1565b5085935050505092915050565b600061373682613bdb565b6137408185613c1e565b935061374b83613bc0565b8060005b8381101561377c578151613763888261363a565b975061376e83613c00565b92505060018101905061374f565b5085935050505092915050565b61379281613c69565b82525050565b6137a181613c69565b82525050565b6137b081613cbf565b82525050565b60006137c3601a83613c2f565b91507f64657374696e6174696f6e20646f6573206e6f742065786973740000000000006000830152602082019050919050565b6000613803601283613c2f565b91507f7765696768742063616e6e6f74206265203000000000000000000000000000006000830152602082019050919050565b6000613843601d83613c2f565b91507f6e6577206f776e657220697320746865207a65726f20616464726573730000006000830152602082019050919050565b6000613883601783613c2f565b91507f63616c6c6572206973206e6f7420746865206f776e65720000000000000000006000830152602082019050919050565b60006138c3600983613c2f565b91507f6e6f7420666f756e6400000000000000000000000000000000000000000000006000830152602082019050919050565b6000613903601283613c2f565b91507f7461726765742063616e6e6f74206265203000000000000000000000000000006000830152602082019050919050565b6000613943601783613c2f565b91507f6d696e47617350726963652063616e6e6f7420626520300000000000000000006000830152602082019050919050565b60608201600082015161398c6000850182613652565b50602082015161399f6020850182613789565b5060408201516139b260408501826139b8565b50505050565b6139c181613cb5565b82525050565b6139d081613cb5565b82525050565b60006020820190506139eb6000830184613661565b92915050565b6000606082019050613a066000830186613661565b613a136020830185613798565b613a2060408301846139c7565b949350505050565b60006020820190508181036000830152613a43818486613670565b90509392505050565b60006020820190508181036000830152613a6681846136cd565b905092915050565b60006020820190508181036000830152613a88818461372b565b905092915050565b6000602082019050613aa560008301846137a7565b92915050565b60006020820190508181036000830152613ac4816137b6565b9050919050565b60006020820190508181036000830152613ae4816137f6565b9050919050565b60006020820190508181036000830152613b0481613836565b9050919050565b60006020820190508181036000830152613b2481613876565b9050919050565b60006020820190508181036000830152613b44816138b6565b9050919050565b60006020820190508181036000830152613b64816138f6565b9050919050565b60006020820190508181036000830152613b8481613936565b9050919050565b6000602082019050613ba060008301846139c7565b92915050565b6000819050919050565b6000819050602082019050919050565b6000819050602082019050919050565b600081519050919050565b600081519050919050565b6000602082019050919050565b6000602082019050919050565b6000602082019050919050565b600082825260208201905092915050565b600082825260208201905092915050565b600082825260208201905092915050565b6000613c4f6020840184613477565b905092915050565b6000613c6282613c95565b9050919050565b60007fffffffff0000000000000000000000000000000000000000000000000000000082169050919050565b600073ffffffffffffffffffffffffffffffffffffffff82169050919050565b6000819050919050565b6000613cca82613cb5565b9050919050565b613cda81613c57565b8114613ce557600080fd5b50565b613cf181613c69565b8114613cfc57600080fd5b50565b613d0881613cb5565b8114613d1357600080fd5b5056fea365627a7a72305820da2d374e423c6ff8718a849697082e89d9e4d483a621a595a22dd44fccda740d6c6578706572696d656e74616cf564736f6c634300050a0040",
  "source": "pragma solidity 0.5.10;\npragma experimental ABIEncoderV2;\n\nimport \"./libs/BokkyPooBahsRedBlackTreeLibrary.sol\";\nimport \"./libs/SafeMath.sol\";\n\n\n/// @dev Keeps transaction destinations tree for TX Priority feature in Ethereum client,\n/// keeps top priority senders whitelist, and rules for exclusive min gas prices.\ncontract TxPriority {\n\n    using BokkyPooBahsRedBlackTreeLibrary for BokkyPooBahsRedBlackTreeLibrary.Tree;\n    using SafeMath for uint256;\n\n    struct Destination {\n        address target;\n        bytes4 fnSignature;\n        uint256 value;\n    }\n\n    BokkyPooBahsRedBlackTreeLibrary.Tree internal _weightsTree; // sorted tree of destination weights\n    \n    address[] internal _sendersWhitelist; // an array of whitelisted senders\n    Destination[] internal _minGasPrices; // an array of min gas price rules\n    mapping(address => mapping(bytes4 => uint256)) internal _minGasPriceIndex;\n    \n    uint256 public weightsCount;\n    mapping(uint256 => Destination) public destinationByWeight;\n    mapping(address => mapping(bytes4 => uint256)) public weightByDestination;\n\n    address public owner;\n    \n    event PrioritySet(address indexed target, bytes4 indexed fnSignature, uint256 weight);\n    event SendersWhitelistSet(address[] whitelist);\n    event MinGasPriceSet(address indexed target, bytes4 indexed fnSignature, uint256 minGasPrice);\n    event OwnershipTransferred(address indexed previousOwner, address indexed newOwner);\n\n    /// @dev Throws if called by any account other than the owner.\n    modifier onlyOwner() {\n        require(owner == msg.sender, \"caller is not the owner\");\n        _;\n    }\n\n    constructor (address _owner) public {\n        if (_owner == address(0)) {\n            _owner = msg.sender;\n        }\n        require(_owner != address(0));\n        owner = _owner;\n        emit OwnershipTransferred(address(0), _owner);\n    }\n\n    /// @dev Transfers ownership of the contract to a new account (`_newOwner`).\n    /// Can only be called by the current owner.\n    function transferOwnership(address _newOwner) public onlyOwner {\n        require(_newOwner != address(0), \"new owner is the zero address\");\n        emit OwnershipTransferred(owner, _newOwner);\n        owner = _newOwner;\n    }\n    \n    /// @dev Sets transaction destination priority (weight).\n    /// The more the weight, the more priority transaction will have.\n    /// @param _target The `to` address in transaction. Cannot be 0x0.\n    /// @param _fnSignature The function signature if the `to` is a contract\n    /// (the first 4 bytes of the `data` field in transaction).\n    /// Can be 0x00000000 for EOA target address or when someone\n    /// sends coins to a contract without calling any function.\n    /// @param _weight The weight (priority) of the destination. Cannot be zero.\n    function setPriority(address _target, bytes4 _fnSignature, uint256 _weight) external onlyOwner {\n        require(_target != address(0), \"target cannot be 0\");\n        require(_weight != 0, \"weight cannot be 0\");\n        uint256 foundWeight = weightByDestination[_target][_fnSignature];\n        if (foundWeight != 0) {\n            // Destination already exists in the tree\n            if (foundWeight == _weight) {\n                emit PrioritySet(_target, _fnSignature, _weight);\n                return; // nothing changes, return\n            }\n            // Remove existing destination from the tree\n            _weightsTree.remove(foundWeight);\n            delete destinationByWeight[foundWeight];\n        } else {\n            // This is a new destination, increment counter\n            weightsCount = weightsCount.add(1);\n        }\n        _weightsTree.insert(_weight);\n        destinationByWeight[_weight] = Destination(_target, _fnSignature, _weight);\n        weightByDestination[_target][_fnSignature] = _weight;\n        emit PrioritySet(_target, _fnSignature, _weight);\n    }\n    \n    /// @dev Removes a destination from the priority list.\n    /// @param _target The `to` address in transaction.\n    /// @param _fnSignature The function signature if the `to` is a contract.\n    /// See its description in the `setPriority` function.\n    function removePriority(address _target, bytes4 _fnSignature) external onlyOwner {\n        uint256 foundWeight = weightByDestination[_target][_fnSignature];\n        require(foundWeight != 0, \"destination does not exist\"); // destination should exist\n        \n        _weightsTree.remove(foundWeight);\n        \n        delete weightByDestination[_target][_fnSignature];\n        delete destinationByWeight[foundWeight];\n        weightsCount = weightsCount.sub(1);\n\n        emit PrioritySet(_target, _fnSignature, 0);\n    }\n    \n    /// @dev Sets sender whitelist, an array of `from` addresses which have a top priority:\n    /// if a whitelisted address sends a transaction, this transaction should be mined before\n    /// transactions defined by the `setPriority` function.\n    /// @param _whitelist The array of whitelisted senders.\n    function setSendersWhitelist(address[] calldata _whitelist) external onlyOwner {\n        _sendersWhitelist = _whitelist;\n        emit SendersWhitelistSet(_whitelist);\n    }\n    \n    /// @dev Sets an exclusive min gas price for the specified transaction destination.\n    /// The defined _minGasPrice for the specified transaction should be used by Ethereum client\n    /// instead of the MinGasPrice configured by default for all transactions in the client.\n    /// If the specified _minGasPrice is less than default MinGasPrice, the default MinGasPrice should\n    /// be used and the _minGasPrice should be ignored.\n    /// These rules shouldn't overwrite (cancel) the Certifier and TxPermission filters.\n    /// @param _target The `to` address in transaction.\n    /// @param _fnSignature The function signature if the `to` is a contract.\n    /// The first 4 bytes of the `data` field in transaction. Can be 0x00000000 for EOA target address\n    /// or when someone just sends coins to a contract without calling any function (when `data` is empty).\n    /// @param _minGasPrice The min gas price in Wei. Cannot be zero.\n    function setMinGasPrice(address _target, bytes4 _fnSignature, uint256 _minGasPrice) external onlyOwner {\n        require(_target != address(0), \"target cannot be 0\");\n        require(_minGasPrice != 0, \"minGasPrice cannot be 0\");\n\n        uint256 index = _minGasPriceIndex[_target][_fnSignature];\n\n        if (\n            _minGasPrices.length > index &&\n            _minGasPrices[index].target == _target &&\n            _minGasPrices[index].fnSignature == _fnSignature\n        ) {\n            _minGasPrices[index].value = _minGasPrice;\n        } else {\n            _minGasPriceIndex[_target][_fnSignature] = _minGasPrices.length;\n            _minGasPrices.push(Destination(_target, _fnSignature, _minGasPrice));\n        }\n\n        emit MinGasPriceSet(_target, _fnSignature, _minGasPrice);\n    }\n    \n    /// @dev Removes an exclusive min gas price for the specified transaction destination.\n    /// @param _target See description of the `setMinGasPrice` function.\n    /// @param _fnSignature See description of the `setMinGasPrice` function.\n    function removeMinGasPrice(address _target, bytes4 _fnSignature) external onlyOwner {\n        uint256 index = _minGasPriceIndex[_target][_fnSignature];\n\n        if (\n            _minGasPrices.length > index &&\n            _minGasPrices[index].target == _target &&\n            _minGasPrices[index].fnSignature == _fnSignature\n        ) {\n            Destination memory last = _minGasPrices[_minGasPrices.length - 1];\n            _minGasPrices[index] = last;\n            _minGasPriceIndex[last.target][last.fnSignature] = index;\n            _minGasPriceIndex[_target][_fnSignature] = 0;\n            _minGasPrices.length--;\n            emit MinGasPriceSet(_target, _fnSignature, 0);\n        } else {\n            revert(\"not found\");\n        }\n    }\n    \n    /// @dev Returns all destinations defined by the `setPriority`.\n    /// The returned list is sorted by weight descending.\n    function getPriorities() external view returns(Destination[] memory weights) {\n        weights = new Destination[](weightsCount);\n        uint256 weight = _weightsTree.last();\n        uint256 i = 0;\n        \n        while (weight != 0) {\n            require(i < weightsCount);\n            weights[i++] = destinationByWeight[weight];\n            weight = _weightsTree.prev(weight);\n        }\n    }\n    \n    /// @dev Returns the sender whitelist set by the `setSendersWhitelist` function.\n    function getSendersWhitelist() external view returns(address[] memory whitelist) {\n        whitelist = _sendersWhitelist;\n    }\n\n    /// @dev Returns all destinations defined by the `setMinGasPrice`.\n    function getMinGasPrices() external view returns(Destination[] memory prices) {\n        prices = _minGasPrices;\n    }\n\n}\n",
  "sourcePath": "/Users/akshaypatil/Documents/etherlite/pos-contracts/posdao-etherlite/contracts/TxPriority.sol",
  "compiler": {
    "name": "solc",
    "version": "0.5.10+commit.5a6ea5b1.Emscripten.clang"
  },
  "schemaVersion": "3.3.1",
  "updatedAt": "2021-04-11T17:55:35.943Z",
  "devdoc": {
    "details": "Keeps transaction destinations tree for TX Priority feature in Ethereum client, keeps top priority senders whitelist, and rules for exclusive min gas prices.",
    "methods": {
      "getMinGasPrices()": {
        "details": "Returns all destinations defined by the `setMinGasPrice`."
      },
      "getPriorities()": {
        "details": "Returns all destinations defined by the `setPriority`. The returned list is sorted by weight descending."
      },
      "getSendersWhitelist()": {
        "details": "Returns the sender whitelist set by the `setSendersWhitelist` function."
      },
      "removeMinGasPrice(address,bytes4)": {
        "details": "Removes an exclusive min gas price for the specified transaction destination.",
        "params": {
          "_fnSignature": "See description of the `setMinGasPrice` function.",
          "_target": "See description of the `setMinGasPrice` function."
        }
      },
      "removePriority(address,bytes4)": {
        "details": "Removes a destination from the priority list.",
        "params": {
          "_fnSignature": "The function signature if the `to` is a contract. See its description in the `setPriority` function.",
          "_target": "The `to` address in transaction."
        }
      },
      "setMinGasPrice(address,bytes4,uint256)": {
        "details": "Sets an exclusive min gas price for the specified transaction destination. The defined _minGasPrice for the specified transaction should be used by Ethereum client instead of the MinGasPrice configured by default for all transactions in the client. If the specified _minGasPrice is less than default MinGasPrice, the default MinGasPrice should be used and the _minGasPrice should be ignored. These rules shouldn't overwrite (cancel) the Certifier and TxPermission filters.",
        "params": {
          "_fnSignature": "The function signature if the `to` is a contract. The first 4 bytes of the `data` field in transaction. Can be 0x00000000 for EOA target address or when someone just sends coins to a contract without calling any function (when `data` is empty).",
          "_minGasPrice": "The min gas price in Wei. Cannot be zero.",
          "_target": "The `to` address in transaction."
        }
      },
      "setPriority(address,bytes4,uint256)": {
        "details": "Sets transaction destination priority (weight). The more the weight, the more priority transaction will have.",
        "params": {
          "_fnSignature": "The function signature if the `to` is a contract (the first 4 bytes of the `data` field in transaction). Can be 0x00000000 for EOA target address or when someone sends coins to a contract without calling any function.",
          "_target": "The `to` address in transaction. Cannot be 0x0.",
          "_weight": "The weight (priority) of the destination. Cannot be zero."
        }
      },
      "setSendersWhitelist(address[])": {
        "details": "Sets sender whitelist, an array of `from` addresses which have a top priority: if a whitelisted address sends a transaction, this transaction should be mined before transactions defined by the `setPriority` function.",
        "params": {
          "_whitelist": "The array of whitelisted senders."
        }
      },
      "transferOwnership(address)": {
        "details": "Transfers ownership of the contract to a new account (`_newOwner`). Can only be called by the current owner."
      }
    }
  },
  "userdoc": {
    "methods": {}
  }
}