{
  "contractName": "ValidatorSetAuRa",
  "abi": [
    {
      "constant": true,
      "inputs": [
        {
          "name": "",
          "type": "address"
        }
      ],
      "name": "miningByStakingAddress",
      "outputs": [
        {
          "name": "",
          "type": "address"
        }
      ],
      "payable": false,
      "stateMutability": "view",
      "type": "function"
    },
    {
      "constant": true,
      "inputs": [
        {
          "name": "",
          "type": "uint256"
        }
      ],
      "name": "stakingAddressById",
      "outputs": [
        {
          "name": "",
          "type": "address"
        }
      ],
      "payable": false,
      "stateMutability": "view",
      "type": "function"
    },
    {
      "constant": true,
      "inputs": [
        {
          "name": "",
          "type": "address"
        }
      ],
      "name": "stakingByMiningAddress",
      "outputs": [
        {
          "name": "",
          "type": "address"
        }
      ],
      "payable": false,
      "stateMutability": "view",
      "type": "function"
    },
    {
      "constant": true,
      "inputs": [
        {
          "name": "",
          "type": "address"
        }
      ],
      "name": "idByMiningAddress",
      "outputs": [
        {
          "name": "",
          "type": "uint256"
        }
      ],
      "payable": false,
      "stateMutability": "view",
      "type": "function"
    },
    {
      "constant": true,
      "inputs": [
        {
          "name": "",
          "type": "uint256"
        }
      ],
      "name": "poolDescription",
      "outputs": [
        {
          "name": "",
          "type": "string"
        }
      ],
      "payable": false,
      "stateMutability": "view",
      "type": "function"
    },
    {
      "constant": true,
      "inputs": [],
      "name": "blockRewardContract",
      "outputs": [
        {
          "name": "",
          "type": "address"
        }
      ],
      "payable": false,
      "stateMutability": "view",
      "type": "function"
    },
    {
      "constant": true,
      "inputs": [
        {
          "name": "",
          "type": "address"
        }
      ],
      "name": "hasEverBeenStakingAddress",
      "outputs": [
        {
          "name": "",
          "type": "bool"
        }
      ],
      "payable": false,
      "stateMutability": "view",
      "type": "function"
    },
    {
      "constant": true,
      "inputs": [],
      "name": "unremovableValidator",
      "outputs": [
        {
          "name": "",
          "type": "uint256"
        }
      ],
      "payable": false,
      "stateMutability": "view",
      "type": "function"
    },
    {
      "constant": true,
      "inputs": [],
      "name": "MAX_VALIDATORS",
      "outputs": [
        {
          "name": "",
          "type": "uint256"
        }
      ],
      "payable": false,
      "stateMutability": "view",
      "type": "function"
    },
    {
      "constant": true,
      "inputs": [],
      "name": "lastChangeBlock",
      "outputs": [
        {
          "name": "",
          "type": "uint256"
        }
      ],
      "payable": false,
      "stateMutability": "view",
      "type": "function"
    },
    {
      "constant": true,
      "inputs": [
        {
          "name": "",
          "type": "address"
        }
      ],
      "name": "hasEverBeenMiningAddress",
      "outputs": [
        {
          "name": "",
          "type": "uint256"
        }
      ],
      "payable": false,
      "stateMutability": "view",
      "type": "function"
    },
    {
      "constant": true,
      "inputs": [],
      "name": "miningAddressChangeRequest",
      "outputs": [
        {
          "name": "poolId",
          "type": "uint256"
        },
        {
          "name": "newMiningAddress",
          "type": "address"
        }
      ],
      "payable": false,
      "stateMutability": "view",
      "type": "function"
    },
    {
      "constant": true,
      "inputs": [
        {
          "name": "",
          "type": "uint256"
        }
      ],
      "name": "isValidatorById",
      "outputs": [
        {
          "name": "",
          "type": "bool"
        }
      ],
      "payable": false,
      "stateMutability": "view",
      "type": "function"
    },
    {
      "constant": true,
      "inputs": [
        {
          "name": "",
          "type": "address"
        }
      ],
      "name": "idByStakingAddress",
      "outputs": [
        {
          "name": "",
          "type": "uint256"
        }
      ],
      "payable": false,
      "stateMutability": "view",
      "type": "function"
    },
    {
      "constant": true,
      "inputs": [],
      "name": "lastPoolId",
      "outputs": [
        {
          "name": "",
          "type": "uint256"
        }
      ],
      "payable": false,
      "stateMutability": "view",
      "type": "function"
    },
    {
      "constant": true,
      "inputs": [],
      "name": "validatorSetApplyBlock",
      "outputs": [
        {
          "name": "",
          "type": "uint256"
        }
      ],
      "payable": false,
      "stateMutability": "view",
      "type": "function"
    },
    {
      "constant": true,
      "inputs": [
        {
          "name": "",
          "type": "uint256"
        }
      ],
      "name": "poolName",
      "outputs": [
        {
          "name": "",
          "type": "string"
        }
      ],
      "payable": false,
      "stateMutability": "view",
      "type": "function"
    },
    {
      "constant": true,
      "inputs": [],
      "name": "randomContract",
      "outputs": [
        {
          "name": "",
          "type": "address"
        }
      ],
      "payable": false,
      "stateMutability": "view",
      "type": "function"
    },
    {
      "constant": true,
      "inputs": [],
      "name": "changeRequestCount",
      "outputs": [
        {
          "name": "",
          "type": "uint256"
        }
      ],
      "payable": false,
      "stateMutability": "view",
      "type": "function"
    },
    {
      "constant": true,
      "inputs": [
        {
          "name": "",
          "type": "uint256"
        }
      ],
      "name": "miningAddressById",
      "outputs": [
        {
          "name": "",
          "type": "address"
        }
      ],
      "payable": false,
      "stateMutability": "view",
      "type": "function"
    },
    {
      "constant": true,
      "inputs": [],
      "name": "stakingContract",
      "outputs": [
        {
          "name": "",
          "type": "address"
        }
      ],
      "payable": false,
      "stateMutability": "view",
      "type": "function"
    },
    {
      "anonymous": false,
      "inputs": [
        {
          "indexed": true,
          "name": "poolId",
          "type": "uint256"
        },
        {
          "indexed": true,
          "name": "oldMiningAddress",
          "type": "address"
        },
        {
          "indexed": true,
          "name": "newMiningAddress",
          "type": "address"
        }
      ],
      "name": "ChangedMiningAddress",
      "type": "event"
    },
    {
      "anonymous": false,
      "inputs": [
        {
          "indexed": true,
          "name": "poolId",
          "type": "uint256"
        },
        {
          "indexed": true,
          "name": "oldStakingAddress",
          "type": "address"
        },
        {
          "indexed": true,
          "name": "newStakingAddress",
          "type": "address"
        }
      ],
      "name": "ChangedStakingAddress",
      "type": "event"
    },
    {
      "anonymous": false,
      "inputs": [
        {
          "indexed": true,
          "name": "parentHash",
          "type": "bytes32"
        },
        {
          "indexed": false,
          "name": "newSet",
          "type": "address[]"
        }
      ],
      "name": "InitiateChange",
      "type": "event"
    },
    {
      "anonymous": false,
      "inputs": [
        {
          "indexed": false,
          "name": "reportingValidator",
          "type": "address"
        },
        {
          "indexed": false,
          "name": "maliciousValidator",
          "type": "address"
        },
        {
          "indexed": false,
          "name": "blockNumber",
          "type": "uint256"
        },
        {
          "indexed": false,
          "name": "reportingPoolId",
          "type": "uint256"
        },
        {
          "indexed": false,
          "name": "maliciousPoolId",
          "type": "uint256"
        }
      ],
      "name": "ReportedMalicious",
      "type": "event"
    },
    {
      "anonymous": false,
      "inputs": [
        {
          "indexed": true,
          "name": "poolId",
          "type": "uint256"
        },
        {
          "indexed": false,
          "name": "name",
          "type": "string"
        },
        {
          "indexed": false,
          "name": "description",
          "type": "string"
        }
      ],
      "name": "SetPoolMetadata",
      "type": "event"
    },
    {
      "constant": false,
      "inputs": [],
      "name": "clearUnremovableValidator",
      "outputs": [],
      "payable": false,
      "stateMutability": "nonpayable",
      "type": "function"
    },
    {
      "constant": false,
      "inputs": [
        {
          "name": "_name",
          "type": "string"
        },
        {
          "name": "_description",
          "type": "string"
        }
      ],
      "name": "changeMetadata",
      "outputs": [],
      "payable": false,
      "stateMutability": "nonpayable",
      "type": "function"
    },
    {
      "constant": false,
      "inputs": [
        {
          "name": "_newMiningAddress",
          "type": "address"
        }
      ],
      "name": "changeMiningAddress",
      "outputs": [],
      "payable": false,
      "stateMutability": "nonpayable",
      "type": "function"
    },
    {
      "constant": false,
      "inputs": [
        {
          "name": "_newStakingAddress",
          "type": "address"
        }
      ],
      "name": "changeStakingAddress",
      "outputs": [],
      "payable": false,
      "stateMutability": "nonpayable",
      "type": "function"
    },
    {
      "constant": false,
      "inputs": [],
      "name": "emitInitiateChange",
      "outputs": [],
      "payable": false,
      "stateMutability": "nonpayable",
      "type": "function"
    },
    {
      "constant": false,
      "inputs": [],
      "name": "finalizeChange",
      "outputs": [],
      "payable": false,
      "stateMutability": "nonpayable",
      "type": "function"
    },
    {
      "constant": false,
      "inputs": [
        {
          "name": "_blockRewardContract",
          "type": "address"
        },
        {
          "name": "_randomContract",
          "type": "address"
        },
        {
          "name": "_stakingContract",
          "type": "address"
        },
        {
          "name": "_initialMiningAddresses",
          "type": "address[]"
        },
        {
          "name": "_initialStakingAddresses",
          "type": "address[]"
        },
        {
          "name": "_firstValidatorIsUnremovable",
          "type": "bool"
        }
      ],
      "name": "initialize",
      "outputs": [],
      "payable": false,
      "stateMutability": "nonpayable",
      "type": "function"
    },
    {
      "constant": false,
      "inputs": [],
      "name": "newValidatorSet",
      "outputs": [],
      "payable": false,
      "stateMutability": "nonpayable",
      "type": "function"
    },
    {
      "constant": false,
      "inputs": [
        {
          "name": "_miningAddresses",
          "type": "address[]"
        }
      ],
      "name": "removeMaliciousValidators",
      "outputs": [],
      "payable": false,
      "stateMutability": "nonpayable",
      "type": "function"
    },
    {
      "constant": false,
      "inputs": [
        {
          "name": "_maliciousMiningAddress",
          "type": "address"
        },
        {
          "name": "_blockNumber",
          "type": "uint256"
        },
        {
          "name": "",
          "type": "bytes"
        }
      ],
      "name": "reportMalicious",
      "outputs": [],
      "payable": false,
      "stateMutability": "nonpayable",
      "type": "function"
    },
    {
      "constant": false,
      "inputs": [
        {
          "name": "_miningAddress",
          "type": "address"
        },
        {
          "name": "_stakingAddress",
          "type": "address"
        },
        {
          "name": "_name",
          "type": "string"
        },
        {
          "name": "_description",
          "type": "string"
        }
      ],
      "name": "addPool",
      "outputs": [
        {
          "name": "",
          "type": "uint256"
        }
      ],
      "payable": false,
      "stateMutability": "nonpayable",
      "type": "function"
    },
    {
      "constant": true,
      "inputs": [
        {
          "name": "_miningAddress",
          "type": "address"
        }
      ],
      "name": "areDelegatorsBanned",
      "outputs": [
        {
          "name": "",
          "type": "bool"
        }
      ],
      "payable": false,
      "stateMutability": "view",
      "type": "function"
    },
    {
      "constant": true,
      "inputs": [
        {
          "name": "_poolId",
          "type": "uint256"
        }
      ],
      "name": "areIdDelegatorsBanned",
      "outputs": [
        {
          "name": "",
          "type": "bool"
        }
      ],
      "payable": false,
      "stateMutability": "view",
      "type": "function"
    },
    {
      "constant": true,
      "inputs": [
        {
          "name": "_miningAddress",
          "type": "address"
        }
      ],
      "name": "banCounter",
      "outputs": [
        {
          "name": "",
          "type": "uint256"
        }
      ],
      "payable": false,
      "stateMutability": "view",
      "type": "function"
    },
    {
      "constant": true,
      "inputs": [
        {
          "name": "_miningAddress",
          "type": "address"
        }
      ],
      "name": "bannedUntil",
      "outputs": [
        {
          "name": "",
          "type": "uint256"
        }
      ],
      "payable": false,
      "stateMutability": "view",
      "type": "function"
    },
    {
      "constant": true,
      "inputs": [
        {
          "name": "_miningAddress",
          "type": "address"
        }
      ],
      "name": "bannedDelegatorsUntil",
      "outputs": [
        {
          "name": "",
          "type": "uint256"
        }
      ],
      "payable": false,
      "stateMutability": "view",
      "type": "function"
    },
    {
      "constant": true,
      "inputs": [
        {
          "name": "_miningAddress",
          "type": "address"
        }
      ],
      "name": "banReason",
      "outputs": [
        {
          "name": "",
          "type": "bytes32"
        }
      ],
      "payable": false,
      "stateMutability": "view",
      "type": "function"
    },
    {
      "constant": true,
      "inputs": [],
      "name": "emitInitiateChangeCallable",
      "outputs": [
        {
          "name": "",
          "type": "bool"
        }
      ],
      "payable": false,
      "stateMutability": "view",
      "type": "function"
    },
    {
      "constant": true,
      "inputs": [],
      "name": "getPendingValidators",
      "outputs": [
        {
          "name": "",
          "type": "address[]"
        }
      ],
      "payable": false,
      "stateMutability": "view",
      "type": "function"
    },
    {
      "constant": true,
      "inputs": [],
      "name": "getPendingValidatorsIds",
      "outputs": [
        {
          "name": "",
          "type": "uint256[]"
        }
      ],
      "payable": false,
      "stateMutability": "view",
      "type": "function"
    },
    {
      "constant": true,
      "inputs": [],
      "name": "getValidators",
      "outputs": [
        {
          "name": "",
          "type": "address[]"
        }
      ],
      "payable": false,
      "stateMutability": "view",
      "type": "function"
    },
    {
      "constant": true,
      "inputs": [],
      "name": "getValidatorsIds",
      "outputs": [
        {
          "name": "",
          "type": "uint256[]"
        }
      ],
      "payable": false,
      "stateMutability": "view",
      "type": "function"
    },
    {
      "constant": true,
      "inputs": [],
      "name": "initiateChangeAllowed",
      "outputs": [
        {
          "name": "",
          "type": "bool"
        }
      ],
      "payable": false,
      "stateMutability": "view",
      "type": "function"
    },
    {
      "constant": true,
      "inputs": [],
      "name": "isInitialized",
      "outputs": [
        {
          "name": "",
          "type": "bool"
        }
      ],
      "payable": false,
      "stateMutability": "view",
      "type": "function"
    },
    {
      "constant": true,
      "inputs": [
        {
          "name": "_miningAddress",
          "type": "address"
        }
      ],
      "name": "isValidator",
      "outputs": [
        {
          "name": "",
          "type": "bool"
        }
      ],
      "payable": false,
      "stateMutability": "view",
      "type": "function"
    },
    {
      "constant": true,
      "inputs": [
        {
          "name": "_miningAddress",
          "type": "address"
        },
        {
          "name": "_reportingValidator",
          "type": "bool"
        }
      ],
      "name": "isReportValidatorValid",
      "outputs": [
        {
          "name": "",
          "type": "bool"
        }
      ],
      "payable": false,
      "stateMutability": "view",
      "type": "function"
    },
    {
      "constant": true,
      "inputs": [
        {
          "name": "_miningAddress",
          "type": "address"
        }
      ],
      "name": "isValidatorBanned",
      "outputs": [
        {
          "name": "",
          "type": "bool"
        }
      ],
      "payable": false,
      "stateMutability": "view",
      "type": "function"
    },
    {
      "constant": true,
      "inputs": [
        {
          "name": "_poolId",
          "type": "uint256"
        }
      ],
      "name": "isValidatorIdBanned",
      "outputs": [
        {
          "name": "",
          "type": "bool"
        }
      ],
      "payable": false,
      "stateMutability": "view",
      "type": "function"
    },
    {
      "constant": true,
      "inputs": [
        {
          "name": "_poolId",
          "type": "uint256"
        }
      ],
      "name": "isValidatorOrPending",
      "outputs": [
        {
          "name": "",
          "type": "bool"
        }
      ],
      "payable": false,
      "stateMutability": "view",
      "type": "function"
    },
    {
      "constant": true,
      "inputs": [
        {
          "name": "_reportingMiningAddress",
          "type": "address"
        },
        {
          "name": "_maliciousMiningAddress",
          "type": "address"
        },
        {
          "name": "_blockNumber",
          "type": "uint256"
        }
      ],
      "name": "reportMaliciousCallable",
      "outputs": [
        {
          "name": "callable",
          "type": "bool"
        },
        {
          "name": "removeReportingValidator",
          "type": "bool"
        }
      ],
      "payable": false,
      "stateMutability": "view",
      "type": "function"
    },
    {
      "constant": true,
      "inputs": [
        {
          "name": "_reportingMiningAddress",
          "type": "address"
        },
        {
          "name": "_maliciousMiningAddress",
          "type": "address"
        },
        {
          "name": "_blockNumber",
          "type": "uint256"
        }
      ],
      "name": "shouldValidatorReport",
      "outputs": [
        {
          "name": "",
          "type": "bool"
        }
      ],
      "payable": false,
      "stateMutability": "view",
      "type": "function"
    },
    {
      "constant": true,
      "inputs": [
        {
          "name": "_miningAddress",
          "type": "address"
        }
      ],
      "name": "validatorCounter",
      "outputs": [
        {
          "name": "",
          "type": "uint256"
        }
      ],
      "payable": false,
      "stateMutability": "view",
      "type": "function"
    },
    {
      "constant": true,
      "inputs": [],
      "name": "validatorsToBeFinalized",
      "outputs": [
        {
          "name": "miningAddresses",
          "type": "address[]"
        },
        {
          "name": "forNewEpoch",
          "type": "bool"
        }
      ],
      "payable": false,
      "stateMutability": "view",
      "type": "function"
    },
    {
      "constant": true,
      "inputs": [],
      "name": "validatorsToBeFinalizedIds",
      "outputs": [
        {
          "name": "",
          "type": "uint256[]"
        }
      ],
      "payable": false,
      "stateMutability": "view",
      "type": "function"
    }
  ],
  "bytecode": "0x608060405234801561001057600080fd5b5061625a80620000216000396000f3fe608060405234801561001057600080fd5b506004361061035b5760003560e01c806381db0a49116101d3578063b41832e411610104578063ccf69e9b116100a2578063ee99205c1161007c578063ee99205c14611579578063eebc7a39146115c3578063facd743b14611622578063fe54477e1461167e5761035b565b8063ccf69e9b146114a3578063d2077782146114ed578063e28478951461150b5761035b565b8063c476dd40116100de578063c476dd401461127b578063c9e9694d1461131e578063cbd2d52814611376578063cccf3a02146113fc5761035b565b8063b41832e4146111a6578063b7ab4db5146111fe578063b927ef431461125d5761035b565b8063a26301f911610171578063a657e5791161014b578063a657e5791461103f578063a670eb561461105d578063a881c5fd146110ee578063a92252ae1461114a5761035b565b8063a26301f914610f5b578063a48b042a14610fb3578063a4e01eaa14610ff95761035b565b806392d276b4116101ad57806392d276b414610d8057806393b4e25e14610dd15780639b4a14bf14610ddb5780639ea4b0ca14610e215761035b565b806381db0a4914610c7c57806383465b8214610cc05780639184d0ad14610d185761035b565b80633d34d9ef116102ad5780636729c2dc1161024b578063714897df11610225578063714897df14610c2c5780637218744b14610c4a57806374bdb37214610c545780637528621114610c725761035b565b80636729c2dc14610b535780636b5ecfd314610bb2578063704189ca14610c0e5761035b565b806356b54bae1161028757806356b54bae146109d95780635836d08a14610a23578063595bddf914610a7b5780635ccee1de14610b495761035b565b80633d34d9ef1461092d5780633d3b5458146109715780634d04481e146109935761035b565b80631a7fa2371161031a5780632bbb7b72116102f45780632bbb7b72146106ea578063374dc77d14610742578063378bf28b14610864578063392e53cd1461090b5761035b565b80631a7fa237146105b65780631d0cd4c61461060e5780631ee4d0bc146106665761035b565b80624a880314610360578062535175146103ca5780630636bdac1461044e5780630bf480c0146104c757806316cf66ab146105265780631776dee314610594575b600080fd5b6103686116dd565b604051808060200183151515158152602001828103825284818151815260200191508051906020019060200280838360005b838110156103b557808201518184015260208101905061039a565b50505050905001935050505060405180910390f35b61040c600480360360208110156103e057600080fd5b81019080803573ffffffffffffffffffffffffffffffffffffffff1690602001909291905050506117e8565b604051808273ffffffffffffffffffffffffffffffffffffffff1673ffffffffffffffffffffffffffffffffffffffff16815260200191505060405180910390f35b6104c56004803603602081101561046457600080fd5b810190808035906020019064010000000081111561048157600080fd5b82018360208201111561049357600080fd5b803590602001918460208302840111640100000000831117156104b557600080fd5b909192939192939050505061181b565b005b6104cf6118e4565b6040518080602001828103825283818151815260200191508051906020019060200280838360005b838110156105125780820151818401526020810190506104f7565b505050509050019250505060405180910390f35b6105526004803603602081101561053c57600080fd5b810190808035906020019092919050505061193f565b604051808273ffffffffffffffffffffffffffffffffffffffff1673ffffffffffffffffffffffffffffffffffffffff16815260200191505060405180910390f35b61059c611972565b604051808215151515815260200191505060405180910390f35b6105f8600480360360208110156105cc57600080fd5b81019080803573ffffffffffffffffffffffffffffffffffffffff169060200190929190505050611984565b6040518082815260200191505060405180910390f35b6106506004803603602081101561062457600080fd5b81019080803573ffffffffffffffffffffffffffffffffffffffff1690602001909291905050506119e0565b6040518082815260200191505060405180910390f35b6106a86004803603602081101561067c57600080fd5b81019080803573ffffffffffffffffffffffffffffffffffffffff169060200190929190505050611a3c565b604051808273ffffffffffffffffffffffffffffffffffffffff1673ffffffffffffffffffffffffffffffffffffffff16815260200191505060405180910390f35b61072c6004803603602081101561070057600080fd5b81019080803573ffffffffffffffffffffffffffffffffffffffff169060200190929190505050611a6f565b6040518082815260200191505060405180910390f35b61084e6004803603608081101561075857600080fd5b81019080803573ffffffffffffffffffffffffffffffffffffffff169060200190929190803573ffffffffffffffffffffffffffffffffffffffff169060200190929190803590602001906401000000008111156107b557600080fd5b8201836020820111156107c757600080fd5b803590602001918460018302840111640100000000831117156107e957600080fd5b90919293919293908035906020019064010000000081111561080a57600080fd5b82018360208201111561081c57600080fd5b8035906020019184600183028401116401000000008311171561083e57600080fd5b9091929391929390505050611a87565b6040518082815260200191505060405180910390f35b6108906004803603602081101561087a57600080fd5b8101908080359060200190929190505050611b92565b6040518080602001828103825283818151815260200191508051906020019080838360005b838110156108d05780820151818401526020810190506108b5565b50505050905090810190601f1680156108fd5780820380516001836020036101000a031916815260200191505b509250505060405180910390f35b610913611c42565b604051808215151515815260200191505060405180910390f35b61096f6004803603602081101561094357600080fd5b81019080803573ffffffffffffffffffffffffffffffffffffffff169060200190929190505050611c9b565b005b61097961242f565b604051808215151515815260200191505060405180910390f35b6109bf600480360360208110156109a957600080fd5b8101908080359060200190929190505050612456565b604051808215151515815260200191505060405180910390f35b6109e1612496565b604051808273ffffffffffffffffffffffffffffffffffffffff1673ffffffffffffffffffffffffffffffffffffffff16815260200191505060405180910390f35b610a6560048036036020811015610a3957600080fd5b81019080803573ffffffffffffffffffffffffffffffffffffffff1690602001909291905050506124bc565b6040518082815260200191505060405180910390f35b610b4760048036036040811015610a9157600080fd5b8101908080359060200190640100000000811115610aae57600080fd5b820183602082011115610ac057600080fd5b80359060200191846001830284011164010000000083111715610ae257600080fd5b909192939192939080359060200190640100000000811115610b0357600080fd5b820183602082011115610b1557600080fd5b80359060200191846001830284011164010000000083111715610b3757600080fd5b9091929391929390505050612518565b005b610b51612623565b005b610b5b612ca8565b6040518080602001828103825283818151815260200191508051906020019060200280838360005b83811015610b9e578082015181840152602081019050610b83565b505050509050019250505060405180910390f35b610bf460048036036020811015610bc857600080fd5b81019080803573ffffffffffffffffffffffffffffffffffffffff169060200190929190505050612d00565b604051808215151515815260200191505060405180910390f35b610c16612d20565b6040518082815260200191505060405180910390f35b610c34612d26565b6040518082815260200191505060405180910390f35b610c52612d2d565b005b610c5c612ea5565b6040518082815260200191505060405180910390f35b610c7a612eab565b005b610cbe60048036036020811015610c9257600080fd5b81019080803573ffffffffffffffffffffffffffffffffffffffff169060200190929190505050613026565b005b610d0260048036036020811015610cd657600080fd5b81019080803573ffffffffffffffffffffffffffffffffffffffff1690602001909291905050506135f1565b6040518082815260200191505060405180910390f35b610d6660048036036040811015610d2e57600080fd5b81019080803573ffffffffffffffffffffffffffffffffffffffff169060200190929190803515159060200190929190505050613609565b604051808215151515815260200191505060405180910390f35b610d88613800565b604051808381526020018273ffffffffffffffffffffffffffffffffffffffff1673ffffffffffffffffffffffffffffffffffffffff1681526020019250505060405180910390f35b610dd9613832565b005b610e0760048036036020811015610df157600080fd5b810190808035906020019092919050505061393e565b604051808215151515815260200191505060405180910390f35b610f59600480360360c0811015610e3757600080fd5b81019080803573ffffffffffffffffffffffffffffffffffffffff169060200190929190803573ffffffffffffffffffffffffffffffffffffffff169060200190929190803573ffffffffffffffffffffffffffffffffffffffff16906020019092919080359060200190640100000000811115610eb457600080fd5b820183602082011115610ec657600080fd5b80359060200191846020830284011164010000000083111715610ee857600080fd5b909192939192939080359060200190640100000000811115610f0957600080fd5b820183602082011115610f1b57600080fd5b80359060200191846020830284011164010000000083111715610f3d57600080fd5b909192939192939080351515906020019092919050505061395e565b005b610f9d60048036036020811015610f7157600080fd5b81019080803573ffffffffffffffffffffffffffffffffffffffff169060200190929190505050613cb7565b6040518082815260200191505060405180910390f35b610fdf60048036036020811015610fc957600080fd5b8101908080359060200190929190505050613ccf565b604051808215151515815260200191505060405180910390f35b6110256004803603602081101561100f57600080fd5b8101908080359060200190929190505050613dad565b604051808215151515815260200191505060405180910390f35b611047613dd4565b6040518082815260200191505060405180910390f35b6110c96004803603606081101561107357600080fd5b81019080803573ffffffffffffffffffffffffffffffffffffffff169060200190929190803573ffffffffffffffffffffffffffffffffffffffff16906020019092919080359060200190929190505050613dda565b6040518083151515158152602001821515151581526020019250505060405180910390f35b6111306004803603602081101561110457600080fd5b81019080803573ffffffffffffffffffffffffffffffffffffffff1690602001909291905050506140a4565b604051808215151515815260200191505060405180910390f35b61118c6004803603602081101561116057600080fd5b81019080803573ffffffffffffffffffffffffffffffffffffffff1690602001909291905050506140c0565b604051808215151515815260200191505060405180910390f35b6111e8600480360360208110156111bc57600080fd5b81019080803573ffffffffffffffffffffffffffffffffffffffff1690602001909291905050506140f5565b6040518082815260200191505060405180910390f35b611206614151565b6040518080602001828103825283818151815260200191508051906020019060200280838360005b8381101561124957808201518184015260208101905061122e565b505050509050019250505060405180910390f35b61126561423f565b6040518082815260200191505060405180910390f35b61131c6004803603606081101561129157600080fd5b81019080803573ffffffffffffffffffffffffffffffffffffffff16906020019092919080359060200190929190803590602001906401000000008111156112d857600080fd5b8201836020820111156112ea57600080fd5b8035906020019184600183028401116401000000008311171561130c57600080fd5b9091929391929390505050614245565b005b6113606004803603602081101561133457600080fd5b81019080803573ffffffffffffffffffffffffffffffffffffffff1690602001909291905050506145f7565b6040518082815260200191505060405180910390f35b6113e26004803603606081101561138c57600080fd5b81019080803573ffffffffffffffffffffffffffffffffffffffff169060200190929190803573ffffffffffffffffffffffffffffffffffffffff16906020019092919080359060200190929190505050614653565b604051808215151515815260200191505060405180910390f35b6114286004803603602081101561141257600080fd5b8101908080359060200190929190505050614788565b6040518080602001828103825283818151815260200191508051906020019080838360005b8381101561146857808201518184015260208101905061144d565b50505050905090810190601f1680156114955780820380516001836020036101000a031916815260200191505b509250505060405180910390f35b6114ab614838565b604051808273ffffffffffffffffffffffffffffffffffffffff1673ffffffffffffffffffffffffffffffffffffffff16815260200191505060405180910390f35b6114f561485e565b6040518082815260200191505060405180910390f35b6115376004803603602081101561152157600080fd5b8101908080359060200190929190505050614864565b604051808273ffffffffffffffffffffffffffffffffffffffff1673ffffffffffffffffffffffffffffffffffffffff16815260200191505060405180910390f35b611581614897565b604051808273ffffffffffffffffffffffffffffffffffffffff1673ffffffffffffffffffffffffffffffffffffffff16815260200191505060405180910390f35b6115cb6148bd565b6040518080602001828103825283818151815260200191508051906020019060200280838360005b8381101561160e5780820151818401526020810190506115f3565b505050509050019250505060405180910390f35b6116646004803603602081101561163857600080fd5b81019080803573ffffffffffffffffffffffffffffffffffffffff1690602001909291905050506149ac565b604051808215151515815260200191505060405180910390f35b611686614a15565b6040518080602001828103825283818151815260200191508051906020019060200280838360005b838110156116c95780820151818401526020810190506116ae565b505050509050019250505060405180910390f35b606060006003600101805490506040519080825280602002602001820160405280156117185781602001602082028038833980820191505090505b50915060008090505b82518110156117cb57601e60006003600101838154811061173e57fe5b9060005260206000200154815260200190815260200160002060009054906101000a900473ffffffffffffffffffffffffffffffffffffffff1683828151811061178457fe5b602002602001019073ffffffffffffffffffffffffffffffffffffffff16908173ffffffffffffffffffffffffffffffffffffffff16815250508080600101915050611721565b5081600360000160009054906101000a900460ff16915091509091565b60106020528060005260406000206000915054906101000a900473ffffffffffffffffffffffffffffffffffffffff1681565b601160009054906101000a900473ffffffffffffffffffffffffffffffffffffffff1673ffffffffffffffffffffffffffffffffffffffff163373ffffffffffffffffffffffffffffffffffffffff161461187557600080fd5b6118e0828280806020026020016040519081016040528093929190818152602001838360200280828437600081840152601f19601f820116905080830192505050505050507f756e72657665616c656400000000000000000000000000000000000000000000614a6d565b5050565b6060600360010180548060200260200160405190810160405280929190818152602001828054801561193557602002820191906000526020600020905b815481526020019060010190808311611921575b5050505050905090565b601f6020528060005260406000206000915054906101000a900473ffffffffffffffffffffffffffffffffffffffff1681565b60008060036001018054905014905090565b6000600a6000601c60008573ffffffffffffffffffffffffffffffffffffffff1673ffffffffffffffffffffffffffffffffffffffff168152602001908152602001600020548152602001908152602001600020549050919050565b600060086000601c60008573ffffffffffffffffffffffffffffffffffffffff1673ffffffffffffffffffffffffffffffffffffffff168152602001908152602001600020548152602001908152602001600020549050919050565b60146020528060005260406000206000915054906101000a900473ffffffffffffffffffffffffffffffffffffffff1681565b601c6020528060005260406000206000915090505481565b6000601560009054906101000a900473ffffffffffffffffffffffffffffffffffffffff1673ffffffffffffffffffffffffffffffffffffffff163373ffffffffffffffffffffffffffffffffffffffff1614611ae357600080fd5b6000611aef8888614a7f565b9050611b848187878080601f016020809104026020016040519081016040528093929190818152602001838380828437600081840152601f19601f8201169050808301925050505050505086868080601f016020809104026020016040519081016040528093929190818152602001838380828437600081840152601f19601f82011690508083019250505050505050615392565b809150509695505050505050565b60246020528060005260406000206000915090508054600181600116156101000203166002900480601f016020809104026020016040519081016040528092919081815260200182805460018160011615610100020316600290048015611c3a5780601f10611c0f57610100808354040283529160200191611c3a565b820191906000526020600020905b815481529060010190602001808311611c1d57829003601f168201915b505050505081565b60008073ffffffffffffffffffffffffffffffffffffffff16600c60009054906101000a900473ffffffffffffffffffffffffffffffffffffffff1673ffffffffffffffffffffffffffffffffffffffff161415905090565b611ca3611c42565b611cac57600080fd5b60003390506000601060008373ffffffffffffffffffffffffffffffffffffffff1673ffffffffffffffffffffffffffffffffffffffff16815260200190815260200160002060009054906101000a900473ffffffffffffffffffffffffffffffffffffffff1690506000601d60008473ffffffffffffffffffffffffffffffffffffffff1673ffffffffffffffffffffffffffffffffffffffff168152602001908152602001600020549050600073ffffffffffffffffffffffffffffffffffffffff168473ffffffffffffffffffffffffffffffffffffffff161415611d9357600080fd5b600073ffffffffffffffffffffffffffffffffffffffff168273ffffffffffffffffffffffffffffffffffffffff161415611dcd57600080fd5b8373ffffffffffffffffffffffffffffffffffffffff168273ffffffffffffffffffffffffffffffffffffffff161415611e0657600080fd5b6000811415611e1457600080fd5b600060216000015414611e2657600080fd5b6000601560009054906101000a900473ffffffffffffffffffffffffffffffffffffffff1673ffffffffffffffffffffffffffffffffffffffff16638ba31a1c866040518263ffffffff1660e01b8152600401808273ffffffffffffffffffffffffffffffffffffffff1673ffffffffffffffffffffffffffffffffffffffff16815260200191505060206040518083038186803b158015611ec757600080fd5b505afa158015611edb573d6000803e3d6000fd5b505050506040513d6020811015611ef157600080fd5b810190808051906020019092919050505014611f0c57600080fd5b6000601a60008673ffffffffffffffffffffffffffffffffffffffff1673ffffffffffffffffffffffffffffffffffffffff1681526020019081526020016000205414611f5857600080fd5b601b60008573ffffffffffffffffffffffffffffffffffffffff1673ffffffffffffffffffffffffffffffffffffffff16815260200190815260200160002060009054906101000a900460ff1615611faf57600080fd5b600e600082815260200190815260200160002060009054906101000a900460ff16156123b357611fdd611972565b611fe657600080fd5b600560009054906101000a900460ff161561200057600080fd5b61216a6120b96002601160009054906101000a900473ffffffffffffffffffffffffffffffffffffffff1673ffffffffffffffffffffffffffffffffffffffff16631c77c58c6040518163ffffffff1660e01b815260040160206040518083038186803b15801561207057600080fd5b505afa158015612084573d6000803e3d6000fd5b505050506040513d602081101561209a57600080fd5b810190808051906020019092919050505061551190919063ffffffff16565b601560009054906101000a900473ffffffffffffffffffffffffffffffffffffffff1673ffffffffffffffffffffffffffffffffffffffff16638c2243ae6040518163ffffffff1660e01b815260040160206040518083038186803b15801561212157600080fd5b505afa158015612135573d6000803e3d6000fd5b505050506040513d602081101561214b57600080fd5b810190808051906020019092919050505061554b90919063ffffffff16565b612172615565565b1061217c57600080fd5b60606121866148bd565b905060008090505b8151811015612237578373ffffffffffffffffffffffffffffffffffffffff168282815181106121ba57fe5b602002602001015173ffffffffffffffffffffffffffffffffffffffff16141561222a57858282815181106121eb57fe5b602002602001019073ffffffffffffffffffffffffffffffffffffffff16908173ffffffffffffffffffffffffffffffffffffffff1681525050612237565b808060010191505061218e565b506001600360010190805461224d9291906160e1565b508160216000018190555084602160010160006101000a81548173ffffffffffffffffffffffffffffffffffffffff021916908373ffffffffffffffffffffffffffffffffffffffff160217905550601160009054906101000a900473ffffffffffffffffffffffffffffffffffffffff1673ffffffffffffffffffffffffffffffffffffffff16630b402823836040518263ffffffff1660e01b815260040180828152602001915050600060405180830381600087803b15801561231157600080fd5b505af1158015612325573d6000803e3d6000fd5b505050506001612333615565565b03407f55252fa6eee4741b4e24a74a70e9c11fd2c2281df8d6ea13126ff845f7825c89826040518080602001828103825283818151815260200191508051906020019060200280838360005b8381101561239a57808201518184015260208101905061237f565b505050509050019250505060405180910390a2506123ce565b6123bf8285838661556d565b6123c7615565565b6019819055505b8373ffffffffffffffffffffffffffffffffffffffff168273ffffffffffffffffffffffffffffffffffffffff16827fad4c947995a3daa512a7371d31325a21227249f8dc1c52c1a4c6fe8475a3ebb160405160405180910390a450505050565b6000612439611972565b80156124515750600560009054906101000a900460ff165b905090565b600080600960008481526020019081526020016000205490506000811415612482576000915050612491565b8061248b615565565b11159150505b919050565b600c60009054906101000a900473ffffffffffffffffffffffffffffffffffffffff1681565b600060096000601c60008573ffffffffffffffffffffffffffffffffffffffff1673ffffffffffffffffffffffffffffffffffffffff168152602001908152602001600020548152602001908152602001600020549050919050565b612520611c42565b61252957600080fd5b6000601d60003373ffffffffffffffffffffffffffffffffffffffff1673ffffffffffffffffffffffffffffffffffffffff168152602001908152602001600020549050600081141561257b57600080fd5b61260e8186868080601f016020809104026020016040519081016040528093929190818152602001838380828437600081840152601f19601f8201169050808301925050505050505085858080601f016020809104026020016040519081016040528093929190818152602001838380828437600081840152601f19601f82011690508083019250505050505050615392565b612616615565565b6019819055505050505050565b600c60009054906101000a900473ffffffffffffffffffffffffffffffffffffffff1673ffffffffffffffffffffffffffffffffffffffff163373ffffffffffffffffffffffffffffffffffffffff161461267d57600080fd5b6060601560009054906101000a900473ffffffffffffffffffffffffffffffffffffffff1673ffffffffffffffffffffffffffffffffffffffff1663a5d54f656040518163ffffffff1660e01b815260040160006040518083038186803b1580156126e757600080fd5b505afa1580156126fb573d6000803e3d6000fd5b505050506040513d6000823e3d601f19601f82011682018060405250602081101561272557600080fd5b81019080805164010000000081111561273d57600080fd5b8281019050602081018481111561275357600080fd5b815185602082028301116401000000008211171561277057600080fd5b50509291905050509050620186a08151101580156127a05750620186a0815114158061279f5750600060165414155b5b15612ad6576000601160009054906101000a900473ffffffffffffffffffffffffffffffffffffffff1673ffffffffffffffffffffffffffffffffffffffff1663832206266040518163ffffffff1660e01b815260040160206040518083038186803b15801561280f57600080fd5b505afa158015612823573d6000803e3d6000fd5b505050506040513d602081101561283957600080fd5b8101908080519060200190929190505050905060606000601560009054906101000a900473ffffffffffffffffffffffffffffffffffffffff1673ffffffffffffffffffffffffffffffffffffffff1663957950a76040518163ffffffff1660e01b815260040160006040518083038186803b1580156128b857600080fd5b505afa1580156128cc573d6000803e3d6000fd5b505050506040513d6000823e3d601f19601f8201168201806040525060408110156128f657600080fd5b81019080805164010000000081111561290e57600080fd5b8281019050602081018481111561292457600080fd5b815185602082028301116401000000008211171561294157600080fd5b505092919060200180519060200190929190505050915091506000825111801561296b5750600081115b15612ace576060600060165414612988576001620186a00361298d565b620186a05b6040519080825280602002602001820160405280156129bb5781602001602082028038833980820191505090505b50905060008551905060008090505b8251811015612ac15785604051602001808281526020019150506040516020818303038152906040528051906020012060001c95506000612a0c86868961580d565b9050878181518110612a1a57fe5b6020026020010151848381518110612a2e57fe5b602002602001018181525050858181518110612a4657fe5b602002602001015185039450828060019003935050878381518110612a6757fe5b6020026020010151888281518110612a7b57fe5b602002602001018181525050858381518110612a9357fe5b6020026020010151868281518110612aa757fe5b6020026020010181815250505080806001019150506129ca565b50612acb82615863565b50505b505050612ae0565b612adf81615863565b5b612aea6001615b7a565b6000815114612b7657601560009054906101000a900473ffffffffffffffffffffffffffffffffffffffff1673ffffffffffffffffffffffffffffffffffffffff16631555371c6040518163ffffffff1660e01b8152600401600060405180830381600087803b158015612b5d57600080fd5b505af1158015612b71573d6000803e3d6000fd5b505050505b601560009054906101000a900473ffffffffffffffffffffffffffffffffffffffff1673ffffffffffffffffffffffffffffffffffffffff1663ee435f556040518163ffffffff1660e01b8152600401600060405180830381600087803b158015612be057600080fd5b505af1158015612bf4573d6000803e3d6000fd5b50505050601560009054906101000a900473ffffffffffffffffffffffffffffffffffffffff1673ffffffffffffffffffffffffffffffffffffffff166320d96e466001612c40615565565b016040518263ffffffff1660e01b815260040180828152602001915050600060405180830381600087803b158015612c7757600080fd5b505af1158015612c8b573d6000803e3d6000fd5b505050506000601881905550612c9f615565565b60198190555050565b60606001805480602002602001604051908101604052809291908181526020018280548015612cf657602002820191906000526020600020905b815481526020019060010190808311612ce2575b5050505050905090565b601b6020528060005260406000206000915054906101000a900460ff1681565b60165481565b620186a081565b612d35611c42565b612d3e57600080fd5b60006016541415612d4e57600080fd5b6000601f6000601654815260200190815260200160002060009054906101000a900473ffffffffffffffffffffffffffffffffffffffff1690508073ffffffffffffffffffffffffffffffffffffffff163373ffffffffffffffffffffffffffffffffffffffff161480612df45750612dc5615bde565b73ffffffffffffffffffffffffffffffffffffffff163373ffffffffffffffffffffffffffffffffffffffff16145b612dfd57600080fd5b601560009054906101000a900473ffffffffffffffffffffffffffffffffffffffff1673ffffffffffffffffffffffffffffffffffffffff16632f248e306016546040518263ffffffff1660e01b815260040180828152602001915050600060405180830381600087803b158015612e7457600080fd5b505af1158015612e88573d6000803e3d6000fd5b505050506000601681905550612e9c615565565b60198190555050565b60195481565b73fffffffffffffffffffffffffffffffffffffffe73ffffffffffffffffffffffffffffffffffffffff163373ffffffffffffffffffffffffffffffffffffffff1614612ef757600080fd5b600360000160009054906101000a900460ff1615612fb657612f17615c0f565b612f216001615cf2565b600c60009054906101000a900473ffffffffffffffffffffffffffffffffffffffff1673ffffffffffffffffffffffffffffffffffffffff1663c5dd76286040518163ffffffff1660e01b8152600401600060405180830381600087803b158015612f8b57600080fd5b505af1158015612f9f573d6000803e3d6000fd5b50505050612fab615565565b601881905550612fe5565b600060036001018054905014612fd557612fd06000615cf2565b612fe4565b612fdd615565565b6018819055505b5b612fed615e9a565b6003600080820160006101000a81549060ff02191690556001820160006130149190616133565b505061301e615565565b601981905550565b61302e611c42565b61303757600080fd5b60003390506000601d60008373ffffffffffffffffffffffffffffffffffffffff1673ffffffffffffffffffffffffffffffffffffffff168152602001908152602001600020549050600073ffffffffffffffffffffffffffffffffffffffff168373ffffffffffffffffffffffffffffffffffffffff1614156130ba57600080fd5b8273ffffffffffffffffffffffffffffffffffffffff168273ffffffffffffffffffffffffffffffffffffffff1614156130f357600080fd5b600081141561310157600080fd5b60006021600001541461311357600080fd5b6000601560009054906101000a900473ffffffffffffffffffffffffffffffffffffffff1673ffffffffffffffffffffffffffffffffffffffff16638ba31a1c856040518263ffffffff1660e01b8152600401808273ffffffffffffffffffffffffffffffffffffffff1673ffffffffffffffffffffffffffffffffffffffff16815260200191505060206040518083038186803b1580156131b457600080fd5b505afa1580156131c8573d6000803e3d6000fd5b505050506040513d60208110156131de57600080fd5b8101908080519060200190929190505050146131f957600080fd5b6000601a60008573ffffffffffffffffffffffffffffffffffffffff1673ffffffffffffffffffffffffffffffffffffffff168152602001908152602001600020541461324557600080fd5b601b60008473ffffffffffffffffffffffffffffffffffffffff1673ffffffffffffffffffffffffffffffffffffffff16815260200190815260200160002060009054906101000a900460ff161561329c57600080fd5b6000601e600083815260200190815260200160002060009054906101000a900473ffffffffffffffffffffffffffffffffffffffff1690506000601d60008573ffffffffffffffffffffffffffffffffffffffff1673ffffffffffffffffffffffffffffffffffffffff1681526020019081526020016000208190555081601d60008673ffffffffffffffffffffffffffffffffffffffff1673ffffffffffffffffffffffffffffffffffffffff168152602001908152602001600020819055506000601060008573ffffffffffffffffffffffffffffffffffffffff1673ffffffffffffffffffffffffffffffffffffffff16815260200190815260200160002060006101000a81548173ffffffffffffffffffffffffffffffffffffffff021916908373ffffffffffffffffffffffffffffffffffffffff16021790555080601060008673ffffffffffffffffffffffffffffffffffffffff1673ffffffffffffffffffffffffffffffffffffffff16815260200190815260200160002060006101000a81548173ffffffffffffffffffffffffffffffffffffffff021916908373ffffffffffffffffffffffffffffffffffffffff16021790555083601f600084815260200190815260200160002060006101000a81548173ffffffffffffffffffffffffffffffffffffffff021916908373ffffffffffffffffffffffffffffffffffffffff16021790555083601460008373ffffffffffffffffffffffffffffffffffffffff1673ffffffffffffffffffffffffffffffffffffffff16815260200190815260200160002060006101000a81548173ffffffffffffffffffffffffffffffffffffffff021916908373ffffffffffffffffffffffffffffffffffffffff1602179055506001601b60008673ffffffffffffffffffffffffffffffffffffffff1673ffffffffffffffffffffffffffffffffffffffff16815260200190815260200160002060006101000a81548160ff02191690831515021790555061358a615565565b6019819055508373ffffffffffffffffffffffffffffffffffffffff168373ffffffffffffffffffffffffffffffffffffffff16837f5c44164828293bba0353472e907f7ee26a8659f916e6311fe826a7c70510e35260405160405180910390a450505050565b601a6020528060005260406000206000915090505481565b600080821561365957601c60008573ffffffffffffffffffffffffffffffffffffffff1673ffffffffffffffffffffffffffffffffffffffff16815260200190815260200160002054905061369c565b601a60008573ffffffffffffffffffffffffffffffffffffffff1673ffffffffffffffffffffffffffffffffffffffff1681526020019081526020016000205490505b6000600e600083815260200190815260200160002060009054906101000a900460ff1680156136d157506136cf82612456565b155b90506000601560009054906101000a900473ffffffffffffffffffffffffffffffffffffffff1673ffffffffffffffffffffffffffffffffffffffff1663794c0c686040518163ffffffff1660e01b815260040160206040518083038186803b15801561373d57600080fd5b505afa158015613751573d6000803e3d6000fd5b505050506040513d602081101561376757600080fd5b8101908080519060200190929190505050148061378657506000601854145b156137955780925050506137fa565b620186a06018546137a4615565565b03116137f4576000600f600084815260200190815260200160002060009054906101000a900460ff1680156137df57506137dd83612456565b155b905081806137ea5750805b93505050506137fa565b80925050505b92915050565b60218060000154908060010160009054906101000a900473ffffffffffffffffffffffffffffffffffffffff16905082565b61383a611c42565b61384357600080fd5b61384b61242f565b61385457600080fd5b600061385e615f8d565b90506000600180549050111561393b576001613878615565565b03407f55252fa6eee4741b4e24a74a70e9c11fd2c2281df8d6ea13126ff845f7825c896138a36148bd565b6040518080602001828103825283818151815260200191508051906020019060200280838360005b838110156138e65780820151818401526020810190506138cb565b505050509050019250505060405180910390a26001600360010190805461390e9291906160e1565b5080600360000160006101000a81548160ff021916908315150217905550613934615565565b6019819055505b50565b600e6020528060005260406000206000915054906101000a900460ff1681565b6000613968615565565b14806139a65750613977615bde565b73ffffffffffffffffffffffffffffffffffffffff163373ffffffffffffffffffffffffffffffffffffffff16145b6139af57600080fd5b6139b7611c42565b156139c157600080fd5b600073ffffffffffffffffffffffffffffffffffffffff168873ffffffffffffffffffffffffffffffffffffffff1614156139fb57600080fd5b600073ffffffffffffffffffffffffffffffffffffffff168773ffffffffffffffffffffffffffffffffffffffff161415613a3557600080fd5b600073ffffffffffffffffffffffffffffffffffffffff168673ffffffffffffffffffffffffffffffffffffffff161415613a6f57600080fd5b60008585905011613a7f57600080fd5b828290508585905014613a9157600080fd5b87600c60006101000a81548173ffffffffffffffffffffffffffffffffffffffff021916908373ffffffffffffffffffffffffffffffffffffffff16021790555086601160006101000a81548173ffffffffffffffffffffffffffffffffffffffff021916908373ffffffffffffffffffffffffffffffffffffffff16021790555085601560006101000a81548173ffffffffffffffffffffffffffffffffffffffff021916908373ffffffffffffffffffffffffffffffffffffffff160217905550613b5c615565565b60198190555060008090505b85859050811015613cac576000868683818110613b8157fe5b9050602002013573ffffffffffffffffffffffffffffffffffffffff1690506000858584818110613bae57fe5b9050602002013573ffffffffffffffffffffffffffffffffffffffff1690506000613bd98383614a7f565b9050600081908060018154018082558091505090600182039060005260206000200160009091929091909150555060018190806001815401808255809150509060018203906000526020600020016000909192909190915055506001600e600083815260200190815260200160002060006101000a81548160ff0219169083151502179055506017600082815260200190815260200160002060008154809291906001019190505550600084148015613c8f5750845b15613c9c57806016819055505b5050508080600101915050613b68565b505050505050505050565b601d6020528060005260406000206000915090505481565b6000600e600083815260200190815260200160002060009054906101000a900460ff1615613d005760019050613da8565b6000806003600101805490509050600091505b80821015613d555760036001018281548110613d2b57fe5b9060005260206000200154841415613d4857600192505050613da8565b8180600101925050613d13565b6001805490509050600091505b80821015613da15760018281548110613d7757fe5b9060005260206000200154841415613d9457600192505050613da8565b8180600101925050613d62565b6000925050505b919050565b6000600a600083815260200190815260200160002054613dcb615565565b11159050919050565b60205481565b600080613de8856001613609565b613df8576000809150915061409c565b613e03846000613609565b613e13576000809150915061409c565b6000601c60008773ffffffffffffffffffffffffffffffffffffffff1673ffffffffffffffffffffffffffffffffffffffff1681526020019081526020016000205490506000601a60008773ffffffffffffffffffffffffffffffffffffffff1673ffffffffffffffffffffffffffffffffffffffff1681526020019081526020016000205490506000808054905090506001811115613fe5576000601560009054906101000a900473ffffffffffffffffffffffffffffffffffffffff1673ffffffffffffffffffffffffffffffffffffffff1663794c0c686040518163ffffffff1660e01b815260040160206040518083038186803b158015613f1757600080fd5b505afa158015613f2b573d6000803e3d6000fd5b505050506040513d6020811015613f4157600080fd5b8101908080519060200190929190505050905060006012600086815260200190815260200160002060008381526020019081526020016000205490506000601360008481526020019081526020016000205490506000809050828210613fb3576001850383830381613faf57fe5b0490505b6032850283118015613fc75750600a810283115b15613fe05760006001985098505050505050505061409c565b505050505b6000613fef615565565b90508087111561400957600080955095505050505061409c565b600060649050808211801561401f575080820388105b156140355760008096509650505050505061409c565b600760008581526020019081526020016000206000898152602001908152602001600020600086815260200190815260200160002060009054906101000a900460ff161561408e5760008096509650505050505061409c565b600160009650965050505050505b935093915050565b60006140af82611984565b6140b7615565565b11159050919050565b6000806140cc836124bc565b905060008114156140e15760009150506140f0565b806140ea615565565b11159150505b919050565b600060176000601c60008573ffffffffffffffffffffffffffffffffffffffff1673ffffffffffffffffffffffffffffffffffffffff168152602001908152602001600020548152602001908152602001600020549050919050565b6060806000805490506040519080825280602002602001820160405280156141885781602001602082028038833980820191505090505b50905060008090505b815181101561423757601e60008083815481106141aa57fe5b9060005260206000200154815260200190815260200160002060009054906101000a900473ffffffffffffffffffffffffffffffffffffffff168282815181106141f057fe5b602002602001019073ffffffffffffffffffffffffffffffffffffffff16908173ffffffffffffffffffffffffffffffffffffffff16815250508080600101915050614191565b508091505090565b60185481565b61424d611c42565b61425657600080fd5b60003390506000601c60008373ffffffffffffffffffffffffffffffffffffffff1673ffffffffffffffffffffffffffffffffffffffff1681526020019081526020016000205490506000601a60008873ffffffffffffffffffffffffffffffffffffffff1673ffffffffffffffffffffffffffffffffffffffff1681526020019081526020016000205490506142ee836001613609565b156142fd576142fc82615fdf565b5b60008061430b858a8a613dda565b91509150816143cd5780156143c3576060600160405190808252806020026020018201604052801561434c5781602001602082028038833980820191505090505b509050858160008151811061435d57fe5b602002602001019073ffffffffffffffffffffffffffffffffffffffff16908173ffffffffffffffffffffffffffffffffffffffff16815250506143c1817f7370616d00000000000000000000000000000000000000000000000000000000614a6d565b505b50505050506145f1565b60006006600085815260200190815260200160002060008a815260200190815260200160002090508085908060018154018082558091505090600182039060005260206000200160009091929091909150555060016007600086815260200190815260200160002060008b8152602001908152602001600020600087815260200190815260200160002060006101000a81548160ff0219169083151502179055507fc98c577e9aca0ce08e747dd843b95214821e69106d6916218997e8a8f357f318868b8b8888604051808673ffffffffffffffffffffffffffffffffffffffff1673ffffffffffffffffffffffffffffffffffffffff1681526020018573ffffffffffffffffffffffffffffffffffffffff1673ffffffffffffffffffffffffffffffffffffffff1681526020018481526020018381526020018281526020019550505050505060405180910390a160008054905061453b6002838054905061551190919063ffffffff16565b11156145ea57606060016040519080825280602002602001820160405280156145735781602001602082028038833980820191505090505b5090508a8160008151811061458457fe5b602002602001019073ffffffffffffffffffffffffffffffffffffffff16908173ffffffffffffffffffffffffffffffffffffffff16815250506145e8817f6d616c6963696f75730000000000000000000000000000000000000000000000614a6d565b505b5050505050505b50505050565b6000600b6000601c60008573ffffffffffffffffffffffffffffffffffffffff1673ffffffffffffffffffffffffffffffffffffffff168152602001908152602001600020548152602001908152602001600020549050919050565b60008061465e615565565b905060018101831115614675576000915050614781565b60648111801561468757508260648203115b15614696576000915050614781565b6000601a60008673ffffffffffffffffffffffffffffffffffffffff1673ffffffffffffffffffffffffffffffffffffffff1681526020019081526020016000205490506146e381612456565b156146f357600092505050614781565b6000601c60008873ffffffffffffffffffffffffffffffffffffffff1673ffffffffffffffffffffffffffffffffffffffff168152602001908152602001600020549050600760008381526020019081526020016000206000868152602001908152602001600020600082815260200190815260200160002060009054906101000a900460ff161593505050505b9392505050565b60236020528060005260406000206000915090508054600181600116156101000203166002900480601f0160208091040260200160405190810160405280929190818152602001828054600181600116156101000203166002900480156148305780601f1061480557610100808354040283529160200191614830565b820191906000526020600020905b81548152906001019060200180831161481357829003601f168201915b505050505081565b601160009054906101000a900473ffffffffffffffffffffffffffffffffffffffff1681565b600d5481565b601e6020528060005260406000206000915054906101000a900473ffffffffffffffffffffffffffffffffffffffff1681565b601560009054906101000a900473ffffffffffffffffffffffffffffffffffffffff1681565b6060806001805490506040519080825280602002602001820160405280156148f45781602001602082028038833980820191505090505b50905060008090505b81518110156149a457601e60006001838154811061491757fe5b9060005260206000200154815260200190815260200160002060009054906101000a900473ffffffffffffffffffffffffffffffffffffffff1682828151811061495d57fe5b602002602001019073ffffffffffffffffffffffffffffffffffffffff16908173ffffffffffffffffffffffffffffffffffffffff168152505080806001019150506148fd565b508091505090565b6000600e6000601c60008573ffffffffffffffffffffffffffffffffffffffff1673ffffffffffffffffffffffffffffffffffffffff16815260200190815260200160002054815260200190815260200160002060009054906101000a900460ff169050919050565b60606000805480602002602001604051908101604052809291908181526020018280548015614a6357602002820191906000526020600020905b815481526020019060010190808311614a4f575b5050505050905090565b614a75615565565b6019819055505050565b60008060216000015414614a9257600080fd5b600073ffffffffffffffffffffffffffffffffffffffff168373ffffffffffffffffffffffffffffffffffffffff161415614acc57600080fd5b600073ffffffffffffffffffffffffffffffffffffffff168273ffffffffffffffffffffffffffffffffffffffff161415614b0657600080fd5b8173ffffffffffffffffffffffffffffffffffffffff168373ffffffffffffffffffffffffffffffffffffffff161415614b3f57600080fd5b600073ffffffffffffffffffffffffffffffffffffffff16601060008473ffffffffffffffffffffffffffffffffffffffff1673ffffffffffffffffffffffffffffffffffffffff16815260200190815260200160002060009054906101000a900473ffffffffffffffffffffffffffffffffffffffff1673ffffffffffffffffffffffffffffffffffffffff1614614bd757600080fd5b600073ffffffffffffffffffffffffffffffffffffffff16601060008573ffffffffffffffffffffffffffffffffffffffff1673ffffffffffffffffffffffffffffffffffffffff16815260200190815260200160002060009054906101000a900473ffffffffffffffffffffffffffffffffffffffff1673ffffffffffffffffffffffffffffffffffffffff1614614c6f57600080fd5b600073ffffffffffffffffffffffffffffffffffffffff16601460008473ffffffffffffffffffffffffffffffffffffffff1673ffffffffffffffffffffffffffffffffffffffff16815260200190815260200160002060009054906101000a900473ffffffffffffffffffffffffffffffffffffffff1673ffffffffffffffffffffffffffffffffffffffff1614614d0757600080fd5b600073ffffffffffffffffffffffffffffffffffffffff16601460008573ffffffffffffffffffffffffffffffffffffffff1673ffffffffffffffffffffffffffffffffffffffff16815260200190815260200160002060009054906101000a900473ffffffffffffffffffffffffffffffffffffffff1673ffffffffffffffffffffffffffffffffffffffff1614614d9f57600080fd5b6000601560009054906101000a900473ffffffffffffffffffffffffffffffffffffffff1673ffffffffffffffffffffffffffffffffffffffff16638ba31a1c856040518263ffffffff1660e01b8152600401808273ffffffffffffffffffffffffffffffffffffffff1673ffffffffffffffffffffffffffffffffffffffff16815260200191505060206040518083038186803b158015614e4057600080fd5b505afa158015614e54573d6000803e3d6000fd5b505050506040513d6020811015614e6a57600080fd5b810190808051906020019092919050505014614e8557600080fd5b6000601560009054906101000a900473ffffffffffffffffffffffffffffffffffffffff1673ffffffffffffffffffffffffffffffffffffffff16638ba31a1c846040518263ffffffff1660e01b8152600401808273ffffffffffffffffffffffffffffffffffffffff1673ffffffffffffffffffffffffffffffffffffffff16815260200191505060206040518083038186803b158015614f2657600080fd5b505afa158015614f3a573d6000803e3d6000fd5b505050506040513d6020811015614f5057600080fd5b810190808051906020019092919050505014614f6b57600080fd5b6000601a60008573ffffffffffffffffffffffffffffffffffffffff1673ffffffffffffffffffffffffffffffffffffffff1681526020019081526020016000205414614fb757600080fd5b6000601a60008473ffffffffffffffffffffffffffffffffffffffff1673ffffffffffffffffffffffffffffffffffffffff168152602001908152602001600020541461500357600080fd5b601b60008473ffffffffffffffffffffffffffffffffffffffff1673ffffffffffffffffffffffffffffffffffffffff16815260200190815260200160002060009054906101000a900460ff161561505a57600080fd5b601b60008373ffffffffffffffffffffffffffffffffffffffff1673ffffffffffffffffffffffffffffffffffffffff16815260200190815260200160002060009054906101000a900460ff16156150b157600080fd5b6000602060008154600101919050819055905080601c60008673ffffffffffffffffffffffffffffffffffffffff1673ffffffffffffffffffffffffffffffffffffffff1681526020019081526020016000208190555080601d60008573ffffffffffffffffffffffffffffffffffffffff1673ffffffffffffffffffffffffffffffffffffffff1681526020019081526020016000208190555083601e600083815260200190815260200160002060006101000a81548173ffffffffffffffffffffffffffffffffffffffff021916908373ffffffffffffffffffffffffffffffffffffffff16021790555083601060008573ffffffffffffffffffffffffffffffffffffffff1673ffffffffffffffffffffffffffffffffffffffff16815260200190815260200160002060006101000a81548173ffffffffffffffffffffffffffffffffffffffff021916908373ffffffffffffffffffffffffffffffffffffffff16021790555082601f600083815260200190815260200160002060006101000a81548173ffffffffffffffffffffffffffffffffffffffff021916908373ffffffffffffffffffffffffffffffffffffffff16021790555082601460008673ffffffffffffffffffffffffffffffffffffffff1673ffffffffffffffffffffffffffffffffffffffff16815260200190815260200160002060006101000a81548173ffffffffffffffffffffffffffffffffffffffff021916908373ffffffffffffffffffffffffffffffffffffffff16021790555080601a60008673ffffffffffffffffffffffffffffffffffffffff1673ffffffffffffffffffffffffffffffffffffffff168152602001908152602001600020819055506001601b60008573ffffffffffffffffffffffffffffffffffffffff1673ffffffffffffffffffffffffffffffffffffffff16815260200190815260200160002060006101000a81548160ff0219169083151502179055508091505092915050565b610100825111156153a257600080fd5b610400815111156153b257600080fd5b816023600085815260200190815260200160002090805190602001906153d9929190616154565b5080602460008581526020019081526020016000209080519060200190615401929190616154565b50827f79a6be597f1291d06b4ccea662f373201edec72cbcc5df2ccfcd74ce9ff4b2e98383604051808060200180602001838103835285818151815260200191508051906020019080838360005b8381101561546a57808201518184015260208101905061544f565b50505050905090810190601f1680156154975780820380516001836020036101000a031916815260200191505b50838103825284818151815260200191508051906020019080838360005b838110156154d05780820151818401526020810190506154b5565b50505050905090810190601f1680156154fd5780820380516001836020036101000a031916815260200191505b5094505050505060405180910390a2505050565b6000808314156155245760009050615545565b600082840290508284828161553557fe5b041461554057600080fd5b809150505b92915050565b60008282111561555a57600080fd5b818303905092915050565b600043905090565b6000601c60008673ffffffffffffffffffffffffffffffffffffffff1673ffffffffffffffffffffffffffffffffffffffff1681526020019081526020016000208190555081601c60008573ffffffffffffffffffffffffffffffffffffffff1673ffffffffffffffffffffffffffffffffffffffff1681526020019081526020016000208190555082601e600084815260200190815260200160002060006101000a81548173ffffffffffffffffffffffffffffffffffffffff021916908373ffffffffffffffffffffffffffffffffffffffff16021790555082601060008373ffffffffffffffffffffffffffffffffffffffff1673ffffffffffffffffffffffffffffffffffffffff16815260200190815260200160002060006101000a81548173ffffffffffffffffffffffffffffffffffffffff021916908373ffffffffffffffffffffffffffffffffffffffff1602179055506000601460008673ffffffffffffffffffffffffffffffffffffffff1673ffffffffffffffffffffffffffffffffffffffff16815260200190815260200160002060006101000a81548173ffffffffffffffffffffffffffffffffffffffff021916908373ffffffffffffffffffffffffffffffffffffffff16021790555080601460008573ffffffffffffffffffffffffffffffffffffffff1673ffffffffffffffffffffffffffffffffffffffff16815260200190815260200160002060006101000a81548173ffffffffffffffffffffffffffffffffffffffff021916908373ffffffffffffffffffffffffffffffffffffffff16021790555081601a60008573ffffffffffffffffffffffffffffffffffffffff1673ffffffffffffffffffffffffffffffffffffffff1681526020019081526020016000208190555050505050565b60008083838161581957fe5b069050600080905060008090505b8282116158535786818151811061583a57fe5b6020026020010151820191508080600101915050615827565b6001810393505050509392505050565b600081511415615ad35760008090505b600180549050811015615acd5760006001828154811061588f57fe5b906000526020600020015490506016548114156158ac5750615ac0565b601560009054906101000a900473ffffffffffffffffffffffffffffffffffffffff1673ffffffffffffffffffffffffffffffffffffffff1663bbbaf8c8826040518263ffffffff1660e01b81526004018082815260200191505060206040518083038186803b15801561591f57600080fd5b505afa158015615933573d6000803e3d6000fd5b505050506040513d602081101561594957600080fd5b81019080805190602001909291905050508015615a4857506000601560009054906101000a900473ffffffffffffffffffffffffffffffffffffffff1673ffffffffffffffffffffffffffffffffffffffff1663e3f0ff668360006040518363ffffffff1660e01b8152600401808381526020018273ffffffffffffffffffffffffffffffffffffffff1673ffffffffffffffffffffffffffffffffffffffff1681526020019250505060206040518083038186803b158015615a0b57600080fd5b505afa158015615a1f573d6000803e3d6000fd5b505050506040513d6020811015615a3557600080fd5b8101908080519060200190929190505050145b15615a535750615ac0565b600180805490501415615a665750615acd565b60018080805490500381548110615a7957fe5b906000526020600020015460018381548110615a9157fe5b90600052602060002001819055506001805480919060019003615ab491906161d4565b50818060019003925050505b8080600101915050615873565b50615b77565b60016000615ae19190616133565b600060165414615b1a57600160165490806001815401808255809150509060018203906000526020600020016000909192909190915055505b60008090505b8151811015615b75576001828281518110615b3757fe5b602002602001015190806001815401808255809150509060018203906000526020600020016000909192909190915055508080600101915050615b20565b505b50565b6001600560006101000a81548160ff021916908315150217905550808015615ba85750600060018054905014155b15615bc9576001600560016101000a81548160ff0219169083151502179055505b600d6000815480929190600101919050555050565b6000807fb53127684a568b3173ae13b9f8a6016e243e63b6e8ee1178d6a717850b5d610360001b9050805491505090565b6000806002805490509150600090505b81811015615c77576000600f600060028481548110615c3a57fe5b9060005260206000200154815260200190815260200160002060006101000a81548160ff0219169083151502179055508080600101915050615c1f565b6000805490509150600090505b81811015615cdb576001600f6000808481548110615c9e57fe5b9060005260206000200154815260200190815260200160002060006101000a81548160ff0219169083151502179055508080600101915050615c84565b60006002908054615ced9291906160e1565b505050565b6060600080805480602002602001604051908101604052809291908181526020018280548015615d4157602002820191906000526020600020905b815481526020019060010190808311615d2d575b50505050509150600090505b8151811015615da2576000600e6000848481518110615d6857fe5b6020026020010151815260200190815260200160002060006101000a81548160ff0219169083151502179055508080600101915050615d4d565b60036001016000908054615db79291906160e1565b506000805480602002602001604051908101604052809291908181526020018280548015615e0457602002820191906000526020600020905b815481526020019060010190808311615df0575b50505050509150600090505b8151811015615e95576000828281518110615e2757fe5b602002602001015190506001600e600083815260200190815260200160002060006101000a81548160ff0219169083151502179055508315615e875760176000828152602001908152602001600020600081548092919060010191905055505b508080600101915050615e10565b505050565b6000602160000154905060008114615f56576000601e600083815260200190815260200160002060009054906101000a900473ffffffffffffffffffffffffffffffffffffffff1690506000602160010160009054906101000a900473ffffffffffffffffffffffffffffffffffffffff1690506000601f600085815260200190815260200160002060009054906101000a900473ffffffffffffffffffffffffffffffffffffffff169050615f528383868461556d565b5050505b60216000808201600090556001820160006101000a81549073ffffffffffffffffffffffffffffffffffffffff0219169055505050565b600080600560019054906101000a900460ff1690506000600560006101000a81548160ff0219169083151502179055506000600560016101000a81548160ff0219169083151502179055508091505090565b6000601560009054906101000a900473ffffffffffffffffffffffffffffffffffffffff1673ffffffffffffffffffffffffffffffffffffffff1663794c0c686040518163ffffffff1660e01b815260040160206040518083038186803b15801561604957600080fd5b505afa15801561605d573d6000803e3d6000fd5b505050506040513d602081101561607357600080fd5b810190808051906020019092919050505090506012600083815260200190815260200160002060008281526020019081526020016000206000815480929190600101919050555060136000828152602001908152602001600020600081548092919060010191905055505050565b8280548282559060005260206000209081019282156161225760005260206000209182015b82811115616121578254825591600101919060010190616106565b5b50905061612f9190616200565b5090565b50805460008255906000526020600020908101906161519190616200565b50565b828054600181600116156101000203166002900490600052602060002090601f016020900481019282601f1061619557805160ff19168380011785556161c3565b828001600101855582156161c3579182015b828111156161c25782518255916020019190600101906161a7565b5b5090506161d09190616200565b5090565b8154818355818111156161fb578183600052602060002091820191016161fa9190616200565b5b505050565b61622291905b8082111561621e576000816000905550600101616206565b5090565b9056fea265627a7a72305820fd83e233eebd059449418d81bb06a8d028d65158c73ae0fd31466db655c8aa8464736f6c634300050a0032",
  "source": "pragma solidity 0.5.10;\n\nimport \"./interfaces/IBlockRewardAuRa.sol\";\nimport \"./interfaces/IRandomAuRa.sol\";\nimport \"./interfaces/IStakingAuRa.sol\";\nimport \"./interfaces/IValidatorSetAuRa.sol\";\nimport \"./upgradeability/UpgradeabilityAdmin.sol\";\nimport \"./libs/SafeMath.sol\";\n\n\n/// @dev Stores the current validator set and contains the logic for choosing new validators\n/// before each staking epoch. The logic uses a random seed generated and stored by the `RandomAuRa` contract.\ncontract ValidatorSetAuRa is UpgradeabilityAdmin, IValidatorSetAuRa {\n    using SafeMath for uint256;\n\n    // =============================================== Storage ========================================================\n\n    // WARNING: since this contract is upgradeable, do not remove\n    // existing storage variables, do not change their order,\n    // and do not change their types!\n\n    uint256[] internal _currentValidators;\n    uint256[] internal _pendingValidators;\n    uint256[] internal _previousValidators;\n    struct ValidatorsList {\n        bool forNewEpoch;\n        uint256[] list;\n    }\n    ValidatorsList internal _finalizeValidators;\n\n    bool internal _pendingValidatorsChanged;\n    bool internal _pendingValidatorsChangedForNewEpoch;\n\n    mapping(uint256 => mapping(uint256 => uint256[])) internal _maliceReportedForBlock;\n    mapping(uint256 => mapping(uint256 => mapping(uint256 => bool))) internal _maliceReportedForBlockMapped;\n\n    /// @dev How many times a given validator (pool id) was banned.\n    mapping(uint256 => uint256) internal _banCounter;\n\n    /// @dev The block number when the ban will be lifted for the specified pool id.\n    mapping(uint256 => uint256) internal _bannedUntil;\n\n    /// @dev The block number when the ban will be lifted for delegators\n    /// of the specified pool (id).\n    mapping(uint256 => uint256) internal _bannedDelegatorsUntil;\n\n    /// @dev The reason for the latest ban of the specified pool id. See the `_removeMaliciousValidator`\n    /// internal function description for the list of possible reasons.\n    mapping(uint256 => bytes32) internal _banReason;\n\n    /// @dev The address of the `BlockRewardAuRa` contract.\n    address public blockRewardContract;\n\n    /// @dev The serial number of a validator set change request. The counter is incremented\n    /// every time a validator set needs to be changed.\n    uint256 public changeRequestCount;\n\n    /// @dev A boolean flag indicating whether the specified pool id is in the current validator set.\n    /// See also the `getValidators` getter.\n    mapping(uint256 => bool) public isValidatorById;\n\n    /// @dev A boolean flag indicating whether the specified pool id was a validator in the previous set.\n    mapping(uint256 => bool) internal _isValidatorPrevious;\n\n    /// @dev A mining address bound to a specified staking address.\n    /// See the `_addPool` internal function.\n    mapping(address => address) public miningByStakingAddress;\n\n    /// @dev The `RandomAuRa` contract address.\n    address public randomContract;\n\n    /// @dev The number of times the specified validator (pool id) reported misbehaviors during the specified\n    /// staking epoch. Used by the `reportMaliciousCallable` getter and `reportMalicious` function to determine\n    /// whether a validator reported too often.\n    mapping(uint256 => mapping(uint256 => uint256)) internal _reportingCounter;\n\n    /// @dev How many times all validators reported misbehaviors during the specified staking epoch.\n    /// Used by the `reportMaliciousCallable` getter and `reportMalicious` function to determine\n    /// whether a validator reported too often.\n    mapping(uint256 => uint256) internal _reportingCounterTotal;\n\n    /// @dev A staking address bound to a specified mining address.\n    /// See the `_addPool` internal function.\n    mapping(address => address) public stakingByMiningAddress;\n\n    /// @dev The `StakingAuRa` contract address.\n    IStakingAuRa public stakingContract;\n\n    /// @dev The pool id of the non-removable validator.\n    /// Returns zero if a non-removable validator is not defined.\n    uint256 public unremovableValidator;\n\n    /// @dev How many times the given pool id has become a validator.\n    mapping(uint256 => uint256) internal _validatorCounter;\n\n    /// @dev The block number when the `finalizeChange` function was called to apply\n    /// the current validator set formed by the `newValidatorSet` function. If it is zero,\n    /// it means the `newValidatorSet` function has already been called (a new staking epoch has been started),\n    /// but the new staking epoch's validator set hasn't yet been finalized by the `finalizeChange` function.\n    uint256 public validatorSetApplyBlock;\n\n    /// @dev The block number of the last change in this contract.\n    /// Can be used by Staking DApp.\n    uint256 public lastChangeBlock;\n\n    /// @dev Designates whether the specified address has ever been a mining address.\n    /// Returns pool id which has ever be bound to the specified mining address.\n    mapping(address => uint256) public hasEverBeenMiningAddress;\n\n    /// @dev Designates whether the specified address has ever been a staking address.\n    mapping(address => bool) public hasEverBeenStakingAddress;\n\n    /// @dev A pool id bound to a specified mining address.\n    /// See the `_addPool` internal function.\n    mapping(address => uint256) public idByMiningAddress;\n\n    /// @dev A pool id bound to a specified staking address.\n    /// See the `_addPool` internal function.\n    mapping(address => uint256) public idByStakingAddress;\n\n    /// @dev A pool mining address bound to a specified id.\n    /// See the `_addPool` internal function.\n    mapping(uint256 => address) public miningAddressById;\n\n    /// @dev A pool staking address bound to a specified id.\n    /// See the `_addPool` internal function.\n    mapping(uint256 => address) public stakingAddressById;\n\n    /// @dev Stores the last pool id used for a new pool creation.\n    /// Increments each time a new pool is created by the `addPool` function.\n    uint256 public lastPoolId;\n\n    struct MiningAddressChangeRequest {\n        uint256 poolId;\n        address newMiningAddress;\n    }\n    MiningAddressChangeRequest public miningAddressChangeRequest;\n\n    /// @dev Stores pool's name as UTF-8 string.\n    mapping(uint256 => string) public poolName;\n\n    /// @dev Stores pool's short description as UTF-8 string.\n    mapping(uint256 => string) public poolDescription;\n\n    // ============================================== Constants =======================================================\n\n    /// @dev The max number of validators.\n    uint256 public constant MAX_VALIDATORS = 100000;\n\n    // ================================================ Events ========================================================\n\n    /// @dev Emitted by the `changeMiningAddress` function.\n    /// @param poolId The ID of a pool for which the mining address is changed.\n    /// @param oldMiningAddress An old mining address of the pool.\n    /// @param newMiningAddress A new mining address of the pool.\n    event ChangedMiningAddress(\n        uint256 indexed poolId,\n        address indexed oldMiningAddress,\n        address indexed newMiningAddress\n    );\n\n    /// @dev Emitted by the `changeStakingAddress` function.\n    /// @param poolId The ID of a pool for which the staking address is changed.\n    /// @param oldStakingAddress An old staking address of the pool.\n    /// @param newStakingAddress A new staking address of the pool.\n    event ChangedStakingAddress(\n        uint256 indexed poolId,\n        address indexed oldStakingAddress,\n        address indexed newStakingAddress\n    );\n\n    /// @dev Emitted by the `emitInitiateChange` function when a new validator set\n    /// needs to be applied by validator nodes. See https://openethereum.github.io/Validator-Set.html\n    /// @param parentHash Should be the parent block hash, otherwise the signal won't be recognized.\n    /// @param newSet An array of new validators (their mining addresses).\n    event InitiateChange(bytes32 indexed parentHash, address[] newSet);\n\n    /// @dev Emitted by the `reportMalicious` function to signal that a specified validator reported\n    /// misbehavior by a specified malicious validator at a specified block number.\n    /// @param reportingValidator The mining address of the reporting validator.\n    /// @param maliciousValidator The mining address of the malicious validator.\n    /// @param blockNumber The block number at which the `maliciousValidator` misbehaved.\n    /// @param reportingPoolId The pool id of the reporting validator.\n    /// @param maliciousPoolId The pool id of the malicious validator.\n    event ReportedMalicious(\n        address reportingValidator,\n        address maliciousValidator,\n        uint256 blockNumber,\n        uint256 reportingPoolId,\n        uint256 maliciousPoolId\n    );\n\n    /// @dev Emitted by the `_setPoolMetadata` function when the pool's metadata is changed.\n    /// @param poolId The unique ID of the pool.\n    /// @param name A new name of the pool.\n    /// @param description A new short description of the pool.\n    event SetPoolMetadata(\n        uint256 indexed poolId,\n        string name,\n        string description\n    );\n\n    // ============================================== Modifiers =======================================================\n\n    /// @dev Ensures the `initialize` function was called before.\n    modifier onlyInitialized {\n        require(isInitialized());\n        _;\n    }\n\n    /// @dev Ensures the caller is the BlockRewardAuRa contract address.\n    modifier onlyBlockRewardContract() {\n        require(msg.sender == blockRewardContract);\n        _;\n    }\n\n    /// @dev Ensures the caller is the RandomAuRa contract address.\n    modifier onlyRandomContract() {\n        require(msg.sender == randomContract);\n        _;\n    }\n\n    /// @dev Ensures the caller is the StakingAuRa contract address.\n    modifier onlyStakingContract() {\n        require(msg.sender == address(stakingContract));\n        _;\n    }\n\n    /// @dev Ensures the caller is the SYSTEM_ADDRESS. See https://openethereum.github.io/Validator-Set.html\n    modifier onlySystem() {\n        require(msg.sender == 0xffffFFFfFFffffffffffffffFfFFFfffFFFfFFfE);\n        _;\n    }\n\n    // =============================================== Setters ========================================================\n\n    /// @dev Makes the non-removable validator removable. Can only be called by the staking address of the\n    /// non-removable validator or by the `owner`.\n    function clearUnremovableValidator() external onlyInitialized {\n        require(unremovableValidator != 0);\n        address unremovableStakingAddress = stakingAddressById[unremovableValidator];\n        require(msg.sender == unremovableStakingAddress || msg.sender == _admin());\n        stakingContract.clearUnremovableValidator(unremovableValidator);\n        unremovableValidator = 0;\n        lastChangeBlock = _getCurrentBlockNumber();\n    }\n\n    /// @dev Changes pool's metadata (such as name and short description).\n    /// Can only be called by a pool owner (staking address).\n    /// @param _name A new name of the pool as UTF-8 string.\n    /// @param _description A new short description of the pool as UTF-8 string.\n    function changeMetadata(string calldata _name, string calldata _description) external onlyInitialized {\n        uint256 poolId = idByStakingAddress[msg.sender];\n        require(poolId != 0);\n        _setPoolMetadata(poolId, _name, _description);\n        lastChangeBlock = _getCurrentBlockNumber();\n    }\n\n    /// @dev Makes a request to change validator's mining address or changes the mining address of a candidate pool\n    /// immediately. Will fail if there is already another request. Can be called by pool's staking address.\n    /// If this is called by a validator pool, the function emits `InitiateChange` event,\n    /// so the mining address change is actually applied once the `finalizeChange` function is invoked.\n    /// A validator cannot call this function at the end of a staking epoch during the last\n    /// two randomness collection rounds (see the `RandomAuRa` contract).\n    /// A candidate can call this function at any time.\n    /// @param _newMiningAddress The new mining address to set for the pool\n    /// whose staking address called this function. The new mining address shouldn't be a former\n    /// delegator or a pool (staking address or mining address).\n    function changeMiningAddress(address _newMiningAddress) external onlyInitialized {\n        address stakingAddress = msg.sender;\n        address oldMiningAddress = miningByStakingAddress[stakingAddress];\n        uint256 poolId = idByStakingAddress[stakingAddress];\n        require(_newMiningAddress != address(0));\n        require(oldMiningAddress != address(0));\n        require(oldMiningAddress != _newMiningAddress);\n        require(poolId != 0);\n        require(miningAddressChangeRequest.poolId == 0);\n\n        // Make sure that `_newMiningAddress` has never been a delegator before\n        require(stakingContract.getDelegatorPoolsLength(_newMiningAddress) == 0);\n\n        // Make sure that `_newMiningAddress` has never been a mining address before\n        require(hasEverBeenMiningAddress[_newMiningAddress] == 0);\n\n        // Make sure that `_newMiningAddress` has never been a staking address before\n        require(!hasEverBeenStakingAddress[_newMiningAddress]);\n\n        if (isValidatorById[poolId]) {\n            // Since the pool is a validator at the moment, we cannot change their\n            // mining address immediately. We create a request to change the address instead.\n            // The request will be applied by the `finalizeChange` function once the new\n            // validator set is applied.\n            require(initiateChangeAllowed());\n            require(!_pendingValidatorsChanged);\n\n            // Deny requesting on the latest two randomness collection rounds\n            // to prevend unrevealing due to validator's mining key change.\n            require(_getCurrentBlockNumber() < stakingContract.stakingEpochEndBlock().sub(\n                IRandomAuRa(randomContract).collectRoundLength().mul(2)\n            ));\n\n            address[] memory newSet = getPendingValidators();\n            for (uint256 i = 0; i < newSet.length; i++) {\n                if (newSet[i] == oldMiningAddress) {\n                    newSet[i] = _newMiningAddress;\n                    break;\n                }\n            }\n\n            _finalizeValidators.list = _pendingValidators;\n            miningAddressChangeRequest.poolId = poolId;\n            miningAddressChangeRequest.newMiningAddress = _newMiningAddress;\n\n            IRandomAuRa(randomContract).clearCommit(poolId);\n\n            emit InitiateChange(blockhash(_getCurrentBlockNumber() - 1), newSet);\n        } else {\n            // The pool is not a validator. It is a candidate,\n            // so we can change its mining address right now.\n            _changeMiningAddress(oldMiningAddress, _newMiningAddress, poolId, stakingAddress);\n            lastChangeBlock = _getCurrentBlockNumber();\n        }\n\n        emit ChangedMiningAddress(poolId, oldMiningAddress, _newMiningAddress);\n    }\n\n    /// @dev Changes the staking address of a pool. Will fail if there is already another request\n    /// to change mining address (see `changeMiningAddress` code). Can be called by pool's staking address.\n    /// Can be called at any time during a staking epoch.\n    /// @param _newStakingAddress The new staking address to set for the pool\n    /// whose old staking address called this function. The new staking address shouldn't be a former\n    /// delegator or a pool (staking address or mining address).\n    function changeStakingAddress(address _newStakingAddress) external onlyInitialized {\n        address oldStakingAddress = msg.sender;\n\n        uint256 poolId = idByStakingAddress[oldStakingAddress];\n        require(_newStakingAddress != address(0));\n        require(oldStakingAddress != _newStakingAddress);\n        require(poolId != 0);\n        require(miningAddressChangeRequest.poolId == 0);\n\n        // Make sure that `_newStakingAddress` has never been a delegator before\n        require(stakingContract.getDelegatorPoolsLength(_newStakingAddress) == 0);\n\n        // Make sure that `_newStakingAddress` has never been a mining address before\n        require(hasEverBeenMiningAddress[_newStakingAddress] == 0);\n\n        // Make sure that `_newStakingAddress` has never been a staking address before\n        require(!hasEverBeenStakingAddress[_newStakingAddress]);\n\n        address miningAddress = miningAddressById[poolId];\n\n        idByStakingAddress[oldStakingAddress] = 0;\n        idByStakingAddress[_newStakingAddress] = poolId;\n\n        miningByStakingAddress[oldStakingAddress] = address(0);\n        miningByStakingAddress[_newStakingAddress] = miningAddress;\n\n        stakingAddressById[poolId] = _newStakingAddress;\n        stakingByMiningAddress[miningAddress] = _newStakingAddress;\n        hasEverBeenStakingAddress[_newStakingAddress] = true;\n\n        lastChangeBlock = _getCurrentBlockNumber();\n\n        emit ChangedStakingAddress(poolId, oldStakingAddress, _newStakingAddress);\n    }\n\n    /// @dev Emits the `InitiateChange` event to pass a new validator set to the validator nodes.\n    /// Called automatically by one of the current validator's nodes when the `emitInitiateChangeCallable` getter\n    /// returns `true` (when some validator needs to be removed as malicious or the validator set needs to be\n    /// updated at the beginning of a new staking epoch). The new validator set is passed to the validator nodes\n    /// through the `InitiateChange` event and saved for later use by the `finalizeChange` function.\n    /// See https://openethereum.github.io/Validator-Set.html for more info about the `InitiateChange` event.\n    function emitInitiateChange() external onlyInitialized {\n        require(emitInitiateChangeCallable());\n        bool forNewEpoch = _unsetPendingValidatorsChanged();\n        if (_pendingValidators.length > 0) {\n            emit InitiateChange(blockhash(_getCurrentBlockNumber() - 1), getPendingValidators());\n            _finalizeValidators.list = _pendingValidators;\n            _finalizeValidators.forNewEpoch = forNewEpoch;\n            lastChangeBlock = _getCurrentBlockNumber();\n        }\n    }\n\n    /// @dev Called by the system when an initiated validator set change reaches finality and is activated.\n    /// This function is called at the beginning of a block (before all the block transactions).\n    /// Only valid when msg.sender == SUPER_USER (EIP96, 2**160 - 2). Stores a new validator set saved\n    /// before by the `emitInitiateChange` function and passed through the `InitiateChange` event.\n    /// After this function is called, the `getValidators` getter returns the new validator set.\n    /// If this function finalizes a new validator set formed by the `newValidatorSet` function,\n    /// an old validator set is also stored into the `_previousValidators` array.\n    /// The `finalizeChange` is only called once for each `InitiateChange` event emitted. The next `InitiateChange`\n    /// event is not emitted until the previous one is not yet finalized by the `finalizeChange`\n    /// (see the code of `emitInitiateChangeCallable` getter).\n    /// The function has unlimited gas (according to OpenEthereum and/or Nethermind client code).\n    function finalizeChange() external onlySystem {\n        if (_finalizeValidators.forNewEpoch) {\n            // Apply a new validator set formed by the `newValidatorSet` function\n            _savePreviousValidators();\n            _finalizeNewValidators(true);\n            IBlockRewardAuRa(blockRewardContract).clearBlocksCreated();\n            validatorSetApplyBlock = _getCurrentBlockNumber();\n        } else if (_finalizeValidators.list.length != 0) {\n            // Apply the changed validator set after malicious validator is removed\n            _finalizeNewValidators(false);\n        } else {\n            // This is the very first call of the `finalizeChange` (block #1 when starting from genesis)\n            validatorSetApplyBlock = _getCurrentBlockNumber();\n        }\n\n        _applyMiningAddressChangeRequest();\n\n        delete _finalizeValidators; // since this moment the `emitInitiateChange` is allowed\n        lastChangeBlock = _getCurrentBlockNumber();\n    }\n\n    /// @dev Initializes the network parameters. Used by the\n    /// constructor of the `InitializerAuRa` contract.\n    /// @param _blockRewardContract The address of the `BlockRewardAuRa` contract.\n    /// @param _randomContract The address of the `RandomAuRa` contract.\n    /// @param _stakingContract The address of the `StakingAuRa` contract.\n    /// @param _initialMiningAddresses The array of initial validators' mining addresses.\n    /// @param _initialStakingAddresses The array of initial validators' staking addresses.\n    /// @param _firstValidatorIsUnremovable The boolean flag defining whether the first validator in the\n    /// `_initialMiningAddresses/_initialStakingAddresses` array is non-removable.\n    /// Should be `false` for a production network.\n    function initialize(\n        address _blockRewardContract,\n        address _randomContract,\n        address _stakingContract,\n        address[] calldata _initialMiningAddresses,\n        address[] calldata _initialStakingAddresses,\n        bool _firstValidatorIsUnremovable\n    ) external {\n        require(_getCurrentBlockNumber() == 0 || msg.sender == _admin());\n        require(!isInitialized()); // initialization can only be done once\n        require(_blockRewardContract != address(0));\n        require(_randomContract != address(0));\n        require(_stakingContract != address(0));\n        require(_initialMiningAddresses.length > 0);\n        require(_initialMiningAddresses.length == _initialStakingAddresses.length);\n\n        blockRewardContract = _blockRewardContract;\n        randomContract = _randomContract;\n        stakingContract = IStakingAuRa(_stakingContract);\n        lastChangeBlock = _getCurrentBlockNumber();\n\n        // Add initial validators to the `_currentValidators` array\n        for (uint256 i = 0; i < _initialMiningAddresses.length; i++) {\n            address miningAddress = _initialMiningAddresses[i];\n            address stakingAddress = _initialStakingAddresses[i];\n            uint256 poolId = _addPool(miningAddress, stakingAddress);\n            _currentValidators.push(poolId);\n            _pendingValidators.push(poolId);\n            isValidatorById[poolId] = true;\n            _validatorCounter[poolId]++;\n\n            if (i == 0 && _firstValidatorIsUnremovable) {\n                unremovableValidator = poolId;\n            }\n        }\n    }\n\n    /// @dev Implements the logic which forms a new validator set. If the number of active pools\n    /// is greater than MAX_VALIDATORS, the logic chooses the validators randomly using a random seed generated and\n    /// stored by the `RandomAuRa` contract.\n    /// Automatically called by the `BlockRewardAuRa.reward` function at the latest block of the staking epoch.\n    function newValidatorSet() external onlyBlockRewardContract {\n        uint256[] memory poolsToBeElected = stakingContract.getPoolsToBeElected();\n\n        // Choose new validators\n        if (\n            poolsToBeElected.length >= MAX_VALIDATORS &&\n            (poolsToBeElected.length != MAX_VALIDATORS || unremovableValidator != 0)\n        ) {\n            uint256 randomNumber = IRandomAuRa(randomContract).currentSeed();\n\n            (uint256[] memory likelihood, uint256 likelihoodSum) = stakingContract.getPoolsLikelihood();\n\n            if (likelihood.length > 0 && likelihoodSum > 0) {\n                uint256[] memory newValidators = new uint256[](\n                    unremovableValidator == 0 ? MAX_VALIDATORS : MAX_VALIDATORS - 1\n                );\n\n                uint256 poolsToBeElectedLength = poolsToBeElected.length;\n                for (uint256 i = 0; i < newValidators.length; i++) {\n                    randomNumber = uint256(keccak256(abi.encode(randomNumber)));\n                    uint256 randomPoolIndex = _getRandomIndex(likelihood, likelihoodSum, randomNumber);\n                    newValidators[i] = poolsToBeElected[randomPoolIndex];\n                    likelihoodSum -= likelihood[randomPoolIndex];\n                    poolsToBeElectedLength--;\n                    poolsToBeElected[randomPoolIndex] = poolsToBeElected[poolsToBeElectedLength];\n                    likelihood[randomPoolIndex] = likelihood[poolsToBeElectedLength];\n                }\n\n                _setPendingValidators(newValidators);\n            }\n        } else {\n            _setPendingValidators(poolsToBeElected);\n        }\n\n        // From this moment the `getPendingValidators()` returns the new validator set.\n        // Let the `emitInitiateChange` function know that the validator set is changed and needs\n        // to be passed to the `InitiateChange` event.\n        _setPendingValidatorsChanged(true);\n\n        if (poolsToBeElected.length != 0) {\n            // Remove pools marked as `to be removed`\n            stakingContract.removePools();\n        }\n        stakingContract.incrementStakingEpoch();\n        stakingContract.setStakingEpochStartBlock(_getCurrentBlockNumber() + 1);\n        validatorSetApplyBlock = 0;\n        lastChangeBlock = _getCurrentBlockNumber();\n    }\n\n    /// @dev Removes malicious validators. Called by the `RandomAuRa.onFinishCollectRound` function.\n    /// @param _miningAddresses The mining addresses of the malicious validators.\n    function removeMaliciousValidators(address[] calldata _miningAddresses) external onlyRandomContract {\n        _removeMaliciousValidators(_miningAddresses, \"unrevealed\");\n    }\n\n    /// @dev Reports that the malicious validator misbehaved at the specified block.\n    /// Called by the node of each honest validator after the specified validator misbehaved.\n    /// See https://openethereum.github.io/Validator-Set.html#reporting-contract\n    /// Can only be called when the `reportMaliciousCallable` getter returns `true`.\n    /// @param _maliciousMiningAddress The mining address of the malicious validator.\n    /// @param _blockNumber The block number where the misbehavior was observed.\n    function reportMalicious(\n        address _maliciousMiningAddress,\n        uint256 _blockNumber,\n        bytes calldata\n    ) external onlyInitialized {\n        address reportingMiningAddress = msg.sender;\n        uint256 reportingId = idByMiningAddress[reportingMiningAddress];\n        uint256 maliciousId = hasEverBeenMiningAddress[_maliciousMiningAddress];\n\n        if (isReportValidatorValid(reportingMiningAddress, true)) {\n            _incrementReportingCounter(reportingId);\n        }\n\n        (\n            bool callable,\n            bool removeReportingValidator\n        ) = reportMaliciousCallable(\n            reportingMiningAddress,\n            _maliciousMiningAddress,\n            _blockNumber\n        );\n\n        if (!callable) {\n            if (removeReportingValidator) {\n                // Reporting validator reported too often, so\n                // treat them as a malicious as well\n                address[] memory miningAddresses = new address[](1);\n                miningAddresses[0] = reportingMiningAddress;\n                _removeMaliciousValidators(miningAddresses, \"spam\");\n            }\n            return;\n        }\n\n        uint256[] storage reportedValidators = _maliceReportedForBlock[maliciousId][_blockNumber];\n\n        reportedValidators.push(reportingId);\n        _maliceReportedForBlockMapped[maliciousId][_blockNumber][reportingId] = true;\n\n        emit ReportedMalicious(\n            reportingMiningAddress,\n            _maliciousMiningAddress,\n            _blockNumber,\n            reportingId,\n            maliciousId\n        );\n\n        // If more than 1/2 of validators reported about malicious validator\n        // for the same `blockNumber`\n        if (reportedValidators.length.mul(2) > _currentValidators.length) {\n            address[] memory miningAddresses = new address[](1);\n            miningAddresses[0] = _maliciousMiningAddress;\n            _removeMaliciousValidators(miningAddresses, \"malicious\");\n        }\n    }\n\n    /// @dev Binds a mining address to the specified staking address and vice versa,\n    /// generates a unique ID for the newly created pool, binds it to the mining/staking addresses,\n    /// and returns it as a result.\n    /// Called by the `StakingAuRa.addPool` function when a user wants to become a candidate and creates a pool.\n    /// See also the `miningByStakingAddress`, `stakingByMiningAddress`, `idByMiningAddress`, `idByStakingAddress`,\n    /// `miningAddressById`, `stakingAddressById` public mappings.\n    /// @param _miningAddress The mining address of the newly created pool. Cannot be equal to the `_stakingAddress`\n    /// and should never be used as a pool or delegator before.\n    /// @param _stakingAddress The staking address of the newly created pool. Cannot be equal to the `_miningAddress`\n    /// and should never be used as a pool or delegator before.\n    /// @param _name A name of the pool as UTF-8 string (max length is 256 bytes).\n    /// @param _description A short description of the pool as UTF-8 string (max length is 1024 bytes).\n    function addPool(\n        address _miningAddress,\n        address _stakingAddress,\n        string calldata _name,\n        string calldata _description\n    ) external onlyStakingContract returns(uint256) {\n        uint256 poolId = _addPool(_miningAddress, _stakingAddress);\n        _setPoolMetadata(poolId, _name, _description);\n        return poolId;\n    }\n\n    // =============================================== Getters ========================================================\n\n    /// @dev Returns a boolean flag indicating whether delegators of the specified pool are currently banned.\n    /// A validator pool can be banned when they misbehave (see the `_removeMaliciousValidator` function).\n    /// @param _miningAddress The mining address of the pool.\n    function areDelegatorsBanned(address _miningAddress) public view returns(bool) {\n        return _getCurrentBlockNumber() <= bannedDelegatorsUntil(_miningAddress);\n    }\n\n    /// @dev Returns a boolean flag indicating whether delegators of the specified pool are currently banned.\n    /// A validator pool can be banned when they misbehave (see the `_removeMaliciousValidator` function).\n    /// @param _poolId An id of the pool.\n    function areIdDelegatorsBanned(uint256 _poolId) public view returns(bool) {\n        return _getCurrentBlockNumber() <= _bannedDelegatorsUntil[_poolId];\n    }\n\n    /// @dev Returns how many times a given validator was banned.\n    /// @param _miningAddress The mining address of the validator.\n    function banCounter(address _miningAddress) public view returns(uint256) {\n        return _banCounter[idByMiningAddress[_miningAddress]];\n    }\n\n    /// @dev Returns the block number when the ban will be lifted for the specified mining address.\n    /// @param _miningAddress The mining address of the pool.\n    function bannedUntil(address _miningAddress) public view returns(uint256) {\n        return _bannedUntil[idByMiningAddress[_miningAddress]];\n    }\n\n    /// @dev Returns the block number when the ban will be lifted for delegators\n    /// of the specified pool (mining address).\n    /// @param _miningAddress The mining address of the pool.\n    function bannedDelegatorsUntil(address _miningAddress) public view returns(uint256) {\n        return _bannedDelegatorsUntil[idByMiningAddress[_miningAddress]];\n    }\n\n    /// @dev Returns the reason for the latest ban of the specified mining address. See the `_removeMaliciousValidator`\n    /// internal function description for the list of possible reasons.\n    /// @param _miningAddress The mining address of the pool.\n    function banReason(address _miningAddress) public view returns(bytes32) {\n        return _banReason[idByMiningAddress[_miningAddress]];\n    }\n\n    /// @dev Returns a boolean flag indicating whether the `emitInitiateChange` function can be called\n    /// at the moment. Used by a validator's node and `TxPermission` contract (to deny dummy calling).\n    function emitInitiateChangeCallable() public view returns(bool) {\n        return initiateChangeAllowed() && _pendingValidatorsChanged;\n    }\n\n    /// @dev Returns the current array of validators which should be passed to the `InitiateChange` event.\n    /// The pending array is changed when a validator is removed as malicious\n    /// or the validator set is updated by the `newValidatorSet` function.\n    /// Every time the pending array is changed, it is marked by the `_setPendingValidatorsChanged` and then\n    /// used by the `emitInitiateChange` function which emits the `InitiateChange` event to all\n    /// validator nodes.\n    function getPendingValidators() public view returns(address[] memory) {\n        address[] memory miningAddresses = new address[](_pendingValidators.length);\n        for (uint256 i = 0; i < miningAddresses.length; i++) {\n            miningAddresses[i] = miningAddressById[_pendingValidators[i]];\n        }\n        return miningAddresses;\n    }\n\n    /// @dev Returns the current array of validators (their pool ids).\n    /// The pending array is changed when a validator is removed as malicious\n    /// or the validator set is updated by the `newValidatorSet` function.\n    /// Every time the pending array is changed, it is marked by the `_setPendingValidatorsChanged` and then\n    /// used by the `emitInitiateChange` function which emits the `InitiateChange` event to all\n    /// validator nodes.\n    function getPendingValidatorsIds() public view returns(uint256[] memory) {\n        return _pendingValidators;\n    }\n\n    /// @dev Returns the current validator set (an array of mining addresses)\n    /// which always matches the validator set kept in validator's node.\n    function getValidators() public view returns(address[] memory) {\n        address[] memory miningAddresses = new address[](_currentValidators.length);\n        for (uint256 i = 0; i < miningAddresses.length; i++) {\n            miningAddresses[i] = miningAddressById[_currentValidators[i]];\n        }\n        return miningAddresses;\n    }\n\n    /// @dev Returns the current validator set (an array of pool ids).\n    function getValidatorsIds() public view returns(uint256[] memory) {\n        return _currentValidators;\n    }\n\n    /// @dev A boolean flag indicating whether the `emitInitiateChange` can be called at the moment.\n    /// Used by the `emitInitiateChangeCallable` getter. This flag is set to `false` by the `emitInitiateChange`\n    /// and set to `true` by the `finalizeChange` function. When the `InitiateChange` event is emitted by\n    /// `emitInitiateChange`, the next `emitInitiateChange` call is not possible until the validator set from\n    /// the previous call is finalized by the `finalizeChange` function.\n    function initiateChangeAllowed() public view returns(bool) {\n        return _finalizeValidators.list.length == 0;\n    }\n\n    /// @dev Returns a boolean flag indicating if the `initialize` function has been called.\n    function isInitialized() public view returns(bool) {\n        return blockRewardContract != address(0);\n    }\n\n    /// @dev Returns a boolean flag indicating whether the specified mining address is in the current validator set.\n    /// See also the `getValidators` getter.\n    function isValidator(address _miningAddress) public view returns(bool) {\n        return isValidatorById[idByMiningAddress[_miningAddress]];\n    }\n\n    /// @dev Returns a boolean flag indicating whether the specified validator (mining address)\n    /// is able to call the `reportMalicious` function or whether the specified validator (mining address)\n    /// can be reported as malicious. This function also allows a validator to call the `reportMalicious`\n    /// function several blocks after ceasing to be a validator. This is possible if a\n    /// validator did not have the opportunity to call the `reportMalicious` function prior to the\n    /// engine calling the `finalizeChange` function.\n    /// @param _miningAddress The validator's mining address.\n    /// @param _reportingValidator Set to true if _miningAddress belongs to reporting validator.\n    /// Set to false, if _miningAddress belongs to malicious validator.\n    function isReportValidatorValid(address _miningAddress, bool _reportingValidator) public view returns(bool) {\n        uint256 poolId;\n        if (_reportingValidator) {\n            poolId = idByMiningAddress[_miningAddress];\n        } else {\n            poolId = hasEverBeenMiningAddress[_miningAddress];\n        }\n        bool isValid = isValidatorById[poolId] && !isValidatorIdBanned(poolId);\n        if (stakingContract.stakingEpoch() == 0 || validatorSetApplyBlock == 0) {\n            return isValid;\n        }\n        if (_getCurrentBlockNumber() - validatorSetApplyBlock <= MAX_VALIDATORS) {\n            // The current validator set was finalized by the engine,\n            // but we should let the previous validators finish\n            // reporting malicious validator within a few blocks\n            bool previousValidator = _isValidatorPrevious[poolId] && !isValidatorIdBanned(poolId);\n            return isValid || previousValidator;\n        }\n        return isValid;\n    }\n\n    /// @dev Returns a boolean flag indicating whether the specified mining address is currently banned.\n    /// A validator can be banned when they misbehave (see the `_removeMaliciousValidator` internal function).\n    /// @param _miningAddress The mining address.\n    function isValidatorBanned(address _miningAddress) public view returns(bool) {\n        uint256 bn = bannedUntil(_miningAddress);\n        if (bn == 0) {\n            // Avoid returning `true` for the genesis block\n            return false;\n        }\n        return _getCurrentBlockNumber() <= bn;\n    }\n\n    /// @dev Returns a boolean flag indicating whether the specified pool id is currently banned.\n    /// A validator can be banned when they misbehave (see the `_removeMaliciousValidator` internal function).\n    /// @param _poolId The pool id.\n    function isValidatorIdBanned(uint256 _poolId) public view returns(bool) {\n        uint256 bn = _bannedUntil[_poolId];\n        if (bn == 0) {\n            // Avoid returning `true` for the genesis block\n            return false;\n        }\n        return _getCurrentBlockNumber() <= bn;\n    }\n\n    /// @dev Returns a boolean flag indicating whether the specified pool id is a validator\n    /// or is in the `_pendingValidators` or `_finalizeValidators` array.\n    /// Used by the `StakingAuRa.maxWithdrawAllowed` and `StakingAuRa.maxWithdrawOrderAllowed` getters.\n    /// @param _poolId The pool id.\n    function isValidatorOrPending(uint256 _poolId) public view returns(bool) {\n        if (isValidatorById[_poolId]) {\n            return true;\n        }\n\n        uint256 i;\n        uint256 length;\n\n        length = _finalizeValidators.list.length;\n        for (i = 0; i < length; i++) {\n            if (_poolId == _finalizeValidators.list[i]) {\n                // This validator waits to be finalized,\n                // so we treat them as `pending`\n                return true;\n            }\n        }\n\n        length = _pendingValidators.length;\n        for (i = 0; i < length; i++) {\n            if (_poolId == _pendingValidators[i]) {\n                return true;\n            }\n        }\n\n        return false;\n    }\n\n    /// @dev Returns whether the `reportMalicious` function can be called by the specified validator with the\n    /// given parameters. Used by the `reportMalicious` function and `TxPermission` contract. Also, returns\n    /// a boolean flag indicating whether the reporting validator should be removed as malicious due to\n    /// excessive reporting during the current staking epoch.\n    /// @param _reportingMiningAddress The mining address of the reporting validator which is calling\n    /// the `reportMalicious` function.\n    /// @param _maliciousMiningAddress The mining address of the malicious validator which is passed to\n    /// the `reportMalicious` function.\n    /// @param _blockNumber The block number which is passed to the `reportMalicious` function.\n    /// @return `bool callable` - The boolean flag indicating whether the `reportMalicious` function can be called at\n    /// the moment. `bool removeReportingValidator` - The boolean flag indicating whether the reporting validator\n    /// should be removed as malicious due to excessive reporting. This flag is only used by the `reportMalicious`\n    /// function.\n    function reportMaliciousCallable(\n        address _reportingMiningAddress,\n        address _maliciousMiningAddress,\n        uint256 _blockNumber\n    ) public view returns(bool callable, bool removeReportingValidator) {\n        if (!isReportValidatorValid(_reportingMiningAddress, true)) return (false, false);\n        if (!isReportValidatorValid(_maliciousMiningAddress, false)) return (false, false);\n\n        uint256 reportingId = idByMiningAddress[_reportingMiningAddress];\n        uint256 maliciousId = hasEverBeenMiningAddress[_maliciousMiningAddress];\n        uint256 validatorsNumber = _currentValidators.length;\n\n        if (validatorsNumber > 1) {\n            uint256 currentStakingEpoch = stakingContract.stakingEpoch();\n            uint256 reportsNumber = _reportingCounter[reportingId][currentStakingEpoch];\n            uint256 reportsTotalNumber = _reportingCounterTotal[currentStakingEpoch];\n            uint256 averageReportsNumber = 0;\n\n            if (reportsTotalNumber >= reportsNumber) {\n                averageReportsNumber = (reportsTotalNumber - reportsNumber) / (validatorsNumber - 1);\n            }\n\n            if (reportsNumber > validatorsNumber * 50 && reportsNumber > averageReportsNumber * 10) {\n                return (false, true);\n            }\n        }\n\n        uint256 currentBlock = _getCurrentBlockNumber();\n\n        if (_blockNumber > currentBlock) return (false, false); // avoid reporting about future blocks\n\n        uint256 ancientBlocksLimit = 100;\n        if (currentBlock > ancientBlocksLimit && _blockNumber < currentBlock - ancientBlocksLimit) {\n            return (false, false); // avoid reporting about ancient blocks\n        }\n\n        if (_maliceReportedForBlockMapped[maliciousId][_blockNumber][reportingId]) {\n            // Don't allow reporting validator to report about the same misbehavior more than once\n            return (false, false);\n        }\n\n        return (true, false);\n    }\n\n    /// @dev Only used by Ethereum client (see https://github.com/openethereum/parity-ethereum/pull/11245).\n    /// Returns a boolean flag indicating whether the specified validator\n    /// should report about some validator's misbehaviour at the specified block.\n    /// @param _reportingMiningAddress The mining address of validator who reports.\n    /// @param _maliciousMiningAddress The mining address of malicious validator.\n    /// @param _blockNumber The block number at which the validator misbehaved.\n    function shouldValidatorReport(\n        address _reportingMiningAddress,\n        address _maliciousMiningAddress,\n        uint256 _blockNumber\n    ) public view returns(bool) {\n        uint256 currentBlock = _getCurrentBlockNumber();\n        if (_blockNumber > currentBlock + 1) {\n            // we added +1 in the condition to let validator next to the malicious one correctly report\n            // because that validator will use the previous block state when calling this getter\n            return false;\n        }\n        if (currentBlock > 100 && currentBlock - 100 > _blockNumber) {\n            return false;\n        }\n        uint256 maliciousId = hasEverBeenMiningAddress[_maliciousMiningAddress];\n        if (isValidatorIdBanned(maliciousId)) {\n            // We shouldn't report of the malicious validator\n            // as it has already been reported\n            return false;\n        }\n        uint256 reportingId = idByMiningAddress[_reportingMiningAddress];\n        return !_maliceReportedForBlockMapped[maliciousId][_blockNumber][reportingId];\n    }\n\n    /// @dev Returns how many times the given mining address has become a validator.\n    function validatorCounter(address _miningAddress) public view returns(uint256) {\n        return _validatorCounter[idByMiningAddress[_miningAddress]];\n    }\n\n    /// @dev Returns a validator set about to be finalized by the `finalizeChange` function.\n    /// @param miningAddresses An array set by the `emitInitiateChange` function.\n    /// @param forNewEpoch A boolean flag indicating whether the `miningAddresses` array was formed by the\n    /// `newValidatorSet` function. The `finalizeChange` function logic depends on this flag.\n    function validatorsToBeFinalized() public view returns(address[] memory miningAddresses, bool forNewEpoch) {\n        miningAddresses = new address[](_finalizeValidators.list.length);\n        for (uint256 i = 0; i < miningAddresses.length; i++) {\n            miningAddresses[i] = miningAddressById[_finalizeValidators.list[i]];\n        }\n        return (miningAddresses, _finalizeValidators.forNewEpoch);\n    }\n\n    /// @dev Returns a validator set about to be finalized by the `finalizeChange` function.\n    function validatorsToBeFinalizedIds() public view returns(uint256[] memory) {\n        return _finalizeValidators.list;\n    }\n\n    // ============================================== Internal ========================================================\n\n    /// @dev Called by `finalizeChange` function to apply mining address change\n    /// requested by a validator through `changeMiningAddress` function.\n    function _applyMiningAddressChangeRequest() internal {\n        // If there was a request from a validator to change their mining address\n        uint256 poolId = miningAddressChangeRequest.poolId;\n        if (poolId != 0) {\n            address oldMiningAddress = miningAddressById[poolId];\n            address newMiningAddress = miningAddressChangeRequest.newMiningAddress;\n            address stakingAddress = stakingAddressById[poolId];\n            _changeMiningAddress(oldMiningAddress, newMiningAddress, poolId, stakingAddress);\n        }\n        delete miningAddressChangeRequest;\n    }\n\n    /// @dev Updates mappings to change mining address of a pool.\n    /// Used by the `changeMiningAddress` and `finalizeChange` functions.\n    /// @param _oldMiningAddress An old mining address of the pool.\n    /// @param _newMiningAddress A new mining address of the pool.\n    /// @param _poolId The pool id for which the mining address is being changed.\n    /// @param _stakingAddress The current staking address of the pool.\n    function _changeMiningAddress(\n        address _oldMiningAddress,\n        address _newMiningAddress,\n        uint256 _poolId,\n        address _stakingAddress\n    ) internal {\n        idByMiningAddress[_oldMiningAddress] = 0;\n        idByMiningAddress[_newMiningAddress] = _poolId;\n\n        miningAddressById[_poolId] = _newMiningAddress;\n        miningByStakingAddress[_stakingAddress] = _newMiningAddress;\n\n        stakingByMiningAddress[_oldMiningAddress] = address(0);\n        stakingByMiningAddress[_newMiningAddress] = _stakingAddress;\n\n        hasEverBeenMiningAddress[_newMiningAddress] = _poolId;\n    }\n\n    /// @dev Updates the total reporting counter (see the `_reportingCounterTotal` mapping) for the current\n    /// staking epoch after the specified validator is removed as malicious. The `reportMaliciousCallable` getter\n    /// uses this counter for reporting checks so it must be up-to-date. Called by the `_removeMaliciousValidators`\n    /// internal function.\n    /// @param _miningAddress The mining address of the removed malicious validator.\n    function _clearReportingCounter(address _miningAddress) internal {\n        uint256 poolId = hasEverBeenMiningAddress[_miningAddress];\n        uint256 currentStakingEpoch = stakingContract.stakingEpoch();\n        uint256 total = _reportingCounterTotal[currentStakingEpoch];\n        uint256 counter = _reportingCounter[poolId][currentStakingEpoch];\n\n        _reportingCounter[poolId][currentStakingEpoch] = 0;\n\n        if (total >= counter) {\n            _reportingCounterTotal[currentStakingEpoch] -= counter;\n        } else {\n            _reportingCounterTotal[currentStakingEpoch] = 0;\n        }\n    }\n\n    /// @dev Sets a new validator set stored in `_finalizeValidators.list` array.\n    /// Called by the `finalizeChange` function.\n    /// @param _newStakingEpoch A boolean flag defining whether the validator set was formed by the\n    /// `newValidatorSet` function.\n    function _finalizeNewValidators(bool _newStakingEpoch) internal {\n        uint256[] memory validators;\n        uint256 i;\n\n        validators = _currentValidators;\n        for (i = 0; i < validators.length; i++) {\n            isValidatorById[validators[i]] = false;\n        }\n\n        _currentValidators = _finalizeValidators.list;\n\n        validators = _currentValidators;\n        for (i = 0; i < validators.length; i++) {\n            uint256 poolId = validators[i];\n            isValidatorById[poolId] = true;\n            if (_newStakingEpoch) {\n                _validatorCounter[poolId]++;\n            }\n        }\n    }\n\n    /// @dev Marks the pending validator set as changed to be used later by the `emitInitiateChange` function.\n    /// Called when a validator is removed from the set as malicious or when a new validator set is formed by\n    /// the `newValidatorSet` function.\n    /// @param _newStakingEpoch A boolean flag defining whether the pending validator set was formed by the\n    /// `newValidatorSet` function. The `finalizeChange` function logic depends on this flag.\n    function _setPendingValidatorsChanged(bool _newStakingEpoch) internal {\n        _pendingValidatorsChanged = true;\n        if (_newStakingEpoch && _pendingValidators.length != 0) {\n            _pendingValidatorsChangedForNewEpoch = true;\n        }\n        changeRequestCount++;\n    }\n\n    /// @dev Marks the pending validator set as unchanged before passing it to the `InitiateChange` event\n    /// (and then to the `finalizeChange` function). Called by the `emitInitiateChange` function.\n    function _unsetPendingValidatorsChanged() internal returns(bool) {\n        bool forNewEpoch = _pendingValidatorsChangedForNewEpoch;\n        _pendingValidatorsChanged = false;\n        _pendingValidatorsChangedForNewEpoch = false;\n        return forNewEpoch;\n    }\n\n    /// @dev Sets pool metadata (such as name and short description).\n    /// @param _poolId The unique ID of the pool.\n    /// @param _name A name of the pool as UTF-8 string (256 bytes max).\n    /// @param _description A short description of the pool as UTF-8 string (1024 bytes max).\n    function _setPoolMetadata(uint256 _poolId, string memory _name, string memory _description) internal {\n        require(bytes(_name).length <= 256);\n        require(bytes(_description).length <= 1024);\n        poolName[_poolId] = _name;\n        poolDescription[_poolId] = _description;\n        emit SetPoolMetadata(_poolId, _name, _description);\n    }\n\n    /// @dev Increments the reporting counter for the specified validator and the current staking epoch.\n    /// See the `_reportingCounter` and `_reportingCounterTotal` mappings. Called by the `reportMalicious`\n    /// function when the validator reports a misbehavior.\n    /// @param _reportingId The pool id of reporting validator.\n    function _incrementReportingCounter(uint256 _reportingId) internal {\n        uint256 currentStakingEpoch = stakingContract.stakingEpoch();\n        _reportingCounter[_reportingId][currentStakingEpoch]++;\n        _reportingCounterTotal[currentStakingEpoch]++;\n    }\n\n    /// @dev Removes the specified validator as malicious. Used by the `_removeMaliciousValidators` internal function.\n    /// @param _miningAddress The removed validator mining address.\n    /// @param _reason A short string of the reason why the mining address is treated as malicious:\n    /// \"unrevealed\" - the validator didn't reveal their number at the end of staking epoch or skipped\n    /// too many reveals during the staking epoch;\n    /// \"spam\" - the validator made a lot of `reportMalicious` callings compared with other validators;\n    /// \"malicious\" - the validator was reported as malicious by other validators with the `reportMalicious` function.\n    /// @return Returns `true` if the specified validator has been removed from the pending validator set.\n    /// Otherwise returns `false` (if the specified validator has already been removed or cannot be removed).\n    function _removeMaliciousValidator(address _miningAddress, bytes32 _reason) internal returns(bool) {\n        uint256 poolId = hasEverBeenMiningAddress[_miningAddress];\n\n        if (poolId == unremovableValidator) {\n            return false;\n        }\n\n        bool isBanned = isValidatorIdBanned(poolId);\n\n        // Ban the malicious validator for the next 3 months\n        _banCounter[poolId]++;\n        _bannedUntil[poolId] = _banUntil();\n        _banReason[poolId] = _reason;\n\n        if (isBanned) {\n            // The validator is already banned\n            return false;\n        } else {\n            _bannedDelegatorsUntil[poolId] = _banUntil();\n        }\n\n        // Remove malicious validator from the `pools`\n        stakingContract.removePool(poolId);\n\n        uint256 length = _pendingValidators.length;\n\n        if (length == 1) {\n            // If the removed validator is one and only in the validator set, don't let remove them\n            return false;\n        }\n\n        for (uint256 i = 0; i < length; i++) {\n            if (_pendingValidators[i] == poolId) {\n                // Remove the malicious validator from `_pendingValidators`\n                _pendingValidators[i] = _pendingValidators[length - 1];\n                _pendingValidators.length--;\n                return true;\n            }\n        }\n\n        return false;\n    }\n\n    /// @dev Removes the specified validators as malicious from the pending validator set and marks the updated\n    /// pending validator set as `changed` to be used by the `emitInitiateChange` function. Does nothing if\n    /// the specified validators are already banned, non-removable, or don't exist in the pending validator set.\n    /// @param _miningAddresses The mining addresses of the malicious validators.\n    /// @param _reason A short string of the reason why the mining addresses are treated as malicious,\n    /// see the `_removeMaliciousValidator` internal function description for possible values.\n    function _removeMaliciousValidators(address[] memory _miningAddresses, bytes32 _reason) internal {\n        // Temporarily turned off as all validators known\n        /*\n        bool removed = false;\n\n        for (uint256 i = 0; i < _miningAddresses.length; i++) {\n            if (_removeMaliciousValidator(_miningAddresses[i], _reason)) {\n                // From this moment `getPendingValidators()` returns the new validator set\n                _clearReportingCounter(_miningAddresses[i]);\n                removed = true;\n            }\n        }\n\n        if (removed) {\n            _setPendingValidatorsChanged(false);\n        }\n        */\n\n        lastChangeBlock = _getCurrentBlockNumber();\n    }\n\n    /// @dev Stores previous validators. Used by the `finalizeChange` function.\n    function _savePreviousValidators() internal {\n        uint256 length;\n        uint256 i;\n\n        // Save the previous validator set\n        length = _previousValidators.length;\n        for (i = 0; i < length; i++) {\n            _isValidatorPrevious[_previousValidators[i]] = false;\n        }\n        length = _currentValidators.length;\n        for (i = 0; i < length; i++) {\n            _isValidatorPrevious[_currentValidators[i]] = true;\n        }\n        _previousValidators = _currentValidators;\n    }\n\n    /// @dev Sets a new validator set as a pending (which is not yet passed to the `InitiateChange` event).\n    /// Called by the `newValidatorSet` function.\n    /// @param _poolIds The array of the new validators' pool ids.\n    function _setPendingValidators(\n        uint256[] memory _poolIds\n    ) internal {\n        if (_poolIds.length == 0) {\n            // If there are no `poolsToBeElected`, we remove the\n            // validators which want to exit from the validator set\n            for (uint256 i = 0; i < _pendingValidators.length; i++) {\n                uint256 pendingValidatorId = _pendingValidators[i];\n                if (pendingValidatorId == unremovableValidator) {\n                    continue; // don't touch unremovable validator\n                }\n                if (\n                    stakingContract.isPoolActive(pendingValidatorId) &&\n                    stakingContract.orderedWithdrawAmount(pendingValidatorId, address(0)) == 0\n                ) {\n                    // The validator has an active pool and is not going to withdraw their\n                    // entire stake, so this validator doesn't want to exit from the validator set\n                    continue;\n                }\n                if (_pendingValidators.length == 1) {\n                    break; // don't remove one and only validator\n                }\n                // Remove the validator\n                _pendingValidators[i] = _pendingValidators[_pendingValidators.length - 1];\n                _pendingValidators.length--;\n                i--;\n            }\n        } else {\n            // If there are some `poolsToBeElected`, we remove all\n            // validators which are not in the `poolsToBeElected` or\n            // not selected by randomness\n            delete _pendingValidators;\n\n            if (unremovableValidator != 0) {\n                // Keep unremovable validator\n                _pendingValidators.push(unremovableValidator);\n            }\n\n            for (uint256 i = 0; i < _poolIds.length; i++) {\n                _pendingValidators.push(_poolIds[i]);\n            }\n        }\n    }\n\n    /// @dev Binds a mining address to the specified staking address and vice versa,\n    /// generates a unique ID for the newly created pool, binds it to the mining/staking addresses, and\n    /// returns it as a result.\n    /// Used by the `addPool` function. See also the `miningByStakingAddress`, `stakingByMiningAddress`,\n    /// `idByMiningAddress`, `idByStakingAddress`, `miningAddressById`, `stakingAddressById` public mappings.\n    /// @param _miningAddress The mining address of the newly created pool. Cannot be equal to the `_stakingAddress`\n    /// and should never be used as a pool or delegator before.\n    /// @param _stakingAddress The staking address of the newly created pool. Cannot be equal to the `_miningAddress`\n    /// and should never be used as a pool or delegator before.\n    function _addPool(address _miningAddress, address _stakingAddress) internal returns(uint256) {\n        require(miningAddressChangeRequest.poolId == 0);\n        require(_miningAddress != address(0));\n        require(_stakingAddress != address(0));\n        require(_miningAddress != _stakingAddress);\n        require(miningByStakingAddress[_stakingAddress] == address(0));\n        require(miningByStakingAddress[_miningAddress] == address(0));\n        require(stakingByMiningAddress[_stakingAddress] == address(0));\n        require(stakingByMiningAddress[_miningAddress] == address(0));\n\n        // Make sure that `_miningAddress` and `_stakingAddress` have never been a delegator before\n        require(stakingContract.getDelegatorPoolsLength(_miningAddress) == 0);\n        require(stakingContract.getDelegatorPoolsLength(_stakingAddress) == 0);\n\n        // Make sure that `_miningAddress` and `_stakingAddress` have never been a mining address before\n        require(hasEverBeenMiningAddress[_miningAddress] == 0);\n        require(hasEverBeenMiningAddress[_stakingAddress] == 0);\n\n        // Make sure that `_miningAddress` and `_stakingAddress` have never been a staking address before\n        require(!hasEverBeenStakingAddress[_miningAddress]);\n        require(!hasEverBeenStakingAddress[_stakingAddress]);\n\n        uint256 poolId = ++lastPoolId;\n\n        idByMiningAddress[_miningAddress] = poolId;\n        idByStakingAddress[_stakingAddress] = poolId;\n        miningAddressById[poolId] = _miningAddress;\n        miningByStakingAddress[_stakingAddress] = _miningAddress;\n        stakingAddressById[poolId] = _stakingAddress;\n        stakingByMiningAddress[_miningAddress] = _stakingAddress;\n\n        hasEverBeenMiningAddress[_miningAddress] = poolId;\n        hasEverBeenStakingAddress[_stakingAddress] = true;\n\n        return poolId;\n    }\n\n    /// @dev Returns the future block number until which a validator is banned.\n    /// Used by the `_removeMaliciousValidator` internal function.\n    function _banUntil() internal view returns(uint256) {\n        uint256 blocksUntilEnd = stakingContract.stakingEpochEndBlock() - _getCurrentBlockNumber();\n        // ~90 days, at least 12 full staking epochs (for 5 seconds block)\n        return _getCurrentBlockNumber() + 12 * stakingContract.stakingEpochDuration() + blocksUntilEnd;\n    }\n\n    /// @dev Returns the current block number. Needed mostly for unit tests.\n    function _getCurrentBlockNumber() internal view returns(uint256) {\n        return block.number;\n    }\n\n    /// @dev Returns an index of a pool in the `poolsToBeElected` array\n    /// (see the `StakingAuRa.getPoolsToBeElected` public getter)\n    /// by a random number and the corresponding probability coefficients.\n    /// Used by the `newValidatorSet` function.\n    /// @param _likelihood An array of probability coefficients.\n    /// @param _likelihoodSum A sum of probability coefficients.\n    /// @param _randomNumber A random number.\n    function _getRandomIndex(uint256[] memory _likelihood, uint256 _likelihoodSum, uint256 _randomNumber)\n        internal\n        pure\n        returns(uint256)\n    {\n        uint256 random = _randomNumber % _likelihoodSum;\n        uint256 sum = 0;\n        uint256 index = 0;\n        while (sum <= random) {\n            sum += _likelihood[index];\n            index++;\n        }\n        return index - 1;\n    }\n}\n",
  "sourcePath": "/Users/akshaypatil/Documents/etherlite/pos-contracts/posdao-etherlite/contracts/ValidatorSetAuRa.sol",
  "compiler": {
    "name": "solc",
    "version": "0.5.10+commit.5a6ea5b1.Emscripten.clang"
  },
  "schemaVersion": "3.3.1",
  "updatedAt": "2021-04-11T17:55:35.949Z",
  "devdoc": {
    "details": "Stores the current validator set and contains the logic for choosing new validators before each staking epoch. The logic uses a random seed generated and stored by the `RandomAuRa` contract.",
    "methods": {
      "addPool(address,address,string,string)": {
        "details": "Binds a mining address to the specified staking address and vice versa, generates a unique ID for the newly created pool, binds it to the mining/staking addresses, and returns it as a result. Called by the `StakingAuRa.addPool` function when a user wants to become a candidate and creates a pool. See also the `miningByStakingAddress`, `stakingByMiningAddress`, `idByMiningAddress`, `idByStakingAddress`, `miningAddressById`, `stakingAddressById` public mappings.",
        "params": {
          "_description": "A short description of the pool as UTF-8 string (max length is 1024 bytes).",
          "_miningAddress": "The mining address of the newly created pool. Cannot be equal to the `_stakingAddress` and should never be used as a pool or delegator before.",
          "_name": "A name of the pool as UTF-8 string (max length is 256 bytes).",
          "_stakingAddress": "The staking address of the newly created pool. Cannot be equal to the `_miningAddress` and should never be used as a pool or delegator before."
        }
      },
      "areDelegatorsBanned(address)": {
        "details": "Returns a boolean flag indicating whether delegators of the specified pool are currently banned. A validator pool can be banned when they misbehave (see the `_removeMaliciousValidator` function).",
        "params": {
          "_miningAddress": "The mining address of the pool."
        }
      },
      "areIdDelegatorsBanned(uint256)": {
        "details": "Returns a boolean flag indicating whether delegators of the specified pool are currently banned. A validator pool can be banned when they misbehave (see the `_removeMaliciousValidator` function).",
        "params": {
          "_poolId": "An id of the pool."
        }
      },
      "banCounter(address)": {
        "details": "Returns how many times a given validator was banned.",
        "params": {
          "_miningAddress": "The mining address of the validator."
        }
      },
      "banReason(address)": {
        "details": "Returns the reason for the latest ban of the specified mining address. See the `_removeMaliciousValidator` internal function description for the list of possible reasons.",
        "params": {
          "_miningAddress": "The mining address of the pool."
        }
      },
      "bannedDelegatorsUntil(address)": {
        "details": "Returns the block number when the ban will be lifted for delegators of the specified pool (mining address).",
        "params": {
          "_miningAddress": "The mining address of the pool."
        }
      },
      "bannedUntil(address)": {
        "details": "Returns the block number when the ban will be lifted for the specified mining address.",
        "params": {
          "_miningAddress": "The mining address of the pool."
        }
      },
      "changeMetadata(string,string)": {
        "details": "Changes pool's metadata (such as name and short description). Can only be called by a pool owner (staking address).",
        "params": {
          "_description": "A new short description of the pool as UTF-8 string.",
          "_name": "A new name of the pool as UTF-8 string."
        }
      },
      "changeMiningAddress(address)": {
        "details": "Makes a request to change validator's mining address or changes the mining address of a candidate pool immediately. Will fail if there is already another request. Can be called by pool's staking address. If this is called by a validator pool, the function emits `InitiateChange` event, so the mining address change is actually applied once the `finalizeChange` function is invoked. A validator cannot call this function at the end of a staking epoch during the last two randomness collection rounds (see the `RandomAuRa` contract). A candidate can call this function at any time.",
        "params": {
          "_newMiningAddress": "The new mining address to set for the pool whose staking address called this function. The new mining address shouldn't be a former delegator or a pool (staking address or mining address)."
        }
      },
      "changeStakingAddress(address)": {
        "details": "Changes the staking address of a pool. Will fail if there is already another request to change mining address (see `changeMiningAddress` code). Can be called by pool's staking address. Can be called at any time during a staking epoch.",
        "params": {
          "_newStakingAddress": "The new staking address to set for the pool whose old staking address called this function. The new staking address shouldn't be a former delegator or a pool (staking address or mining address)."
        }
      },
      "clearUnremovableValidator()": {
        "details": "Makes the non-removable validator removable. Can only be called by the staking address of the non-removable validator or by the `owner`."
      },
      "emitInitiateChange()": {
        "details": "Emits the `InitiateChange` event to pass a new validator set to the validator nodes. Called automatically by one of the current validator's nodes when the `emitInitiateChangeCallable` getter returns `true` (when some validator needs to be removed as malicious or the validator set needs to be updated at the beginning of a new staking epoch). The new validator set is passed to the validator nodes through the `InitiateChange` event and saved for later use by the `finalizeChange` function. See https://openethereum.github.io/Validator-Set.html for more info about the `InitiateChange` event."
      },
      "emitInitiateChangeCallable()": {
        "details": "Returns a boolean flag indicating whether the `emitInitiateChange` function can be called at the moment. Used by a validator's node and `TxPermission` contract (to deny dummy calling)."
      },
      "finalizeChange()": {
        "details": "Called by the system when an initiated validator set change reaches finality and is activated. This function is called at the beginning of a block (before all the block transactions). Only valid when msg.sender == SUPER_USER (EIP96, 2**160 - 2). Stores a new validator set saved before by the `emitInitiateChange` function and passed through the `InitiateChange` event. After this function is called, the `getValidators` getter returns the new validator set. If this function finalizes a new validator set formed by the `newValidatorSet` function, an old validator set is also stored into the `_previousValidators` array. The `finalizeChange` is only called once for each `InitiateChange` event emitted. The next `InitiateChange` event is not emitted until the previous one is not yet finalized by the `finalizeChange` (see the code of `emitInitiateChangeCallable` getter). The function has unlimited gas (according to OpenEthereum and/or Nethermind client code)."
      },
      "getPendingValidators()": {
        "details": "Returns the current array of validators which should be passed to the `InitiateChange` event. The pending array is changed when a validator is removed as malicious or the validator set is updated by the `newValidatorSet` function. Every time the pending array is changed, it is marked by the `_setPendingValidatorsChanged` and then used by the `emitInitiateChange` function which emits the `InitiateChange` event to all validator nodes."
      },
      "getPendingValidatorsIds()": {
        "details": "Returns the current array of validators (their pool ids). The pending array is changed when a validator is removed as malicious or the validator set is updated by the `newValidatorSet` function. Every time the pending array is changed, it is marked by the `_setPendingValidatorsChanged` and then used by the `emitInitiateChange` function which emits the `InitiateChange` event to all validator nodes."
      },
      "getValidators()": {
        "details": "Returns the current validator set (an array of mining addresses) which always matches the validator set kept in validator's node."
      },
      "getValidatorsIds()": {
        "details": "Returns the current validator set (an array of pool ids)."
      },
      "initialize(address,address,address,address[],address[],bool)": {
        "details": "Initializes the network parameters. Used by the constructor of the `InitializerAuRa` contract.",
        "params": {
          "_blockRewardContract": "The address of the `BlockRewardAuRa` contract.",
          "_firstValidatorIsUnremovable": "The boolean flag defining whether the first validator in the `_initialMiningAddresses/_initialStakingAddresses` array is non-removable. Should be `false` for a production network.",
          "_initialMiningAddresses": "The array of initial validators' mining addresses.",
          "_initialStakingAddresses": "The array of initial validators' staking addresses.",
          "_randomContract": "The address of the `RandomAuRa` contract.",
          "_stakingContract": "The address of the `StakingAuRa` contract."
        }
      },
      "initiateChangeAllowed()": {
        "details": "A boolean flag indicating whether the `emitInitiateChange` can be called at the moment. Used by the `emitInitiateChangeCallable` getter. This flag is set to `false` by the `emitInitiateChange` and set to `true` by the `finalizeChange` function. When the `InitiateChange` event is emitted by `emitInitiateChange`, the next `emitInitiateChange` call is not possible until the validator set from the previous call is finalized by the `finalizeChange` function."
      },
      "isInitialized()": {
        "details": "Returns a boolean flag indicating if the `initialize` function has been called."
      },
      "isReportValidatorValid(address,bool)": {
        "details": "Returns a boolean flag indicating whether the specified validator (mining address) is able to call the `reportMalicious` function or whether the specified validator (mining address) can be reported as malicious. This function also allows a validator to call the `reportMalicious` function several blocks after ceasing to be a validator. This is possible if a validator did not have the opportunity to call the `reportMalicious` function prior to the engine calling the `finalizeChange` function.",
        "params": {
          "_miningAddress": "The validator's mining address.",
          "_reportingValidator": "Set to true if _miningAddress belongs to reporting validator. Set to false, if _miningAddress belongs to malicious validator."
        }
      },
      "isValidator(address)": {
        "details": "Returns a boolean flag indicating whether the specified mining address is in the current validator set. See also the `getValidators` getter."
      },
      "isValidatorBanned(address)": {
        "details": "Returns a boolean flag indicating whether the specified mining address is currently banned. A validator can be banned when they misbehave (see the `_removeMaliciousValidator` internal function).",
        "params": {
          "_miningAddress": "The mining address."
        }
      },
      "isValidatorIdBanned(uint256)": {
        "details": "Returns a boolean flag indicating whether the specified pool id is currently banned. A validator can be banned when they misbehave (see the `_removeMaliciousValidator` internal function).",
        "params": {
          "_poolId": "The pool id."
        }
      },
      "isValidatorOrPending(uint256)": {
        "details": "Returns a boolean flag indicating whether the specified pool id is a validator or is in the `_pendingValidators` or `_finalizeValidators` array. Used by the `StakingAuRa.maxWithdrawAllowed` and `StakingAuRa.maxWithdrawOrderAllowed` getters.",
        "params": {
          "_poolId": "The pool id."
        }
      },
      "newValidatorSet()": {
        "details": "Implements the logic which forms a new validator set. If the number of active pools is greater than MAX_VALIDATORS, the logic chooses the validators randomly using a random seed generated and stored by the `RandomAuRa` contract. Automatically called by the `BlockRewardAuRa.reward` function at the latest block of the staking epoch."
      },
      "removeMaliciousValidators(address[])": {
        "details": "Removes malicious validators. Called by the `RandomAuRa.onFinishCollectRound` function.",
        "params": {
          "_miningAddresses": "The mining addresses of the malicious validators."
        }
      },
      "reportMalicious(address,uint256,bytes)": {
        "details": "Reports that the malicious validator misbehaved at the specified block. Called by the node of each honest validator after the specified validator misbehaved. See https://openethereum.github.io/Validator-Set.html#reporting-contract Can only be called when the `reportMaliciousCallable` getter returns `true`.",
        "params": {
          "_blockNumber": "The block number where the misbehavior was observed.",
          "_maliciousMiningAddress": "The mining address of the malicious validator."
        }
      },
      "reportMaliciousCallable(address,address,uint256)": {
        "details": "Returns whether the `reportMalicious` function can be called by the specified validator with the given parameters. Used by the `reportMalicious` function and `TxPermission` contract. Also, returns a boolean flag indicating whether the reporting validator should be removed as malicious due to excessive reporting during the current staking epoch.",
        "params": {
          "_blockNumber": "The block number which is passed to the `reportMalicious` function.",
          "_maliciousMiningAddress": "The mining address of the malicious validator which is passed to the `reportMalicious` function.",
          "_reportingMiningAddress": "The mining address of the reporting validator which is calling the `reportMalicious` function."
        },
        "return": "`bool callable` - The boolean flag indicating whether the `reportMalicious` function can be called at the moment. `bool removeReportingValidator` - The boolean flag indicating whether the reporting validator should be removed as malicious due to excessive reporting. This flag is only used by the `reportMalicious` function."
      },
      "shouldValidatorReport(address,address,uint256)": {
        "details": "Only used by Ethereum client (see https://github.com/openethereum/parity-ethereum/pull/11245). Returns a boolean flag indicating whether the specified validator should report about some validator's misbehaviour at the specified block.",
        "params": {
          "_blockNumber": "The block number at which the validator misbehaved.",
          "_maliciousMiningAddress": "The mining address of malicious validator.",
          "_reportingMiningAddress": "The mining address of validator who reports."
        }
      },
      "validatorCounter(address)": {
        "details": "Returns how many times the given mining address has become a validator."
      },
      "validatorsToBeFinalized()": {
        "details": "Returns a validator set about to be finalized by the `finalizeChange` function.",
        "params": {
          "forNewEpoch": "A boolean flag indicating whether the `miningAddresses` array was formed by the `newValidatorSet` function. The `finalizeChange` function logic depends on this flag.",
          "miningAddresses": "An array set by the `emitInitiateChange` function."
        }
      },
      "validatorsToBeFinalizedIds()": {
        "details": "Returns a validator set about to be finalized by the `finalizeChange` function."
      }
    }
  },
  "userdoc": {
    "methods": {}
  }
}